:020000040800F2
:10000000A80D0020F902000841790008397900089C
:100010003D7900089D070008D1A3000800000000FA
:100020000000000000000000000000001988000827
:10003000612E000800000000898200087D8C000805
:100040001503000815030008150300080000000050
:100050001503000815030008150300080000000040
:100060001503000815030008000000001503000830
:100070001503000815030008150300081503000800
:1000800015030008150300081503000815030008F0
:1000900015030008150300081503000815030008E0
:1000A000150300081503000815030008052F0008B4
:1000B00015030008150300081503000815030008C0
:1000C0001503000815030008112F00081503000888
:1000D00000000000150300081503000815030008C0
:1000E0001503000815030008150300081503000890
:1000F00015030008298D0008358D00080000000058
:10010000000000001503000815030008150300088F
:10011000150300081503000815030008150300085F
:100120001503000815030008B9A30008C5A30008BB
:10013000150300080000000000000000150300087F
:10014000150300080000000000000000000000008F
:10015000000000000000000015030008000000007F
:10016000000000000000000015030008150300084F
:10017000000000000000000000000000000000007F
:10018000000000000000000000000000000000006F
:10019000000000000000000000000000000000005F
:1001A000000000000000000015030008150300080F
:1001B00015030008150300081503000815030008BF
:1001C00015030008150300080000000000000000EF
:1001D00000000000000000000000000015030008FF
:1001E00015030008000000000000000000000000EF
:1001F00000000000000000000000000000000000FF
:1002000000000000150300081503000800000000AE
:1002100000000000150300080000000000000000BE
:1002200000000000000000000000000015030008AE
:10023000150300080000000000000000000000009E
:10024000000000000000000000000000150300088E
:10025000150300081503000800F002F800F03CF850
:100260000AA090E8000C82448344AAF10107DA4511
:1002700001D100F031F8AFF2090EBAE80F0013F027
:10028000010F18BFFB1A43F00103184710C6000006
:1002900030C60000103A24BF78C878C1FAD8520797
:1002A00024BF30C830C144BF04680C6070470000F0
:1002B0000023002400250026103A28BF78C1FBD86F
:1002C000520728BF30C148BF0B6070471FB50CF004
:1002D000B6F91FBD10B510BD00F064F91146FFF767
:1002E000F5FF0AF08BFA00F082F903B4FFF7F2FF92
:1002F00003BC00F085F900000A4880470A4800471F
:10030000FEE7FEE7FEE7FEE7FEE7FEE7FEE7FEE7C5
:10031000FEE7FEE7FEE7000004480549054A064BF4
:1003200070470000818C000859020008A8070020CF
:10033000A80D0020A8090020A809002053EA020CFB
:1003400000F069802DE9F04B4FF00006002B1FBF35
:10035000B3FA83F503FA05F424FA05F65E4012BFFA
:100360001643B2FA82F502FA05F4C5F120051EBF64
:1003700022FA05FC44EA0C04203556EA044C4FEA04
:10038000144418BF641C4FF000084FF0000990425D
:1003900071EB030C39D3002919BFB1FA81F701FAC7
:1003A00007F6B0FA80F700FA07F6C7F120071EBF7C
:1003B00020FA07FC46EA0C062037B6FBF4FCA7EB54
:1003C0000507103F07F01F0BCBF120062CFA06F6AD
:1003D0000CFA0BFB44BFB3460026202FA4BF5E4699
:1003E0004FF0000B5BEA060C08BF4FF0010B19EB56
:1003F0000B0948EB0608ABFB027C06FB02CC0BFBAF
:1004000003CCC01B71EB0C01C1E70B460246414611
:100410004846BDE8F08B13B5084318BF4FF0FF30D6
:100420000146AFF30080BDE81C407047032A40F24C
:10043000308010F0030C00F0158011F8013BBCF186
:10044000020F624498BF11F801CB00F8013B38BF9E
:1004500011F8013BA2F1040298BF00F801CB38BFAC
:1004600000F8013B11F0030300F06280083AC0F08D
:10047000088051F8043B083A51F804CBA0E8081072
:10048000F5E7121D5CBF51F8043B40F8043BAFF3A5
:100490000080D20724BF11F8013B11F801CB48BFFF
:1004A00011F8012B24BF00F8013B00F801CB48BF35
:1004B00000F8012B704702F0FF0343EA032242EAEF
:1004C000024200F002B84FF0000200B51346944615
:1004D0009646203922BFA0E80C50A0E80C50B1F19C
:1004E0002001BFF4F7AF090728BFA0E80C5048BFB0
:1004F0000CC05DF804EB890028BF40F8042B08BF4E
:10050000704748BF20F8022B11F0804F18BF00F849
:10051000012B704770477047704710B500F03AF8EC
:10052000006810BD10B5044600F034F8046010BD3A
:1005300010B5203AC0F00B80B1E81850A0E8185070
:10054000B1E81850A0E81850203ABFF4F5AF5FEAC0
:10055000027C24BFB1E81850A0E8185044BF18C965
:1005600018C0BDE810405FEA827C24BF51F8043B0C
:1005700040F8043B08BF7047D20728BF31F8023B60
:1005800048BF11F8012B28BF20F8023B48BF00F8F4
:10059000012B704700487047480000200048704712
:1005A000480000207546FFF7F9FFAE460500694692
:1005B000534620F00700854618B020B5FFF7ACFE83
:1005C000BDE820404FF000064FF000074FF0000854
:1005D0004FF0000BAC46ACE8C009ACE8C009ACE891
:1005E000C009ACE8C00921F007018D46704710B57D
:1005F0000446AFF300802046BDE81040FFF775BE0B
:1006000001491820ABBEFEE726000200704700003B
:100610000146C06D836D826D13F0500F07D0D20676
:1006200048BF02F06FBE006D826E0846104742F46C
:100630000071816501680B68CA681B0710D49107B7
:100640000CD4816D21F480718165816DC90448BF2E
:1006500002F054BE816D41F00101816502F04EBE91
:1006600012F4406FFAD1C9688904F7D4816D21F47E
:1006700080718165816DC904F0D4816D41F0010103
:10068000816502F03BBE0000C06D816D41F040010C
:100690008165C16D41F00401C16502F033BE000007
:1006A000C06D02F02DBE000070B582B0044600207F
:1006B000019021688A68D20740D14FF6C076C7F60C
:1006C000FF76886806F17F0210420AD0A06D40F0E4
:1006D0001000A065E06D40F00100E065012002B06F
:1006E00070BD8868304040F00100886048F20830F2
:1006F000C4F202200068000222D403F0F9FD216850
:100700000A68D2071EBF002002B070BD054602E095
:100710000868C00711D18868C00704D188683040D4
:1007200040F00100886003F0E3FD401B21680328CE
:10073000EED30868C007EBD1C8E7002002B070BD57
:1007400040F21C00C2F20000006842F663518009CA
:10075000C0F23E51A0FB01018809022101EB4000DB
:10076000019001980028C8D00198013801900198A3
:100770000028C2D001980138019001980028BCD00F
:1007800001980138019001980028B6D001980138ED
:10079000019001980028E7D1AFE70000FEE70000D4
:1007A0002DE9F04F81B02DED108BC6B040F28411D1
:1007B000C2F200014878002800F0668740F2682BFA
:1007C000C2F2000BBBF80400002200EE100A4A70CF
:1007D000C1E910228A64CA64B8EE401ABBF824004A
:1007E00040F2C82100EE100AC2F20001B8EE402A21
:1007F000888800EE100AB8EE403ABBF8440000EEDC
:10080000100AB8EE400ABBF806008DED1D0A00EE96
:10081000100AB8EE400ABBF826008DED1C0A00EE67
:10082000100AB8EE400AC8888DED1B0A00EE100AC7
:10083000B8EE400ABBF846008DED1A0A00EE100A29
:10084000B8EE400ABBF808008DED190A00EE100A58
:10085000B8EE400ABBF828008DED180A00EE100A29
:10086000B8EE400A08898DED170A00EE100AB8EEBE
:10087000400ABBF848008DED160A00EE100AB8EEEB
:10088000400ABBF80A008DED150A00EE100AB8EE1A
:10089000400ABBF82A008DED140A00EE100AB8EEEB
:1008A000400A48898DED130A00EE100AB8EE400A9E
:1008B000BBF84A008DED120A00EE100AB8EE400AAD
:1008C000BBF80C008DED110A00EE100AB8EE400ADC
:1008D000BBF82C008DED100A00EE100AB8EE400AAD
:1008E00088898DED0F0A00EE100AB8EE400ABBF8B9
:1008F0004C008DED0E0A00EE100AB8EE400ABBF86F
:100900000E008DED0D0A00EE100AB8EE400ABBF89D
:100910002E008DED0C0A00EE100AB8EE40DAC88900
:1009200000EE100AB8EE40EABBF84E0000EE100AE6
:10093000B8EE40FABBF8100000EE100AF8EE408A5C
:10094000BBF8300000EE100AF8EE409A088A00EE7C
:10095000100AF8EE40AABBF8500000EE100AF8EEBC
:1009600040BABBF8124000EE104AF8EE40CABBF89D
:10097000320000EE100AF8EE40DA488A00EE100A63
:10098000F8EE40EABBF8520000EE100AF8EE40FA2A
:10099000BBF814E000EE10EAB8EE40BABBF8340041
:1009A00000EE100AB8EE40AA888A00EE100AB8EEEF
:1009B000409ABBF8540000EE100AB8EE408ABBF82B
:1009C000168000EE108AF8EE407ABBF8360000EE92
:1009D000100AF8EE406AC88A00EE100AF8EE405A93
:1009E000BBF8560000EE100AF8EE404ABBF818A01B
:1009F00000EE10AAF8EE403ABBF8380000EE100AFC
:100A0000F8EE402A088B00EE100AF8EE401ABBF808
:100A1000580000EE100AF8EE400ABBF81A0000EE8B
:100A2000100A2990B8EE407ABBF83A0000EE100A9E
:100A30002A90B8EE406A488B00EE100AB8EE405A91
:100A4000BBF85A0000EE100AB8EE404ABBF80400AA
:100A5000BBF80630BBF8089045904493984288BF95
:100A600003464A46BBF80AC04B45CDF8989088BF6C
:100A70001A46BBF80C6067466245CDF894C04396B1
:100A800088BF1746BBF80E50B742429588BF3E4616
:100A9000BBF81000AE42419088BF3546854288BF02
:100AA000284681B2CDE93F14A14298BF204681B2C9
:100AB0003E91714598BF704681B2CDF890E03D916E
:100AC000414598BF404681B2CDF88C803C9151455C
:100AD00098BF5046CDF814A0DDE9441480B28C4292
:100AE0004FF0030488BF022404214B4598BF0C46F5
:100AF0000521624598BF0C4643998F424FF006018D
:100B000098BF0C4642998E424FF0070198BF0C46A1
:100B100041998D424FF0080198BF0C46DDE93F2115
:100B20008A424FF0090198BF0C463E9971454FF03B
:100B30000A0198BF0C463D9941454FF00B0198BF03
:100B40000C463C9951454FF00C0198BF0C46299931
:100B5000BBF826208842BBF824104FF00D0098BF48
:100B600004460B94289110469142964613462092D3
:100B7000BBF828203D9288BF8E46BBF82A70964568
:100B80003F9788BF7246BBF82C60BA423E9688BF3A
:100B90001746BBF82E40B7423B9488BF3E46BBF891
:100BA0003000A6423C9088BF3446844288BF20462D
:100BB00085B2BBF832A03A95554598BF504685B2EC
:100BC000BBF83480CDF884A03995454598BF4046A0
:100BD00085B2BBF83610CDF8888038958D4298BF25
:100BE00008461FFA80F9BBF838C00391E14598BF69
:100BF0006046CDF810C00D46289980B299424FF05A
:100C0000030188BF02213D9B9E454FF0040398BF1E
:100C100019463F9B40F2C82E9A424FF0050298BFFA
:100C200011463E9AC2F2000E97424FF0060298BF5C
:100C300011463B9A0D2396424FF0070298BF11468A
:100C40003C9A94424FF0080298BF11463A9A524596
:100C50004FF0090298BF1146399A42454FF00A02F7
:100C600098BF1146389AAA424FF00B0298BF11461E
:100C7000E1454FF00C0298BF11460A462A99884276
:100C8000BEF80610BEF8040098BF1A46BEF80890D9
:100C90008C460A92279088420291CDF8E89088BF4E
:100CA0008446BEF80A80CC45CDF8E48088BFE14692
:100CB000BEF80C70C145389788BFC846BEF80E60B4
:100CC000B845379688BF4746BEF81050B7423695AC
:100CD00088BF3E46BEF81240AE42359488BF3546C6
:100CE000BEF814200B46A542349288BF2C46BEF8AD
:100CF00016109442339188BF2246BEF818E08A420B
:100D000088BF1146F2467145CDF804E088BF8A4697
:100D1000279898424FF0030088BF02203A9B9C45D9
:100D20004FF0040398BF1846399B99454FF00503CF
:100D300098BF1846389B98454FF0060398BF184651
:100D4000379B9F424FF0070398BF1846369B0D27ED
:100D50009E424FF0080398BF1846359B9D424FF0C6
:100D6000090398BF1846349B9C424FF00A0398BF72
:100D70001846339B9A424FF00B0298BF10467145BC
:100D800040F2C821C2F20001498B4FF00C020691DB
:100D900098BF1046BBF846508A45BBF8441098BF30
:100DA0003846BBF848A0A94609903191A9421F9541
:100DB000CDF8BCA088BF8946BBF84A80D145CDF8A4
:100DC000C88088BFCA46BBF84CC0C245CDF8C0C079
:100DD00088BFD046BBF84E70E0452C9788BFC4460C
:100DE000BBF85040BC452E9488BF6746BBF8520004
:100DF000A7422D9088BF3C46BBF854E0844288BF90
:100E00002046BBF8562071467045CDF878E02B920D
:100E100088BF0146BBF85830914288BF0A469B46BE
:100E20009A42009388BF9346319EAE424FF003062C
:100E300088BF02262F9DA9454FF0040598BF2E4676
:100E4000329DAA454FF0050598BF2E46309DA84516
:100E50004FF0060598BF2E462C9DAC454FF0070578
:100E600098BF2E462E9DAF424FF0080798BF3E46D2
:100E70002D9FBC424FF0090798BF3E4670454FF08A
:100E80000A0098BF06462B9881424FF00B0098BF8E
:100E9000064640F26820C2F20000B0F85A009A42BA
:100EA00007904FF00C0198BF0E4683454FF00D00A0
:100EB00098BF06460896DDE94440A04238BF044684
:100EC000269DAC4238BF2546259EB54238BF2E46EA
:100ED000439FBE4238BF3746DDF808914F4538BFC3
:100EE000B9464199894538BF49461FFA81FA409869
:100EF000824528BF01461FFA81FB2498834528BFFD
:100F000001461FFA81FE2398864528BF01468BB211
:100F1000DDF81480434528BF4146DDE9440289B22B
:100F200082424FF0030038BF0220DDF898C06445CC
:100F30004FF0040428BF2046259CA5424FF005042D
:100F400028BF2046439D0624AE4228BF2046429E2D
:100F50000724B74228BF2046419F0824B94528BF2F
:100F60002046409A0924924528BF2046249A0A2701
:100F7000934528BF3846239A96454FF00B0228BF69
:100F800010460C22434528BF1046299A91424FF043
:100F90000D0128BF08464590DDF8A080209CA045A3
:100FA00038BF44463D9DAC4238BF25463F9EB542C2
:100FB00038BF2E463E9FBE4238BF3746DDF8EC9024
:100FC0004F4538BFB9463C99894538BF49468AB232
:100FD0002198824228BF01461FFA81FB229883454F
:100FE00028BF01461FFA81FEDDF80CC0E64528BF88
:100FF00061468BB20498834228BF0146DDF880A089
:1010000089B2D0454FF0030A38BF4FF0020ADDF82D
:10101000F48044454FF0040428BFA2463F9CA542FB
:101020004FF0050428BFA2463E9CA6424FF006049E
:1010300028BFA2463B9CA7424FF0070428BFA24608
:101040003C9CA1454FF0080428BFA246219CA24227
:101050004FF0090228BF9246229A93454FF00A02A8
:1010600028BF9246E6454FF00B0228BF92468342C6
:101070004FF00C0028BF82462A9A0D20914228BFCB
:101080008246029B279A19469A4238BF114610465B
:101090003A9A9946914238BF0A46399B9A4238BFDC
:1010A0001346389FBB4238BF1F46379EB74238BFF2
:1010B0003E46369DAE4238BF3546359CA54238BFC8
:1010C0002C46DDF8D0E0744538BFA646DDF8CCB03C
:1010D000DE4538BFF346DDF80480C345C44638BF5B
:1010E000DC4648454FF0030938BF4FF002093A98F3
:1010F00081424FF0040128BF894639980521824278
:1011000028BF894638980621834228BF89463798E8
:101110000721874228BF894636980821864228BF82
:10112000894635980921854228BF894634980A2185
:10113000844228BF894633980B21864528BF8946BB
:101140000C21C34528BF894606990D208C4528BF30
:10115000814631981F9A904238BF02462F9B9A428F
:1011600038BF1346329FBB4238BF1F46309DAF4247
:1011700038BF3D462C9CA54238BF2C462E998C4248
:1011800038BF2146DDF8B480414538BF8846DDF8D8
:1011900078B0D84538BFC346DDF8ACC0E34538BFAA
:1011A000DC46DDF800E07046F44538BF6046449008
:1011B0001F9E3198B0424FF0030638BF02262F9889
:1011C00082424FF0040228BF16463298052283421D
:1011D00028BF164630980622874228BF16462C980C
:1011E0000722854228BF16462E980822844228BF2F
:1011F00016462D9840F2841381424FF0090128BF12
:101200000E461E980A218045DDF8248028BF0E4630
:101210002B980B21834528BF0E469DED1C0A9DEDA2
:1012200019CA31EE000A9DED1B1A0C2132EE011A8B
:101230009DED1A2AF44533EE022A9DED1D3A0A9CD3
:1012400033EE0C3A9DED18CAC2F2000330EE0C0AE0
:101250009DED17CA40F2682531EE0C1A9DED16CAB5
:10126000C2F2000532EE0C2A9DED15CA4FF00D02B8
:1012700033EE0C3A9DED14CA4FF0000730EE0C0A25
:101280009DED13CA31EE0C1A9DED12CA32EE0C2AF6
:101290009DED11CA33EE0C3A9DED10CA30EE0C0AEA
:1012A0009DED0FCA31EE0C1A9DED0ECA31EE0D1AEE
:1012B00032EE0C2A9DED0DCA32EE0E2A33EE0C3AB8
:1012C0009DED0CCA33EE0F3A30EE0C0A31EE291ABE
:1012D00030EE280A32EE2A2A33EE2B3A30EE2C0A70
:1012E00031EE2D1A32EE2E2A33EE2F3A30EE0B0A63
:1012F00031EE0A1A32EE092A33EE083A30EE270AA6
:1013000031EE261A32EE252A33EE243A30EE230A45
:1013100031EE221A32EE212A33EE203A30EE070A5D
:1013200031EE061A32EE052A33EE043AB2EE084ADE
:1013300028BF0E4680EE045A81EE041A82EE040A9B
:10134000C3EE040A07994498DC71884208980B9907
:101350008346587245985FFA81FC997183F808803A
:10136000987283F80BA083F80C9028BF164635F8C6
:101370001C10002202EE101A5E73C3E9092283EDED
:10138000105ADA6283ED111A83ED120A1A63C3ED63
:10139000130A5FFA80FEB8EE426AD98AE4B202EE1E
:1013A000101A0021F8EE421A35F81E0036EE452AD2
:1013B00003EE100AB4EE612AB8EE437AF1EE10FAA9
:1013C0004FF0000035EE473AC8BF01205FFA8AFAB5
:1013D000B4EE432AF1EE10FAC8BF0121B4EE613A2F
:1013E00000EA0102F1EE10FA4FF00000B4EE423ACA
:1013F000C8BF01201146F1EE10FAC8BF01273840DE
:1014000018BF4FF0FF31002A0CBF0028596240F28C
:101410006820C2F2000000F1200232F81400002718
:1014200002EE100A0023B8EE424A32F81A2034EED7
:10143000412A03EE102AB4EE612AB8EE435AF1EEC7
:1014400010FA4FF0000231EE451AC8BF0122B4EE87
:10145000412AF1EE10FAC8BF0127B4EE611A3A40F2
:10146000F1EE10FA4FF00007B4EE421AC8BF0127A0
:10147000F1EE10FAC8BF01233B40174618BF4FF0EA
:10148000FF37002A08BF002B04D040F28410C2F2BC
:101490000000876240F2C8205FFA88F5C2F20000BF
:1014A00030F815205FFA89F901EE102A0023B8EE12
:1014B000412A30F8192032EE401A03EE102AB4EE19
:1014C000611AB8EE433AF1EE10FA4FF0000230EE36
:1014D000430AC8BF01220020B4EE401AF1EE10FA10
:1014E000C8BF0120B4EE610A1040F1EE10FA4FF0CF
:1014F0000002B4EE410AC8BF01228046F1EE10FAA4
:10150000C8BF0123134018BF4FF0FF38002808BFA1
:10151000002B05D040F28410C2F20000C0F82C80ED
:1015200040F26820C2F200005FFA8BFB403030F8D6
:101530001B20002300EE102AF2B2B8EE400A30F869
:10154000120070EE602A01EE100AF4EE612AB8EE85
:10155000411AF1EE10FA4FF0000070EEC10AC8BF58
:1015600001200026F4EE602AF1EE10FAC8BF012631
:10157000F4EE610A3040F1EE10FA4FF00006F4EE9E
:10158000620AC8BF0126F1EE10FAC8BF01231E404F
:10159000034618BF4FF0FF33002808BF002E04D0C9
:1015A00040F28410C2F200000363481C72D001298B
:1015B00040F0E48040F26820C2F2000000EB4C00F2
:1015C000264630F8021C07EE101A6FF00901B8EE3B
:1015D000477A408800EE900A0CEB8C00F8EE600A27
:1015E00001EB4001440001EE901A0A2101EB40009A
:1015F00002EE904A03EE900AF8EEE11AF8EEE22AC3
:10160000F8EEE33A61EEA15A72EEA34A71EEA37AC4
:1016100064EEA16A22EEA28A75EEE65A62EEA36A31
:1016200027EEA29A76EEA55A78EE496A21EEA38AB1
:1016300023EEA3AA78EE266A32EEA18AB7EE009ACC
:10164000344668EE233AC9EE255A7AEE633A62EEE2
:10165000A11AC9EE262A71EEA31AC9EE211A64EE68
:10166000A53A65EE875A23EE877A67EEA24A62EEC4
:10167000862A24EE866A68EE216A72EEA52A61EE59
:10168000A01A36EE076A6EE046B0BDEC108B01B0D2
:10169000BDE8F08F40F26820C2F2000000EB4E007F
:1016A000264630F8021C06EE101A6FF00901B8EE5B
:1016B000466A408800EE900A0EEB8E00F8EE600A53
:1016C00001EB4001440001EE901A0A2101EB4000B9
:1016D00002EE904A03EE900AF8EEE11AF8EEE22AE2
:1016E000F8EEE33A61EEA15A72EEA34A71EEA37AE4
:1016F00064EEA16A22EEA28A75EEE65A62EEA36A51
:1017000027EEA29A76EEA55A78EE496A21EEA38AD0
:1017100023EEA3AA78EE266A32EEA18AB7EE009AEB
:10172000344668EE233AC9EE255A7AEE633A62EE01
:10173000A11AC9EE262A71EEA31AC9EE211A64EE87
:10174000A53A65EE865A23EE866A67EEA24A62EEF5
:10175000872A24EE877A68EE216A72EEA52A61EE66
:10176000A01A37EE066A26EEA07A71EEA20A37EECC
:10177000066A30EEA07A86EE076A01E09FEDAD6A58
:10178000781C40F28410C2F2000080ED146A69D027
:10179000012F40F0D88040F26820C2F2000000EB38
:1017A0004400C18B05EE101A6FF00901B8EE455ADE
:1017B000408C06EE100A04EB8400B8EE466A01EB9A
:1017C0004001470007EE101A0A2101EB400000EE2D
:1017D000907A01EE900AB8EEC77AF8EEE00AF8EED9
:1017E000E11A67EE073A70EEA12A77EE215A62EE0F
:1017F000874A60EEA06A73EEE43A60EEA14A65EEB5
:10180000A07A74EEA33A76EEE74A67EE216A21EEFB
:10181000A18A76EEA44A70EE876AF7EE007A66EE49
:10182000A11AC7EEA33A78EE611A20EE877AC7EEC6
:10183000A40A37EE217A87EE877A62EEA31A63EE66
:10184000853A21EE855A65EEA02A60EE840A22EEE2
:10185000844A66EE874A70EEA30A27EE067A34EED3
:10186000054A65E040F26820C2F2000000EB4A0041
:10187000C18B04EE101A6FF00901B8EE444A408C97
:1018800006EE100A0AEB8A00B8EE466A01EB400148
:10189000470007EE101A0A2101EB400000EE907A93
:1018A00001EE900AB8EEC77AF8EEE00AF8EEE11A17
:1018B00067EE073A70EEA12A77EE215A62EE874A68
:1018C00060EEA06A73EEE43A60EEA14A65EEA07A9B
:1018D00074EEA33A76EEE74A67EE216A21EEA18A1A
:1018E00076EEA44A70EE876AF7EE007A66EEA11AE9
:1018F000C7EEA33A78EE611A20EE877AC7EEA40A03
:1019000037EE217A87EE877A62EEA31A63EE843A85
:1019100021EE844A65EEA02A60EE850A22EE855A01
:1019200066EE874A70EEA30A27EE067A35EE044A81
:1019300024EE865A37EE206A35EE044A36EE065A11
:1019400084EE054A01E09FED3C4A40F28417C2F262
:10195000000718F1010087ED154A6FD0B8F1010FAB
:1019600040F04C8140F2C820C2F2000000EB45007C
:1019700030F8021C03EE101A6FF00901B8EE433A7A
:10198000408804EE100A05EB8500B8EE444A01EBEE
:101990004001460005EE101A0A2101EB400006EE58
:1019A000106A07EE100AB8EEC55AB8EEC66AB8EE6D
:1019B000C77A65EE051A76EE070A75EE073A60EE0D
:1019C000852A66EE064A71EEE21A66EE072A63EE93
:1019D000865A72EEA11A74EEE52A65EE074A67EEA2
:1019E000076A74EEA22A76EE054AF7EE005A24EE54
:1019F000877AC5EEA11A36EEC77A26EE055A85EE2D
:101A0000A26A35EE075A85EE855A20EEA17A61EE7C
:101A1000831A27EE033A63EE860A26EE026A20EE68
:101A2000822A64EE852A36EE216A25EE045A32EEC9
:101A3000032A6AE00080BB440000FA4340F2C82059
:101A4000C2F2000000EB490030F8021C02EE101A4E
:101A50006FF00901B8EE422A408804EE100A09EB43
:101A60008900B8EE444A01EB4001460005EE101A29
:101A70000A2101EB400006EE106A07EE100AB8EEEC
:101A8000C55AB8EEC66AB8EEC77A65EE051A76EEA4
:101A9000070A75EE073A60EE852A66EE064A71EE91
:101AA000E21A66EE072A63EE865A72EEA11A74EE07
:101AB000E52A65EE074A67EE076A74EEA22A76EE1B
:101AC000054AF7EE005A24EE877AC5EEA11A36EEE3
:101AD000C77A26EE055A85EEA26A35EE075A85EEDC
:101AE000855A20EEA17A61EE821A27EE022A63EE71
:101AF000860A26EE036A20EE833A64EE852A36EEE5
:101B0000216A25EE045A33EE022A22EE843A35EE9B
:101B1000064A33EE022A34EE043A82EE032A581CB7
:101B200087ED162A70D0012B40F0E08040F268204B
:101B3000C2F2000000EB4B00C18F01EE101A6FF0F3
:101B40000901B8EE411AB0F8420002EE100A0BEBA0
:101B50008B00B8EE422A01EB4001420003EE101A5E
:101B60000A2101EB400004EE102A05EE100AB8EE3F
:101B7000C33AB8EEC44AB8EEC55A23EE037A34EE3F
:101B8000056A73EE051A66EE030A64EE042A37EE60
:101B9000607A64EE050A61EE843A30EE877A72EE7E
:101BA000E30A63EE052A65EE054A72EEA00A74EEBA
:101BB000032AF7EE003A22EE855A83EE877A34EE56
:101BC000C55A24EE033A83EEA04A33EE053A83EE7B
:101BD000833A26EE075A27EE017A25EE011A21EE06
:101BE000846A24EE004A26EE000A62EE830A34EE8E
:101BF000074A23EE023A30EE010A6CE09FEDC62A56
:101C0000581C87ED162A8ED140F26820C2F20000DF
:101C100000EB4200C18F00EE101A6FF00901B8EE20
:101C2000400AB0F8420002EE100A02EB8200B8EE61
:101C3000422A01EB4001420003EE101A0A2101EB97
:101C4000400004EE102A05EE100AB8EEC33AB8EED2
:101C5000C44AB8EEC55A23EE037A34EE056A73EE31
:101C6000051A66EE030A64EE042A37EE607A64EE23
:101C7000050A61EE843A30EE877A72EEE30A63EE8B
:101C8000052A65EE054A72EEA00A74EE032AF7EE05
:101C9000003A22EE855A83EE877A34EEC55A24EE56
:101CA000033A83EEA04A33EE053A83EE833A26EEFA
:101CB000075A27EE007A25EE000A21EE846A24EE08
:101CC000014A26EE011A62EE830A34EE074A23EE39
:101CD000023A31EE000A20EE821A33EE042A31EE87
:101CE000000A32EE021A80EE010A01E09FED8B0A33
:101CF00087ED170A08F06EFB97ED148A97ED159A99
:101D00009FED871A39EE080A30EE010A9FED851A19
:101D100080EE010A10EE100A0AF0F6FB41EC100BFF
:101D200009F052F851EC100B09F0AEFE0AF0ECFB92
:101D30009FED750B53EC102B0AF0F2F909F0A4FE9D
:101D400040F20026C2F200060AEE100A96ED020AE0
:101D5000706030EE4A0A10EE101A21F000400AF0CE
:101D6000D3FB9FED6B0B53EC102B0AF01BFC30B92F
:101D7000F068411C0528F16003DB0020F06086ED6F
:101D800002AA38EE490AB6EE008A20EE080A10EEE2
:101D9000100A0AF0B9FB044630690D460AF0B4FB9C
:101DA00041EC100B09F07CF951EC100B22462B464C
:101DB0000AF0B6F909F068FE00EE100A96ED061A70
:101DC000706131EE401AB0EEC11AB4EE481AF1EE6D
:101DD00010FA06DBF069411C0528F16103DB0020E5
:101DE000F06186ED060A40F25450C2F2000040F263
:101DF0001C110068C2F200010968426A3B6A406A2D
:101E000097ED160A97ED171A02EB014231EE400AE0
:101E1000BEEE001A00EB014120EE010AD21A10EECC
:101E2000100AFA6139620AF06FFB044630690D4608
:101E30000AF06AFB41EC100B09F032F951EC100B7F
:101E400022462B460AF06CF909F01EFE00EE100A3D
:101E50009FED351AB0EEC02A7062B4EE412AF1EE61
:101E600010FA16DD96ED0A1AB3EE042A31EE401A86
:101E7000B0EEC11AB4EE421AF1EE10FA09DB306A84
:101E8000411C05283162A2BF0020306286ED0A0A9B
:101E900003E0002086ED0A0A3062796A00200131F1
:101EA000387419D0396B01311DD0B96A013121D094
:101EB000F96A013103D1013003213874B97400216A
:101EC000012888BF0121797446B0BDEC108B01B0A8
:101ED000BDE8F04F08F0C0BB0121B874012039748F
:101EE000396B0131E1D1013001213874B974B96A1B
:101EF0000131DDD1013002213874B974F96A013140
:101F0000DDD1D8E700BF00BFD9CEF753E3A54C40E1
:101F1000333333333333D33F0080BB440000FA43C1
:101F2000000016C300007A43000096420000000043
:101F30002DE9F04F81B02DED108BC6B040F2841327
:101F4000C2F200031879002840F0DE865878002895
:101F500000F0DA86597900200131CAB20A2A587095
:101F60005971C0F0D18640F2682CC2F2000CBCF866
:101F70000410587100EE101AC3E910009864D86478
:101F8000B8EE401ABCF8240040F2C82100EE100A56
:101F9000C2F20001B8EE402A888800EE100AB8EEBE
:101FA000403ABCF8440000EE100AB8EE400ABCF813
:101FB00006008DED1C0A00EE100AB8EE400ABCF8CF
:101FC00026008DED1B0A00EE100AB8EE400AC88804
:101FD0008DED1A0A00EE100AB8EE400ABCF8460071
:101FE0008DED190A00EE100AB8EE400ABCF80800A0
:101FF0008DED180A00EE100AB8EE400ABCF8280071
:102000008DED170A00EE100AB8EE400A08898DED32
:10201000160A00EE100AB8EE400ABCF848008DED32
:10202000150A00EE100AB8EE400ABCF80A008DED61
:10203000140A00EE100AB8EE400ABCF82A008DED32
:10204000130A00EE100AB8EE400A48898DED120A14
:1020500000EE100AB8EE400ABCF84A008DED110AF5
:1020600000EE100AB8EE400ABCF80C008DED100A24
:1020700000EE100AB8EE400ABCF82C008DED0F0AF5
:1020800000EE100AB8EE400A88898DED0E0A00EEC7
:10209000100AB8EE400ABCF84C008DED0D0A00EEB7
:1020A000100AB8EE400ABCF80E008DED0C0A00EEE6
:1020B000100AB8EE400ABCF82E008DED0B0A00EEB7
:1020C000100AB8EE40DAC88900EE100AB8EE40EA0D
:1020D000BCF84E0000EE100AB8EE40FABCF8100052
:1020E00000EE100AF8EE408ABCF8300000EE100A4C
:1020F000F8EE409A088A00EE100AF8EE40AABCF802
:10210000500000EE100AF8EE40BABCF8120000EEE3
:10211000100A0446F8EE40CABCF8320000EE100A7D
:10212000F8EE40DA488A00EE100AF8EE40EABCF811
:10213000520000EE100AF8EE40FABCF814E000EE8F
:1021400010EAB8EE40BABCF8340000EE100AB8EE5F
:1021500040AA888A00EE100AB8EE409ABCF85400F3
:1021600000EE100AB8EE408ABCF8169000EE109A05
:10217000F8EE407ABCF8360000EE100AF8EE406A3D
:10218000C88A00EE100AF8EE405ABCF8560000EE7D
:10219000100AF8EE404ABCF818A000EE10AAF8EEBB
:1021A000403ABCF8380000EE100AF8EE402A088BDE
:1021B00000EE100AF8EE401ABCF8580000EE100AC3
:1021C000F8EE400ABCF81A0000EE100A2990B8EEAA
:1021D000407ABCF83A0000EE100A2A90B8EE406A45
:1021E000488B00EE100AB8EE405ABCF85A0000EED8
:1021F000100AB8EE404ABCF80410BCF80620BCF83F
:10220000088045912892914288BF0A464346BCF80F
:102210000AB04245CDF8948088BF1346BCF80C60E4
:102220005F465B45CDF890B0449688BF1F46BCF82A
:102230000E50B742439588BF3E46BCF81010AE42E0
:10224000429188BF35468D4288BF294688B2CDE984
:102250004004A04298BF214688B23F90704598BF85
:10226000714688B2CDF888E03E90484598BF49460F
:1022700088B2CDF814903D90504598BF5146459C8A
:102280002898CDF810A084424FF0030488BF0224A0
:102290000420424598BF044605205B4598BF04468C
:1022A000449887424FF0060098BF04464398864200
:1022B0004FF0070098BF0446429885424FF008004F
:1022C00098BF0446DDE9402082424FF0090098BFE4
:1022D00004463F98624670454FF00A0098BF044696
:1022E0003E9848454FF00B0098BF04463D98504536
:1022F00088B24FF00C0198BF0C462999BCF8269083
:1023000088424FF00D00BCF82430CDF8009198BF02
:102310000446BCF828000A9427934B453F9088BF99
:102320009946BCF82A40034681453E9488BF4B46F7
:10233000BCF82C50A3423B9588BF1C46BCF82E60CD
:10234000AC423D9688BF2546BCF83000B5423C9073
:1023500088BF2E46864288BF304687B2BCF832A07E
:102360003A97574598BF504687B2BCF83410CDF81D
:1023700080A039978F4298BF08461FFA80FCB2F8B8
:1023800036E02191CDF8E0C0F44598BF70461FFAC1
:1023900080F8B2F838C00F46CDF808E0E04598BFA5
:1023A00060462799DDF800B1CDF80CC059454FF0D3
:1023B000030188BF02213F9A80B291454FF0040289
:1023C00098BF11463E9A93424FF0050298BF1146BE
:1023D0003B9A94424FF0060298BF11463D9A9542AF
:1023E0004FF0070298BF11463C9A96424FF0080200
:1023F00098BF11463A9A52454FF0090298BF1146CC
:10240000399ABA424FF00A0298BF1146389A72457B
:102410004FF00B0298BF1146E0454FF00C0298BFF9
:1024200011460A462A99884240F2C821C2F20001A8
:10243000B1F806E08B88CDF8E8E04FF00D0098BFCA
:102440000246B1F808A0099226937345CDF8E4A09E
:1024500088BF9E46B1F80AC0D645CDF8E0C088BF17
:10246000F2468C89E245359488BFD446CF89A4458D
:10247000379788BF64460E8ABC42369688BF274687
:102480004B8AB742329388BF3E468D8A9E4234952E
:1024900088BF3346CA8AAB42339288BF1D46B1F823
:1024A0001890954288BF2A46C8464A45CDF8049000
:1024B00088BF90462698DDF8E8B058454FF00300F5
:1024C00088BF022039998E454FF0040198BF084615
:1024D00038998A454FF0050198BF084635998C45D3
:1024E0004FF0060198BF084637998C424FF007011C
:1024F00098BF0846369940F268248F424FF0080191
:1025000098BF08463299C2F200048E424FF009018A
:1025100098BF084634998B424FF00A0198BF08468D
:1025200033990D238D424FF00B0198BF084640F2BE
:10253000C821C2F20001498B4A454FF00C020691B6
:1025400098BF1046B4F844208845B4F8461023924A
:1025500098BF1846B4F848A0884608908A421F9150
:10256000CDF8BCA088BF9046B4F84AB0D045CDF8AD
:10257000C4B088BFC246B4F84CE0DA45CDF8C0E03C
:1025800088BFD346B4F84E008C46F3452C9088BFE4
:10259000DE46B4F8501086452E9188BF7046B4F8D8
:1025A000522088422D9288BF0146B4F8549091423F
:1025B00088BF0A464F46B4F856304A45CDF8789061
:1025C00088BF1746B4F858609F421D461D932B964E
:1025D00088BF3D46B54288BF2E46239C64454FF0D8
:1025E000030C88BF4FF0020C2F9CA0454FF0040451
:1025F00098BFA446319CA2454FF0050498BFA4465D
:10260000309CA3454FF0060498BFA4462C9CA645D9
:102610004FF0070498BFA4462E9CA0424FF008003C
:1026200098BF84462D9881424FF0090098BF844698
:102630000A204A4598BF84460B209F4298BF844693
:102640002B980C21854240F26820C2F20000B0F8BD
:102650005A00079098BF8C4686424FF00D0098BFF5
:102660008446289A45981146CDF800C0904238BF5C
:102670000146259D1346A94238BF0D46249FBD4201
:1026800038BF2F46DDF81081474538BFB846DDF822
:102690000CA1D04538BFC2464298824538BF50464B
:1026A0001FFA80FE419A964528BF10461FFA80FC0B
:1026B000229A944528BF104682B2DDF814904A450C
:1026C00028BF484684B2DDF810B05C4528BF5846A4
:1026D000459E80B29E424FF0030638BF0226259BDE
:1026E00099424FF0040128BF0E4624998D424FF0C5
:1026F000050128BF0E4644998F424FF0060128BFBE
:102700000E46439988454FF0070128BF0E4642996F
:102710008A454FF0080128BF0E4641998E454FF07B
:10272000090128BF0E4622998C454FF00A0128BFA7
:102730000E460B214A4528BF0E460C215C4528BF9A
:102740000E46299988424FF00D0028BF0646DDF855
:102750009CA0409945968A4538BF51463F9DA94265
:1027600038BF0D463E9FBD4238BF2F46DDF8EC8096
:10277000474538BFB8463D9A904538BF42463C98D9
:10278000824238BF104683B2209E4493B34228BF92
:1027900030461FFA80FB219B9B4528BF184684B218
:1027A000DDF808904C4528BF484683B2DDF80CE0C0
:1027B000734528BF7046DDF800C180B2E2454FF096
:1027C000030A38BF4FF0020A3F9EB1424FF00401A6
:1027D00028BF8A463E998D424FF0050128BF8A46A0
:1027E0003B998F424FF0060128BF8A463D998845A4
:1027F0004FF0070128BF8A463C998A424FF00801F2
:1028000028BF8A464499209A91424FF0090128BF77
:102810008A4621998B454FF00A0128BF8A460B2131
:102820004C4528BF8A460C21734528BF8A462A9901
:1028300088424FF00D0028BF82462699DDF8E8E077
:102840008846714538BF8E4639998E4538BF7146E6
:10285000389A914238BF0A46359B9A4238BF134690
:10286000379FBB4238BF1F46369EB74238BF3E46F1
:10287000329DAE4238BF3546349CA54238BF2C4607
:10288000DDF8CCC0644538BFA446DDF80490484666
:10289000CC4538BF6046DDF8E8B04490D8454FF0ED
:1028A000030838BF4FF00208399886454FF00400FE
:1028B00028BF8046389881424FF0050028BF8046E7
:1028C000359882424FF0060028BF804637988342F1
:1028D0004FF0070028BF8046369887424FF0080027
:1028E00028BF8046329886424FF0090028BF8046B4
:1028F000349885424FF00A0028BF804633988442BE
:102900004FF00B0028BF80460C20CC4528BF8046E6
:102910000698449981424FF00D0028BF80462398C5
:102920001F9A8146904238BF02462F9B9A4238BF79
:102930001346319EB34238BF1E46309DAE4238BF6B
:1029400035462C9CA54238BF2C462E98844238BF71
:1029500020462D99884238BF0146DDF878C0614590
:1029600038BF8C46DDF874B0DC4538BFE346DDF88F
:10297000ACE0F34538BFDE461F9FB9454FF0030773
:1029800038BF0227DDF8BC904A454FF0040228BF4B
:102990001746319A93424FF00502099B28BF17460C
:1029A000309A96424FF0060228BF17462C9A95425D
:1029B0004FF0070228BF17462E9A94424FF00802A4
:1029C000089C28BF17462D9A90424FF0090028BF57
:1029D00007461E9840F2841281424FF00A0028BF39
:1029E00007461D98459D84454FF00B0028BF0746BC
:1029F0009DED1B0A9DED18CA31EE000A9DED1A1AD5
:102A00002B9832EE011A9DED192A834533EE022AE6
:102A10009DED1C3A4FF00C0033EE0C3A9DED17CAB9
:102A200040F2682130EE0C0A9DED16CAC2F2000297
:102A300031EE0C1A9DED15CAC2F2000132EE0C2ADD
:102A40009DED14CA33EE0C3A9DED13CA30EE0C0A1C
:102A50009DED12CA31EE0C1A9DED11CA32EE0C2A10
:102A60009DED10CA33EE0C3A9DED0FCA30EE0C0A04
:102A70009DED0ECA31EE0C1A9DED0DCA31EE0D1A08
:102A800032EE0C2A9DED0CCA32EE0E2A33EE0C3AD1
:102A90009DED0BCA33EE0F3A30EE0C0A31EE291AD7
:102AA00030EE280A32EE2A2A33EE2B3A30EE2C0A88
:102AB00031EE2D1A32EE2E2A33EE2F3A30EE0B0A7B
:102AC00031EE0A1A32EE092A33EE083A30EE270ABE
:102AD00031EE261A32EE252A33EE243A30EE230A5E
:102AE00031EE221A32EE212A33EE203A30EE070A76
:102AF00031EE061A32EE055A33EE044AB2EE086A97
:102B000028BF074680EE063A81EE062A85EE061AB1
:102B100084EE060A079886454FF00D0028BF074649
:102B20000A98009E9071C0B231F81000D37104EE83
:102B3000100A147282ED103A567282ED112A9572C3
:102B400082ED121A82F80BA082ED130A82F80C8033
:102B50005773B8EE444AE8B234EE434ADAB2BDEEF7
:102B6000C44A5FFA8AF314EE109AB646B9F1000F20
:102B700048BFC9F1000931F8100001F1400504EE29
:102B8000100A01F12000B8EE444AFFB234EE433A95
:102B9000BDEEC33A13EE10BABBF1000F48BFCBF144
:102BA000000B30F8122003EE102AB8EE433A33EE51
:102BB000423ABDEEC33A13EE102A002A48BF5242F1
:102BC00030F8130040F2C82303EE100AC2F20003EB
:102BD000B8EE433AE0B233EE422A1FFA8BF4BDEE70
:102BE000C22A12EE10CABCF1000F48BFCCF1000C93
:102BF00033F8100002EE100A5FFA88F0B8EE422AAD
:102C000032EE412ABDEEC22A12EE106A002E48BFF3
:102C1000764233F8100002EE100A5FFA8EF0B8EE3A
:102C2000422A32EE411ABDEEC11A11EE103A002BC3
:102C300048BF5B4235F8100001EE100AB8EE411AA9
:102C400031EE401ABDEEC11A11EE100A002848BF3D
:102C5000404235F817701FFA89F501EE107AB8EE88
:102C6000411A31EE400ABDEEC00A10EE107A002F74
:102C700048BF7F42A54238BFD94695B21FFA8CF4AF
:102C80001FFA89FEA54238BF6246B5B29CB291B226
:102C9000A54238BF1E4683B2BDB2B4B2AB4238BF04
:102CA0003846714528BF4A4691B283B2A14288BFD7
:102CB000324691B2994288BF024690B209F0A4F917
:102CC00002460B4608F012FF9FED130B53EC102B3E
:102CD00008F0C0FF09F052F940F28414C2F2000477
:102CE000A082012001F0B2F8A08A05F097FD40F221
:102CF0001800C2F20000006800F002F9A18A022266
:102D0000884208BF0122227146B0BDEC108B01B091
:102D1000BDE8F08F00BF00BF0000000000000840C9
:102D200070B540F24104C2F20004207810384FEA36
:102D30003010082800F29080DFE800F005265D8E54
:102D40008E8E8E8E6100FDF72BFD40F21810C2F2C0
:102D5000000001780A2909D30021017040F20040E7
:102D6000C4F202204FF4805101F0B4FA40F2200086
:102D7000C2F20000007890286CD030286DD0202856
:102D80006AD12020207070BD40F26A35C2F2000581
:102D90002878A0B940F2201040F25871C2F2000029
:102DA000C2F200010022322305F02CF840F2440167
:102DB000C2F20001421C08601CBF0120287040F2D2
:102DC0001810C2F2000001780A2909D3002101700D
:102DD00040F20040C4F202204FF4805101F07AFA30
:102DE00040F22000C2F200000078902827D010287E
:102DF00032D1102024E0BDE87040FFF799B840F2CE
:102E00006B35C2F20005287860B940F20040C4F288
:102E100002204FF480510122012601F063FA04F0F0
:102E200091FD2E7040F22000C2F2000000781028C0
:102E300018BF70BD102020700020287070BD902039
:102E4000207040F25870C2F2000000210160C0F80A
:102E5000031070BD9020207070BD3020207070BDB8
:102E60007047000072B600BFFEE7000070B542F286
:102E700020060446C4F2020601F03AFA316811F065
:102E80000B0F20D0BCB30546601C11D1306810F088
:102E90000B0F18D0306810F00B0F14D0306810F002
:102EA0000B0F10D0306810F00B0FEFD10BE000BF0C
:102EB00001F01EFA401BA04284BF032070BD3068A1
:102EC00010F00B0FF4D1306810F41E0009D040F25E
:102ED0002401C2F200014A6802434A6030610120C5
:102EE00070BD3068C0035CBF002070BD4FF48030FF
:102EF0003061002070BD01F0FBF9032070BD0000BF
:102F00000068704740F2D430C2F2000000F0BCBD4F
:102F100040F24C40C2F2000000F0B6BDF0B581B006
:102F20000022009290F85420012A03D10221084681
:102F300001B0F0BD0123076880F85430BB685B071F
:102F400043D40B6848F2083C012BC4F2022C09D18F
:102F50004FF6C056CFF6FF765CF8065045F00105F7
:102F60004CF806504E681F22C6F3012506F01F06D6
:102F700007EB8505B2402C6BC3F3846324EA02029D
:102F8000B3401A432A63BA68BB68DB0843EA92027B
:102F9000D20740F0BB800A688D68C2F3406407F135
:102FA0001403042606EAD25E53F82460C2F30454E4
:102FB0000722A240B5F1004F26EA02060BD143F8E2
:102FC0000E601A6842F000430DE0816D41F020016F
:102FD000816501218CE105FA04F2324343F80E20A9
:102FE0001A6822F000437B61D1E90435FE68042BA6
:102FF0005FD13A6E3A6EC2F384620B6893FAA3F41F
:10300000B4FA84F5C3F3846E6FF31F532C46002B80
:1030100008BF7446A2424FF6FF74C0F20F040CD1F1
:103020003A6E22F000423A660A6802EA0403C2F3EA
:10303000846E92FAA2F2B2FA82F57A6E7A6E002B60
:10304000C2F384622E4608BF7646B2420CD17A6E35
:1030500022F000427A660A6802EA0403C2F3846E30
:1030600092FAA2F2B2FA82F5BA6EBA6E002BC2F3ED
:1030700084622E4608BF7646B2420CD1BA6E22F068
:103080000042BA660A6802EA0403C2F3846E92FA46
:10309000A2F2B2FA82F5FA6EFA6E002BC2F38462E3
:1030A00008BF7546AA4231D1FA6E22F00042FA6694
:1030B0002CE0062202EA960207F16004D1F800E053
:1030C00054F8236005FA02F24FF20005C0F2FF3512
:1030D00035400EF0F84632432A4342F0004244F8AD
:1030E00023200A698B6954F8226026F080763343E6
:1030F00044F822300A690B7F54F82260012B26F035
:10310000007608BF06F1007644F82260BA68D2075C
:1031100057D10D68CA68D7F8B0602B466FF31F53BC
:1031200026EA030E4FF6FF7602F01804C0F20F06EF
:1031300026FA04F41C4044EA0E060024C4F27F047C
:10314000A242C7F8B0603CD195FAA5F2B2FA82F477
:103150002246002B08BFAA0E013202F01E02092AE5
:103160004FEA95650CD8002B14BF621C6A1C02F054
:103170001F03012203EB43069A4042EA065312E082
:10318000002B14BF621C6A1C02F01F0303EB4302F6
:103190000025CFF62065012605EB025206FA03F35F
:1031A0001A4342F000738A68C3F34066072407EBB2
:1031B00086067569C3F304539C40A5439A402A438D
:1031C00072610B680021C8F208010B422ED0DCF8B6
:1031D00000500021CCF221318B4205F0E07108BF94
:1031E00015F4000224D00422C8F66002934208BFFE
:1031F00015F0807222D00022CCF25272934208BFA6
:1032000015F4800220D0ACF542718F424FF00001DE
:103210006ED04022C9F62012934269D1D7F8C81067
:1032200041F00201C7F8C810002161E000215FE011
:10323000ACF5427297420DD0002159E0ACF54272D4
:1032400097423BD0002153E0ACF5427297423DD00B
:1032500000214DE0DCF8002022F0E072114341F43F
:103260000001CCF8001040F21C01C2F20001096814
:1032700042F663528909C0F23E52A1FB0212910943
:10328000022202EB41010091009951B300990139EA
:103290000091009939B3009901390091009921B347
:1032A000009901390091009909B300990139009101
:1032B000009900294FF00001E8D119E0DCF8002066
:1032C00022F0E072114341F0807106E0DCF800204A
:1032D00022F0E072114341F48001CCF8001000218B
:1032E00006E0002104E0002102E0002100E00021CE
:1032F000002280F85420084601B0F0BD704700005D
:103300007047000070470000B0B582B0044600204E
:1033100001904CB1A06D50B121688868800011D433
:103320008868C00018D54AE0012002B0B0BD204630
:1033300000F0EAF80020E06584F85400216888680D
:103340008000EDD588684FF6C072C5F6FF72104058
:1033500088608868C00032D44FF6C0728868C5F6AD
:10336000FF7202F18052104000F18050886040F2FC
:103370001C00C2F20000006842F663528009C0F2ED
:103380003E52A0FB02029009022202EB4000019093
:103390000198A0B1019801380190019878B1019885
:1033A00001380190019850B10198013801900198BD
:1033B00028B101980138019001980028EAD1886865
:1033C000C00009D4A06D40F01000A065E06D40F091
:1033D0000100E065012000E000208A68C2F380025D
:1033E000A36D03F01003D218A26D05D042F01001B6
:1033F0000120A16502B0B0BD22F481720232A26543
:103400008A68D20712D148F208324FF60053C4F24C
:103410000222CFF6FF73D358DB0707D1D4F804C0DC
:10342000136823F47C1343EA0C031360627EA36BDE
:1034300043EA4232D4E902C31A4394F8203042EA04
:103440000C0242EA034E012B08D1D4F824C0002319
:10345000CFF6FE7303EB4C434EEA030EA36A3BB177
:1034600003F47873D4F82CC043EA0E0242EA0C0E3F
:10347000CB6844F20702CFF6F0721A4042EA0E021D
:10348000CA600A69236B22F040621A430A618A68A3
:10349000120727D494F83430227E5B0094F83CC0A5
:1034A00043EA823ECB6844F2020223EA020242EA85
:1034B0000E02CA600A69BCF1010F10D140F2FD731F
:1034C00022EA030CD4E91032D4E912E543EA0C03F2
:1034D0001A4342EA0E022A4342F0010201E022F0BE
:1034E00001020A6122690B6B012A23F00F0202BF5D
:1034F000E369013B1A430A63A16D012262F30101F2
:10350000A16502B0B0BD00002DE9F043A9B00446AA
:10351000002640F2000902A88821CDE92766CDE9FE
:103520002566C4F202292496FCF7CDFF206809F530
:103530000041884202D029B0BDE8F0834FF400106A
:10354000029002204FF00108252103960490CDF847
:103550001480CDE906100421099108210890CDE9D5
:103560000A164FF480510C914FF480211B9002A851
:103570000D9101F0CFFC002818BFFFF773FC40F657
:103580008C40C4F20240016824AE41F480610160C5
:103590000168032501F48061019101990168002708
:1035A00041F001010160016801F0010101910199FF
:1035B000016841F0020101600068314600F002003C
:1035C00001900198FE20249048462595269700F00A
:1035D000B5FD09F580603146CDE92485269700F0D8
:1035E000ADFD40F24C4540F2D031C2F200054FF43F
:1035F0000020C4F202014FF48032C5E90017C5E98A
:103600000277C5E904702846C5E90682C5E908784D
:10361000C5E90A87C5E90C7700F016FB002818BF3A
:10362000FFF720FC284610212565EC6500F004FA20
:10363000002818BFFFF716FC29B0BDE8F083000092
:1036400070B59CB0044600688068400703D494F8C5
:103650005400012802D102201CB070BD012084F862
:103660005400204616460D46FDF71EF820B10021F5
:1036700084F854101CB070BDA06D40F601718843F1
:1036800000F58070A065A06D40F21163C0044FF09A
:10369000000044BFE06D20F00600E065206DC0F63C
:1036A0000003216840F2A162036640F28963C0F61C
:1036B0000002C0F600034FF0000CC0E919231C22E1
:1036C0000A6084F854C04A6842F010024A60CA682E
:1036D00042F00102CA6090F85020120606D48269B6
:1036E000012A0ED0022A08BFB6000BE0406F28B1B5
:1036F000016819B101A800F029F898B101201CB0A7
:1037000070BD760040312A46334600F04BFB2168FD
:103710004FF6C0738A68C7F6FF731A4004328A6096
:103720001CB070BD0798012803D0022808BFB6005E
:1037300000E07600206D2268416F40320968C1E9DF
:1037400002620D6100F0A6F8E1E7000080B50028F4
:103750004FF0010218BF002901D1104680BD91F839
:1037600020C042F20002C0F800C00B68C0F6004260
:1037700003F0080303610B6803F4002343610B6843
:1037800003F0030383610B6803F44033C3610B68E8
:10379000C3F30513013343620B68C3F305530133CD
:1037A00083620B6803F04023C3620B681A40826394
:1037B0000A6802F4C052C2634B689A0508D4DAB2B0
:1037C00042604A79520754BF00224FF4806202E0FF
:1037D0004FF400724260C2604A6802F40062826084
:1037E0004A6802F4404202644A6802F0407242644D
:1037F000CA8802F03F0282644A6802F040420263D3
:103800000B891CF0020283660FBF01234B896FF303
:10381000DF230133C364CB6803660B69436632B9A7
:103820000022C0E91422C0E91622104680BD4B696F
:103830006FF35F330365B1F816C06FF35F3CC0F8F8
:1038400054C0D1F808E05FEACE0203D55A420265BF
:10385000D1F808E05FEA8E0244BFCCF10002426575
:10386000B1F818E0C0F858E08A694FEA124CC0F885
:103870005CC08A68530003D5CEF1000282658A6875
:10388000B2F1FF3FC4BF002080BDCCF10001C16593
:10389000002080BD80B5002856D0436F002B53D048
:1038A00090F85410D0F800E00129DEF814C004D0DC
:1038B00002294BD11CF4803148D090F854100129D2
:1038C0003AD190F84C1001294FF0020144D0012266
:1038D00080F84C2080F8541019730021816519611B
:1038E000DEF8141041F4BA41CEF81410416E29B13B
:1038F000DEF8141041F40071CEF81410006F28B1F6
:10390000DEF8140040F40050CEF8140018680022CD
:10391000016ACFF60102490861F3596261F39A62C4
:103920004FF6FF7120EA0101CEF800104FF6FC714E
:1039300008401044CEF87C00DEF8140040F001008E
:10394000CEF81400002080BD012080BD402181659B
:10395000002180F84C100121084680BDB0B5044616
:1039600000F0C6FC002C04BF0120B0BD054694F851
:10397000540002282DD12168486940F004004861B4
:10398000052084F854000869800408D400F0B0FCD5
:10399000401B052824D8216808698004F6D54869A9
:1039A000012240F002004861042084F854004FF4E2
:1039B000FE40C86084F8542094F8500000064FF090
:1039C000000002D5636F1A738864002184F84C10DC
:1039D000B0BD2020A0650120002184F84C10B0BDAE
:1039E000A06D40F01000A065032084F8540094F806
:1039F000500000064FF0010044BF616F08730021C2
:103A000084F84C10B0BD0000002804BF01207047AE
:103A100090F8541002290AD1042180F8541000684B
:103A200042F20402416911434161002070472021A4
:103A30008165012070470000024600284FF0010018
:103A400008BF7047126802F57B63C3F3C41CCB0642
:103A50005CBF0020704740F6FF7301F011019A43EC
:103A6000112900FA0CF004D151680843506000207D
:103A70007047516821EA0000506000207047000044
:103A800090F854007047000010B5044600680C22FE
:103A9000034600F57B6162F30B03C1F3C4111A689E
:103AA00022FA01F1C90700F0A3800169490544BF6A
:103AB00041695FEA41514BD40169090544BF41693D
:103AC0005FEA01514CD40169C90444BF41695FEA0E
:103AD000C1414DD40169490444BF41695FEA414194
:103AE0004ED40169890544BF41695FEA81514FD4D1
:103AF0000169890444BF41695FEA814152D4016987
:103B0000C90544BF41695FEAC15172D4A06D002864
:103B100008BF10BD2068416941F002014161406960
:103B2000C0074FF0030008BF012084F8540094F848
:103B30005000000602D5606F01210173A16E0020C4
:103B4000002984F84C0053D02046BDE810400847B7
:103B50004FF48061C160A16D41F00101A165ABE747
:103B60004FF40061C160A16D41F00201A165AAE7B7
:103B70004FF48051C160A16D41F00401A165A9E736
:103B80004FF48041C160A16D41F00801A165A8E733
:103B90004FF40071C160616E0029A9D020468847AA
:103BA0002068A5E74FF40051C16094F8541004292F
:103BB0002AD1416921F400514161416941F002017A
:103BC00041614169C9074FF0030108BF012184F831
:103BD000541094F85010090604D5616F01220A733D
:103BE00000218164E16E0020002984F84C00ABD1F3
:103BF00010BD94F85010090611D4816C002904BF3F
:103C0000012184F8541013E0052184F85410216F29
:103C100000293FF474AF2046884720686FE7C16FE2
:103C200031B9816C21B9012184F85410626F11738C
:103C30004FF44071C160216E0020002984F84C00CF
:103C40001CBF2046884761E7B0B5044600F050FB32
:103C5000002C04BF0120B0BD00210546206884F877
:103C60004C10022184F85410416941F00601416171
:103C70004169C90709D000BF00F03AFB401B052885
:103C80004FD820684169C907F6D1216A426904F119
:103C9000100C22F4430211434161E3699CE80610D1
:103CA0001A4311434FF6B072CBF6FD7283186FF0D2
:103CB0001F0202EBF31541EA0C02082D4FEAF31C38
:103CC00028BFBCF1070F14D804F1240E9EE8284049
:103CD0004FF07C7101EB05514FF47C7505EB03133C
:103CE00001F07C7142EA0E0203F47C73114341EA55
:103CF00003020264A1682279E3681143226BB3F5E1
:103D0000007F42EA010213D0B3F5806F12D1ACF10B
:103D10002001082928BFBCF1070F98BF42F4806238
:103D200008E0012003211022A26584F85410B0BDE0
:103D300042F40072616B436C42F20015C3F6C04559
:103D40000A432B401A4341F24F33C4F20203426448
:103D50000022984282640CDC40F25032C4F202022B
:103D6000904212D040F2D032C4F2020290420CD003
:103D70000EE041F2D032C4F20202904205D041F28C
:103D80005032C4F20202904202D1002242658265A2
:103D90000022C267216501210020A26584F8541029
:103DA000B0BD000010B500284DD090F84CC0BCF15B
:103DB000010F04BF022010BD4FF0010C80F84CC071
:103DC00090F854C0BCF1010F38D14FF0020C80F8CC
:103DD00054C04FF0000CC0F858C0D0F800C0D0F864
:103DE00064E0DCF84840BEF1000FC3EA0403CCF8FD
:103DF00048304FF4FE43CCF80C30CCF84C10CCF8E3
:103E00005020DCF8141041F4BA41CCF8141005D05D
:103E1000DCF8141041F40071CCF81410006F28B1D4
:103E2000DCF8140040F40050CCF81400DCF8140066
:103E300040F00100CCF81400002010BD4021816545
:103E4000002180F84C10012010BD0000B0B50446E0
:103E500000F04EFA054640F21000C2F20000007871
:103E6000611C18BF044400BF00F042FA401BA0428E
:103E7000FAD3B0BD2DE9F04F81B040F2240BC2F26D
:103E8000000B9BF80020012A02BF022001B0BDE810
:103E9000F08F044601208BF8000000264FF47A7062
:103EA0008946CBF80460FEF7E1FF20B18BF8006093
:103EB00001B0BDE8F08F206848F2080220F0004110
:103EC00042F228079142C4F20207CBF8080007D15A
:103ED000606800F00301032936D148F2200042E077
:103EE0004FF0FF30C9F80000D4E902502844854261
:103EF00041D24FF6D77A4EF23F08C7F6FF7AAE01AD
:103F0000C7F6FF786068414610F00100386808BFC6
:103F10006FF4FE514FF0240200EA01003860386867
:103F200008BF0AF14D023043104338604FF47A70F5
:103F3000FEF79CFF08BBD4E9020101354036084476
:103F40008542DFD300201AE0C1074FF6D771C7F6CC
:103F5000FF7104D03A680A4042F028023A608007B4
:103F600004D501F151003968084338604FF47A7084
:103F7000FEF77CFF04E0002002E0C9F800500026B4
:103F800021684FF000423B6862EA01011940396044
:103F90008BF8006001B0BDE8F08F000040F2240013
:103FA000C2F200004068704742F22800C4F20200EA
:103FB000016841F0010101600068012121EA00006F
:103FC000704700002DE9F04381B040F22409C2F2AD
:103FD0000009154699F80020012A02BF022001B00D
:103FE000BDE8F0838046012089F80000002042F2FD
:103FF00020040E46C4F20204C9F8040000F078F967
:10400000216811F00B0F0BD0074600BF00F070F9CC
:10401000C01BB0F57A7F14D8206810F00B0FF5D1D3
:10402000206810F41E0013D0D9F804100143C9F819
:10403000041020610120002189F8001001B0BDE8C2
:10404000F0830320002189F8001001B0BDE8F0835F
:104050002068C00344BF4FF48030206128F0004046
:104060000228C9F8088017D1A06840F00200A060BB
:10407000EFF3108072B62968316069687160A968D1
:10408000B160E968F16080F3108800F031F92168CF
:1040900011F00B0F0CD117E0A06840F00200A060F7
:1040A0002888308000F024F9216811F00B0F0BD024
:1040B000054600BF00F01CF9401BB0F57A7F0FD811
:1040C000206810F00B0FF5D1206810F41E0009D005
:1040D000D9F804100143C9F804102061012008E058
:1040E000032006E02068C00344BF4FF48030206105
:1040F00000204FF02041A26861EA08011140A16050
:10410000002189F8001001B0BDE8F08342F20400FC
:10411000C4F20200416AC90704BF0020704740F2A0
:104120002311C4F26751016048F6AB11CCF6EF5190
:104130000160406A00F00100704700002DE9F04F77
:1041400082B00C68002C00F0C28047F67F72C0F28B
:104150002F0202EA90224FF001090092002200266D
:104160000027012501900FE0BCF1030F5FD100BFD4
:104170000C68083734FA05F305F1010506F102066B
:1041800002F1040200F0A380A5F1010A09FA0AFE77
:1041900014EA0E0BECD0D1F804C04CF01004122C31
:1041A0001FD16FF0030303EA5A0402F01C0300EB73
:1041B0000409D9F820C05846D1F810B00F2404FAE9
:1041C00003F80BF00F042CEA080C04FA03F343EA9B
:1041D0000C0383460198C9F82030D1F804C04FF091
:1041E000010903680324B4406FEA0408A3430CF0F8
:1041F0000304B4402343BCF1120F036017D809FA3B
:104200000CF313F0061FAFD08368CC6803EA0803F1
:10421000B4402343836043684FEA1C1423EA0E032F
:1042200004FA0AF42343BCF1030F4360A0D0C3682F
:104230008C6803EA0803B44023435FEACC04C360FC
:1042400096D542F200082AF00303C4F2024808EBB4
:10425000030EDEF860C007F018040F23A3402CEA19
:10426000030C009B03FA04F44CEA0403CEF860301C
:10427000D8F800C0D1F804E04CEA0B035FEACE2482
:1042800058BF2CEA0B03C8F80030D8F804C05FEA26
:104290008E234CEA0B0458BF2CEA0B04C8F80440E8
:1042A000D8F884C05FEA8E334CEA0B0458BF2CEA7E
:1042B0000B04C8F88440D8F880C05FEACE334CEADB
:1042C0000B0458BF2CEA0B04C8F8804050E702B03A
:1042D000BDE8F08F426902EA0103914341EA0341DC
:1042E000816170471823002A08BF2823C1507047F6
:1042F00040F2A070C2F200000068704740F2004136
:10430000C4F20301086840F0010200200A6070470F
:1043100040F2100040F2A071C2F20000C2F20001AF
:1043200000780A68104408607047000080B50320D8
:1043300000F086F801F0FEFA40F62041C4F2024196
:1043400009684CF6280201F00F01C0F60002515C2A
:10435000C84040F21C01C2F2000108600F2000F0CA
:1043600009F800281CBF012080BD00F02BF80020B8
:1043700080BD000070B540F21006C2F20006317830
:10438000002904BF012070BD044640F21C00C2F2A7
:1043900000004FF47A720068B2FBF1F1B0FBF1F06B
:1043A00002F05CF90F2C4FF0010508D838B94FF036
:1043B000FF3021460022002500F016F874602846E0
:1043C00070BD000070470000002848BF704700F033
:1043D0001F01012202FA01F14EF200124009CEF251
:1043E000000242F82010704710B54EF60C5CCEF279
:1043F000000CDCF80030C3F3022E8EF00704042C0E
:1044000028BF0424BEF103034FF0FF3E38BF002352
:104410000EFA04F4A14399400EFA03F39A4300F014
:104420000F03043B1143634409010C3300F1604264
:10443000B0F1FF3FC8BF02F56443197010BD000022
:104440004EF60C51CEF200010A684FF6FF031A40F7
:1044500060F30A2242F0806040F0FD70086070470F
:1044600010B540F6284CC4F2024CDCF80CE0DCF845
:104470000010DCF80030C3F30523DCF80020DCF882
:10448000104002F01002C4F3CC0404FB02F200EE70
:10449000102AB8EE400A8BB301F0030103296FF331
:1044A0005F2E30D0022933D001295CF8281C49F254
:1044B0000002C1F3C101C0F2D03222FA01F101EED3
:1044C000101A02EE103AB8EE411AB8EE422A9FEDE9
:1044D0004D3A81EE021A02EE10EA20EE030AB8EE1F
:1044E000422A30EE020AB7EE002A30EE022A5CF8C9
:1044F000281C22EE010A89012AD525E00021C0E905
:104500000011816010BD01EE103A9FED3D2A03E0DD
:1045100001EE103A9FED3C2AB8EE411A82EE012AD4
:1045200001EE10EA9FED373AB8EE411A20EE030A89
:1045300030EE010AB7EE001A30EE011A5CF8281CC2
:1045400022EE010A890103D5DCF80010C90306D464
:10455000002101605CF8281C890117D41AE0DCF8FE
:104560000C10B7EE002AC1F3462101EE101AB8EE86
:10457000411A31EE021A80EE011ABCEEC11A11EE98
:10458000101A01605CF8281C890103D5DCF80010C2
:10459000890301D4002111E0DCF80C10B7EE002AE9
:1045A000C1F3064101EE101AB8EE411A31EE021ABB
:1045B00080EE011ABCEEC11A11EE101A41605CF8CF
:1045C000281C890144BFDCF800105FEA413102D4A5
:1045D0000021816010BDDCF80C10B7EE002AC1F399
:1045E000066101EE101AB8EE411A31EE021A80EEA1
:1045F000010ABCEEC00A10EE101A816010BD00BFA7
:104600000024F44A000000390024744A10B540F632
:104610002C4CC4F2024CDCF810E0DCF80010DCF8A2
:104620000030C3F30523DCF80020DCF8144002F06E
:104630001002C4F3CC0404FB02F200EE102AB8EE20
:10464000400A8BB301F0030103296FF35F2E30D0D2
:10465000022933D001295CF82C1C49F20002C1F375
:10466000C101C0F2D03222FA01F101EE101A02EEBD
:10467000103AB8EE411AB8EE422A9FED4D3A81EE5B
:10468000021A02EE10EA20EE030AB8EE422A30EED9
:10469000020AB7EE002A30EE022A5CF82C1C22EE49
:1046A000010A09012AD525E00021C0E90011816035
:1046B00010BD01EE103A9FED3D2A03E001EE103AE5
:1046C0009FED3C2AB8EE411A82EE012A01EE10EA73
:1046D0009FED373AB8EE411A20EE030A30EE010A98
:1046E000B7EE001A30EE011A5CF82C1C22EE010A1B
:1046F000090103D5DCF80010C90306D400210160CC
:104700005CF82C1C090117D41AE0DCF81010B7EE85
:10471000002AC1F3462101EE101AB8EE411A31EE1B
:10472000021A80EE011ABCEEC11A11EE101A0160D5
:104730005CF82C1C090103D5DCF80010890301D4B6
:10474000002111E0DCF81010B7EE002AC1F3064199
:1047500001EE101AB8EE411A31EE021A80EE011A7B
:10476000BCEEC11A11EE101A41605CF82C1C090154
:1047700044BFDCF800105FEA413102D400218160BF
:1047800010BDDCF81010B7EE002AC1F3066101EE8F
:10479000101AB8EE411A31EE021A80EE010ABCEE90
:1047A000C00A10EE101A816010BD00BF0024F44A48
:1047B000000000390024744A80B584B04FF6FF73BE
:1047C0000246C0F21F0300209B1A70EB010347DA78
:1047D0006FF060439B1A70EB0103C0F286806FF0AC
:1047E0007C439B1A4FF000038B4180F2D78082F00C
:1047F00080630B4300F0908182F000630B4300F074
:10480000A08182F08052114340F0A48240F6004122
:10481000C4F20241D1F8E000C0F3C202042A00F25F
:10482000C08248F20000C0F2BB00DFE812F0C9020B
:104830008D02BA0293020500D1F8E8000B6810F06F
:104840004042086803D113F0020340F02D83B2F117
:10485000804F40F0518310F4007040F047834BE3E9
:1048600041F6FF739B1A70EB010363DA4FF6FF7397
:104870009B1A4FF000038B4180F2D28082F4803388
:104880000B4300F0888182F400330B4300F09F81DA
:1048900082F48022114340F05D8240F60041C4F270
:1048A0000241D1F8DC00C0F302320020052A00F2F8
:1048B0005182DFE812F06C0249024F029B02A30210
:1048C0000600D1F8E8000B6810F04042086803D1F8
:1048D00013F0020340F0E882B2F1804F40F00C8305
:1048E00010F4007040F0028306E30F2940F3C78004
:1048F00081F01003134300F0828181F400731343AD
:1049000000F09B8181F48051114340F0238240F6F6
:104910000041C4F20241D1F8E40000F04060B0F17F
:10492000806F00F0F881002800F065810A68B0F11E
:10493000006F42E1D2F103034FF000038B41C0F25C
:10494000BD8082F001030B4300F08B8182F00202F4
:10495000114340F0FF8140F60040C4F20240D0F81D
:10496000D81011F0380100F012820268082903D132
:1049700012F0006240F0188203680268182903D11F
:1049800013F0020340F00082202903D112F40072D8
:1049900040F0AC82D0F8F000282999E282F40013AC
:1049A0000B4300F0818182F00072114340F0D2810C
:1049B00040F60041C4F20241D1F8F000D1F8F020F5
:1049C00000F44070B0F5807F03D112F0020240F095
:1049D0004481D1F8F020B0F5007F06D112F00062DA
:1049E0001EBF4FF4FA4004B080BD0A68B0F5407FA6
:1049F0004FF0000040F0AE8112F4003200F0AA81C6
:104A0000C86910F4785F00F0CC81C86941F20021D8
:104A1000C0F30520C0F27A01B1FBF0F004B080BD14
:104A200082F400530B4300F0538182F4804211431F
:104A300040F0908140F60040C4F20240D0F8E4100B
:104A400001F44021B1F5802F00F06581002900F0CC
:104A50009E8102680068B1F5002F03D112F00202B6
:104A600040F0228210F400701CBF40F60010C0F22B
:104A70003D00B1F5402F18BF002004B080BD82F08A
:104A800000530B4300F04D8181F00401114340F0CD
:104A9000618140F60041C4F20241D1F8E8000968A2
:104AA00010F4407040F0778111F4003100F0738110
:104AB00041F20020C0F27A0004B080BD82F004030D
:104AC0000B4300F0498182F48052114340F042814F
:104AD00040F60040C4F20240D0F8E01001F0E0617E
:104AE000B1F1807F00F06081002900F084800368CC
:104AF0000268B1F1407F03D113F0020340F044811A
:104B0000B1F1806F03D112F4007240F0EF81D0F860
:104B1000F000B1F1A06FDBE140F60040C4F20240CA
:104B2000D0F8E810026811F0300140F0438112F42F
:104B3000005200F03F8146F60040C0F2DC2004B095
:104B400080BD40F60041C4F20241D1F8E00000F01F
:104B50000702042A00F2258148F20000C0F2BB00DF
:104B6000DFE812F02E01F2001F01F8000500D1F875
:104B7000E8000B6810F04042086803D113F002030C
:104B800040F09281B2F1804F40F0B68110F4007095
:104B900040F0AC81B0E140F60041C4F20241D1F8EE
:104BA000E40000F04070B0F1807F00F0B480002895
:104BB00000F0ED800A68B0F1007F4FF0000040F097
:104BC000C98012F0020200F0C58008686CE140F66E
:104BD0000041C4F20241D1F8DC00C0F302220020FF
:104BE000052A00F2B780DFE812F00600AF00B5003A
:104BF00001010901550100F079FE04B080BD40F6C5
:104C00000040C4F20240D0F8E41001F03001102955
:104C100000F0D6800268202903D112F0006240F033
:104C2000C380006810F400501CBF46F60040C0F27C
:104C3000DC20302918BF00208CE040F60040C4F290
:104C40000240D0F8E810D0F8F02011F0080140F050
:104C5000BD8012F0020200F0B9804FF4004004B0B1
:104C600080BD40F60040C4F20240D0F8D81011F0E8
:104C7000070100F0B7800268012903D112F0006239
:104C800040F0928003680268032903D113F0020305
:104C900040F07A80042903D112F4007240F026819A
:104CA000D0F8F000052913E140F60040C4F20240BC
:104CB000D0F8E81001F0070102292CD0012900F0FA
:104CC000A680002940F0A78000F0B0FD04B080BDB0
:104CD00040F60040C4F20240D0F8E41001F4403144
:104CE000B1F5803F17D0002951D002680068B1F5B6
:104CF000003F03D112F0020240F0D68010F40070A1
:104D00001CBF40F60010C0F23D00B1F5403F18BF97
:104D1000002004B080BD01A8FFF778FC039804B020
:104D200080BD40F60041C4F20241D1F8E000C0F37A
:104D30008212042A35D848F20000C0F2BB00DFE836
:104D400002F03F033009980001A8FFF75FFC0198CB
:104D500004B080BD04B080BD40F60040C4F2024003
:104D6000D0F8D81011F4E07111D00268402902D1B6
:104D700012F0006218D103680268C02940F09E80DA
:104D800013F0020300F09A80C2F3C1008EE000F03D
:104D900065FD04B080BDB0F5007F05D0B0F5807F23
:104DA0000ED0002004B080BD01A8FFF72FFC0298B0
:104DB00004B080BD0268102947D112F0007244D0BF
:104DC00001A8FFF74DFB029804B080BDD0F8F000B9
:104DD00010F0006018BF4FF4FA40002908BF0846E1
:104DE00004B080BD00F05EFD04B080BDD1F8F000DD
:104DF0004FF4004101EA803004B080BDD1F8F000EA
:104E00004FF4FA41000101EAE07004B080BD00F007
:104E100091FD04B080BD0268032903D112F4003271
:104E20007FF446AE02680068042902D112F0020243
:104E30003AD110F400701CBF40F60010C0F23D00E3
:104E4000052918BF002004B080BDD0F8F02020292B
:104E500003D112F002027FF400AFD0F8F00010F09E
:104E6000006018BF4FF4FA40302918BF002004B08A
:104E700080BDD1F8E8000B6810F04042086802D10C
:104E800013F0020310D1B2F1804F35D110F400704D
:104E90002CD131E0D1F8E8000B6810F040420868EE
:104EA0001ED113F002031BD0C0F3C10049F2000170
:104EB000C0F2D03121FA00F004B080BDB1F5807F9E
:104EC00002D112F4007211D1D0F8F000B1F5A07F38
:104ED00000F002024FF0000008BF900304B080BD54
:104EE000B2F1804F08D110F4007005D040F60010E8
:104EF000C0F23D0004B080BD086810F400301CBF53
:104F000041F20020C0F27A00B2F1004F18BF002039
:104F100004B080BD2DE9F0470446006840F62848FB
:104F2000C101C4F2024807D5D8F8C010226B21F0A5
:104F300040411143C8F8C010C00714D0606BC11EB7
:104F4000032909D340B1012813D104F1080003F06B
:104F50009DF9064640B9606BD8F8B01021F0070102
:104F60000843C8F8B00000262078800705D43546ED
:104F700021E0012620788007F9D5A06B6FF00201AF
:104F800001EBF001354603290AD34FEAF00035461C
:104F900030B1012830D104F1080003F077F905465B
:104FA0002F464DB9D8F8B000A16B20F03800084367
:104FB0000025C8F8B00037462078400721D5E06BBF
:104FC0006FF0020101EBB011032909D34FEAB010D1
:104FD00030B1012836D104F1080003F057F9054635
:104FE0002E467DB9D8F8B000E16B20F4E07008439C
:104FF0000025C8F8B00004E001250127207840070B
:10500000DDD43E466078C00621D5206C6FF00201E9
:1050100001EB3061032909D34FEA306030B1012838
:105020003CD104F1080003F031F905462F467DB963
:10503000D8F8B800216C20F0E06008430025C8F8DB
:10504000B80004E0012501266078C006DDD43746AB
:105050006078800627D5606C6FF0010101EB30416C
:10506000022909D34FEA304030B1012810D104F1B0
:10507000080003F00BF905462E465DB9D8F8BC00D0
:10508000616C20F4403008430025C8F8BC000AE0F9
:10509000012501266078400609D424E00125012776
:1050A00060788006D7D43E46607840061BD5A06C59
:1050B0006FF0010101EBB041022909D34FEAB04082
:1050C00030B1012830D104F1080003F0DFF80546C3
:1050D0002F464DB9D8F8BC00A16C20F440200843FD
:1050E0000025C8F8BC003746A078C00721D0E06C86
:1050F000002818BFB0F1007F0BD12E46D5B9D8F8E3
:10510000BC00E16C20F0407008430025C8F8BC00EA
:105110000FE0B0F1807F2DD104F1080003F0B6F864
:1051200005462E4635B9EAE701250127A078C007D4
:10513000DDD13E466079C00621D5206D002818BF1C
:10514000B0F1006F0BD12F46D5B9D8F8BC00216D56
:1051500020F0406008430025C8F8BC000FE0B0F123
:10516000806F61D104F1080003F090F805462F46E6
:1051700035B9EAE7012501266079C006DDD4374656
:10518000D4E9000140F61C4AC4F2024A09050CD5D4
:10519000DAF8001021F40041CAF80010D4F88010A9
:1051A000DAF800201143CAF8001080031BD5606DA7
:1051B0006FF0020101EB3021032909D34FEA3020BF
:1051C00030B1012833D104F1080003F05FF805463F
:1051D0002E464DB9D8F8B400616D20F4E060084364
:1051E0000025C8F8B4003E46A078400724D5A06D3D
:1051F0006FF0020101EB3031032909D34FEA30305F
:1052000030B1012828D104F1080003F03FF8054629
:105210002F4695B9D8F8B400A16D20F4E0400843BA
:105220000025C8F8B40007E001250127A8E70125FB
:105230000126A0784007DAD43746A078800610D53A
:10524000606E052828D802282DD029469DB3D4E9C0
:10525000000292050AD43CE001250127A0788006CF
:10526000EED43946D4E90002920532D5A26E42F05E
:105270000803082B0AD1A9465DB9D8F8C03000252B
:1052800023F008031A43C8F8C02022E001254FF09C
:105290000109800120D47AE001250121D4E900022E
:1052A0009205E3D415E004F1080002F0EFFF054693
:1052B000002D2946CBD1D8F8C000616E20F0070040
:1052C00008430025C8F8C0003946D4E90002920519
:1052D000CCD4894680015AD54FF60847CFF6FF77E0
:1052E0005AF8070040F001004AF80700FFF700F8FD
:1052F000064600BF5AF80700C00707D1FEF7F8FFBF
:10530000801B0228F6D90325032041E0002D284602
:105310003ED1D8F8C80010F4407017D0A16F884271
:1053200011D0D8F8C800D8F8C81020F4407041F463
:105330008031C8F8C810D8F8C81021F48031C8F8F6
:10534000C810C8F8C800C00740F02A81A06FDAF87A
:1053500000104FF6CF7300F4407221F47C51C0F27C
:10536000FF0303EA1013B2F5407F08BF1943CAF8E0
:105370000010D8F8C8106FF31F3021F44071C8F83E
:10538000C810D8F8C81000250843C8F8C800484617
:1053900021684A011BD5226E6FF0010303EB321323
:1053A000022B0AD34FEA32133BB1012B2ED1D8F88E
:1053B000003043F40033C8F800302F4645B9D8F820
:1053C000C030002523F030031A43C8F8C020074638
:1053D00008011FD5E06EC11E02290BD3012800F081
:1053E000B880002840F0BF80D8F8000040F40030BA
:1053F000C8F800002E4675B9D8F8B800E16E20F064
:10540000070008430025C8F8B80003E0012501277C
:105410000801DFD43E46E078C0061FD5206F6FF04C
:10542000020101EBF00102290DD34FEAF00001283F
:1054300000F09C80002840F0A380D8F8000040F4E1
:105440000030C8F800002F464DB9D8F8B800216FD9
:1054500020F0380008430025C8F8B8003746E07847
:1054600080061FD5606F6FF0020101EBB0110229B9
:105470000DD34FEAB010012800F08580002840F0DD
:105480008C80D8F8000040F40030C8F800002E46A8
:105490004DB9D8F8B800616F20F4E07008430025DA
:1054A000C8F8B8003E462079400720D5E06D58B1D5
:1054B000B0F5007F0BD0B0F5807F47D1D8F8000061
:1054C00040F40030C8F800002F468DB906E004F122
:1054D000080002F0DBFE05462F464DB9D8F8C000A3
:1054E000E16D20F4407008430025C8F8C00037463D
:1054F0002079C0065CBF3846BDE8F087E06F3028F1
:105500000DD020280FD010281EBF01252846BDE849
:10551000F087D8F8000040F40030C8F800004DB122
:105520002846BDE8F08704F1080002F0AFFE05460A
:10553000002DF5D1D8F8BC00E16F20F03000084311
:105540003D46C8F8BC002846BDE8F0870125012784
:10555000CEE704F1080002F099FE0546002D2E4624
:105560007FF459AF48E70125012654E704F108000C
:1055700002F08CFE0546002D2F467FF470AF64E7E5
:10558000012501276BE704F1080002F07FFE0546C4
:10559000002D2E467FF487AF7BE70125012682E7A9
:1055A000FEF7A6FE064641F288370325D8F8C80064
:1055B00080073FF5CBAEFEF79BFE801BB8424FF055
:1055C0000300F3D9E4E600002DE9F04381B00028A0
:1055D00000F0CA8042F20008C4F202080446D8F87B
:1055E00000000D4600F00F0088420DD2D8F80000F0
:1055F00020F00F002843C8F80000D8F8000000F0A1
:105600000F00A84240F0B080206840F62047C10655
:10561000C4F202470CD561693A68702303EA12228A
:10562000914205D93A6822F4E04242EA0121396008
:1056300001070CD521693A68702303EA12129142DE
:1056400005D93A6822F4E06242EA01113960410763
:105650000AD5E1683A6802F07002914204D93A68CA
:1056600022F070021143396081070AD5A1683A68B7
:1056700002F00F02914204D93A6822F00F0211435E
:105680003960C00767D1206881070AD5A1683A68E8
:1056900002F00F02914204D23A6822F00F02114345
:1056A0003960D8F8001001F00F01A9420CD9D8F8E0
:1056B000001021F00F012943C8F80010D8F800109D
:1056C00001F00F01A9424FD141070AD5E1683A68BC
:1056D00002F07002914204D23A6822F07002114343
:1056E000396001070CD521693A68702303EA121268
:1056F000914205D23A6822F4E06242EA011139602F
:10570000C0060CD560693968702202EA112188420E
:1057100005D2396821F4E04141EA0020386000F008
:1057200009F939684CF6280201F00F01C0F60002B1
:10573000525C40F21401C2F20001096840F21C03FD
:1057400020FA02F2C2F2000308461A6001B0BDE876
:10575000F043FEF70FBE6068022809D003285BD132
:1057600057F8201C890107D4012001B0BDE8F0835F
:1057700057F8201C8903F7D557F8041C21F00301C2
:10578000084347F8040CFEF7B3FD61680646032999
:1057900041F288392BD0022937D0012910D100BF1E
:1057A00057F8040C00F0180008283FF46CAFFEF71F
:1057B0009FFD801B48454FF00300F1D90DE000BF6D
:1057C00057F8040C10F0180F3FF45DAFFEF790FD92
:1057D000801B48454FF00300F2D901B0BDE8F083CB
:1057E000FEF786FD801B48454FF00300F5D857F8BB
:1057F000040C00F018001828F2D144E7FEF778FDF9
:10580000801B48454FF00300E7D857F8040C00F020
:1058100018001028F2D136E757F8201C012802D1D1
:105820008905A1D5A8E789079ED5A5E780B500F031
:1058300081F840F62041C4F2024109684CF6280282
:1058400001F00F01C0F60002515C01F01F01C840D9
:1058500040F21C01C2F20001086080BD80B500F07A
:1058600069F840F62041C4F202410A684CF6280368
:1058700002F00F02C0F600039A5C02F01F02D04053
:1058800040F21C02C2F20002106009684CF63802B5
:10589000C1F30211C0F60002515C01F01F01C840C3
:1058A00080BD000080B500F045F840F62041C4F20C
:1058B00002410A684CF6280302F00F02C0F600030A
:1058C0009A5C02F01F02D04040F21C02C2F20002B9
:1058D000106009684CF63802C1F30221C0F60002DC
:1058E000515C01F01F01C84080BD000080B500F090
:1058F00021F840F62041C4F202410A684CF6280320
:1059000002F00F02C0F600039A5C02F01F02D040C2
:1059100040F21C02C2F20002106009684CF6380224
:10592000C1F30231C0F60002515C01F01F01C84012
:1059300080BD000080B540F60041C4F20241C86954
:1059400000F01800082802BF40F60010C0F23D0029
:1059500080BDC86910F0180F34D0C86900F0180075
:10596000102802BF41F20020C0F27A0080BDC86951
:1059700000F01800182849F20000C0F2D03063D1BE
:10598000D1F828E08A6AC2F3052C8A6ABCF1000FBC
:10599000C2F300128B6BC3F3CC0303FB02F200EEE5
:1059A000102AB8EE400A04BF002080BD0EF00303A9
:1059B000032B14D0012B15D10A68920615D49FED44
:1059C000241A1AE00868800649F20000C0F2D030BC
:1059D00058BF80BD0968C1F3C101C84080BD9FEDBB
:1059E0001B1A0AE09FED1B1A07E00A68C2F3C10206
:1059F000D04001EE100AB8EE411A02EE10CA9FED37
:105A0000163AB8EE422A486B81EE021A6FF35F2015
:105A100002EE100A20EE030AB8EE422A486B30EE7E
:105A2000020AB7EE002AC0F3462030EE020A013027
:105A300021EE000A01EE100AB8EE411A80EE010ACA
:105A4000BCEEC00A10EE100A80BD00BF0024F44A6C
:105A50000024744C0024744A000000392DE9F043FE
:105A600081B0002800F0388140F6004740F6F04948
:105A70000446C4F20247C4F20249F86959F8C81C46
:105A8000227800F01808D00601F0030628D5B8F1F6
:105A9000080F1AD0B8F1180F08BF022E15D0E1690F
:105AA0003868002900F0938140F480703860FEF778
:105AB0001FFC0546386880050BD4FEF719FC401B17
:105AC00002284FF00300F5D948E2E069002800F011
:105AD0000381B869216A20F47C1040EA0140B86172
