:020000040800F2
:10000000600E0020F9020008054F0008E14E0008CC
:10001000014F0008710700088D7000080000000003
:10002000000000000000000000000000CD590008A2
:100030007507000800000000095800080D5A000864
:100040001503000815030008150300080000000050
:100050001503000815030008150300080000000040
:100060001503000815030008000000001503000830
:100070001503000815030008150300081503000800
:1000800015030008150300081503000815030008F0
:1000900015030008150300081503000815030008E0
:1000A0001503000815030008150300088107000860
:1000B00015030008150300081503000815030008C0
:1000C00015030008150300088D0700081503000834
:1000D00000000000150300081503000815030008C0
:1000E0001503000815030008150300081503000890
:1000F00015030008B95A0008C55A0008000000009E
:10010000000000001503000815030008150300088F
:10011000150300081503000815030008150300085F
:1001200015030008150300087570000881700008A9
:10013000150300080000000000000000150300087F
:10014000150300080000000000000000000000008F
:10015000000000000000000015030008000000007F
:10016000000000000000000015030008150300084F
:10017000000000000000000000000000000000007F
:10018000000000000000000000000000000000006F
:10019000000000000000000000000000000000005F
:1001A000000000000000000015030008150300080F
:1001B00015030008150300081503000815030008BF
:1001C00015030008150300080000000000000000EF
:1001D00000000000000000000000000015030008FF
:1001E00015030008000000000000000000000000EF
:1001F00000000000000000000000000000000000FF
:1002000000000000150300081503000800000000AE
:1002100000000000150300080000000000000000BE
:1002200000000000000000000000000015030008AE
:10023000150300080000000000000000000000009E
:10024000000000000000000000000000150300088E
:10025000150300081503000800F002F800F03CF850
:100260000AA090E8000C82448344AAF10107DA4511
:1002700001D100F031F8AFF2090EBAE80F0013F027
:10028000010F18BFFB1A43F0010318472485000033
:1002900044850000103A24BF78C878C1FAD85207C4
:1002A00024BF30C830C144BF04680C6070470000F0
:1002B0000023002400250026103A28BF78C1FBD86F
:1002C000520728BF30C148BF0B6070471FB508F008
:1002D00023FA1FBD10B510BD00F04EF91146FFF70F
:1002E000F5FF06F0DDFF00F06CF903B4FFF7F2FF55
:1002F00003BC00F06FF900000A4880470A48004735
:10030000FEE7FEE7FEE7FEE7FEE7FEE7FEE7FEE7C5
:10031000FEE7FEE7FEE7000004480549054A064BF4
:1003200070470000115A00085902000860080020B8
:10033000600E0020600A0020600A002053EA020CD0
:1003400000F069802DE9F04B4FF00006002B1FBF35
:10035000B3FA83F503FA05F424FA05F65E4012BFFA
:100360001643B2FA82F502FA05F4C5F120051EBF64
:1003700022FA05FC44EA0C04203556EA044C4FEA04
:10038000144418BF641C4FF000084FF0000990425D
:1003900071EB030C39D3002919BFB1FA81F701FAC7
:1003A00007F6B0FA80F700FA07F6C7F120071EBF7C
:1003B00020FA07FC46EA0C062037B6FBF4FCA7EB54
:1003C0000507103F07F01F0BCBF120062CFA06F6AD
:1003D0000CFA0BFB44BFB3460026202FA4BF5E4699
:1003E0004FF0000B5BEA060C08BF4FF0010B19EB56
:1003F0000B0948EB0608ABFB027C06FB02CC0BFBAF
:1004000003CCC01B71EB0C01C1E70B460246414611
:100410004846BDE8F08B13B5084318BF4FF0FF30D6
:100420000146AFF30080BDE81C407047032A40F24C
:10043000308010F0030C00F0158011F8013BBCF186
:10044000020F624498BF11F801CB00F8013B38BF9E
:1004500011F8013BA2F1040298BF00F801CB38BFAC
:1004600000F8013B11F0030300F04F80083AC0F0A0
:10047000088051F8043B083A51F804CBA0E8081072
:10048000F5E7121D5CBF51F8043B40F8043BAFF3A5
:100490000080D20724BF11F8013B11F801CB48BFFF
:1004A00011F8012B24BF00F8013B00F801CB48BF35
:1004B00000F8012B70474FF0000200B51346944638
:1004C0009646203922BFA0E80C50A0E80C50B1F1AC
:1004D0002001BFF4F7AF090728BFA0E80C5048BFC0
:1004E0000CC05DF804EB890028BF40F8042B08BF5E
:1004F000704748BF20F8022B11F0804F18BF00F85A
:10050000012B704770477047704710B5203AC0F014
:100510000B80B1E81850A0E81850B1E81850A0E8D6
:100520001850203ABFF4F5AF5FEA027C24BFB1E86F
:100530001850A0E8185044BF18C918C0BDE81040B2
:100540005FEA827C24BF51F8043B40F8043B08BFBB
:100550007047D20728BF31F8023B48BF11F8012B82
:1005600028BF20F8023B48BF00F8012B704700006D
:1005700000487047180000207546FFF7F9FFAE46A7
:1005800005006946534620F00700854618B020B59F
:10059000FFF7C2FEBDE820404FF000064FF0000715
:1005A0004FF000084FF0000BAC46ACE8C009ACE8D7
:1005B000C009ACE8C009ACE8C00921F007018D46CC
:1005C000704710B50446AFF300802046BDE81040E8
:1005D000FFF78BBE01491820ABBEFEE726000200E4
:1005E000704700000146C06D836D826D13F0500F9F
:1005F00007D0D20648BF00F0C3BA006D826E08462D
:10060000104742F40071816501680B68CA681B07D6
:1006100010D491070CD4816D21F480718165816DB6
:10062000C90448BF00F0A8BA816D41F0010181659D
:1006300000F0A2BA12F4406FFAD1C9688904F7D465
:10064000816D21F480718165816DC904F0D4816D63
:1006500041F00101816500F08FBA0000C06D816D2D
:1006600041F040018165C16D41F00401C16500F0B8
:1006700087BA0000C06D00F081BA000070B582B08A
:1006800004460020019021688A68D20740D14FF6C5
:10069000C076C7F6FF76886806F17F0210420AD05E
:1006A000A06D40F01000A065E06D40F00100E06535
:1006B000012002B070BD8868304040F001008860C1
:1006C00048F20830C4F202200068000222D401F08F
:1006D000E9F821680A68D2071EBF002002B070BD89
:1006E000054602E00868C00711D18868C00704D138
:1006F0008868304040F00100886001F0D3F8401B6A
:1007000021680328EED30868C007EBD1C8E70020B2
:1007100002B070BD40F21000C2F20000006842F664
:1007200063518009C0F23E51A0FB010188090221FA
:1007300001EB4000019001980028C8D001980138D1
:10074000019001980028C2D00198013801900198C9
:100750000028BCD001980138019001980028B6D03B
:1007600001980138019001980028E7D1AFE7000017
:10077000FEE700007047000072B600BFFEE7000011
:1007800040F2A830C2F2000000F0BCBD40F22040B0
:10079000C2F2000000F0B6BDF0B581B000220092B8
:1007A00090F85420012A03D10221084601B0F0BD7F
:1007B0000123076880F85430BB685B0743D40B689B
:1007C00048F2083C012BC4F2022C09D14FF6C05666
:1007D000CFF6FF765CF8065045F001054CF8065060
:1007E0004E681F22C6F3012506F01F0607EB85059C
:1007F000B2402C6BC3F3846324EA0202B3401A4371
:100800002A63BA68BB68DB0843EA9202D20740F069
:10081000BB800A688D68C2F3406407F114030426A4
:1008200006EAD25E53F82460C2F304540722A240C1
:10083000B5F1004F26EA02060BD143F80E601A68A4
:1008400042F000430DE0816D41F0200181650121FE
:100850008CE105FA04F2324343F80E201A6822F0C4
:1008600000437B61D1E90435FE68042B5FD13A6E09
:100870003A6EC2F384620B6893FAA3F4B4FA84F577
:10088000C3F3846E6FF31F532C46002B08BF7446CE
:10089000A2424FF6FF74C0F20F040CD13A6E22F060
:1008A00000423A660A6802EA0403C2F3846E92FACE
:1008B000A2F2B2FA82F57A6E7A6E002BC2F38462EB
:1008C0002E4608BF7646B2420CD17A6E22F0004224
:1008D0007A660A6802EA0403C2F3846E92FAA2F20C
:1008E000B2FA82F5BA6EBA6E002BC2F384622E465B
:1008F00008BF7646B2420CD1BA6E22F00042BA6608
:100900000A6802EA0403C2F3846E92FAA2F2B2FA0F
:1009100082F5FA6EFA6E002BC2F3846208BF754648
:10092000AA4231D1FA6E22F00042FA662CE0062289
:1009300002EA960207F16004D1F800E054F823605F
:1009400005FA02F24FF20005C0F2FF3535400EF015
:10095000F84632432A4342F0004244F823200A6911
:100960008B6954F8226026F08076334344F82230B5
:100970000A690B7F54F82260012B26F0007608BF2D
:1009800006F1007644F82260BA68D20757D10D68A4
:10099000CA68D7F8B0602B466FF31F5326EA030EE0
:1009A0004FF6FF7602F01804C0F20F0626FA04F4A0
:1009B0001C4044EA0E060024C4F27F04A242C7F899
:1009C000B0603CD195FAA5F2B2FA82F42246002B2F
:1009D00008BFAA0E013202F01E02092A4FEA9565ED
:1009E0000CD8002B14BF621C6A1C02F01F030122EA
:1009F00003EB43069A4042EA065312E0002B14BF71
:100A0000621C6A1C02F01F0303EB43020025CFF6B1
:100A10002065012605EB025206FA03F31A4342F061
:100A200000738A68C3F34066072407EB860675697E
:100A3000C3F304539C40A5439A402A4372610B6858
:100A40000021C8F208010B422ED0DCF80050002132
:100A5000CCF221318B4205F0E07108BF15F40002A1
:100A600024D00422C8F66002934208BF15F08072B9
:100A700022D00022CCF25272934208BF15F48002B9
:100A800020D0ACF542718F424FF000016ED0402271
:100A9000C9F62012934269D1D7F8C81041F002017B
:100AA000C7F8C810002161E000215FE0ACF5427298
:100AB00097420DD0002159E0ACF5427297423BD0ED
:100AC000002153E0ACF5427297423DD000214DE049
:100AD000DCF8002022F0E072114341F40001CCF870
:100AE000001040F21001C2F20001096842F66352A0
:100AF0008909C0F23E52A1FB02129109022202EBC7
:100B000041010091009951B3009901390091009978
:100B100039B3009901390091009921B30099013945
:100B20000091009909B300990139009100990029B9
:100B30004FF00001E8D119E0DCF8002022F0E0726B
:100B4000114341F0807106E0DCF8002022F0E072F1
:100B5000114341F48001CCF80010002106E000218F
:100B600004E0002102E0002100E00021002280F8E2
:100B70005420084601B0F0BD7047000070470000E7
:100B800070470000B0B582B00446002001904CB11F
:100B9000A06D50B121688868800011D48868C000B9
:100BA00018D54AE0012002B0B0BD204600F0EAF8B6
:100BB0000020E06584F85400216888688000EDD545
:100BC00088684FF6C072C5F6FF721040886088686A
:100BD000C00032D44FF6C0728868C5F6FF7202F1C9
:100BE0008052104000F18050886040F21000C2F244
:100BF0000000006842F663528009C0F23E52A0FB3A
:100C000002029009022202EB400001900198A0B17B
:100C1000019801380190019878B10198013801904C
:100C2000019850B1019801380190019828B10198BC
:100C30000138019001980028EAD18868C00009D4E1
:100C4000A06D40F01000A065E06D40F00100E0658F
:100C5000012000E000208A68C2F38002A36D03F047
:100C60001003D218A26D05D042F010010120A16539
:100C700002B0B0BD22F481720232A2658A68D20746
:100C800012D148F208324FF60053C4F20222CFF6D6
:100C9000FF73D358DB0707D1D4F804C0136823F4DB
:100CA0007C1343EA0C031360627EA36B43EA423277
:100CB000D4E902C31A4394F8203042EA0C0242EA13
:100CC000034E012B08D1D4F824C00023CFF6FE73C5
:100CD00003EB4C434EEA030EA36A3BB103F4787373
:100CE000D4F82CC043EA0E0242EA0C0ECB6844F260
:100CF0000702CFF6F0721A4042EA0E02CA600A6991
:100D0000236B22F040621A430A618A68120727D4D3
:100D100094F83430227E5B0094F83CC043EA823E73
:100D2000CB6844F2020223EA020242EA0E02CA60DF
:100D30000A69BCF1010F10D140F2FD7322EA030CE5
:100D4000D4E91032D4E912E543EA0C031A4342EA2B
:100D50000E022A4342F0010201E022F001020A6180
:100D600022690B6B012A23F00F0202BFE369013BEA
:100D70001A430A63A16D012262F30101A16502B069
:100D8000B0BD00002DE9F043A9B00446002640F2B2
:100D9000000902A88821CDE92766CDE92566C4F2BD
:100DA00002292496FFF787FB206809F50041884255
:100DB00002D029B0BDE8F0834FF400100290022069
:100DC0004FF00108252103960490CDF81480CDE959
:100DD00006100421099108210890CDE90A164FF464
:100DE00080510C914FF480211B9002A80D9101F0CD
:100DF0006BFB002818BFFFF7BFFC40F68C40C4F225
:100E00000240016824AE41F480610160016803255D
:100E100001F48061019101990168002741F001010D
:100E20000160016801F0010101910199016841F03F
:100E3000020101600068314600F002000190019853
:100E4000FE20249048462595269700F051FC09F590
:100E500080603146CDE92485269700F049FC40F2B8
:100E6000204540F2D031C2F200054FF40020C4F218
:100E700002014FF48032C5E90017C5E90277C5E9E0
:100E800004702846C5E90682C5E90878C5E90A87DD
:100E9000C5E90C7700F016FB002818BFFFF76CFCC3
:100EA000284610212565EC6500F004FA002818BFDB
:100EB000FFF762FC29B0BDE8F083000070B59CB07C
:100EC000044600688068400703D494F85400012861
:100ED00002D102201CB070BD012084F854002046CD
:100EE00016460D46FFF7CAFB20B1002184F85410C6
:100EF0001CB070BDA06D40F60171884300F5807094
:100F0000A065A06D40F2E553C0044FF0000044BF5F
:100F1000E06D20F00600E065206DC0F6000321685A
:100F200040F27562036640F25D63C0F60002C0F6EF
:100F300000034FF0000CC0E919231C220A6084F85A
:100F400054C04A6842F010024A60CA6842F0010286
:100F5000CA6090F85020120606D48269012A0ED089
:100F6000022A08BFB6000BE0406F28B1016819B132
:100F700001A800F029F898B101201CB070BD7600DE
:100F800040312A46334600F04BFB21684FF6C073D0
:100F90008A68C7F6FF731A4004328A601CB070BDBD
:100FA0000798012803D0022808BFB60000E07600A9
:100FB000206D2268416F40320968C1E902620D610B
:100FC00000F0A6F8E1E7000080B500284FF001022C
:100FD00018BF002901D1104680BD91F820C042F20F
:100FE0000002C0F800C00B68C0F6004203F008031E
:100FF00003610B6803F4002343610B6803F00303F0
:1010000083610B6803F44033C3610B68C3F30513BA
:10101000013343620B68C3F30553013383620B68EA
:1010200003F04023C3620B681A4082630A6802F42B
:10103000C052C2634B689A0508D4DAB242604A795A
:10104000520754BF00224FF4806202E04FF4007256
:101050004260C2604A6802F4006282604A6802F438
:10106000404202644A6802F040724264CA8802F058
:101070003F0282644A6802F0404202630B891CF01E
:10108000020283660FBF01234B896FF3DF23013315
:10109000C364CB6803660B69436632B90022C0E9BA
:1010A0001422C0E91622104680BD4B696FF35F33EE
:1010B0000365B1F816C06FF35F3CC0F854C0D1F8B7
:1010C00008E05FEACE0203D55A420265D1F808E093
:1010D0005FEA8E0244BFCCF100024265B1F818E02D
:1010E000C0F858E08A694FEA124CC0F85CC08A68C0
:1010F000530003D5CEF1000282658A68B2F1FF3F4A
:10110000C4BF002080BDCCF10001C165002080BDBE
:1011100080B5002856D0436F002B53D090F8541060
:10112000D0F800E00129DEF814C004D002294BD128
:101130001CF4803148D090F8541001293AD190F82D
:101140004C1001294FF0020144D0012280F84C20BC
:1011500080F854101973002181651961DEF81410AC
:1011600041F4BA41CEF81410416E29B1DEF81410E2
:1011700041F40071CEF81410006F28B1DEF81400AD
:1011800040F40050CEF8140018680022016ACFF62F
:101190000102490861F3596261F39A624FF6FF71E7
:1011A00020EA0101CEF800104FF6FC71084010440F
:1011B000CEF87C00DEF8140040F00100CEF81400F8
:1011C000002080BD012080BD40218165002180F884
:1011D0004C100121084680BDB0B5044600F062FB0A
:1011E000002C04BF0120B0BD054694F8540002282D
:1011F0002DD12168486940F004004861052084F839
:1012000054000869800408D400F04CFB401B0528FA
:1012100024D8216808698004F6D54869012240F085
:1012200002004861042084F854004FF4FE40C86076
:1012300084F8542094F8500000064FF0000002D5C6
:10124000636F1A738864002184F84C10B0BD2020AD
:10125000A0650120002184F84C10B0BDA06D40F0C5
:101260001000A065032084F8540094F85000000694
:101270004FF0010044BF616F0873002184F84C10E7
:10128000B0BD0000002804BF0120704790F8541042
:1012900002290AD1042180F85410006842F20402A5
:1012A000416911434161002070472021816501207F
:1012B00070470000024600284FF0010008BF704749
:1012C000126802F57B63C3F3C41CCB065CBF00202D
:1012D000704740F6FF7301F011019A43112900FA9B
:1012E0000CF004D1516808435060002070475168E9
:1012F00021EA0000506000207047000090F8540080
:101300007047000010B5044600680C22034600F543
:101310007B6162F30B03C1F3C4111A6822FA01F175
:10132000C90700F0A3800169490544BF41695FEA2C
:1013300041514BD40169090544BF41695FEA01513C
:101340004CD40169C90444BF41695FEAC1414DD42D
:101350000169490444BF41695FEA41414ED40169D2
:10136000890544BF41695FEA81514FD4016989040D
:1013700044BF41695FEA814152D40169C90544BF54
:1013800041695FEAC15172D4A06D002808BF10BD49
:101390002068416941F0020141614069C0074FF096
:1013A000030008BF012084F8540094F850000006A0
:1013B00002D5606F01210173A16E0020002984F81D
:1013C0004C0053D02046BDE8104008474FF48061E0
:1013D000C160A16D41F00101A165ABE74FF400616F
:1013E000C160A16D41F00201A165AAE74FF48051EF
:1013F000C160A16D41F00401A165A9E74FF48041EE
:10140000C160A16D41F00801A165A8E74FF400712A
:10141000C160616E0029A9D0204688472068A5E7F1
:101420004FF40051C16094F8541004292AD1416945
:1014300021F400514161416941F00201416141697A
:10144000C9074FF0030108BF012184F8541094F834
:101450005010090604D5616F01220A7300218164CE
:10146000E16E0020002984F84C00ABD110BD94F847
:101470005010090611D4816C002904BF012184F8A1
:10148000541013E0052184F85410216F00293FF413
:1014900074AF2046884720686FE7C16F31B9816C0F
:1014A00021B9012184F85410626F11734FF4407117
:1014B000C160216E0020002984F84C001CBF20462A
:1014C000884761E7B0B5044600F0ECF9002C04BF92
:1014D0000120B0BD00210546206884F84C1002218F
:1014E00084F85410416941F0060141614169C9071E
:1014F00009D000BF00F0D6F9401B05284FD820685E
:101500004169C907F6D1216A426904F1100C22F43D
:10151000430211434161E3699CE806101A431143F9
:101520004FF6B072CBF6FD7283186FF01F0202EB1C
:10153000F31541EA0C02082D4FEAF31C28BFBCF159
:10154000070F14D804F1240E9EE828404FF07C7158
:1015500001EB05514FF47C7505EB031301F07C7131
:1015600042EA0E0203F47C73114341EA030202646F
:10157000A1682279E3681143226BB3F5007F42EA48
:10158000010213D0B3F5806F12D1ACF1200108290C
:1015900028BFBCF1070F98BF42F4806208E0012029
:1015A00003211022A26584F85410B0BD42F40072E9
:1015B000616B436C42F20015C3F6C0450A432B40F1
:1015C0001A4341F24F33C4F20203426400229842AC
:1015D00082640CDC40F25032C4F20202904212D01B
:1015E00040F2D032C4F2020290420CD00EE041F23E
:1015F000D032C4F20202904205D041F25032C4F21D
:101600000202904202D10022426582650022C26736
:10161000216501210020A26584F85410B0BD0000AE
:1016200010B500284DD090F84CC0BCF1010F04BF9C
:10163000022010BD4FF0010C80F84CC090F854C04F
:10164000BCF1010F38D14FF0020C80F854C04FF0BC
:10165000000CC0F858C0D0F800C0D0F864E0DCF846
:101660004840BEF1000FC3EA0403CCF848304FF401
:10167000FE43CCF80C30CCF84C10CCF85020DCF801
:10168000141041F4BA41CCF8141005D0DCF8141051
:1016900041F40071CCF81410006F28B1DCF814008C
:1016A00040F40050CCF81400DCF8140040F00100C5
:1016B000CCF81400002010BD40218165002180F885
:1016C0004C10012010BD0000B0B5044600F0EAF84F
:1016D000054640F20800C2F200000078611C18BF05
:1016E000044400BF00F0DEF8401BA042FAD3B0BDB6
:1016F0002DE9F04F82B00C68002C00F0C28047F654
:101700007F72C0F22F0202EA90224FF0010900928C
:10171000002200260027012501900FE0BCF1030FF5
:101720005FD100BF0C68083734FA05F305F10105F5
:1017300006F1020602F1040200F0A380A5F1010AFD
:1017400009FA0AFE14EA0E0BECD0D1F804C04CF0F2
:101750001004122C1FD16FF0030303EA5A0402F0A5
:101760001C0300EB0409D9F820C05846D1F810B08A
:101770000F2404FA03F80BF00F042CEA080C04FA07
:1017800003F343EA0C0383460198C9F82030D1F8EB
:1017900004C04FF0010903680324B4406FEA040851
:1017A000A3430CF00304B4402343BCF1120F0360C5
:1017B00017D809FA0CF313F0061FAFD08368CC6872
:1017C00003EA0803B4402343836043684FEA1C14D0
:1017D00023EA0E0304FA0AF42343BCF1030F436027
:1017E000A0D0C3688C6803EA0803B44023435FEACF
:1017F000CC04C36096D542F200082AF00303C4F279
:10180000024808EB030EDEF860C007F018040F234F
:10181000A3402CEA030C009B03FA04F44CEA0403F3
:10182000CEF86030D8F800C0D1F804E04CEA0B03E1
:101830005FEACE2458BF2CEA0B03C8F80030D8F872
:1018400004C05FEA8E234CEA0B0458BF2CEA0B0459
:10185000C8F80440D8F884C05FEA8E334CEA0B0421
:1018600058BF2CEA0B04C8F88440D8F880C05FEA5F
:10187000CE334CEA0B0458BF2CEA0B04C8F8804066
:1018800050E702B0BDE8F08F426902EA01039143DC
:1018900041EA0341816170471823002A08BF2823C9
:1018A000C150704740F65C00C2F20000006870470B
:1018B00040F20041C4F20301086840F00102002038
:1018C0000A60704740F2080040F65C01C2F2000076
:1018D000C2F2000100780A681044086070470000F6
:1018E00080B5032000F086F801F0FEFA40F62041B2
:1018F000C4F20241096848F23C7201F00F01C0F6DF
:101900000002515CC84040F21001C2F200010860C0
:101910000F2000F009F800281CBF012080BD00F056
:101920002BF8002080BD000070B540F20806C2F21E
:1019300000063178002904BF012070BD044640F242
:101940001000C2F200004FF47A720068B2FBF1F1AD
:10195000B0FBF1F002F05CF90F2C4FF0010508D854
:1019600038B94FF0FF3021460022002500F016F86C
:101970007460284670BD000070470000002848BF12
:10198000704700F01F01012202FA01F14EF200122D
:101990004009CEF2000242F82010704710B54EF612
:1019A0000C5CCEF2000CDCF80030C3F3022E8EF09B
:1019B0000704042C28BF0424BEF103034FF0FF3EAC
:1019C00038BF00230EFA04F4A14399400EFA03F342
:1019D0009A4300F00F03043B1143634409010C33A5
:1019E00000F16042B0F1FF3FC8BF02F564431970D7
:1019F00010BD00004EF60C51CEF200010A684FF601
:101A0000FF031A4060F30A2242F0806040F0FD704C
:101A10000860704710B540F6284CC4F2024CDCF860
:101A20000CE0DCF80010DCF80030C3F30523DCF830
:101A30000020DCF8104002F01002C4F3CC0404FBD8
:101A400002F200EE102AB8EE400A8BB301F0030157
:101A500003296FF35F2E30D0022933D001295CF8BF
:101A6000281C49F20002C1F3C101C0F2D03222FAAF
:101A700001F101EE101A02EE103AB8EE411AB8EE7A
:101A8000422A9FED4D3A81EE021A02EE10EA20EE54
:101A9000030AB8EE422A30EE020AB7EE002A30EE10
:101AA000022A5CF8281C22EE010A89012AD525E0C9
:101AB0000021C0E90011816010BD01EE103A9FEDD8
:101AC0003D2A03E001EE103A9FED3C2AB8EE411AA0
:101AD00082EE012A01EE10EA9FED373AB8EE411A84
:101AE00020EE030A30EE010AB7EE001A30EE011ABA
:101AF0005CF8281C22EE010A890103D5DCF80010ED
:101B0000C90306D4002101605CF8281C890117D4A0
:101B10001AE0DCF80C10B7EE002AC1F3462101EE02
:101B2000101AB8EE411A31EE021A80EE011ABCEE1C
:101B3000C11A11EE101A01605CF8281C890103D546
:101B4000DCF80010890301D4002111E0DCF80C104E
:101B5000B7EE002AC1F3064101EE101AB8EE411AA1
:101B600031EE021A80EE011ABCEEC11A11EE101A03
:101B700041605CF8281C890144BFDCF800105FEA72
:101B8000413102D40021816010BDDCF80C10B7EEA9
:101B9000002AC1F3066101EE101AB8EE411A31EEC7
:101BA000021A80EE010ABCEEC00A10EE101A816023
:101BB00010BD00BF0024F44A000000390024744A1C
:101BC00010B540F62C4CC4F2024CDCF810E0DCF806
:101BD0000010DCF80030C3F30523DCF80020DCF84B
:101BE000144002F01002C4F3CC0404FB02F200EE35
:101BF000102AB8EE400A8BB301F0030103296FF3FA
:101C00005F2E30D0022933D001295CF82C1C49F218
:101C10000002C1F3C101C0F2D03222FA01F101EE9B
:101C2000101A02EE103AB8EE411AB8EE422A9FEDB1
:101C30004D3A81EE021A02EE10EA20EE030AB8EEE7
:101C4000422A30EE020AB7EE002A30EE022A5CF891
:101C50002C1C22EE010A09012AD525E00021C0E949
:101C60000011816010BD01EE103A9FED3D2A03E0A6
:101C700001EE103A9FED3C2AB8EE411A82EE012A9D
:101C800001EE10EA9FED373AB8EE411A20EE030A52
:101C900030EE010AB7EE001A30EE011A5CF82C1C87
:101CA00022EE010A090103D5DCF80010C90306D4AD
:101CB000002101605CF82C1C090117D41AE0DCF843
:101CC0001010B7EE002AC1F3462101EE101AB8EE4B
:101CD000411A31EE021A80EE011ABCEEC11A11EE61
:101CE000101A01605CF82C1C090103D5DCF8001007
:101CF000890301D4002111E0DCF81010B7EE002AAE
:101D0000C1F3064101EE101AB8EE411A31EE021A83
:101D100080EE011ABCEEC11A11EE101A41605CF897
:101D20002C1C090144BFDCF800105FEA413102D4E9
:101D30000021816010BDDCF81010B7EE002AC1F35D
:101D4000066101EE101AB8EE411A31EE021A80EE69
:101D5000010ABCEEC00A10EE101A816010BD00BF6F
:101D60000024F44A000000390024744A80B584B08D
:101D70004FF6FF730246C0F21F0300209B1A70EB60
:101D8000010347DA6FF060439B1A70EB0103C0F266
:101D900086806FF07C439B1A4FF000038B4180F2EA
:101DA000D78082F080630B4300F0908182F0006363
:101DB0000B4300F0A08182F08052114340F0A482D6
:101DC00040F60041C4F20241D1F8E000C0F3C20283
:101DD000042A00F2C08248F20000C0F2BB00DFE833
:101DE00012F0C9028D02BA0293020500D1F8E80090
:101DF0000B6810F04042086803D113F0020340F072
:101E00002D83B2F1804F40F0518310F4007040F008
:101E100047834BE341F6FF739B1A70EB010363DAD0
:101E20004FF6FF739B1A4FF000038B4180F2D28074
:101E300082F480330B4300F0888182F400330B433B
:101E400000F09F8182F48022114340F05D8240F6D1
:101E50000041C4F20241D1F8DC00C0F3023200209C
:101E6000052A00F25182DFE812F06C0249024F02AB
:101E70009B02A3020600D1F8E8000B6810F0404274
:101E8000086803D113F0020340F0E882B2F1804FFA
:101E900040F00C8310F4007040F0028306E30F2939
:101EA00040F3C78081F01003134300F0828181F476
:101EB0000073134300F09B8181F48051114340F083
:101EC000238240F60041C4F20241D1F8E40000F060
:101ED0004060B0F1806F00F0F881002800F065816B
:101EE0000A68B0F1006F42E1D2F103034FF0000342
:101EF0008B41C0F2BD8082F001030B4300F08B8167
:101F000082F00202114340F0FF8140F60040C4F22B
:101F10000240D0F8D81011F0380100F012820268A7
:101F2000082903D112F0006240F0188203680268A9
:101F3000182903D113F0020340F00082202903D1B5
:101F400012F4007240F0AC82D0F8F000282999E237
:101F500082F400130B4300F0818182F00072114380
:101F600040F0D28140F60041C4F20241D1F8F000C5
:101F7000D1F8F02000F44070B0F5807F03D112F06A
:101F8000020240F04481D1F8F020B0F5007F06D184
:101F900012F000621EBF4FF4FA4004B080BD0A6820
:101FA000B0F5407F4FF0000040F0AE8112F40032F7
:101FB00000F0AA81C86910F4785F00F0CC81C8698C
:101FC00041F20021C0F30520C0F27A01B1FBF0F02C
:101FD00004B080BD82F400530B4300F0538182F4BF
:101FE0008042114340F0908140F60040C4F202402C
:101FF000D0F8E41001F44021B1F5802F00F06581A4
:10200000002900F09E8102680068B1F5002F03D11D
:1020100012F0020240F0228210F400701CBF40F661
:102020000010C0F23D00B1F5402F18BF002004B0F1
:1020300080BD82F000530B4300F04D8181F004011C
:10204000114340F0618140F60041C4F20241D1F8F1
:10205000E800096810F4407040F0778111F4003115
:1020600000F0738141F20020C0F27A0004B080BD1C
:1020700082F004030B4300F0498182F48052114343
:1020800040F0428140F60040C4F20240D0F8E01037
:1020900001F0E061B1F1807F00F06081002900F083
:1020A000848003680268B1F1407F03D113F002031A
:1020B00040F04481B1F1806F03D112F4007240F01E
:1020C000EF81D0F8F000B1F1A06FDBE140F6004005
:1020D000C4F20240D0F8E810026811F0300140F07C
:1020E000438112F4005200F03F8146F60040C0F2F6
:1020F000DC2004B080BD40F60041C4F20241D1F8BA
:10210000E00000F00702042A00F2258148F20000F6
:10211000C0F2BB00DFE812F02E01F2001F01F80050
:102120000500D1F8E8000B6810F04042086803D1C0
:1021300013F0020340F09281B2F1804F40F0B6817B
:1021400010F4007040F0AC81B0E140F60041C4F200
:102150000241D1F8E40000F04070B0F1807F00F05F
:10216000B480002800F0ED800A68B0F1007F4FF0E5
:10217000000040F0C98012F0020200F0C58008683B
:102180006CE140F60041C4F20241D1F8DC00C0F33A
:1021900002220020052A00F2B780DFE812F00600D4
:1021A000AF00B50001010901550100F079FE04B04E
:1021B00080BD40F60040C4F20240D0F8E41001F0C7
:1021C0003001102900F0D6800268202903D112F0D6
:1021D000006240F0C380006810F400501CBF46F657
:1021E0000040C0F2DC20302918BF00208CE040F60F
:1021F0000040C4F20240D0F8E810D0F8F02011F00E
:10220000080140F0BD8012F0020200F0B9804FF4E6
:10221000004004B080BD40F60040C4F20240D0F857
:10222000D81011F0070100F0B7800268012903D12E
:1022300012F0006240F0928003680268032903D123
:1022400013F0020340F07A80042903D112F40072E3
:1022500040F02681D0F8F000052913E140F6004057
:10226000C4F20240D0F8E81001F0070102292CD096
:10227000012900F0A680002940F0A78000F0B0FD01
:1022800004B080BD40F60040C4F20240D0F8E41033
:1022900001F44031B1F5803F17D0002951D00268D8
:1022A0000068B1F5003F03D112F0020240F0D68081
:1022B00010F400701CBF40F60010C0F23D00B1F5F4
:1022C000403F18BF002004B080BD01A8FFF778FC94
:1022D000039804B080BD40F60041C4F20241D1F839
:1022E000E000C0F38212042A35D848F20000C0F2A0
:1022F000BB00DFE802F03F033009980001A8FFF7B8
:102300005FFC019804B080BD04B080BD40F6004081
:10231000C4F20240D0F8D81011F4E07111D0026874
:10232000402902D112F0006218D103680268C02966
:1023300040F09E8013F0020300F09A80C2F3C100C7
:102340008EE000F065FD04B080BDB0F5007F05D0E3
:10235000B0F5807F0ED0002004B080BD01A8FFF74B
:102360002FFC029804B080BD0268102947D112F0FA
:10237000007244D001A8FFF74DFB029804B080BD65
:10238000D0F8F00010F0006018BF4FF4FA400029B8
:1023900008BF084604B080BD00F05EFD04B080BDFB
:1023A000D1F8F0004FF4004101EA803004B080BD64
:1023B000D1F8F0004FF4FA41000101EAE07004B0F6
:1023C00080BD00F091FD04B080BD0268032903D1F7
:1023D00012F400327FF446AE02680068042902D18C
:1023E00012F002023AD110F400701CBF40F6001047
:1023F000C0F23D00052918BF002004B080BDD0F810
:10240000F020202903D112F002027FF400AFD0F8AF
:10241000F00010F0006018BF4FF4FA40302918BFE8
:10242000002004B080BDD1F8E8000B6810F04042F5
:10243000086802D113F0020310D1B2F1804F35D1F8
:1024400010F400702CD131E0D1F8E8000B6810F0E6
:10245000404208681ED113F002031BD0C0F3C10034
:1024600049F20001C0F2D03121FA00F004B080BD81
:10247000B1F5807F02D112F4007211D1D0F8F000D2
:10248000B1F5A07F00F002024FF0000008BF9003FA
:1024900004B080BDB2F1804F08D110F4007005D0B7
:1024A00040F60010C0F23D0004B080BD086810F492
:1024B00000301CBF41F20020C0F27A00B2F1004FA0
:1024C00018BF002004B080BD2DE9F0470446006825
:1024D00040F62848C101C4F2024807D5D8F8C01018
:1024E000226B21F040411143C8F8C010C00714D03E
:1024F000606BC11E032909D340B1012813D104F137
:10250000080003F083F9064640B9606BD8F8B010B4
:1025100021F007010843C8F8B000002620788007A2
:1025200005D4354621E0012620788007F9D5A06B37
:102530006FF0020101EBF001354603290AD34FEA9F
:10254000F000354630B1012830D104F1080003F025
:102550005DF905462F464DB9D8F8B000A16B20F0C3
:10256000380008430025C8F8B000374620784007F7
:1025700021D5E06B6FF0020101EBB011032909D303
:102580004FEAB01030B1012836D104F1080003F051
:102590003DF905462E467DB9D8F8B000E16B20F430
:1025A000E07008430025C8F8B00004E001250127C9
:1025B00020784007DDD43E466078C00621D5206CE7
:1025C0006FF0020101EB3061032909D34FEA30605B
:1025D00030B101283CD104F1080003F017F9054699
:1025E0002F467DB9D8F8B800216C20F0E060084390
:1025F0000025C8F8B80004E0012501266078C0066F
:10260000DDD437466078800627D5606C6FF0010115
:1026100001EB3041022909D34FEA304030B10128A3
:1026200010D104F1080003F0F1F805462E465DB91B
:10263000D8F8BC00616C20F4403008430025C8F88D
:10264000BC000AE0012501266078400609D424E098
:102650000125012760788006D7D43E466078400681
:102660001BD5A06C6FF0010101EBB041022909D329
:102670004FEAB04030B1012830D104F1080003F036
:10268000C5F805462F464DB9D8F8BC00A16C20F41A
:10269000402008430025C8F8BC003746A078C00792
:1026A00021D0E06C002818BFB0F1007F0BD12E467E
:1026B000D5B9D8F8BC00E16C20F040700843002583
:1026C000C8F8BC000FE0B0F1807F2DD104F1080004
:1026D00003F09CF805462E4635B9EAE701250127A7
:1026E000A078C007DDD13E466079C00621D5206DB7
:1026F000002818BFB0F1006F0BD12F46D5B9D8F81C
:10270000BC00216D20F0406008430025C8F8BC00E3
:102710000FE0B0F1806F61D104F1080003F076F8AA
:1027200005462F4635B9EAE7012501266079C0063E
:10273000DDD43746D4E9000140F61C4AC4F2024A0F
:1027400009050CD5DAF8001021F40041CAF8001090
:10275000D4F88010DAF800201143CAF80010800382
:102760001BD5606D6FF0020101EB3021032909D305
:102770004FEA302030B1012833D104F1080003F0D2
:1027800045F805462E464DB9D8F8B400616D20F4E1
:10279000E06008430025C8F8B4003E46A078400732
:1027A00024D5A06D6FF0020101EB3031032909D36C
:1027B0004FEA303030B1012828D104F1080003F08D
:1027C00025F805462F4695B9D8F8B400A16D20F438
:1027D000E04008430025C8F8B40007E001250127C0
:1027E000A8E701250126A0784007DAD43746A0786B
:1027F000800610D5606E052828D802282DD02946DD
:102800009DB3D4E9000292050AD43CE001250127DA
:10281000A0788006EED43946D4E90002920532D57C
:10282000A26E42F00803082B0AD1A9465DB9D8F878
:10283000C030002523F008031A43C8F8C02022E066
:1028400001254FF00109800120D47AE00125012102
:10285000D4E900029205E3D415E004F1080002F087
:10286000D5FF0546002D2946CBD1D8F8C000616EB2
:1028700020F0070008430025C8F8C0003946D4E915
:1028800000029205CCD4894680015AD54FF60847FC
:10289000CFF6FF775AF8070040F001004AF807002A
:1028A000FFF700F8064600BF5AF80700C00707D137
:1028B000FEF7F8FF801B0228F6D90325032041E02C
:1028C000002D28463ED1D8F8C80010F4407017D02B
:1028D000A16F884211D0D8F8C800D8F8C81020F4E9
:1028E000407041F48031C8F8C810D8F8C81021F4FD
:1028F0008031C8F8C810C8F8C800C00740F02A8165
:10290000A06FDAF800104FF6CF7300F4407221F494
:102910007C51C0F2FF0303EA1013B2F5407F08BFF9
:102920001943CAF80010D8F8C8106FF31F3021F40B
:102930004071C8F8C810D8F8C81000250843C8F876
:10294000C800484621684A011BD5226E6FF001037A
:1029500003EB3213022B0AD34FEA32133BB1012BA4
:102960002ED1D8F8003043F40033C8F800302F4699
:1029700045B9D8F8C030002523F030031A43C8F811
:10298000C020074608011FD5E06EC11E02290BD3E7
:10299000012800F0B880002840F0BF80D8F800007F
:1029A00040F40030C8F800002E4675B9D8F8B800D9
:1029B000E16E20F0070008430025C8F8B80003E0E6
:1029C000012501270801DFD43E46E078C0061FD567
:1029D000206F6FF0020101EBF00102290DD34FEAE5
:1029E000F000012800F09C80002840F0A380D8F877
:1029F000000040F40030C8F800002F464DB9D8F868
:102A0000B800216F20F0380008430025C8F8B8004E
:102A10003746E07880061FD5606F6FF0020101EB4A
:102A2000B01102290DD34FEAB010012800F08580C3
:102A3000002840F08C80D8F8000040F40030C8F83E
:102A400000002E464DB9D8F8B800616F20F4E07050
:102A500008430025C8F8B8003E462079400720D535
:102A6000E06D58B1B0F5007F0BD0B0F5807F47D155
:102A7000D8F8000040F40030C8F800002F468DB9A7
:102A800006E004F1080002F0C1FE05462F464DB9EC
:102A9000D8F8C000E16D20F4407008430025C8F864
:102AA000C00037462079C0065CBF3846BDE8F087D5
:102AB000E06F30280DD020280FD010281EBF012530
:102AC0002846BDE8F087D8F8000040F40030C8F888
:102AD00000004DB12846BDE8F08704F1080002F07F
:102AE00095FE0546002DF5D1D8F8BC00E16F20F029
:102AF000300008433D46C8F8BC002846BDE8F087D2
:102B000001250127CEE704F1080002F07FFE05460B
:102B1000002D2E467FF459AF48E70125012654E7E2
:102B200004F1080002F072FE0546002D2F467FF4E6
:102B300070AF64E7012501276BE704F1080002F09C
:102B400065FE0546002D2E467FF487AF7BE7012505
:102B5000012682E7FEF7A6FE064641F288370325E6
:102B6000D8F8C80080073FF5CBAEFEF79BFE801B70
:102B7000B8424FF00300F3D9E4E600002DE9F0433A
:102B800081B0002800F0CA8042F20008C4F20208B6
:102B90000446D8F800000D4600F00F0088420DD220
:102BA000D8F8000020F00F002843C8F80000D8F83B
:102BB000000000F00F00A84240F0B080206840F60E
:102BC0002047C106C4F202470CD561693A687023F8
:102BD00003EA1222914205D93A6822F4E04242EA1D
:102BE0000121396001070CD521693A68702303EA95
:102BF0001212914205D93A6822F4E06242EA0111C8
:102C0000396041070AD5E1683A6802F070029142E2
:102C100004D93A6822F070021143396081070AD55D
:102C2000A1683A6802F00F02914204D93A6822F092
:102C30000F0211433960C00767D1206881070AD5A8
:102C4000A1683A6802F00F02914204D23A6822F079
:102C50000F0211433960D8F8001001F00F01A942AA
:102C60000CD9D8F8001021F00F012943C8F8001042
:102C7000D8F8001001F00F01A9424FD141070AD541
:102C8000E1683A6802F07002914204D23A6822F098
:102C900070021143396001070CD521693A6870232D
:102CA00003EA1212914205D23A6822F4E06242EA43
:102CB00001113960C0060CD560693968702202EADA
:102CC0001121884205D2396821F4E04141EA00200F
:102CD000386000F009F9396848F23C7201F00F01E0
:102CE000C0F60002525C40F20C01C2F20001096819
:102CF00040F2100320FA02F2C2F2000308461A6002
:102D000001B0BDE8F043FEF70FBE6068022809D0AD
:102D100003285BD157F8201C890107D4012001B09A
:102D2000BDE8F08357F8201C8903F7D557F8041C39
:102D300021F00301084347F8040CFEF7B3FD616876
:102D40000646032941F288392BD0022937D00129C0
:102D500010D100BF57F8040C00F0180008283FF409
:102D60006CAFFEF79FFD801B48454FF00300F1D983
:102D70000DE000BF57F8040C10F0180F3FF45DAFE2
:102D8000FEF790FD801B48454FF00300F2D901B0DB
:102D9000BDE8F083FEF786FD801B48454FF0030039
:102DA000F5D857F8040C00F018001828F2D144E7C1
:102DB000FEF778FD801B48454FF00300E7D857F831
:102DC000040C00F018001028F2D136E757F8201C48
:102DD000012802D18905A1D5A8E789079ED5A5E7D5
:102DE00080B500F081F840F62041C4F20241096844
:102DF00048F23C7201F00F01C0F60002515C01F094
:102E00001F01C84040F21001C2F20001086080BDFD
:102E100080B500F069F840F62041C4F202410A682A
:102E200048F23C7302F00F02C0F600039A5C02F015
:102E30001F02D04040F21002C2F200021060096886
:102E400048F24C72C1F30211C0F60002515C01F06D
:102E50001F01C84080BD000080B500F045F840F675
:102E60002041C4F202410A6848F23C7302F00F02AA
:102E7000C0F600039A5C02F01F02D04040F210023C
:102E8000C2F200021060096848F24C72C1F30221DC
:102E9000C0F60002515C01F01F01C84080BD000077
:102EA00080B500F021F840F62041C4F202410A68E2
:102EB00048F23C7302F00F02C0F600039A5C02F085
:102EC0001F02D04040F21002C2F2000210600968F6
:102ED00048F24C72C1F30231C0F60002515C01F0BD
:102EE0001F01C84080BD000080B540F60041C4F21B
:102EF0000241C86900F01800082802BF40F600101F
:102F0000C0F23D0080BDC86910F0180F34D0C86908
:102F100000F01800102802BF41F20020C0F27A0031
:102F200080BDC86900F01800182849F20000C0F2FE
:102F3000D03063D1D1F828E08A6AC2F3052C8A6ABE
:102F4000BCF1000FC2F300128B6BC3F3CC0303FB85
:102F500002F200EE102AB8EE400A04BF002080BD45
:102F60000EF00303032B14D0012B15D10A6892062F
:102F700015D49FED241A1AE00868800649F2000073
:102F8000C0F2D03058BF80BD0968C1F3C101C8404C
:102F900080BD9FED1B1A0AE09FED1B1A07E00A682F
:102FA000C2F3C102D04001EE100AB8EE411A02EE9F
:102FB00010CA9FED163AB8EE422A486B81EE021A0B
:102FC0006FF35F2002EE100A20EE030AB8EE422AE9
:102FD000486B30EE020AB7EE002AC0F3462030EE0E
:102FE000020A013021EE000A01EE100AB8EE411A81
:102FF00080EE010ABCEEC00A10EE100A80BD00BFD0
:103000000024F44A0024744C0024744A000000395F
:103010002DE9F04381B0002800F0388140F60047E8
:1030200040F6F0490446C4F20247C4F20249F86986
:1030300059F8C81C227800F01808D00601F00306E1
:1030400028D5B8F1080F1AD0B8F1180F08BF022E12
:1030500015D0E1693868002900F0938140F4807050
:103060003860FEF71FFC0546386880050BD4FEF774
:1030700019FC401B02284FF00300F5D948E2E06933
:10308000002800F00381B869216A20F47C1040EA2E
:103090000140B8612078C00731D0B8F1100F2AD0B4
:1030A000B8F1180F08BF032E25D06568B5F5A02F1D
:1030B00000F0C081B5F5803F00F0CF81002D40F0D9
:1030C000C181386820F480303860386820F480107E
:1030D0003860386820F480203860FEF7E3FB05464E
:1030E000386880030BD5FEF7DDFB401B64284FF0EA
:1030F0000300F5D90CE26068002800F0C780207852
:10310000800765D5B8F1000F21D0B8F1180F08BFBE
:10311000012E1CD0E1683868002900F06781216920
:1031200020F0180008433860386840F0010038602B
:10313000FEF7B8FB054600BF3868800741D4FEF7AC
:10314000B1FB401B02284FF00300F5D9E0E1E06835
:10315000002800F09B80B8F1000F26D13968206963
:1031600001F01801814220D0396821F0180108438C
:103170003860FFF7B9FE396A48F23C7201F00F017E
:10318000C0F60002515C40F2100201F01F0120FA6B
:1031900001F140F20C00C2F200000068C2F200022D
:1031A0001160FEF7C1FB002870D1FEF77BFB0546DE
:1031B0003868800705D4FEF775FB401B0228F7D955
:1031C0007DE03869616920F4FE0040EA0140386121
:1031D000207800075ED42078400774D420788006D9
:1031E00000F1A380A56A002D00F01F82B8F1180F2E
:1031F00040F0DA8059F8C81C59F8BC0C012D45D0B4
:10320000E26A01F00303934240D1C1F30521226B2E
:1032100091423BD1626B01466FF35F21013A9142CB
:1032200034D1C0F34621A26B013A91422ED1C0F3B2
:103230000641E26B013A914228D1C0F30660216C4D
:103240000139884222D159F8B80CC0F3CC00E16CA6
:10325000884200F0EA8159F8C80C20F0100049F8C3
:10326000C80CFEF71FFB0546FEF71CFBA842FBD06F
:10327000E06CC00049F8B80C59F8C80C40F01000D8
:1032800049F8C80C002001B0BDE8F083012001B06E
:10329000BDE8F083A169D9F8000000295CD040F0B6
:1032A0008060C9F80000FEF7FDFA0546D9F8000075
:1032B000000190D4FEF7F6FA401B0228F6D903204D
:1032C00001B0BDE8F0834FF62446CFF6FF76B8593B
:1032D000C00712D1B85940F00100B851FEF7E2FA28
:1032E000054600BFB859C00707D1FEF7DBFA401BFF
:1032F00002284FF00300F5D90AE1A068002800F089
:10330000BF80052800F0E180012800F0EA80D9F8AC
:103310000010852840F0108141F00400C9F8000039
:10332000D9F8000040F08000D9E0616A38680029CF
:103330006ED040F480503860FEF7B4FA054600BF06
:10334000386880043FF54EAFFEF7ACFA401B022808
:103350004FF00300F4D9DBE020F08060C9F80000F2
:10336000FEF7A0FA054600BFD9F8000000017FF57E
:1033700032AFFEF797FA401B02284FF00300F3D953
:10338000C6E020F480703860FEF78CFA054600BF76
:10339000386880057FF57EAEFEF784FA401B022870
:1033A0004FF00300F4D9B3E0386820F08070386043
:1033B000FEF778FA022D05460CD100BF386880016F
:1033C00040F1C980FEF76EFA401B02284FF003005F
:1033D000F4D99DE03868800140F11E81FEF762FA61
:1033E000401B02284FF00300F4D991E020F00100C7
:1033F0003860FEF757FA0546386880077FF5E8AE73
:10340000FEF750FA401B02284FF00300F4D97FE08A
:1034100020F480503860FEF745FA0546386880048D
:103420007FF5E0AEFEF73EFA401B02284FF00300A6
:10343000F4D96DE0386840F480203860386820F4B2
:10344000801009E03868B5F5A81F64D140F48020E9
:103450003860386840F480103860386840F4803054
:103460003860FEF71FFA0546386880033FF547AE1F
:10347000FEF718FA401B64284FF00300F4D947E028
:10348000D9F8000020F00100C9F80000D9F80000C8
:1034900020F08000C9F80000D9F8000020F00400F6
:1034A000C9F80000FEF7FEF9054641F2883600BF74
:1034B000D9F8000080077FF591AEFEF7F3F9401BC5
:1034C000B0424FF00300F3D922E0D9F8000040F0F9
:1034D0000400C9F80000D9F8000020F08000C9F805
:1034E0000000D9F8000040F00100C9F80000FEF724
:1034F000D9F9054641F28836D9F8000080073FF532
:103500006DAEFEF7CFF9401BB0424FF00300F3D988
:1035100001B0BDE8F08320F480303860386820F4D2
:1035200080203860386820F480103860FEF7BAF9DF
:10353000002D054698D1D3E521F00100C9F800001F
:10354000D9F8000020F00400C9F80000D9F8000004
:1035500020F08000C9E759F8C80C43F6037104F164
:103560002C0388430ECB084340EA0220A16B49F8A4
:10357000C80C4FF47E4202EB4121E26B581E4FF41F
:10358000FE0389B203EB02426FF35F20084402F4AA
:10359000FE01226C4FF0FE4303EB0262084402F08E
:1035A000FE41084449F8BC0C59F8C80C20F0100042
:1035B00049F8C80CE06CC00049F8B80C59F8C80CC0
:1035C00040F0100049F8C80C59F8C80C616C20F0A4
:1035D0000C00084349F8C80C59F8C80CA16C20F03D
:1035E0002000084349F8C80C59F8C80C40F4803052
:1035F00049F8C80C386840F080703860FEF752F91E
:1036000004463868800110D4FEF74CF9001B0228EC
:103610004FF00300F5D97BE759F8C80C4FF6FC7161
:10362000CFF6F871084049F8C80C002001B0BDE899
:10363000F0830000F0B581B048B304462168002053
:10364000E268A0624FF0010019B90F2A01D901B058
:10365000F0BDE36B083200EB5313D20803FB02F218
:1036600009B9082AF3D843F60000C4F200008142E9
:103670000BD043F20000C4F20100814205D043F6B2
:103680000040C4F20000814204D1102A02D9012076
:1036900001B0F0BD94F8890030B9002084F88800AA
:1036A000204600F06FF82168022084F8890008683D
:1036B00020F0010008608B68A7696268B7F1806F2D
:1036C00003F4F81C0ED12AB1B2F5800F0AD1A36B16
:1036D00073B903E0A36BB3F1805F05D10B6843F4CA
:1036E00080530B60530203D4E3684FF0010E0DE0EA
:1036F000E368072B08D3D1F800E0266D2EF480751F
:1037000035434FF0000E04E04FF0000E0D6825F435
:1037100080750D60E569A66A45EA0C05E06B2E43ED
:1037200030431843A568266963698860606B3A4333
:10373000676A1043A26B384310433043226A184330
:10374000E36C10431843A26C2843A36D1043E26D51
:103750001843236E10431843C860086DBEF1000F74
:1037600020F00100086505D1C868626D20F00040B6
:103770001043C86000200121C4F88C0084F889102F
:1037800001B0F0BDB0B5AAB00446002502A888215A
:103790002995CDE92755CDE92555FCF78CFE206804
:1037A00043F20001C4F20101884201D02AB0B0BD49
:1037B0004FF00060029002A803951D95FEF784FE6D
:1037C000002818BFFCF7D8FF40F68C40C4F2024036
:1037D000816941F480518161816901F480510191D5
:1037E0000199016841F002010160006825A900F01B
:1037F0000200019001983820259002202690002098
:10380000CDE927000520299040F20040C4F20220B3
:10381000FDF76EFF2AB0B0BD2DE9F047044690F8E1
:103820008800012804BF0220BDE8F087D4F800908A
:1038300001209A4615460F4684F88800FEF732F8B4
:1038400094F8891001290BD127B1002D18BFBAF1C6
:10385000000F0BD1002084F888000120BDE8F0871C
:10386000002084F888000220BDE8F087804605200B
:1038700084F889000020C4F88C00E566A4F872A0E2
:10388000A4F870A06766A4F86AA0A4F868A0C4E9C8
:103890001E00D4E900014FF6FF73C26822F4C02273
:1038A000C2604268B1F5800F22EA030252444260CE
:1038B000026842F00102026003D1016841F4007124
:1038C0000160E168089D10294AD343F60001C4F263
:1038D000000188420BD043F20001C4F2010188428A
:1038E00005D043F60041C4F2000188423AD1681C79
:1038F00000F0BE8048F20809574606E0FDF7D2FF07
:10390000A0EB0800A84280F0A18057EA0A0000F06E
:1039100055812068BAF1000F416918BF11F002010A
:103920000BD0616E51F8042B02626166B4F86A1024
:103930000139A4F86A10B4F86AA04169002F18BFD1
:1039400011EA0901DAD0006BE16E41F8040BE1667F
:10395000B4F872000138A4F87200B4F87270CDE7C0
:10396000072938D9681C00F0BB80574606E000BF25
:10397000FDF798FFA0EB0800A84267D257EA0A00BB
:1039800000F01C812068BAF1000F416918BF11F0E6
:1039900002010CD0616E31F8022BA9F8202061667B
:1039A000B4F86A100139A4F86A10B4F86AA0406942
:1039B000002F18BF10F00100DAD0B9F83000E16E26
:1039C00021F8020BE166B4F872000138A4F8720025
:1039D000B4F87270CCE7681C00F0B780574605E079
:1039E000FDF760FFA0EB0800A8422FD257EA0A00BB
:1039F00000F0E4802068BAF1000F416918BF11F0AF
:103A000002010ED0616E097880F82010616E206886
:103A100001316166B4F86A100139A4F86A10B4F88B
:103A20006AA04169002F18BF11F00101D8D090F8A9
:103A30003000E16E0870E06E0130E066B4F87200AC
:103A40000138A4F87200B4F87270C9E7204601F09A
:103A500059FF002084F88800D4F88C0040F480706E
:103A6000C4F88C00012084F889000320BDE8F087A9
:103A7000002048F2080756460AE000BFFDF712FF93
:103A8000BAFA8AF05AEA06014FEA501000F096801E
:103A90002168002E4A6918BF12F002020BD0626E34
:103AA00052F8043B0B626266B4F86A20013AA4F84B
:103AB0006A20B4F86A604A693A40B2FA82F252095E
:103AC0001043C007DAD1086BE16E41F8040BE166E0
:103AD000B4F872000138A4F87200B4F872A0CDE70F
:103AE00000200127564608E0FDF7DCFEBAFA8AF00E
:103AF0005AEA06014FEA501060D02168002E4A6948
:103B000018BF12F002020CD0626E32F8023BA9F824
:103B100020306266B4F86A20013AA4F86A20B4F84A
:103B20006A60496927EA01010843C007DCD1B9F896
:103B30003000E16E21F8020BE166B4F87200013842
:103B4000A4F87200B4F872A0CEE700204FF001098B
:103B5000574608E0FDF7A6FEBAFA8AF05AEA0701CE
:103B60004FEA50102AD02168002F4A6918BF12F07E
:103B700002020ED0626E127881F82020626E2168F7
:103B800001326266B4F86A20013AA4F86A20B4F8F7
:103B90006A704A6929EA02021043C007DAD191F833
:103BA0003000E16E0870E06E0130E066B4F872003B
:103BB0000138A4F87200B4F872A0CBE7681C13D0E7
:103BC00020684069000713D4FDF76CFEA0EB0800E5
:103BD000A842F5D3D4F88C0040F02000C4F88C0043
:103BE00006E000BFFDF75EFE206840690007F9D5DA
:103BF000204601F087FE002084F88800012084F828
:103C00008900D4F88C00002818BF0120BDE8F08797
:103C1000411E0020B0EB116F1CBF012070474EF217
:103C20001002CEF2000251604EF62351CEF2000196
:103C3000F0230B70072190601160704770470000FF
:103C40007047000070470000704700007047000098
:103C500070470000B0B590F83C20012A4FF00202F6
:103C600031D0012380F83C3080F83D20026842F6D4
:103C7000004C5368D2F808E0C4F2010C624503D14D
:103C80004C6823F4700323434FF68F74CFF6FF5430
:103C90000D6823402B43B2F1804F536018BF62453B
:103CA00005D189682EF080031943916005E040F248
:103CB0000043C4F200039A42F3D00121002280F8AD
:103CC0003D1080F83C201046B0BD00007047000059
:103CD000002804BF0120704710B5044690F83D004D
:103CE00028B9002084F83C00204600F055F8022056
:103CF00084F83D00206842F6004C0268B0F1804F25
:103D0000C4F2010C18BF604504D1A36822F0700210
:103D10001A4305E040F20043C4F200039842F4D095
:103D2000B0F1804F18BF604504D1236922F440727E
:103D30001A4305E040F20043C4F200039842F4D075
:103D4000A16922F08002D4F804E0E36811436045E1
:103D50000160C362C0F828E002D16169CCF830107C
:103D600001214161002084F8481084F83E1084F855
:103D70003F1084F8401084F8411084F8421084F811
:103D8000431084F8441084F8451084F8461084F8F1
:103D9000471084F83D1010BD10B582B0006840F2A5
:103DA0000041C4F2000188421DD0B0F1804F1CBF19
:103DB00002B010BD40F69C40C4F2024001680022EF
:103DC00041F0010101600068042100F00100019050
:103DD00001982D202D24FDF7E1FD204602B0BDE81D
:103DE0001040FDF7CBBD40F69C40C4F20240016894
:103DF000002241F0020101600068032100F002008E
:103E0000009000982E202E24FDF7C8FD204602B019
:103E1000BDE81040FDF7B2BD90F83D1001291CBF70
:103E200001207047022180F83D100168C868B1F197
:103E3000804F40F00100C8600BD042F60040C4F251
:103E40000100814205D040F20040C4F200008142EE
:103E50000CD188680722C0F201020240062A4FF006
:103E6000000018BFB2F5803F00D17047086840F0ED
:103E7000010008600020704780B590F83C20012ABE
:103E80004FF0020200F09C80012380F83C3080F863
:103E90003D20D0F800C08822DCF80830CFF6CE7282
:103EA0001A40CCF808200B68B3F5005F0FDB3F2207
:103EB000C0F21002934217DCB3F1101F2EDB6CD05E
:103EC0002021C0F210018B4267D030215CE03F2BF3
:103ED0001DDD5F2B2ADD602B74D0702B00F09480E9
:103EE000B3F5805F65D0D7E05F21C0F210018B424F
:103EF00044DD6021C0F210018B424ED07021C0F22F
:103F000010018B4218BFB3F5001F46D0C4E01F2B31
:103F10003FDC002B41D0102B3FD0BDE0B3F5005F5C
:103F200000F08580B3F5801F37D0B5E0402B00F05E
:103F30009180502B40F0B080D1F804E0C968DCF8E3
:103F40002030DCF8202022F00102CCF82020DCF820
:103F5000182022F0F00242EA011123F00A0242EA9C
:103F60000E02CCF81810CCF82020DCF808104FF620
:103F70008872CFF6CF721140573118E04021C0F25D
:103F800010018B4209D05021C0F210018B4204D0A5
:103F900082E0202B01D0302B7ED1DCF808104FF6C8
:103FA0008872CFF6CF721140194341F00701CCF867
:103FB00008100022012180F83D10002180F83C10FB
:103FC000104680BDD1F804E0C968DCF82030DCF888
:103FD000202022F01002CCF82020DCF8182022F457
:103FE000704242EA013123F0A00242EA0E12CCF8FC
:103FF0001810CCF82020DCF808104FF68872CFF6A5
:10400000CF7211406731D2E7D1E901E3C968DCF82A
:10401000082043EA0E0343EA012122F47F421143C0
:10402000CCF80810DCF8081041F07701BFE7D1E9BF
:1040300001E3C968DCF8082043EA0E0343EA0121E2
:1040400022F47F421143CCF80810DCF8081041F448
:104050008041ACE7D1F804E0C968DCF82030DCF836
:10406000202022F00102CCF82020DCF8182022F0D9
:10407000F00242EA011123F00A0242EA0E02CCF8F1
:104080001810CCF82020DCF808104FF68872CFF614
:10409000CF72114047318AE701228BE77047000059
:1040A000F0B581B004460068C768066906EA0705EE
:1040B000A90737D468074FD4280769D4E80600F168
:1040C0008480E80740F09F80280607F0800700F111
:1040D000A680002F18BF16F4807040F0AD806806EF
:1040E00000F1B480A80600F1BB80E80200F1C280B4
:1040F000A80200F1C980680206D520686FF480012B
:1041000001612046FFF7A4FD28025CBF01B0F0BDAD
:1041100021686FF4000220460A6101B0BDE8F0405A
:10412000FFF7D4BD6FF002010161012121778069A1
:10413000800707D02046FFF7B1FF002020776807EF
:10414000BAD509E0204600F0ABF8204600F0AAF806
:10415000002020776807AFD520686FF00401016167
:1041600002212177806910F4407F07D02046FFF7B5
:1041700095FF002020772807A0D509E0204600F011
:104180008FF8204600F08EF800202077280795D57C
:1041900020686FF00801016104212177C069800760
:1041A00008D02046FFF77AFF00202077E8067FF549
:1041B00088AF0AE0204600F073F8204600F072F85D
:1041C00000202077E8067FF57CAF20686FF01001B3
:1041D000016108212177C06910F4407F08D0204692
:1041E000FFF75CFF00202077E8073FF46DAF0AE09F
:1041F000204600F055F8204600F054F800202077C3
:10420000E8073FF461AF20686FF0010101612046CB
:1042100000F04AF8280607F080077FF55AAF2068BB
:104220006FF0800101612046FFF70AFD002F18BFE3
:1042300016F480703FF453AF20686FF48071016111
:104240002046FFF7FBFC68067FF54CAF20686FF057
:1042500040010161204600F045F8A8067FF545AF12
:1042600020686FF0200101612046FFF7EBFCE802B7
:104270007FF53EAF20686FF4801101612046FFF7A3
:10428000E5FCA8027FF537AF20686FF400110161EB
:104290002046FFF7D9FC68027FF536AF2DE7000016
:1042A000704700007047000010B540F25021C2F284
:1042B000000104460068096A884202D103F020FB2D
:1042C000206840F22851C2F200010968884218BFF4
:1042D00010BD40F27010C2F200004168013141602F
:1042E00010BD00007047000090F88410012904BF41
:1042F000022070472421C0F88810026811681368F2
:1043000023F00103136021F0005300214166136084
:104310002022C0F8882080F88410084670470000EA
:104320007047000070470000B0B590F88420012A63
:1043300004BF0220B0BD0123242280F88430C0F8DD
:1043400088200268D0F864E0D2F800C01468BEF19A
:10435000000F24F001041460946824F0606441EAC2
:104360000401916019D0916848F26C7EC1F34261FA
:104370009368C0F6000E5B0F48F274751EF8034098
:10438000C0F60005EB5CE400B4FBF3F31EF801405B
:10439000695CE500B5FBF1F100E00121A0F86810CF
:1043A0002021A0F86A30C2F800C0C0F888100021AF
:1043B00080F884100846B0BDB0B590F88420012A7A
:1043C00004BF0220B0BD0123242280F88430C0F84D
:1043D00088200268D0F864E0D2F800C01468BEF10A
:1043E000000F24F001041460946824F0604441EA52
:1043F0000401916019D0916848F26C7EC1F342616A
:104400009368C0F6000E5B0F48F274751EF8034007
:10441000C0F60005EB5CE400B4FBF3F31EF80140CA
:10442000695CE500B5FBF1F100E00121A0F868103E
:104430002021A0F86A30C2F800C0C0F8881000211E
:1044400080F884100846B0BD704700007047000037
:104450007047000070B501680446CA6940F62F0035
:104460000E68D1F808E0104020280BD106F020009B
:104470000EF08053C01822D0616FC9B32046BDE84A
:104480007040084740F60F00024218D00120C1F2E8
:1044900000000EEA000C40F22010C0F20040304054
:1044A00010EB0C000BD0D00718BF16F4807040F052
:1044B000638190070EF0010300F16A8171E1E06E03
:1044C00006EA0203DD0614D5012812D11020086285
:1044D0008868400600F19B80B4F85C00B4F85E2068
:1044E000B4F85E30002B1CBF801A5FEA00422BD16B
:1044F00070BDD00240F124811EF4800000F02081C4
:104500004FF4801220460A62BDE87040FFF79EBF5C
:10451000216851E8001F226821F4907142E80013DD
:10452000DBB1216851E8001F226821F4907142E854
:10453000001393B1216851E8001F226821F49071A3
:1045400042E800134BB1216851E8001F226821F4B2
:10455000907142E80013002BDAD14FF6FE71CEF6CF
:10456000FF7100BF226852E8022F23680A4043E827
:104570000226C6B1226852E8022F23680A4043E8A7
:10458000022686B1226852E8022F23680A4043E8D7
:10459000022646B1226852E8022F23680A4043E807
:1045A0000226002EDED12021C4F88C100021E16605
:1045B000616700BF216851E8001F226821F01001E7
:1045C00042E80013DBB1216851E8001F226821F0A6
:1045D000100142E8001393B1216851E8001F2268DE
:1045E00021F0100142E800134BB1216851E8001F8F
:1045F000226821F0100142E80013002BDAD10222D8
:1046000081B220462267BDE87040FFF789BED4F82A
:1046100080201068836C9DB2002D3FF469AFB4F820
:104620005C008542BFF464AFA4F85E30126D812A4D
:104630007BD051E8000F216820F4807041E800022F
:10464000CAB3206850E8000F216820F4807041E868
:10465000000282B3206850E8000F216820F48070C7
:1046600041E800023AB3206850E8000F216820F4C6
:10467000807041E80002F2B1206850E8000FDAE7EC
:10468000206850E8020F216820F0010041E8020292
:10469000DAB1206850E8020F216820F0010041E8FB
:1046A000020292B1206850E8020F216820F0010058
:1046B00041E802024AB1206850E8020F216820F068
:1046C000010041E80202002ADAD12020C4F88C005F
:1046D0000020E066206850E8000F216820F01000FC
:1046E00041E80002DAB1206850E8000F216820F0AC
:1046F000100041E8000292B1206850E8000F2168E4
:1047000020F0100041E800024AB1206850E8000F94
:10471000216820F0100041E80002002ADAD1D4F824
:104720008000FCF759FDB4F85C0002212167B4F861
:104730005E10401A81B22046BDE87040FFF7F0BD20
:1047400010060AD506F080000EF40005401904D0CA
:10475000A16F00297FF492AECAE6580600F10281EB
:10476000100240F1388116F0804000F0348120467C
:10477000BDE87040FFF768BE01200862D4F89000E1
:1047800040F00100C4F8900090070EF0010308D536
:104790003BB102200862D4F8900040F00400C4F855
:1047A0009000500708D53BB104200862D4F890006F
:1047B00040F00200C4F8900010070CD506F020006D
:1047C00050EA0C0007D008200862D4F8900040F0AE
:1047D0000800C4F8900010050BD516F0806008D0D2
:1047E0004FF400600862D4F8900040F02000C4F854
:1047F0009000D4F8900000283FF47AAE12F0200028
:104800001EBF06F020000EF0805210EB020040F0B8
:10481000DA80D4F890008A6800F0280002F04002A4
:10482000801800F0988051E8000F00BF216820F444
:10483000907041E80002F2B1206850E8000F216852
:1048400020F4907041E80002AAB1206850E8000FFF
:10485000216820F4907041E8000262B1206850E8BD
:10486000000F216820F4907041E800021AB120681E
:1048700050E8000FDAE74FF6FE70CEF6FF7000BF8B
:10488000216851E8021F2268014042E80213C3B1C7
:10489000216851E8021F2268014042E8021383B1F7
:1048A000216851E8021F2268014042E8021343B127
:1048B000216851E8021F2268014042E80213002BE0
:1048C000DED1E06E012824D1206850E8000F216875
:1048D00020F0100041E80002DAB1206850E8000F33
:1048E000216820F0100041E8000292B1206850E8F1
:1048F000000F216820F0100041E800024AB1206852
:1049000050E8000F216820F0100041E80002002A62
:10491000DAD12020C4F88C000020E06621686067AE
:104920008868400612D5D4F8800078B145F6255144
:10493000C0F60001C166FCF7A5FC00283FF4D8AD25
:10494000D4F88000C16EBDE8704008472046BDE83D
:104950007040FFF77DBD2046FFF77AFD0020C4F8C8
:10496000900070BD51E8000F216820F0400041E840
:104970000002F2B1206850E8000F216820F04000EA
:1049800041E80002AAB1206850E8000F216820F039
:10499000400041E8000262B1206850E8000F216841
:1049A00020F0400041E800021AB1206850E8000FF2
:1049B000DAE720200021C4F888002046A167BDE87E
:1049C000704000F089BA626F002A3FF422AF20469F
:1049D000904721681DE7D0017FF58AADB6F1FF3F12
:1049E000C8BF70BD2046BDE87040FFF79BBC00000B
:1049F00010B5E0B10446D0F8880028B9002084F84A
:104A00008400204600F028F82420C4F8880020689C
:104A1000A16A0268002922F0010202601CBF204640
:104A200001F056F8204601F0A7FF012801D101202E
:104A300010BD2168486820F490404860886820F0E4
:104A40002A008860086840F0010220460A60BDE83C
:104A5000104001F0B1B80000F0B5A9B0044600253F
:104A600002A888212895CDE92655CDE92455FBF7E4
:104A700022FD206844F20041C4F20001884265D062
:104A800043F60001C4F20101884240F098800026FC
:104A9000012702A8039602970F96FDF715FD00283F
:104AA00018BFFBF769FE40F68C40C4F202408169F2
:104AB00041F480418161816901F480410191019952
:104AC000016841F001010160006824A900F00100C3
:104AD000019001984FF4C06024900220CDE9250692
:104AE000072028900020C4F202202796FCF700FE41
:104AF00040F2A83550221620C2F20005C4F202028C
:104B00004FF480610823C5E900204FF08040C5E9DB
:104B10000261C5E90436C5E90666C5E90867C5E965
:104B20000A702846C5E90C66FCF7CCFC002818BFC3
:104B3000FBF722FE28461021E567EC65FCF7BAFB7F
:104B4000002818BFFBF718FE3A2430E0022402A820
:104B5000039502941095FDF7B7FC002818BFFBF7EA
:104B60000BFE40F68C40C4F20240016941F4003172
:104B70000161016901F4003101910199016841F07D
:104B800001010160006824A900F001000190019872
:104B90004FF4C050CDE924040020CDE926000420C4
:104BA00028900020C4F20220FCF7A2FD3B242046FE
:104BB00001210022FCF7F2FE2046FCF7DFFE29B0BF
:104BC000F0BD000080B5D0F88C30202B1CBF022037
:104BD00080BD00294FF0010318BF002A01D11846FB
:104BE00080BD0023C366D0F800C0DCF808305B0647
:104BF00005D5DCF8083023F04003CCF8083042F249
:104C00000043C4F200439C4503D0DCF804301B028F
:104C100004D401F08FFF0023184680BD5CE800CF6C
:104C2000D0F800E04CF080634EE8003CBCF1000F8F
:104C3000EFD0036853E800CFD0F800E04CF0806379
:104C40004EE8003CBCF1000FE3D0036853E800CF0E
:104C5000D0F800E04CF080634EE8003CBCF1000F5F
:104C6000D7D0036853E800CFD0F800E04CF0806361
:104C70004EE8003CBCF1000FCBD0036853E800CFF6
:104C8000CEE7000010B540F27451C2F200010446B4
:104C900000680968884208D102F0B6FF40F2D400EB
:104CA000C2F2000002F098FA206840F20861C2F2F5
:104CB00000010968884218BF10BD02F0DBFFBDE8A3
:104CC000104002F0D9BA00002DE9F04182B004464C
:104CD000D0F8880020281EBF022002B0BDE8F08175
:104CE0000E4600294FF001001CBF1746002A02D1D2
:104CF00002B0BDE8F08120681D468168090603D531
:104D0000816821F0800181604FF000082120C4F803
:104D10009080C4F88800FCF7C5FDA4F85470A4F88E
:104D20005670A1680746B1F5805F10D12069002850
:104D300014BF3046B046064609E000BF16F8010B26
:104D400021688862B4F856000138A4F85600B4F817
:104D5000560088B12046802100223B46009502F093
:104D600019F8C8B9002EE9D138F8020B21686FF3A1
:104D70005F2088620026E5E72046402100223B466E
:104D8000009502F007F82021C4F88810002818BF09
:104D9000032002B0BDE8F0812020C4F88800032081
:104DA00002B0BDE8F0810000B0B50446D0F888003C
:104DB00020281CBF0220B0BD00294FF0010018BF01
:104DC000002A00D1B0BD002521202165A4F854207F
:104DD000A4F85620C4F89050C4F88800E06FD8B307
:104DE00045F6217C45F6857EC0F6000CC0F6000E27
:104DF000C0E918CEA36845F6355CC0F6000CB3F5E3
:104E0000805FC0F868C0C56604D12369B3FA83F334
:104E10005B099A4090F850301B0607D4256893B27E
:104E200005F12802FCF7FCFB70B915E0436F5BB19C
:104E30001B684BB192B2D9609A60226802F12801D6
:104E40001961FCF765F938B11020C4F890002020F2
:104E5000C4F888000120B0BD20684021016250E8FC
:104E6000020F216840F0800041E80202002A04BFDE
:104E70000020B0BD24E000BF206850E8020F216888
:104E800040F0800041E80202002A04BF0020B0BDCB
:104E9000206850E8020F216840F0800041E80202DB
:104EA000002A04BF0020B0BD206850E8020F21682E
:104EB00040F0800041E802020020002A08BFB0BD97
:104EC000206850E8020F216840F0800041E80202AB
:104ED000002AD1D10020B0BD70470000704700000B
:104EE000FEE70000002180ED000A8160C0ED010AAC
:104EF000016180ED031A4161C0ED061AC16170477E
:104F0000FEE70000FEE700002DE9F04FADF5057D5E
:104F1000DDF83CC2994692468B468046D420BCF1CF
:104F2000000F8DF80F008DF810102ED08E9A0026ED
:104F30000DF10F03002700BF955DF41847F001063F
:104F4000F6B26645A57017D2915D46F0020547F0AE
:104F50000206F6B2664559550ED2915DF51847F036
:104F60000306F6B26645A97006D20437915DF518BE
:104F7000FEB26645A970DFD30CF1010292B2FE2A9F
:104F80005BD80CF102039AB201E002220223002155
:104F9000FF278DF811315B42022AADF80E118DF812
:104FA00010718DF812318DF8130139D3CDE900BAA3
:104FB000D3204FF0010E0DF10F050DF587774FF05F
:104FC000020B01240126CDF8089000BF15F80490CB
:104FD00004EB070A5EFA86F44844A2428AF8059078
:104FE00017D92B5DE1195BFA86F41844A2424B7184
:104FF0000FD9295DE3195971F31CDCB2A2420844B0
:1050000007D9295D0436E319F4B2A2420844597164
:10501000DCD8DDE900BADDF80890C343002100E0E8
:105020002C230DF58770024491710CF10901537125
:10503000D8F8082089B2904760B1D8F810008047AE
:10504000D8F814103BA088474FF0FF300DF5057DD0
:10505000BDE8F08F909CD8F80C10204688470028B7
:10506000F2D0D8F804200DF10F00062190479DF8EA
:105070000F009DF8101008430DD19DF81100FF2876
:1050800009D19DF8120030B99DF81300FF2802D114
:105090009DF8140018B1D8F814102BA0D3E7D8F855
:1050A0000C10204688470028CED009F1020082B2B9
:1050B0000DF10F044046214600F09CF89DF80F10BA
:1050C000D52933D19DF810100BF101028A422DD160
:1050D000B9F1000F25D00022002113199F7841F06B
:1050E0000103DBB24B450AF802701AD243F0020208
:1050F000A75C41F00202D2B24A450AF8037010D20E
:1051000013199F7841F00303DBB24B450AF8027094
:1051100007D21A1904319778CAB24A450AF80370BF
:10512000DBD302380DF5057DBDE8F08FD8F81410FB
:1051300010A088E7547279696E6720746F207761D8
:105140006B65757000000000446964206E6F742008
:1051500072656365697665206578706563746564FA
:105160002041434B2066726F6D20504E3533322103
:1051700000000000526563656976656420756E65A0
:105180007870656374656420636F6D6D616E642013
:10519000726573706F6E736521000000B0B584B0E6
:1051A00004464FF4FA700A46002502902046022178
:1051B000042300950195FFF7A7FE013002D0284691
:1051C00004B0B0BD616903A088474FF0FF352846A1
:1051D00004B0B0BD4661696C656420746F2064657D
:1051E000746563742074686520504E353332000056
:1051F000704700002DE9F043C3B01746814642686E
:10520000F81D884681B20DF106063046904707F139
:1052100008000021CAB2B35CB3B9511CCAB28242C1
:1052200022D2B35C83B9511CCAB282421CD2B35C95
:1052300053B9511CCAB2824216D2B35C23B9511C75
:10524000CAB28242E6D30FE0FF2B0DD10131C9B2C1
:10525000814216D27018775C40783844000614D02A
:10526000D9F814102EA005E0D9F8141048F27C707B
:10527000C0F6000088474FF0FF37384643B0BDE81E
:10528000F083D9F814101FA0F4E7881C0021002235
:1052900050FA81F3CCB2F35CA7421A441DD941F015
:1052A000010350FA83F3F45C41F00203DDB2AF4234
:1052B000224412D350FA83F3F55C41F00303DCB2CD
:1052C000A7422A4409D350FA83F30431F35C1A4409
:1052D000CBB29F42D2B2DBD200E0D2B21AB1D9F83F
:1052E00014101BA0C6E747B1311840463A46FBF7F9
:1052F0009DF8384643B0BDE8F0830027384643B0F8
:10530000BDE8F083526573706F6E736520636F6ED6
:105310007461696E73206E6F206461746121000096
:10532000526573706F6E7365206C656E677468206C
:10533000636865636B73756D20646964206E6F7458
:10534000206D61746368206C656E6774682100006D
:10535000526573706F6E736520636865636B7375F8
:105360006D20646964206E6F74206D6174636820C1
:10537000657870656374656420636865636B7375D5
:105380006D000000F0B589B0054601200C468DF88F
:10539000220002200DF122010DF10F071E468DF8AB
:1053A0002320CDE9001028464A213A4613230296CD
:1053B000FFF7AAFD00280AD49DF80F0001280BD1A1
:1053C0009DF81460072E0FD9696916A006E04FF00A
:1053D000FF36304609B0F0BD69690AA088474FF032
:1053E000FF36304609B0F0BD3EB1B91D2046324609
:1053F000FBF71CF8304609B0F0BD0026304609B076
:10540000F0BD00BF4D6F7265207468616E206F6ED5
:1054100065206361726420646574656374656421EA
:1054200000000000466F756E64206361726420772F
:1054300069746820756E65787065637465646C79ED
:10544000206C6F6E672055494421000010B540F272
:105450000044C4F20224204640210122FCF71CFA39
:105460006420FCF731F9204640210022FCF714FAB1
:105470004FF4FA70FCF728F9204640210122FCF78E
:105480000BFA6420FCF720F9002010BD10B582B0A3
:1054900045F24D4145F24152C0F60001C0F600020E
:1054A000016045F22171426045F20962C0F60001D7
:1054B000C0F60002816045F2A961C26045F2F112B6
:1054C000C0F60001C0F60002C0E9041200208DF809
:1054D00007004FF47A70FCF7F7F80024C4F20224B6
:1054E00020464FF400410022FCF7D6F90220FCF7D9
:1054F000EBF820464FF400410022FCF7CDF90120E3
:10550000FCF7E2F840F298400DF107014FF00A0C69
:10551000C2F200000A460123CDF800C0FEF77CF974
:105520000120FCF7D1F820464FF400410122FCF79E
:10553000B3F94FF47A70FCF7C7F802B010BD000061
:105540002DE9F04F03AF81B0054601F1080020F0CE
:1055500007000C46ADEB000601F10109B54603203A
:1055600030700520FCF7B0F840F20008C4F20228C1
:1055700040464FF400410022FCF78EF90120FCF771
:10558000A3F882B040F298404FF00A0C5FFA89F31A
:10559000C2F2000031463246CDF800C0FEF73CF9B9
:1055A00002B00120FCF790F840464FF40041012280
:1055B000FCF772F914B30021002000BF8A19537858
:1055C00040F00102D2B2A2426B5417D291194B782B
:1055D00040F00201C9B2A142AB540FD241F0010226
:1055E000B35C40F00302D2B2A2426B5406D29119CE
:1055F00004304B78C1B2A142AB54DFD3A7F10C0405
:105600000020A546BDE8F08F2DE9F04782B0814625
:105610000220ADF80600FCF745F90546FCF742F913
:10562000401B48453AD2002640F29848C4F2022670
:105630004FF00A0AC2F200080DF10607012400BF6C
:105640000A20FCF741F830464FF400410022FCF7F5
:1056500023F90120FCF738F8404639463A46022340
:10566000CDF800A0FEF7D8F80120FCF72DF8304661
:105670004FF400410122FCF70FF99DF807000128C3
:1056800008D00520FCF720F8FCF70CF9401B484532
:10569000D6D30024204602B0BDE8F087002420467F
:1056A00002B0BDE8F087000010B582B000208DF890
:1056B00007004FF47A70FCF707F80024C4F20224C4
:1056C00020464FF400410022FCF7E6F80220FBF7E9
:1056D000FBFF20464FF400410022FCF7DDF80120DB
:1056E000FBF7F2FF40F298400DF107014FF00A0C72
:1056F000C2F200000A460123CDF800C0FEF78CF884
:105700000120FBF7E1FF20464FF400410122FCF7A6
:10571000C3F84FF47A70FBF7D7FF002002B010BD3A
:105720002DE9F04703AF01F1080222F0070201F171
:105730000108ADEB0204A5460122227011B300233B
:10574000002200BFC65C1D1942F00103DBB28B4290
:105750006E7017D2C65C1D1942F00203DBB28B4299
:105760006E700FD2C65C43F0010542F00303DBB25A
:105770008B42665506D20432C65C1D19D3B28B42E9
:105780006E70DFD30025C4F2022528464FF4004195
:105790000022FCF781F80120FBF796FF82B040F26F
:1057A00098400A265FFA88F3C2F20000214622469A
:1057B0000096FEF731F802B00120FBF785FF28467E
:1057C0004FF400410122FCF767F8A7F10C04002018
:1057D000A546BDE8F087000080B584B041F20141E4
:1057E000C0F201010391032103AA4FF47A7CCDE9B1
:1057F0000021142100220023CDF808C0FFF784FB0C
:10580000002004B080BD00007047000070B540F675
:105810002C46C4F2024656F82C1C044621F0806047
:1058200046F82C0CFCF73EF8054656F82C0C000107
:105830000BD500BFFCF736F8401B022884BF0320BD
:1058400070BD56F82C0C0001F4D4306843F6037197
:10585000884394E80E00084340EA0220E168306083
:105860004FF47E4202EB41212269581E4FF4FE03A1
:1058700089B203EB02426FF35F20084402F4FE0199
:1058800062694FF0FE4303EB0262084402F0FE41FE
:10589000084430613068A16920F00C000843306092
:1058A0003068E16920F0200008433060606A3168A8
:1058B0000843306030684FF6F87120F01000306017
:1058C0007069226A884340EAC2007061306840F023
:1058D0001000306056F82C0C40F0806046F82C0C1C
:1058E000FBF7E0FF044600BF56F82C0C000144BF54
:1058F000002070BDFBF7D6FF001B032824BF032048
:1059000070BDF1E7016840F26F32D1F814C08B69C5
:1059100043F008038B618B6943F010038B610B68C4
:1059200023F001030B600B6923EA02020A618A6813
:1059300022F440428A6090F889305FEA8C620BD58D
:10594000042B09D0D0F88C2042F08002C0F88C20C3
:105950008A6942F020028A6190F889305FEA4C62DD
:105960000BD5032B09D0D0F88C2042F00402C0F8EC
:105970008C208A6942F040028A615FEA8C5208D426
:105980005FEACC5212D40021A0F86A10A0F872107D
:105990007047D0F88C2042F00102C0F88C208A6950
:1059A00042F400728A615FEACC52ECD5D0F88C20C8
:1059B00042F00802C0F88C208A6942F480728A6141
:1059C0000021A0F86A10A0F872107047704700001C
:1059D000B0B540F23C34C2F200042078012818BF70
:1059E000B0BD01F07FFF40F27805C2F20005E96A20
:1059F000401A286301F076FFE86202F08DF9E98928
:105A000000202070481CE881B0BD0000FBF75ABFA1
:105A10004EF6885CCEF2000CDCF80000012240F467
:105A20007000CCF8000040F60040C4F20240026072
:105A30000022C261026203684EF6E321CFF6E22142
:105A40001940016040F28021C0F201118262C262FD
:105A500041638263C1630264016821F480210160B3
:105A600002654FF0006142F21C00C4F202004CF8E3
:105A7000801C50F8041C4A0F062A05D801F060412A
:105A8000B1F1404F18BF70470168C9070BD042F60B
:105A90003B21C0F6190140F8101C46F67F61C4F6A0
:105AA0005D4140F8101C016841F00201016001688D
:105AB00041F001010160704740F27020C2F2000025
:105AC000FEF7EEBA40F22850C2F20000FEF7E8BA44
:105AD00080B5816A0A070CD4CA0715D18A071ED47B
