:020000040800F2
:10000000380C0020F9020008D9610008BD5C000826
:10001000D56100082D080008DD7D00080000000003
:10002000000000000000000000000000ED67000874
:100030007D0B00080000000035620008056800081C
:100040001503000815030008150300080000000050
:100050001503000815030008150300080000000040
:100060001503000815030008000000001503000830
:100070001503000815030008150300081503000800
:1000800015030008150300081503000815030008F0
:1000900015030008150300081503000815030008E0
:1000A00015030008150300081503000815030008D0
:1000B00015030008150300081503000815030008C0
:1000C0001503000815030008390F00081503000880
:1000D00000000000150300081503000815030008C0
:1000E0001503000815030008B1680008150300088F
:1000F0001503000815030008BD6800080000000093
:1001000000000000C9680008150300081503000876
:10011000150300081503000815030008150300085F
:100120001503000815030008C57D0008D17D0008EF
:10013000150300080000000000000000150300087F
:10014000150300080000000000000000000000008F
:10015000000000000000000015030008000000007F
:10016000000000000000000015030008150300084F
:10017000000000000000000000000000000000007F
:10018000000000000000000000000000000000006F
:10019000000000000000000000000000000000005F
:1001A000000000000000000015030008150300080F
:1001B00015030008150300081503000815030008BF
:1001C00015030008150300080000000000000000EF
:1001D00000000000000000000000000015030008FF
:1001E00015030008000000000000000000000000EF
:1001F00000000000000000000000000000000000FF
:1002000000000000150300081503000800000000AE
:1002100000000000150300080000000000000000BE
:1002200000000000000000000000000015030008AE
:10023000150300080000000000000000000000009E
:10024000000000000000000000000000150300088E
:10025000150300081503000800F002F800F03CF850
:100260000AA090E8000C82448344AAF10107DA4511
:1002700001D100F031F8AFF2090EBAE80F0013F027
:10028000010F18BFFB1A43F0010318474C950000FB
:100290006C950000103A24BF78C878C1FAD852078C
:1002A00024BF30C830C144BF04680C6070470000F0
:1002B0000023002400250026103A28BF78C1FBD86F
:1002C000520728BF30C148BF0B6070471FB509F007
:1002D00030FA1FBD10B510BD00F0E6F81146FFF76B
:1002E000F5FF07F095FD00F004F903B4FFF7F2FF06
:1002F00003BC00F007F900000A4880470A4800479D
:10030000FEE7FEE7FEE7FEE7FEE7FEE7FEE7FEE7C5
:10031000FEE7FEE7FEE7000004480549054A064BF4
:1003200070470000096800085902000838060020DC
:10033000380C0020380800203808002053EA020C4E
:1003400000F069802DE9F04B4FF00006002B1FBF35
:10035000B3FA83F503FA05F424FA05F65E4012BFFA
:100360001643B2FA82F502FA05F4C5F120051EBF64
:1003700022FA05FC44EA0C04203556EA044C4FEA04
:10038000144418BF641C4FF000084FF0000990425D
:1003900071EB030C39D3002919BFB1FA81F701FAC7
:1003A00007F6B0FA80F700FA07F6C7F120071EBF7C
:1003B00020FA07FC46EA0C062037B6FBF4FCA7EB54
:1003C0000507103F07F01F0BCBF120062CFA06F6AD
:1003D0000CFA0BFB44BFB3460026202FA4BF5E4699
:1003E0004FF0000B5BEA060C08BF4FF0010B19EB56
:1003F0000B0948EB0608ABFB027C06FB02CC0BFBAF
:1004000003CCC01B71EB0C01C1E70B460246414611
:100410004846BDE8F08B13B5084318BF4FF0FF30D6
:100420000146AFF30080BDE81C4070474FF000026A
:1004300000B5134694469646203922BFA0E80C50DA
:10044000A0E80C50B1F12001BFF4F7AF090728BFB5
:10045000A0E80C5048BF0CC05DF804EB890028BF31
:1004600040F8042B08BF704748BF20F8022B11F05A
:10047000804F18BF00F8012B7047704770477047D6
:1004800010B500F009F8006810BD10B5044600F082
:1004900003F8046010BD00000048704718000020F9
:1004A00000487047180000207546FFF7F9FFAE4678
:1004B00005006946534620F00700854618B020B570
:1004C000FFF72AFFBDE820404FF000064FF000077D
:1004D0004FF000084FF0000BAC46ACE8C009ACE8A8
:1004E000C009ACE8C009ACE8C00921F007018D469D
:1004F000704710B50446AFF300802046BDE81040B9
:10050000FFF7F3BE01491820ABBEFEE7260002004C
:10051000704700000146C06D836D826D13F0500F6F
:1005200007D0D20648BF00F001BF006D826E0846BA
:10053000104742F40071816501680B68CA681B07A7
:1005400010D491070CD4816D21F480718165816D87
:10055000C90448BF00F0E6BE816D41F0010181652C
:1005600000F0E0BE12F4406FFAD1C9688904F7D4F4
:10057000816D21F480718165816DC904F0D4816D34
:1005800041F00101816500F0CDBE0000C06D816DBC
:1005900041F040018165C16D41F00401C16500F089
:1005A000C5BE0000C06D00F0BFBE000070B582B0D7
:1005B00004460020019021688A68D20740D14FF696
:1005C000C076C7F6FF76886806F17F0210420AD02F
:1005D000A06D40F01000A065E06D40F00100E06506
:1005E000012002B070BD8868304040F00100886092
:1005F00048F20830C4F202200068000222D401F060
:100600002DFD21680A68D2071EBF002002B070BD10
:10061000054602E00868C00711D18868C00704D108
:100620008868304040F00100886001F017FD401BF1
:1006300021680328EED30868C007EBD1C8E7002083
:1006400002B070BD40F20800C2F20000006842F63D
:1006500063518009C0F23E51A0FB010188090221CB
:1006600001EB4000019001980028C8D001980138A2
:10067000019001980028C2D001980138019001989A
:100680000028BCD001980138019001980028B6D00C
:1006900001980138019001980028E7D1AFE70000E8
:1006A0002DE9F0472DED0A8B40F2B800C2F20000B0
:1006B000007840F2780740F002000328C2F20007F9
:1006C0005ED140F2C000C2F200004078002857D14D
:1006D00040F28856C2F20006B06A08F08FFF9FED24
:1006E0004E0B53EC102B08F0D0FF002848D1F06AD5
:1006F00008F084FF9FED4A0B53EC102B08F0B2FA80
:100700000446D6E9060AD6E908980D4608F076FFB1
:1007100002460B462046294608F0BEFF9FED42BA2E
:10072000B7EE00CA00280CFE0B8A504687ED018AFE
:1007300008F064FF02460B462046294608F0ACFF4D
:1007400000280CFE0B9A484687ED029A08F056FFE7
:1007500002460B462046294608F09EFF00280CFE64
:100760000BAA404687ED03AA08F048FF02460B4655
:100770002046294608F090FF00280CFE0B0A0CE0EA
:10078000B7EE000A4FF07E50B0EE40AAB0EE409AAD
:10079000B0EE408AC7E90100F86042F62C4087EDD0
:1007A000040AC4F2010090ED001A40F23031B8EEB4
:1007B000411AC2F2000128EE011A0968BCEEC11A02
:1007C0002C2281ED0D1AC4F2000292ED001A40F2C3
:1007D0007C33B8EE411AC2F2000329EE011A1B68FD
:1007E000BCEEC11A83ED0E1A92ED001AB8EE411A52
:1007F0002AEE011ABCEEC11A83ED0D1A90ED001A13
:10080000B8EE411A20EE010ABCEEC00A81ED100AD2
:10081000BDEC0A8BBDE8F0873333333333332140EB
:100820007B14AE47E17A943F00000000FEE7000031
:100830002DE9F04140F2B406C2F2000670892F287B
:1008400038BFBDE8F081707B40F28858002702284D
:10085000C2F20008778137D0D8F82C0008F0CEFE1D
:100860009FED270B044653EC102B0D4608F006FFB6
:1008700058B99FED250B204653EC102B294608F064
:1008800004FF10B90120707312E09FED210B204688
:1008900053EC102B294608F0EAFE48B9F0780130F5
:1008A000C1B20229F07003D3022070730020F070EF
:1008B0009FED170B204653EC102B294608F0E5FE60
:1008C000002804BF0020F070D8F8300008F096FE31
:1008D0009FED110B53EC102B08F0C9FE96ED040AA6
:1008E0009FED0F1A002818BF0120B4EE410A3073A3
:1008F000F1EE10FAC8BF0127B773BDE8F08100BF61
:10090000CDCCCCCCCCCC0040CDCCCCCCCCCCFC3FDA
:10091000333333333333FB3F85EB51B81E8505400A
:100920000000A04270B540F2B405C2F2000528797B
:10093000032800F29480DFE800F0021F4B5F40F2D2
:1009400000440020C4F202242E78687020464FF440
:10095000004101F06FFB002E58D0002865D14FF404
:10096000FA7001F087FA20464FF4004101F062FB73
:1009700000285AD1002057E00020687340F2004060
:100980000124C4F202204FF4805100226C7001F067
:100990005FFB40F2F410C2F200000078202813D070
:1009A00040F28850C2F2000090ED0A0A9FED2E1A24
:1009B000B4EE410AF1EE10FA06DA287B012803D0E2
:1009C000A87B012818BF70BD02202871AC7070BDD3
:1009D00040F200400024C4F202204FF48051012272
:1009E0006C7001F035FB40F2F410C2F200000078A8
:1009F000002808BF2C7132E040F2F410C2F200006F
:100A000001780020687051BB287170BD01280CD19D
:100A10004FF4FA7001F02EFA20464FF4004101F035
:100A200009FB012801D10120287040F2F410C2F224
:100A300000000078902804BF03212971697B1038D9
:100A400018BF0120023918BF0121084207D12878B8
:100A5000012802BF287BA97B50EA010000D070BDAD
:100A60000120287170BD00BF00002C410000000073
:100A700080B540F2B400C2F200000079012801D133
:100A800001221DE040F21000C2F2000090ED000AC9
:100A90009FED131AB4EE410AF1EE10FA0FDD40F2A9
:100AA0008850C2F20000806A08F0A8FD9FED0A0B92
:100AB00053EC102B08F0DBFD08B1012200E000220E
:100AC00040F20040C4F202200421BDE8804001F061
:100AD000BFBA00BF00BF00BF3333333333332140CD
:100AE0000000A042B0B540F2B405C2F2000528797A
:100AF000002440F002010229C4F202240AD1E9884C
:100B0000062907D320464FF4805101F099FA28793D
:100B10000021E980012806D120464FF480510022AF
:100B200001F096FA2879032818BFB0BD20464FF48B
:100B300080510122BDE8B04001F08ABA40F2B40011
:100B4000C2F20000017941F00201032908D101221B
:100B500040F20040C4F202204FF4804101F078BA24
:100B6000407B0238B0FA80F0420940F20040C4F203
:100B700002204FF4804101F06BBA00007047000082
:100B800040F21440C2F2000003F056BD72B600BF3E
:100B9000FEE700000000000070B52DED028B40F272
:100BA0008856C2F2000696ED0A8A18EE100A86ED03
:100BB0001B8A08F023FDB5EE408A0546F1EE10FAD7
:100BC0000C4611DD9FED920B284653EC102B21466D
:100BD00008F04DFD40B99FED900B284653EC102BCB
:100BE000214608F017FB6BE09FED890B284653EC7C
:100BF000102B214608F049FD98B99FED890B284636
:100C000053EC102B214608F032FD50B99FED860BB6
:100C1000284653EC102B214608F0FCFA9FED840B7C
:100C20004AE09FED7F0B284653EC102B214608F03D
:100C30002CFD98B99FED800B284653EC102B2146D4
:100C400008F015FD50B99FED7E0B284653EC102B94
:100C5000214608F0DFFA9FED7C0B2DE09FED760B2F
:100C6000284653EC102B214608F00FFD40B99FEDAC
:100C7000780B284653EC102B214608F0F8FC88B17D
:100C80009FED730B284653EC102B214608F0FDFC1A
:100C9000F8B99FED730B284653EC102B214608F052
:100CA000E6FCB0B99FED600B284653EC102B2146B3
:100CB00008F0B0FA9FED680B53EC102B07F0D2FF51
:100CC00007F09EFF00EE100A86ED1A0ABDEC028BBB
:100CD00070BD9FED630B284653EC102B214608F0A6
:100CE000D4FC98B99FED600B284653EC102B21469D
:100CF00008F0BDFC50B99FED5E0B284653EC102B5D
:100D0000214608F087FA9FED5C0BD5E79FED560B67
:100D1000284653EC102B214608F0B7FC98B99FEDFC
:100D2000580B284653EC102B214608F0A0FC50B974
:100D30009FED550B284653EC102B214608F06AFA1C
:100D40009FED530BB8E79FED4E0B284653EC102B4D
:100D5000214608F09AFC98B99FED4F0B284653ECBA
:100D6000102B214608F083FC50B99FED410B28461B
:100D700053EC102B214608F04DFA9FED490B9BE7F1
:100D80009FED450B284653EC102B214608F07DFCC7
:100D900098B99FED450B284653EC102B214608F0DF
:100DA00066FC50B99FED420B284653EC102B2146B0
:100DB00008F030FA9FED400B7EE79FED3B0B284695
:100DC00053EC102B214608F060FC98B99FED3C0BCA
:100DD000284653EC102B214608F049FC50B99FEDF2
:100DE0003A0B284653EC102B214608F013FA9FEDDE
:100DF000380B61E79FED320B284653EC102B214650
:100E000008F043FC00287FF461AFB7EE000A5BE70F
:100E1000E17A14AE47E12040D11E2FA4C343883F9E
:100E20003333333333332140000000000000E43F0C
:100E30003333333333B314C0713D0AD7A370214029
:100E4000A3AEB5F7A9AAEA3F5F7D3CF4DDDD1BC088
:100E5000C3F5285C8FC221409A999999999914C039
:100E600014AE47E17A142240A4703D0AD7A3224071
:100E700074B33F506EDBD63F1B834E081DD405C0B4
:100E8000CDCCCCCCCCCC2240000000000000F43F04
:100E90009A999999991926C05C8FC2F5285C2340CC
:100EA000D55C6E30D44105C014AE47E17A142440BD
:100EB000271763601DC7D13FE5620CACE338FEBF66
:100EC0009A99999999992540B491EBA694D7C03FE6
:100ED000F67D384888F2DABF10B501320023B3EB53
:100EE000520F28D04FEA520C4FF0000E002400BFE2
:100EF00044F0010292B230F81E3094450B801AD9AA
:100F000044F002039BB230F812209C454A8012D96B
:100F100044F0030292B230F8133094458B8098BFAE
:100F200010BD043430F812201FFA84FECA80F44544
:100F300001F10801DCD810BD40F26420C2F20000CB
:100F400000F0B6BDF0B581B00022009290F85420B8
:100F5000012A03D10221084601B0F0BD0123076830
:100F600080F85430BB685B0743D40B6848F2083CF8
:100F7000012BC4F2022C09D14FF6C056CFF6FF76F2
:100F80005CF8065045F001054CF806504E681F22EB
:100F9000C6F3012506F01F0607EB8505B2402C6B52
:100FA000C3F3846324EA0202B3401A432A63BA6893
:100FB000BB68DB0843EA9202D20740F0BB800A68B4
:100FC0008D68C2F3406407F11403042606EAD25E7A
:100FD00053F82460C2F304540722A240B5F1004F35
:100FE00026EA02060BD143F80E601A6842F000436D
:100FF0000DE0816D41F02001816501218CE105FA50
:1010000004F2324343F80E201A6822F000437B6159
:10101000D1E90435FE68042B5FD13A6E3A6EC2F313
:1010200084620B6893FAA3F4B4FA84F5C3F3846E74
:101030006FF31F532C46002B08BF7446A2424FF695
:10104000FF74C0F20F040CD13A6E22F000423A66EF
:101050000A6802EA0403C2F3846E92FAA2F2B2FAB8
:1010600082F57A6E7A6E002BC2F384622E4608BF38
:101070007646B2420CD17A6E22F000427A660A6855
:1010800002EA0403C2F3846E92FAA2F2B2FA82F583
:10109000BA6EBA6E002BC2F384622E4608BF764643
:1010A000B2420CD1BA6E22F00042BA660A6802EA75
:1010B0000403C2F3846E92FAA2F2B2FA82F5FA6ED7
:1010C000FA6E002BC2F3846208BF7546AA4231D182
:1010D000FA6E22F00042FA662CE0062202EA96023C
:1010E00007F16004D1F800E054F8236005FA02F239
:1010F0004FF20005C0F2FF3535400EF0F84632439E
:101100002A4342F0004244F823200A698B6954F8CC
:10111000226026F08076334344F822300A690B7F40
:1011200054F82260012B26F0007608BF06F1007605
:1011300044F82260BA68D20757D10D68CA68D7F858
:10114000B0602B466FF31F5326EA030E4FF6FF766F
:1011500002F01804C0F20F0626FA04F41C4044EA18
:101160000E060024C4F27F04A242C7F8B0603CD14E
:1011700095FAA5F2B2FA82F42246002B08BFAA0E15
:10118000013202F01E02092A4FEA95650CD8002BA5
:1011900014BF621C6A1C02F01F03012203EB43060A
:1011A0009A4042EA065312E0002B14BF621C6A1CEC
:1011B00002F01F0303EB43020025CFF62065012652
:1011C00005EB025206FA03F31A4342F000738A68F1
:1011D000C3F34066072407EB86067569C3F304531F
:1011E0009C40A5439A402A4372610B680021C8F2D3
:1011F00008010B422ED0DCF800500021CCF2213146
:101200008B4205F0E07108BF15F4000224D00422DF
:10121000C8F66002934208BF15F0807222D0002207
:10122000CCF25272934208BF15F4800220D0ACF584
:1012300042718F424FF000016ED04022C9F6201259
:10124000934269D1D7F8C81041F00201C7F8C8101D
:10125000002161E000215FE0ACF5427297420DD0C1
:10126000002159E0ACF5427297423BD0002153E097
:10127000ACF5427297423DD000214DE0DCF80020F1
:1012800022F0E072114341F40001CCF8001040F26A
:101290000801C2F20001096842F663528909C0F2EE
:1012A0003E52A1FB02129109022202EB4101009180
:1012B000009951B3009901390091009939B300990F
:1012C00001390091009921B30099013900910099E9
:1012D00009B3009901390091009900294FF00001EC
:1012E000E8D119E0DCF8002022F0E072114341F06F
:1012F000807106E0DCF8002022F0E072114341F436
:101300008001CCF80010002106E0002104E000215B
:1013100002E0002100E00021002280F8542008466D
:1013200001B0F0BD7047000070470000704700003A
:10133000B0B582B00446002001904CB1A06D50B110
:1013400021688868800011D48868C00018D54AE0F8
:10135000012002B0B0BD204600F0EAF80020E065B0
:1013600084F85400216888688000EDD588684FF6BD
:10137000C072C5F6FF72104088608868C00032D421
:101380004FF6C0728868C5F6FF7202F180521040B5
:1013900000F18050886040F20800C2F2000000684E
:1013A00042F663528009C0F23E52A0FB020290094D
:1013B000022202EB400001900198A0B1019801388F
:1013C0000190019878B1019801380190019850B1CD
:1013D000019801380190019828B1019801380190D5
:1013E00001980028EAD18868C00009D4A06D40F0B7
:1013F0001000A065E06D40F00100E065012000E014
:1014000000208A68C2F38002A36D03F01003D21893
:10141000A26D05D042F010010120A16502B0B0BD5F
:1014200022F481720232A2658A68D20712D148F290
:1014300008324FF60053C4F20222CFF6FF73D3589E
:10144000DB0707D1D4F804C0136823F47C1343EA04
:101450000C031360627EA36B43EA4232D4E902C3F9
:101460001A4394F8203042EA0C0242EA034E012B60
:1014700008D1D4F824C00023CFF6FE7303EB4C430D
:101480004EEA030EA36A3BB103F47873D4F82CC080
:1014900043EA0E0242EA0C0ECB6844F20702CFF692
:1014A000F0721A4042EA0E02CA600A69236B22F007
:1014B00040621A430A618A68120727D494F83430CC
:1014C000227E5B0094F83CC043EA823ECB6844F243
:1014D000020223EA020242EA0E02CA600A69BCF171
:1014E000010F10D140F2FD7322EA030CD4E910324F
:1014F000D4E912E543EA0C031A4342EA0E022A43F6
:1015000042F0010201E022F001020A6122690B6B44
:10151000012A23F00F0202BFE369013B1A430A6369
:10152000A16D012262F30101A16502B0B0BD00000E
:101530002DE9F043A9B00446002640F2000902A8B4
:101540008821CDE92766CDE92566C4F202292496D3
:10155000FEF76CFF206809F50041884202D029B0EF
:10156000BDE8F0834FF40010029002204FF0010814
:10157000252103960490CDF81480CDE906100421AE
:10158000099108210890CDE90A164FF480510C9179
:101590004FF480211B9002A80D9101F005FE002858
:1015A00018BFFFF7F3FA40F68C40C4F2024001681E
:1015B00024AE41F4806101600168032501F480617B
:1015C000019101990168002741F001010160016862
:1015D00001F0010101910199016841F002010160EE
:1015E0000068314600F0020001900198F22024903A
:1015F00048462595269700F051FC09F58060314654
:10160000CDE92455269700F049FC40F2642540F2CC
:10161000D031C2F200054FF40020C4F202014FF4B1
:101620008032C5E90017C5E90277C5E9047028468C
:10163000C5E90682C5E90878C5E90A87C5E90C77D6
:1016400000F016FB002818BFFFF7A0FA284610216B
:101650002565EC6500F004FA002818BFFFF796FA3C
:1016600029B0BDE8F083000070B59CB00446006866
:101670008068400703D494F85400012802D1022066
:101680001CB070BD012084F85400204616460D465B
:10169000FEF78CFF20B1002184F854101CB070BDFF
:1016A000A06D40F60171884300F58070A065A06DC3
:1016B00040F21553C0044FF0000044BFE06D20F02D
:1016C0000600E065206DC0F60003216840F2A552D7
:1016D000036640F28D53C0F60002C0F600034FF0DF
:1016E000000CC0E919231C220A6084F854C04A681F
:1016F00042F010024A60CA6842F00102CA6090F8E3
:101700005020120606D48269012A0ED0022A08BF90
:10171000B6000BE0406F28B1016819B101A800F0D4
:1017200029F898B101201CB070BD760040312A46DE
:10173000334600F04BFB21684FF6C0738A68C7F64A
:10174000FF731A4004328A601CB070BD07980128EC
:1017500003D0022808BFB60000E07600206D2268A2
:10176000416F40320968C1E902620D6100F0A6F8DC
:10177000E1E7000080B500284FF0010218BF002902
:1017800001D1104680BD91F820C042F20002C0F89D
:1017900000C00B68C0F6004203F0080303610B6849
:1017A00003F4002343610B6803F0030383610B68B8
:1017B00003F44033C3610B68C3F305130133436281
:1017C0000B68C3F30553013383620B6803F04023B6
:1017D000C3620B681A4082630A6802F4C052C26393
:1017E0004B689A0508D4DAB242604A79520754BF6E
:1017F00000224FF4806202E04FF400724260C26047
:101800004A6802F4006282604A6802F4404202645C
:101810004A6802F040724264CA8802F03F02826461
:101820004A6802F0404202630B891CF002028366A0
:101830000FBF01234B896FF3DF230133C364CB68F0
:1018400003660B69436632B90022C0E91422C0E97D
:101850001622104680BD4B696FF35F330365B1F804
:1018600016C06FF35F3CC0F854C0D1F808E05FEADF
:10187000CE0203D55A420265D1F808E05FEA8E0233
:1018800044BFCCF100024265B1F818E0C0F858E05E
:101890008A694FEA124CC0F85CC08A68530003D5CD
:1018A000CEF1000282658A68B2F1FF3FC4BF00201A
:1018B00080BDCCF10001C165002080BD80B500284D
:1018C00056D0436F002B53D090F85410D0F800E05E
:1018D0000129DEF814C004D002294BD11CF4803158
:1018E00048D090F8541001293AD190F84C100129B1
:1018F0004FF0020144D0012280F84C2080F85410AF
:101900001973002181651961DEF8141041F4BA41A0
:10191000CEF81410416E29B1DEF8141041F40071B4
:10192000CEF81410006F28B1DEF8140040F4005017
:10193000CEF8140018680022016ACFF601024908A7
:1019400061F3596261F39A624FF6FF7120EA010177
:10195000CEF800104FF6FC7108401044CEF87C0021
:10196000DEF8140040F00100CEF81400002080BD25
:10197000012080BD40218165002180F84C100121AB
:10198000084680BDB0B5044600F068FB002C04BFDB
:101990000120B0BD054694F8540002282DD12168DD
:1019A000486940F004004861052084F85400086943
:1019B000800408D400F052FB401B052824D821687D
:1019C00008698004F6D54869012240F002004861A8
:1019D000042084F854004FF4FE40C86084F854207A
:1019E00094F8500000064FF0000002D5636F1A73A0
:1019F0008864002184F84C10B0BD2020A06501202F
:101A0000002184F84C10B0BDA06D40F01000A0651E
:101A1000032084F8540094F8500000064FF00100B1
:101A200044BF616F0873002184F84C10B0BD000002
:101A3000002804BF0120704790F8541002290AD1F1
:101A4000042180F85410006842F2040241691143F5
:101A5000416100207047202181650120704700000E
:101A6000024600284FF0010008BF7047126802F5D7
:101A70007B63C3F3C41CCB065CBF0020704740F6F9
:101A8000FF7301F011019A43112900FA0CF004D1FF
:101A900051680843506000207047516821EA0000F7
:101AA000506000207047000090F85400704700001C
:101AB00010B5044600680C22034600F57B6162F312
:101AC0000B03C1F3C4111A6822FA01F1C90700F02F
:101AD000A3800169490544BF41695FEA41514BD484
:101AE0000169090544BF41695FEA01514CD40169AC
:101AF000C90444BF41695FEAC1414DD40169490449
:101B000044BF41695FEA41414ED40169890544BF40
:101B100041695FEA81514FD40169890444BF416939
:101B20005FEA814152D40169C90544BF41695FEA56
:101B3000C15172D4A06D002808BF10BD2068416952
:101B400041F0020141614069C0074FF0030008BF46
:101B5000012084F8540094F85000000602D5606F0C
:101B600001210173A16E0020002984F84C0053D09C
:101B70002046BDE8104008474FF48061C160A16D68
:101B800041F00101A165ABE74FF40061C160A16DB7
:101B900041F00201A165AAE74FF48051C160A16D37
:101BA00041F00401A165A9E74FF48041C160A16D36
:101BB00041F00801A165A8E74FF40071C160616EB2
:101BC0000029A9D0204688472068A5E74FF4005196
:101BD000C16094F8541004292AD1416921F40051BC
:101BE0004161416941F0020141614169C9074FF01A
:101BF000030108BF012184F8541094F8501009061D
:101C000004D5616F01220A7300218164E16E002016
:101C1000002984F84C00ABD110BD94F8501009068F
:101C200011D4816C002904BF012184F8541013E001
:101C3000052184F85410216F00293FF474AF204629
:101C4000884720686FE7C16F31B9816C21B90121E4
:101C500084F85410626F11734FF44071C160216EAB
:101C60000020002984F84C001CBF2046884761E70B
:101C7000B0B5044600F0F2F9002C04BF0120B0BD5D
:101C800000210546206884F84C10022184F8541085
:101C9000416941F0060141614169C90709D000BFAE
:101CA00000F0DCF9401B05284FD820684169C907BE
:101CB000F6D1216A426904F1100C22F44302114367
:101CC0004161E3699CE806101A4311434FF6B07274
:101CD000CBF6FD7283186FF01F0202EBF31541EA99
:101CE0000C02082D4FEAF31C28BFBCF1070F14D8D3
:101CF00004F1240E9EE828404FF07C7101EB055161
:101D00004FF47C7505EB031301F07C7142EA0E027F
:101D100003F47C73114341EA03020264A16822794F
:101D2000E3681143226BB3F5007F42EA010213D04E
:101D3000B3F5806F12D1ACF12001082928BFBCF1A6
:101D4000070F98BF42F4806208E0012003211022AF
:101D5000A26584F85410B0BD42F40072616B436C0C
:101D600042F20015C3F6C0450A432B401A4341F224
:101D70004F33C4F2020342640022984282640CDCB6
:101D800040F25032C4F20202904212D040F2D032FD
:101D9000C4F2020290420CD00EE041F2D032C4F202
:101DA0000202904205D041F25032C4F20202904247
:101DB00002D10022426582650022C26721650121AD
:101DC0000020A26584F85410B0BD000010B50028B2
:101DD0004DD090F84CC0BCF1010F04BF022010BDE3
:101DE0004FF0010C80F84CC090F854C0BCF1010FCA
:101DF00038D14FF0020C80F854C04FF0000CC0F8FE
:101E000058C0D0F800C0D0F864E0DCF84840BEF11B
:101E1000000FC3EA0403CCF848304FF4FE43CCF87B
:101E20000C30CCF84C10CCF85020DCF8141041F4F5
:101E3000BA41CCF8141005D0DCF8141041F400714C
:101E4000CCF81410006F28B1DCF8140040F40050F6
:101E5000CCF81400DCF8140040F00100CCF81400B9
:101E6000002010BD40218165002180F84C10012028
:101E700010BD0000B0B5044600F0F0F8054640F291
:101E80000000C2F200000078611C18BF044400BFCB
:101E900000F0E4F8401BA042FAD3B0BD2DE9F04FAA
:101EA00082B00C68002C00F0C28047F67F72C0F24E
:101EB0002F0202EA90224FF0010900920022002630
:101EC0000027012501900FE0BCF1030F5FD100BF97
:101ED0000C68083734FA05F305F1010506F102062E
:101EE00002F1040200F0A380A5F1010A09FA0AFE3A
:101EF00014EA0E0BECD0D1F804C04CF01004122CF4
:101F00001FD16FF0030303EA5A0402F01C0300EB35
:101F10000409D9F820C05846D1F810B00F2404FAAB
:101F200003F80BF00F042CEA080C04FA03F343EA5D
:101F30000C0383460198C9F82030D1F804C04FF053
:101F4000010903680324B4406FEA0408A3430CF0BA
:101F50000304B4402343BCF1120F036017D809FAFD
:101F60000CF313F0061FAFD08368CC6803EA0803B4
:101F7000B4402343836043684FEA1C1423EA0E03F2
:101F800004FA0AF42343BCF1030F4360A0D0C368F2
:101F90008C6803EA0803B44023435FEACC04C360BF
:101FA00096D542F200082AF00303C4F2024808EB77
:101FB000030EDEF860C007F018040F23A3402CEADC
:101FC000030C009B03FA04F44CEA0403CEF86030DF
:101FD000D8F800C0D1F804E04CEA0B035FEACE2445
:101FE00058BF2CEA0B03C8F80030D8F804C05FEAE9
:101FF0008E234CEA0B0458BF2CEA0B04C8F80440AB
:10200000D8F884C05FEA8E334CEA0B0458BF2CEA40
:102010000B04C8F88440D8F880C05FEACE334CEA9D
:102020000B0458BF2CEA0B04C8F8804050E702B0FC
:10203000BDE8F08F0069084018BF0120704700001C
:10204000426902EA0103914341EA03418161704719
:102050001823002A08BF2823C150704740F2FC50C3
:10206000C2F200000068704790F84120202A03D196
:1020700090F84020012A01D102207047242280F8E4
:1020800041200268136823F001031360136823F4EE
:1020900080531360136819431160116841F0010106
:1020A0001160202180F84110002180F8401008467E
:1020B0007047000090F84120202A03D190F840207A
:1020C000012A01D102207047242280F841200268B1
:1020D000136823F001031360136823F4706343EA69
:1020E00001211160116841F001011160202180F887
:1020F0004110002180F8401008467047002804BFB6
:102100000120704710B5044690F8410028B900201E
:1021100084F84000204600F0F1F9242084F84100C2
:1021200094E80910E2680168012A21F001010160C8
:1021300023F070610161816821F40041816006D162
:102140004CF400418160014651F8043F0AE04CF430
:1021500004418160014651F8043F022A02D143F450
:10216000006201E023F400620A60416804F1100398
:1021700041F0007141F400414160C16821F4004127
:10218000C1600ECB114341EA0321E269C160216ABB
:1021900011430160016841F001010160002020212C
:1021A000606484F84110206384F8420010BD000090
:1021B0002DE9F04782B0044690F84100202803D171
:1021C00094F84000012803D1022002B0BDE8F08756
:1021D00001201F461546884684F84000FFF73EFF61
:1021E000216806468A69120425D4222084F8410019
:1021F000102084F842000020606465626785606397
:10220000608D40F2000AB0F5807F49F60000CFF6FD
:102210000040C0F2FF1A24D351F8043F42466FF346
:102220009F22034013430AF51057FF2227E000BF07
:1022300088690004D9D5FFF711FF801B21681A288F
:10224000F6D388690004F3D5606C40F02000606428
:10225000202084F84100002084F8420084F84000E7
:1022600061E0628D43466FF39F23D7B251F8045F5C
:1022700043EA074305EA00073B430AF592373B432D
:102280000B602285618D0A9F002946D06FF39F283D
:102290004FF0FF0900F5806510E000BF618D2068F8
:1022A0002185C9B250F8042F48EA01412A40114360
:1022B0004FF0007211430160608D70B320463946C3
:1022C000324603F033FE70BB2068616A406A0870D2
:1022D000606A218D0130013960622185608D0904B9
:1022E000A0F101006085608DE6D10028E4D0204691
:1022F000802100223B46009603F098FD98B9608D3E
:10230000B0F5807FCAD32068A4F8289050F8041F45
:102310005246294041EA0801CCE720463946324678
:1023200003F06EFE18B1012002B0BDE8F08720680E
:102330002021C16142684EF60003CFF600631A40C7
:102340004260002084F8411084F8420084F8400084
:1023500002B0BDE8F08700002DE9F04782B00446E6
:1023600090F84100202803D194F84000012803D1BF
:10237000022002B0BDE8F08701201F4615468846BE
:1023800084F84000FFF76AFE216806468A69120455
:1023900025D4212084F84100102084F84200002038
:1023A0006064656267856063608D40F2000AB0F525
:1023B000807F49F60000CFF60040C0F2FF1A24D318
:1023C00051F8043F42466FF39F22034013430AF53E
:1023D0000057FF2227E000BF88690004D9D5FFF726
:1023E0003DFE801B21681A28F6D388690004F3D5C6
:1023F000606C40F020006064202084F841000020E0
:1024000084F8420084F840005FE0628D43466FF339
:102410009F23D7B251F8045F43EA074305EA000758
:102420003B430AF590373B430B602285618D0A9F41
:10243000002944D06FF39F284FF0FF0900F5806515
:1024400010E000BF618D20682185C9B250F8042FCB
:1024500048EA01412A4011434FF0007211430160E4
:10246000608D60B320463946324603F009FE60BBFA
:10247000606A226810F8011B91626062608D013809
:102480006085208D411E2185608D0904E8D10028DA
:10249000E6D02046802100223B46009603F0C6FC91
:1024A00098B9608DB0F5807FCCD32068A4F82890CF
:1024B00050F8041F5246294041EA0801CEE7204661
:1024C0003946324603F09CFD18B1012002B0BDE848
:1024D000F08720682021C16142684EF60003CFF6E4
:1024E00000631A404260002084F8411084F84200E2
:1024F00084F8400002B0BDE8F0870000B0B5AAB093
:102500000446002502A888212995CDE92755CDE963
:102510002555FDF78BFF206845F20041C4F200010C
:10252000884201D02AB0B0BD4FF40050029002A8FA
:102530000395139500F038FE002818BFFEF726FB20
:1025400040F68C44C4F20244206825A940F0020001
:102550002060206800F0020001900198C0202590C2
:10256000122026900020CDE927000420299040F277
:102570000040C4F20220FFF791FC206940F40010F3
:102580002061206900F40010019001982AB0B0BDCC
:1025900040F20041C4F20301086840F0010200204B
:1025A0000A60704740F2000040F2FC51C2F20000A5
:1025B000C2F2000100780A68104408607047000009
:1025C00080B5032000F086F801F0FEFA40F62041C5
:1025D000C4F20241096849F2987201F00F01C0F695
:1025E0000002515CC84040F20801C2F200010860DC
:1025F0000F2000F009F800281CBF012080BD00F06A
:102600002BF8002080BD000070B540F20006C2F239
:1026100000063178002904BF012070BD044640F255
:102620000800C2F200004FF47A720068B2FBF1F1C8
:10263000B0FBF1F001F06EFE0F2C4FF0010508D851
:1026400038B94FF0FF3021460022002500F016F87F
:102650007460284670BD000070470000002848BF25
:10266000704700F01F01012202FA01F14EF2001240
:102670004009CEF2000242F82010704710B54EF625
:102680000C5CCEF2000CDCF80030C3F3022E8EF0AE
:102690000704042C28BF0424BEF103034FF0FF3EBF
:1026A00038BF00230EFA04F4A14399400EFA03F355
:1026B0009A4300F00F03043B1143634409010C33B8
:1026C00000F16042B0F1FF3FC8BF02F564431970EA
:1026D00010BD00004EF60C51CEF200010A684FF614
:1026E000FF031A4060F30A2242F0806040F0FD7060
:1026F0000860704710B540F6284CC4F2024CDCF874
:102700000CE0DCF80010DCF80030C3F30523DCF843
:102710000020DCF8104002F01002C4F3CC0404FBEB
:1027200002F200EE102AB8EE400A8BB301F003016A
:1027300003296FF35F2E30D0022933D001295CF8D2
:10274000281C49F20002C1F3C101C0F2D03222FAC2
:1027500001F101EE101A02EE103AB8EE411AB8EE8D
:10276000422A9FED4D3A81EE021A02EE10EA20EE67
:10277000030AB8EE422A30EE020AB7EE002A30EE23
:10278000022A5CF8281C22EE010A89012AD525E0DC
:102790000021C0E90011816010BD01EE103A9FEDEB
:1027A0003D2A03E001EE103A9FED3C2AB8EE411AB3
:1027B00082EE012A01EE10EA9FED373AB8EE411A97
:1027C00020EE030A30EE010AB7EE001A30EE011ACD
:1027D0005CF8281C22EE010A890103D5DCF8001000
:1027E000C90306D4002101605CF8281C890117D4B4
:1027F0001AE0DCF80C10B7EE002AC1F3462101EE16
:10280000101AB8EE411A31EE021A80EE011ABCEE2F
:10281000C11A11EE101A01605CF8281C890103D559
:10282000DCF80010890301D4002111E0DCF80C1061
:10283000B7EE002AC1F3064101EE101AB8EE411AB4
:1028400031EE021A80EE011ABCEEC11A11EE101A16
:1028500041605CF8281C890144BFDCF800105FEA85
:10286000413102D40021816010BDDCF80C10B7EEBC
:10287000002AC1F3066101EE101AB8EE411A31EEDA
:10288000021A80EE010ABCEEC00A10EE101A816036
:1028900010BD00BF0024F44A000000390024744A2F
:1028A00010B540F62C4CC4F2024CDCF810E0DCF819
:1028B0000010DCF80030C3F30523DCF80020DCF85E
:1028C000144002F01002C4F3CC0404FB02F200EE48
:1028D000102AB8EE400A8BB301F0030103296FF30D
:1028E0005F2E30D0022933D001295CF82C1C49F22C
:1028F0000002C1F3C101C0F2D03222FA01F101EEAF
:10290000101A02EE103AB8EE411AB8EE422A9FEDC4
:102910004D3A81EE021A02EE10EA20EE030AB8EEFA
:10292000422A30EE020AB7EE002A30EE022A5CF8A4
:102930002C1C22EE010A09012AD525E00021C0E95C
:102940000011816010BD01EE103A9FED3D2A03E0B9
:1029500001EE103A9FED3C2AB8EE411A82EE012AB0
:1029600001EE10EA9FED373AB8EE411A20EE030A65
:1029700030EE010AB7EE001A30EE011A5CF82C1C9A
:1029800022EE010A090103D5DCF80010C90306D4C0
:10299000002101605CF82C1C090117D41AE0DCF856
:1029A0001010B7EE002AC1F3462101EE101AB8EE5E
:1029B000411A31EE021A80EE011ABCEEC11A11EE74
:1029C000101A01605CF82C1C090103D5DCF800101A
:1029D000890301D4002111E0DCF81010B7EE002AC1
:1029E000C1F3064101EE101AB8EE411A31EE021A97
:1029F00080EE011ABCEEC11A11EE101A41605CF8AB
:102A00002C1C090144BFDCF800105FEA413102D4FC
:102A10000021816010BDDCF81010B7EE002AC1F370
:102A2000066101EE101AB8EE411A31EE021A80EE7C
:102A3000010ABCEEC00A10EE101A816010BD00BF82
:102A40000024F44A000000390024744A80B584B0A0
:102A50004FF6FF730246C0F21F0300209B1A70EB73
:102A6000010347DA6FF060439B1A70EB0103C0F279
:102A700086806FF07C439B1A4FF000038B4180F2FD
:102A8000D78082F080630B4300F0908182F0006376
:102A90000B4300F0A08182F08052114340F0A482E9
:102AA00040F60041C4F20241D1F8E000C0F3C20296
:102AB000042A00F2C08248F20000C0F2BB00DFE846
:102AC00012F0C9028D02BA0293020500D1F8E800A3
:102AD0000B6810F04042086803D113F0020340F085
:102AE0002D83B2F1804F40F0518310F4007040F01C
:102AF00047834BE341F6FF739B1A70EB010363DAE4
:102B00004FF6FF739B1A4FF000038B4180F2D28087
:102B100082F480330B4300F0888182F400330B434E
:102B200000F09F8182F48022114340F05D8240F6E4
:102B30000041C4F20241D1F8DC00C0F302320020AF
:102B4000052A00F25182DFE812F06C0249024F02BE
:102B50009B02A3020600D1F8E8000B6810F0404287
:102B6000086803D113F0020340F0E882B2F1804F0D
:102B700040F00C8310F4007040F0028306E30F294C
:102B800040F3C78081F01003134300F0828181F489
:102B90000073134300F09B8181F48051114340F096
:102BA000238240F60041C4F20241D1F8E40000F073
:102BB0004060B0F1806F00F0F881002800F065817E
:102BC0000A68B0F1006F42E1D2F103034FF0000355
:102BD0008B41C0F2BD8082F001030B4300F08B817A
:102BE00082F00202114340F0FF8140F60040C4F23F
:102BF0000240D0F8D81011F0380100F012820268BB
:102C0000082903D112F0006240F0188203680268BC
:102C1000182903D113F0020340F00082202903D1C8
:102C200012F4007240F0AC82D0F8F000282999E24A
:102C300082F400130B4300F0818182F00072114393
:102C400040F0D28140F60041C4F20241D1F8F000D8
:102C5000D1F8F02000F44070B0F5807F03D112F07D
:102C6000020240F04481D1F8F020B0F5007F06D197
:102C700012F000621EBF4FF4FA4004B080BD0A6833
:102C8000B0F5407F4FF0000040F0AE8112F400320A
:102C900000F0AA81C86910F4785F00F0CC81C8699F
:102CA00041F20021C0F30520C0F27A01B1FBF0F03F
:102CB00004B080BD82F400530B4300F0538182F4D2
:102CC0008042114340F0908140F60040C4F202403F
:102CD000D0F8E41001F44021B1F5802F00F06581B7
:102CE000002900F09E8102680068B1F5002F03D131
:102CF00012F0020240F0228210F400701CBF40F675
:102D00000010C0F23D00B1F5402F18BF002004B004
:102D100080BD82F000530B4300F04D8181F004012F
:102D2000114340F0618140F60041C4F20241D1F804
:102D3000E800096810F4407040F0778111F4003128
:102D400000F0738141F20020C0F27A0004B080BD2F
:102D500082F004030B4300F0498182F48052114356
:102D600040F0428140F60040C4F20240D0F8E0104A
:102D700001F0E061B1F1807F00F06081002900F096
:102D8000848003680268B1F1407F03D113F002032D
:102D900040F04481B1F1806F03D112F4007240F031
:102DA000EF81D0F8F000B1F1A06FDBE140F6004018
:102DB000C4F20240D0F8E810026811F0300140F08F
:102DC000438112F4005200F03F8146F60040C0F209
:102DD000DC2004B080BD40F60041C4F20241D1F8CD
:102DE000E00000F00702042A00F2258148F200000A
:102DF000C0F2BB00DFE812F02E01F2001F01F80064
:102E00000500D1F8E8000B6810F04042086803D1D3
:102E100013F0020340F09281B2F1804F40F0B6818E
:102E200010F4007040F0AC81B0E140F60041C4F213
:102E30000241D1F8E40000F04070B0F1807F00F072
:102E4000B480002800F0ED800A68B0F1007F4FF0F8
:102E5000000040F0C98012F0020200F0C58008684E
:102E60006CE140F60041C4F20241D1F8DC00C0F34D
:102E700002220020052A00F2B780DFE812F00600E7
:102E8000AF00B50001010901550100F079FE04B061
:102E900080BD40F60040C4F20240D0F8E41001F0DA
:102EA0003001102900F0D6800268202903D112F0E9
:102EB000006240F0C380006810F400501CBF46F66A
:102EC0000040C0F2DC20302918BF00208CE040F622
:102ED0000040C4F20240D0F8E810D0F8F02011F021
:102EE000080140F0BD8012F0020200F0B9804FF4FA
:102EF000004004B080BD40F60040C4F20240D0F86B
:102F0000D81011F0070100F0B7800268012903D141
:102F100012F0006240F0928003680268032903D136
:102F200013F0020340F07A80042903D112F40072F6
:102F300040F02681D0F8F000052913E140F600406A
:102F4000C4F20240D0F8E81001F0070102292CD0A9
:102F5000012900F0A680002940F0A78000F0B0FD14
:102F600004B080BD40F60040C4F20240D0F8E41046
:102F700001F44031B1F5803F17D0002951D00268EB
:102F80000068B1F5003F03D112F0020240F0D68094
:102F900010F400701CBF40F60010C0F23D00B1F507
:102FA000403F18BF002004B080BD01A8FFF778FCA7
:102FB000039804B080BD40F60041C4F20241D1F84C
:102FC000E000C0F38212042A35D848F20000C0F2B3
:102FD000BB00DFE802F03F033009980001A8FFF7CB
:102FE0005FFC019804B080BD04B080BD40F6004095
:102FF000C4F20240D0F8D81011F4E07111D0026888
:10300000402902D112F0006218D103680268C02979
:1030100040F09E8013F0020300F09A80C2F3C100DA
:103020008EE000F065FD04B080BDB0F5007F05D0F6
:10303000B0F5807F0ED0002004B080BD01A8FFF75E
:103040002FFC029804B080BD0268102947D112F00D
:10305000007244D001A8FFF74DFB029804B080BD78
:10306000D0F8F00010F0006018BF4FF4FA400029CB
:1030700008BF084604B080BD00F05EFD04B080BD0E
:10308000D1F8F0004FF4004101EA803004B080BD77
:10309000D1F8F0004FF4FA41000101EAE07004B009
:1030A00080BD00F091FD04B080BD0268032903D10A
:1030B00012F400327FF446AE02680068042902D19F
:1030C00012F002023AD110F400701CBF40F600105A
:1030D000C0F23D00052918BF002004B080BDD0F823
:1030E000F020202903D112F002027FF400AFD0F8C3
:1030F000F00010F0006018BF4FF4FA40302918BFFC
:10310000002004B080BDD1F8E8000B6810F0404208
:10311000086802D113F0020310D1B2F1804F35D10B
:1031200010F400702CD131E0D1F8E8000B6810F0F9
:10313000404208681ED113F002031BD0C0F3C10047
:1031400049F20001C0F2D03121FA00F004B080BD94
:10315000B1F5807F02D112F4007211D1D0F8F000E5
:10316000B1F5A07F00F002024FF0000008BF90030D
:1031700004B080BDB2F1804F08D110F4007005D0CA
:1031800040F60010C0F23D0004B080BD086810F4A5
:1031900000301CBF41F20020C0F27A00B2F1004FB3
:1031A00018BF002004B080BD2DE9F0470446006838
:1031B00040F62848C101C4F2024807D5D8F8C0102B
:1031C000226B21F040411143C8F8C010C00714D051
:1031D000606BC11E032909D340B1012813D104F14A
:1031E000080003F029F8064640B9606BD8F8B01023
:1031F00021F007010843C8F8B000002620788007B6
:1032000005D4354621E0012620788007F9D5A06B4A
:103210006FF0020101EBF001354603290AD34FEAB2
:10322000F000354630B1012830D104F1080003F038
:1032300003F805462F464DB9D8F8B000A16B20F031
:10324000380008430025C8F8B0003746207840070A
:1032500021D5E06B6FF0020101EBB011032909D316
:103260004FEAB01030B1012836D104F1080002F065
:10327000E3FF05462E467DB9D8F8B000E16B20F497
:10328000E07008430025C8F8B00004E001250127DC
:1032900020784007DDD43E466078C00621D5206CFA
:1032A0006FF0020101EB3061032909D34FEA30606E
:1032B00030B101283CD104F1080002F0BDFF054601
:1032C0002F467DB9D8F8B800216C20F0E0600843A3
:1032D0000025C8F8B80004E0012501266078C00682
:1032E000DDD437466078800627D5606C6FF0010129
:1032F00001EB3041022909D34FEA304030B10128B7
:1033000010D104F1080002F097FF05462E465DB982
:10331000D8F8BC00616C20F4403008430025C8F8A0
:10332000BC000AE0012501266078400609D424E0AB
:103330000125012760788006D7D43E466078400694
:103340001BD5A06C6FF0010101EBB041022909D33C
:103350004FEAB04030B1012830D104F1080002F04A
:103360006BFF05462F464DB9D8F8BC00A16C20F480
:10337000402008430025C8F8BC003746A078C007A5
:1033800021D0E06C002818BFB0F1007F0BD12E4691
:10339000D5B9D8F8BC00E16C20F040700843002596
:1033A000C8F8BC000FE0B0F1807F2DD104F1080017
:1033B00002F042FF05462E4635B9EAE7012501270E
:1033C000A078C007DDD13E466079C00621D5206DCA
:1033D000002818BFB0F1006F0BD12F46D5B9D8F82F
:1033E000BC00216D20F0406008430025C8F8BC00F7
:1033F0000FE0B0F1806F61D104F1080002F01CFF12
:1034000005462F4635B9EAE7012501266079C00651
:10341000DDD43746D4E9000140F61C4AC4F2024A22
:1034200009050CD5DAF8001021F40041CAF80010A3
:10343000D4F88010DAF800201143CAF80010800395
:103440001BD5606D6FF0020101EB3021032909D318
:103450004FEA302030B1012833D104F1080002F0E6
:10346000EBFE05462E464DB9D8F8B400616D20F448
:10347000E06008430025C8F8B4003E46A078400745
:1034800024D5A06D6FF0020101EB3031032909D37F
:103490004FEA303030B1012828D104F1080002F0A1
:1034A000CBFE05462F4695B9D8F8B400A16D20F49F
:1034B000E04008430025C8F8B40007E001250127D3
:1034C000A8E701250126A0784007DAD43746A0787E
:1034D000800610D5606E052828D802282DD02946F0
:1034E0009DB3D4E9000292050AD43CE001250127EE
:1034F000A0788006EED43946D4E90002920532D590
:10350000A26E42F00803082B0AD1A9465DB9D8F88B
:10351000C030002523F008031A43C8F8C02022E079
:1035200001254FF00109800120D47AE00125012115
:10353000D4E900029205E3D415E004F1080002F09A
:103540007BFE0546002D2946CBD1D8F8C000616E20
:1035500020F0070008430025C8F8C0003946D4E928
:1035600000029205CCD4894680015AD54FF608470F
:10357000CFF6FF775AF8070040F001004AF807003D
:10358000FEF76CFD064600BF5AF80700C00707D1DA
:10359000FEF764FD801B0228F6D90325032041E0D5
:1035A000002D28463ED1D8F8C80010F4407017D03E
:1035B000A16F884211D0D8F8C800D8F8C81020F4FC
:1035C000407041F48031C8F8C810D8F8C81021F410
:1035D0008031C8F8C810C8F8C800C00740F02A8178
:1035E000A06FDAF800104FF6CF7300F4407221F4A8
:1035F0007C51C0F2FF0303EA1013B2F5407F08BF0D
:103600001943CAF80010D8F8C8106FF31F3021F41E
:103610004071C8F8C810D8F8C81000250843C8F889
:10362000C800484621684A011BD5226E6FF001038D
:1036300003EB3213022B0AD34FEA32133BB1012BB7
:103640002ED1D8F8003043F40033C8F800302F46AC
:1036500045B9D8F8C030002523F030031A43C8F824
:10366000C020074608011FD5E06EC11E02290BD3FA
:10367000012800F0B880002840F0BF80D8F8000092
:1036800040F40030C8F800002E4675B9D8F8B800EC
:10369000E16E20F0070008430025C8F8B80003E0F9
:1036A000012501270801DFD43E46E078C0061FD57A
:1036B000206F6FF0020101EBF00102290DD34FEAF8
:1036C000F000012800F09C80002840F0A380D8F88A
:1036D000000040F40030C8F800002F464DB9D8F87B
:1036E000B800216F20F0380008430025C8F8B80062
:1036F0003746E07880061FD5606F6FF0020101EB5E
:10370000B01102290DD34FEAB010012800F08580D6
:10371000002840F08C80D8F8000040F40030C8F851
:1037200000002E464DB9D8F8B800616F20F4E07063
:1037300008430025C8F8B8003E462079400720D548
:10374000E06D58B1B0F5007F0BD0B0F5807F47D168
:10375000D8F8000040F40030C8F800002F468DB9BA
:1037600006E004F1080002F067FD05462F464DB95A
:10377000D8F8C000E16D20F4407008430025C8F877
:10378000C00037462079C0065CBF3846BDE8F087E8
:10379000E06F30280DD020280FD010281EBF012543
:1037A0002846BDE8F087D8F8000040F40030C8F89B
:1037B00000004DB12846BDE8F08704F1080002F092
:1037C0003BFD0546002DF5D1D8F8BC00E16F20F097
:1037D000300008433D46C8F8BC002846BDE8F087E5
:1037E00001250127CEE704F1080002F025FD05467A
:1037F000002D2E467FF459AF48E70125012654E7F6
:1038000004F1080002F018FD0546002D2F467FF454
:1038100070AF64E7012501276BE704F1080002F0AF
:103820000BFD0546002D2E467FF487AF7BE7012573
:10383000012682E7FEF712FC064641F2883703258F
:10384000D8F8C80080073FF5CBAEFEF707FC801B19
:10385000B8424FF00300F3D9E4E600002DE9F0434D
:1038600081B0002800F0CA8042F20008C4F20208C9
:103870000446D8F800000D4600F00F0088420DD233
:10388000D8F8000020F00F002843C8F80000D8F84E
:10389000000000F00F00A84240F0B080206840F621
:1038A0002047C106C4F202470CD561693A6870230B
:1038B00003EA1222914205D93A6822F4E04242EA30
:1038C0000121396001070CD521693A68702303EAA8
:1038D0001212914205D93A6822F4E06242EA0111DB
:1038E000396041070AD5E1683A6802F070029142F6
:1038F00004D93A6822F070021143396081070AD571
:10390000A1683A6802F00F02914204D93A6822F0A5
:103910000F0211433960C00767D1206881070AD5BB
:10392000A1683A6802F00F02914204D23A6822F08C
:103930000F0211433960D8F8001001F00F01A942BD
:103940000CD9D8F8001021F00F012943C8F8001055
:10395000D8F8001001F00F01A9424FD141070AD554
:10396000E1683A6802F07002914204D23A6822F0AB
:1039700070021143396001070CD521693A68702340
:1039800003EA1212914205D23A6822F4E06242EA56
:1039900001113960C0060CD560693968702202EAED
:1039A0001121884205D2396821F4E04141EA002022
:1039B000386000F009F9396849F2987201F00F0196
:1039C000C0F60002525C40F20401C2F20001096834
:1039D00040F2080320FA02F2C2F2000308461A601D
:1039E00001B0BDE8F043FEF70FBE6068022809D0C1
:1039F00003285BD157F8201C890107D4012001B0AE
:103A0000BDE8F08357F8201C8903F7D557F8041C4C
:103A100021F00301084347F8040CFEF71FFB61681F
:103A20000646032941F288392BD0022937D00129D3
:103A300010D100BF57F8040C00F0180008283FF41C
:103A40006CAFFEF70BFB801B48454FF00300F1D92C
:103A50000DE000BF57F8040C10F0180F3FF45DAFF5
:103A6000FEF7FCFA801B48454FF00300F2D901B085
:103A7000BDE8F083FEF7F2FA801B48454FF00300E3
:103A8000F5D857F8040C00F018001828F2D144E7D4
:103A9000FEF7E4FA801B48454FF00300E7D857F8DB
:103AA000040C00F018001028F2D136E757F8201C5B
:103AB000012802D18905A1D5A8E789079ED5A5E7E8
:103AC00080B500F081F840F62041C4F20241096857
:103AD00049F2987201F00F01C0F60002515C01F04A
:103AE0001F01C84040F20801C2F20001086080BD19
:103AF00080B500F069F840F62041C4F202410A683E
:103B000049F2987302F00F02C0F600039A5C02F0CB
:103B10001F02D04040F20802C2F2000210600968A1
:103B200049F2A872C1F30211C0F60002515C01F023
:103B30001F01C84080BD000080B500F045F840F688
:103B40002041C4F202410A6849F2987302F00F0260
:103B5000C0F600039A5C02F01F02D04040F2080257
:103B6000C2F200021060096849F2A872C1F3022192
:103B7000C0F60002515C01F01F01C84080BD00008A
:103B800080B500F021F840F62041C4F202410A68F5
:103B900049F2987302F00F02C0F600039A5C02F03B
:103BA0001F02D04040F20802C2F200021060096811
:103BB00049F2A872C1F30231C0F60002515C01F073
:103BC0001F01C84080BD000080B540F60041C4F22E
:103BD0000241C86900F01800082802BF40F6001032
:103BE000C0F23D0080BDC86910F0180F34D0C8691C
:103BF00000F01800102802BF41F20020C0F27A0045
:103C000080BDC86900F01800182849F20000C0F211
:103C1000D03063D1D1F828E08A6AC2F3052C8A6AD1
:103C2000BCF1000FC2F300128B6BC3F3CC0303FB98
:103C300002F200EE102AB8EE400A04BF002080BD58
:103C40000EF00303032B14D0012B15D10A68920642
:103C500015D49FED241A1AE00868800649F2000086
:103C6000C0F2D03058BF80BD0968C1F3C101C8405F
:103C700080BD9FED1B1A0AE09FED1B1A07E00A6842
:103C8000C2F3C102D04001EE100AB8EE411A02EEB2
:103C900010CA9FED163AB8EE422A486B81EE021A1E
:103CA0006FF35F2002EE100A20EE030AB8EE422AFC
:103CB000486B30EE020AB7EE002AC0F3462030EE21
:103CC000020A013021EE000A01EE100AB8EE411A94
:103CD00080EE010ABCEEC00A10EE100A80BD00BFE3
:103CE0000024F44A0024744C0024744A0000003973
:103CF0002DE9F04381B0002800F0388140F60047FC
:103D000040F6F0490446C4F20247C4F20249F86999
:103D100059F8C81C227800F01808D00601F00306F4
:103D200028D5B8F1080F1AD0B8F1180F08BF022E25
:103D300015D0E1693868002900F0938140F4807063
:103D40003860FEF78BF90546386880050BD4FEF71E
:103D500085F9401B02284FF00300F5D948E2E069DD
:103D6000002800F00381B869216A20F47C1040EA41
:103D70000140B8612078C00731D0B8F1100F2AD0C7
:103D8000B8F1180F08BF032E25D06568B5F5A02F30
:103D900000F0C081B5F5803F00F0CF81002D40F0EC
:103DA000C181386820F480303860386820F4801091
:103DB0003860386820F480203860FEF74FF90546F7
:103DC000386880030BD5FEF749F9401B64284FF093
:103DD0000300F5D90CE26068002800F0C780207865
:103DE000800765D5B8F1000F21D0B8F1180F08BFD2
:103DF000012E1CD0E1683868002900F06781216934
:103E000020F0180008433860386840F0010038603E
:103E1000FEF724F9054600BF3868800741D4FEF755
:103E20001DF9401B02284FF00300F5D9E0E1E068DE
:103E3000002800F09B80B8F1000F26D13968206976
:103E400001F01801814220D0396821F0180108439F
:103E50003860FFF7B9FE396A49F2987201F00F0134
:103E6000C0F60002515C40F2080201F01F0120FA86
:103E700001F140F20400C2F200000068C2F2000248
:103E80001160FEF7C1FB002870D1FEF7E7F8054688
:103E90003868800705D4FEF7E1F8401B0228F7D9FF
:103EA0007DE03869616920F4FE0040EA0140386134
:103EB000207800075ED42078400774D420788006EC
:103EC00000F1A380A56A002D00F01F82B8F1180F41
:103ED00040F0DA8059F8C81C59F8BC0C012D45D0C7
:103EE000E26A01F00303934240D1C1F30521226B42
:103EF00091423BD1626B01466FF35F21013A9142DF
:103F000034D1C0F34621A26B013A91422ED1C0F3C5
:103F10000641E26B013A914228D1C0F30660216C60
:103F20000139884222D159F8B80CC0F3CC00E16CB9
:103F3000884200F0EA8159F8C80C20F0100049F8D6
:103F4000C80CFEF78BF80546FEF788F8A842FBD0B0
:103F5000E06CC00049F8B80C59F8C80C40F01000EB
:103F600049F8C80C002001B0BDE8F083012001B081
:103F7000BDE8F083A169D9F8000000295CD040F0C9
:103F80008060C9F80000FEF769F80546D9F800001E
:103F9000000190D4FEF762F8401B0228F6D90320F6
:103FA00001B0BDE8F0834FF62446CFF6FF76B8594E
:103FB000C00712D1B85940F00100B851FEF74EF8D1
:103FC000054600BFB859C00707D1FEF747F8401BA8
:103FD00002284FF00300F5D90AE1A068002800F09C
:103FE000BF80052800F0E180012800F0EA80D9F8C0
:103FF0000010852840F0108141F00400C9F800004D
:10400000D9F8000040F08000D9E0616A38680029E2
:104010006ED040F480503860FEF720F8054600BFAF
:10402000386880043FF54EAFFEF718F8401B0228B1
:104030004FF00300F4D9DBE020F08060C9F8000005
:10404000FEF70CF8054600BFD9F8000000017FF527
:1040500032AFFEF703F8401B02284FF00300F3D9FC
:10406000C6E020F480703860FDF7F8FF054600BF19
:10407000386880057FF57EAEFDF7F0FF401B022813
:104080004FF00300F4D9B3E0386820F08070386056
:10409000FDF7E4FF022D05460CD100BF3868800112
:1040A00040F1C980FDF7DAFF401B02284FF0030002
:1040B000F4D99DE03868800140F11E81FDF7CEFF04
:1040C000401B02284FF00300F4D991E020F00100DA
:1040D0003860FDF7C3FF0546386880077FF5E8AE16
:1040E000FDF7BCFF401B02284FF00300F4D97FE02E
:1040F00020F480503860FDF7B1FF05463868800431
:104100007FF5E0AEFDF7AAFF401B02284FF0030049
:10411000F4D96DE0386840F480203860386820F4C5
:10412000801009E03868B5F5A81F64D140F48020FC
:104130003860386840F480103860386840F4803067
:104140003860FDF78BFF0546386880033FF547AEC2
:10415000FDF784FF401B64284FF00300F4D947E0CB
:10416000D9F8000020F00100C9F80000D9F80000DB
:1041700020F08000C9F80000D9F8000020F0040009
:10418000C9F80000FDF76AFF054641F2883600BF16
:10419000D9F8000080077FF591AEFDF75FFF401B67
:1041A000B0424FF00300F3D922E0D9F8000040F00C
:1041B0000400C9F80000D9F8000020F08000C9F818
:1041C0000000D9F8000040F00100C9F80000FDF738
:1041D00045FF054641F28836D9F8000080073FF5D3
:1041E0006DAEFDF73BFF401BB0424FF00300F3D92B
:1041F00001B0BDE8F08320F480303860386820F4E6
:1042000080203860386820F480103860FDF726FF81
:10421000002D054698D1D3E521F00100C9F8000032
:10422000D9F8000020F00400C9F80000D9F8000017
:1042300020F08000C9E759F8C80C43F6037104F177
:104240002C0388430ECB084340EA0220A16B49F8B7
:10425000C80C4FF47E4202EB4121E26B581E4FF432
:10426000FE0389B203EB02426FF35F20084402F4BD
:10427000FE01226C4FF0FE4303EB0262084402F0A1
:10428000FE41084449F8BC0C59F8C80C20F0100055
:1042900049F8C80CE06CC00049F8B80C59F8C80CD3
:1042A00040F0100049F8C80C59F8C80C616C20F0B7
:1042B0000C00084349F8C80C59F8C80CA16C20F050
:1042C0002000084349F8C80C59F8C80C40F4803065
:1042D00049F8C80C386840F080703860FDF7BEFEC1
:1042E00004463868800110D4FDF7B8FE001B022890
:1042F0004FF00300F5D97BE759F8C80C4FF6FC7175
:10430000CFF6F871084049F8C80C002001B0BDE8AC
:10431000F0830000411E0020B0EB116F1CBF012094
:1043200070474EF21002CEF2000251604EF6235159
:10433000CEF20001F0230B700721906011607047EE
:1043400070470000704700007047000070B590F89B
:104350003C20012A04BF022070BDD1E901E2CB68F4
:104360004FF0010C23F47C5322F4705242EA030410
:1043700048F2FF73CFF6F07303EA0E030A68234393
:104380000C6922F477221A4324F476234C691A43E9
:104390000B6B224322F4742223F470238C691343A1
:1043A000026843EA044342F60044C4F20104A24214
:1043B00080F83CC01CD14FF6FF74CCF60F4403EAE2
:1043C000040CD1E9073ED1E9095604F18054234099
:1043D0000024CDF6F04404EA065443EA0C032343D8
:1043E0002EF00856334325F00056C96A33430B4379
:1043F0000021536480F83C10084670BD70470000EF
:104400007047000070470000B0B590F83C20012ACA
:104410004FF0020231D0012380F83C3080F83D207B
:10442000026842F6004C5368D2F808E0C4F2010C6E
:10443000624503D14C6823F4700323434FF68F7415
:10444000CFF6FF540D6823402B43B2F1804F5360E9
:1044500018BF624505D189682EF080031943916029
:1044600005E040F20043C4F200039A42F3D0012178
:10447000002280F83D1080F83C201046B0BD0000BE
:1044800070470000002804BF0120704710B50446A3
:1044900090F83D0028B9002084F83C00204600F048
:1044A00055F8022084F83D00206842F6004C02686E
:1044B000B0F1804FC4F2010C18BF604504D1A3686D
:1044C00022F070021A4305E040F20043C4F20003F8
:1044D0009842F4D0B0F1804F18BF604504D12369F1
:1044E00022F440721A4305E040F20043C4F2000394
:1044F0009842F4D0A16922F08002D4F804E0E36885
:10450000114360450160C362C0F828E002D16169CF
:10451000CCF8301001214161002084F8481084F863
:104520003E1084F83F1084F8401084F8411084F85D
:10453000421084F8431084F8441084F8451084F83D
:10454000461084F8471084F83D1010BD80B582B045
:10455000006840F6FF71C4F20001884220DCB0F12F
:10456000804F41D040F20041C4F20001884248D15E
:1045700040F69C40C4F202400168002241F0020172
:1045800001600068032100F00200019001982E20D4
:10459000FEF774F82E2002B0BDE88040FEF75EB84A
:1045A00041F20001C4F2000188422CD042F60041E1
:1045B000C4F20101884224D140F69C40C4F202407A
:1045C0008168002241F4006181608068032100F469
:1045D0000060019001982A20FEF750F82A2002B0CE
:1045E000BDE88040FEF73AB840F69C40C4F2024075
:1045F000016841F001010160006800F001000190D4
:10460000019802B080BD40F69C40C4F202400168AF
:10461000002241F0100101600068022100F010004A
:10462000019001983120FEF729F8312002B0BDE851
:104630008040FEF713B8000090F83D1001291CBF20
:1046400001207047022180F83D100168C868B1F16F
:10465000804F40F00100C8600BD042F60040C4F229
:104660000100814205D040F20040C4F200008142C6
:104670000CD188680722C0F201020240062A4FF0DE
:10468000000018BFB2F5803F00D17047086840F0C5
:10469000010008600020704780B590F83C20012A96
:1046A0004FF0020200F09C80012380F83C3080F83B
:1046B0003D20D0F800C08822DCF80830CFF6CE725A
:1046C0001A40CCF808200B68B3F5005F0FDB3F22DF
:1046D000C0F21002934217DCB3F1101F2EDB6CD036
:1046E0002021C0F210018B4267D030215CE03F2BCB
:1046F0001DDD5F2B2ADD602B74D0702B00F09480C1
:10470000B3F5805F65D0D7E05F21C0F210018B4226
:1047100044DD6021C0F210018B424ED07021C0F206
:1047200010018B4218BFB3F5001F46D0C4E01F2B09
:104730003FDC002B41D0102B3FD0BDE0B3F5005F34
:1047400000F08580B3F5801F37D0B5E0402B00F036
:104750009180502B40F0B080D1F804E0C968DCF8BB
:104760002030DCF8202022F00102CCF82020DCF8F8
:10477000182022F0F00242EA011123F00A0242EA74
:104780000E02CCF81810CCF82020DCF808104FF6F8
:104790008872CFF6CF721140573118E04021C0F235
:1047A00010018B4209D05021C0F210018B4204D07D
:1047B00082E0202B01D0302B7ED1DCF808104FF6A0
:1047C0008872CFF6CF721140194341F00701CCF83F
:1047D00008100022012180F83D10002180F83C10D3
:1047E000104680BDD1F804E0C968DCF82030DCF860
:1047F000202022F01002CCF82020DCF8182022F42F
:10480000704242EA013123F0A00242EA0E12CCF8D3
:104810001810CCF82020DCF808104FF68872CFF67C
:10482000CF7211406731D2E7D1E901E3C968DCF802
:10483000082043EA0E0343EA012122F47F42114398
:10484000CCF80810DCF8081041F07701BFE7D1E997
:1048500001E3C968DCF8082043EA0E0343EA0121BA
:1048600022F47F421143CCF80810DCF8081041F420
:104870008041ACE7D1F804E0C968DCF82030DCF80E
:10488000202022F00102CCF82020DCF8182022F0B1
:10489000F00242EA011123F00A0242EA0E02CCF8C9
:1048A0001810CCF82020DCF808104FF68872CFF6EC
:1048B000CF72114047318AE701228BE77047000031
:1048C000F0B581B004460068C768066906EA0705C6
:1048D000A90737D468074FD4280769D4E80600F140
:1048E0008480E80740F09F80280607F0800700F1E9
:1048F000A680002F18BF16F4807040F0AD806806C7
:1049000000F1B480A80600F1BB80E80200F1C2808B
:10491000A80200F1C980680206D520686FF4800102
:1049200001612046FFF76EFD28025CBF01B0F0BDBB
:1049300021686FF4000220460A6101B0BDE8F04032
:10494000FFF79EBD6FF002010161012121778069AF
:10495000800707D02046FFF7B1FF002020776807C7
:10496000BAD509E0204600F00BF9204600F0FEFA27
:10497000002020776807AFD520686FF0040101613F
:1049800002212177806910F4407F07D02046FFF78D
:1049900095FF002020772807A0D509E0204600F0E9
:1049A000EFF8204600F0E2FA00202077280795D59E
:1049B00020686FF00801016104212177C069800738
:1049C00008D02046FFF77AFF00202077E8067FF521
:1049D00088AF0AE0204600F0D3F8204600F0C6FA7F
:1049E00000202077E8067FF57CAF20686FF010018B
:1049F000016108212177C06910F4407F08D020466A
:104A0000FFF75CFF00202077E8073FF46DAF0AE076
:104A1000204600F0B5F8204600F0A8FA00202077E4
:104A2000E8073FF461AF20686FF0010101612046A3
:104A300000F01EFB280607F080077FF55AAF2068BC
:104A40006FF0800101612046FFF77CFC002F18BF4A
:104A500016F480703FF453AF20686FF480710161E9
:104A60002046FFF76DFC68067FF54CAF20686FF0BD
:104A700040010161204600F049FBA8067FF545AFE3
:104A800020686FF0200101612046FFF75DFCE8021D
:104A90007FF53EAF20686FF4801101612046FFF77B
:104AA000AFFCA8027FF537AF20686FF400110161F9
:104AB0002046FFF7A3FC68027FF536AF2DE7000024
:104AC00070B586B000250595CDE9035500680295BF
:104AD000B0F1804F01951ED042F60041C4F20101B1
:104AE00088424AD140F68C40C4F20240016841F04D
:104AF00001010160006800F00100009000984FF48F
:104B000010600190022002900020CDE903000020F7
:104B1000C4F202202CE040F68C40C4F2024001684E
:104B2000002441F0010101600168022601F0010149
:104B3000009100990168C4F2022441F00201016071
:104B4000006801A900F00200009000984FF40040B6
:104B500001900120CDE90265059020460495FDF7FE
:104B60009DF90820CDE9010604F58060CDE90355E3
:104B70000121059101A9FDF791F906B070BD000072
:104B8000704700002DE9F04390F83C30012B04BF42
:104B90000220BDE8F0834FEAB2020123052A80F823
:104BA0003C3000F27681DFE812F00600420082001D
:104BB000C30004013A0103684FF68C751E6A1A6A35
:104BC000CFF6FE7522F001021A621A46D3F804C02D
:104BD00052F8184F8F6825400C6845EA040E42F6DB
:104BE000004526F00204C4F20105AB4244EA070482
:104BF0000CD1CD68D1E9056724F00C0425F004053B
:104C00002C432CF440752E4346EA070CC3F804C02D
:104C1000C3F818E04F6809695F631C629F6947F039
:104C200008079F619F6927F004079F612DE10368D2
:104C300048F6FF461C6A1A6ACFF6FF6622F0100299
:104C40001A621A46D3F804C052F8187F8D683740AC
:104C50000E6824F0200444EA051442F6004547EAB1
:104C6000062EC4F20105AB4210D1D1E9056724F04C
:104C7000C009CD682CF440646FF0400844EA860611
:104C800008EA051446EA870C44EA0904C3F804C09C
:104C9000C3F818E04F6809699F631C629F6947F475
:104CA00000679F619F6927F480679F61ECE003685C
:104CB0004FF68C751F6A1A6ACFF6FE7522F4807261
:104CC0001A621A46D3F804C052F81C6F8C6827F495
:104CD00000772E400D6847EA042442F60047C4F2EC
:104CE0000107BB4246EA050E11D1D1E9056724F45C
:104CF0004069CD682CF4405444EA06162D0240F277
:104D0000FF4825EA080446EA071C44EA0904C3F8F8
:104D100004C0C3F81CE04F680969DF631C62DF69E7
:104D200047F00807DF61DF6927F00407DF61ACE0C7
:104D3000036848F6FF461C6A1A6ACFF6FF6622F43B
:104D400080521A621A46D3F804C052F81C7F8D684C
:104D500037400E6824F4005444EA053442F6004516
:104D600047EA062EC4F20105AB4211D1D1E905672D
:104D700024F44049CD682CF4404444EA86162D03BF
:104D800044F6FF7825EA080446EA871C44EA090449
:104D9000C3F804C0C3F81CE04F6809691F641C62B3
:104DA000DF6947F40067DF61DF6927F48067DF614F
:104DB0006AE003684FF68C751F6A1A6ACFF6FE75B3
:104DC00022F480321A621A46D3F804C052F8506FA7
:104DD000033506EA05048E6827F400370D6847EAB4
:104DE000064E42F60046C4F20106B34244EA050408
:104DF00004D14D692CF4803747EA052CC3F804C070
:104E00001C654F6809699F64C3F820E01F6D47F077
:104E100008071F651F6D27F004071F6535E003684D
:104E200048F6FF451F6A1A6ACFF6FF6522F4801222
:104E30001A621A46D3F804C052F8506F05F540754F
:104E40008C682E400D6827F4001747EA045E42F68E
:104E5000004446EA0525C4F20104A34204D14C698A
:104E60002CF4802747EA842CC3F804C01D654F68E2
:104E70000969DF64C3F820E01F6D47F400671F6510
:104E80001F6D27F480671F6509021368194300230B
:104E90001160002180F83C101846BDE8F083000046
:104EA000002804BF0120704710B5044690F83D006B
:104EB00028B9002084F83C00204600F055F8022074
:104EC00084F83D00206842F6004C0268B0F1804F43
:104ED000C4F2010C18BF604504D1A36822F070022F
:104EE0001A4305E040F20043C4F200039842F4D0B4
:104EF000B0F1804F18BF604504D1236922F440729D
:104F00001A4305E040F20043C4F200039842F4D093
:104F1000A16922F08002D4F804E0E36811436045FF
:104F20000160C362C0F828E002D16169CCF830109A
:104F300001214161002084F8481084F83E1084F873
:104F40003F1084F8401084F8411084F8421084F82F
:104F5000431084F8441084F8451084F8461084F80F
:104F6000471084F83D1010BD7047000070470000E6
:104F700059B10A1F4FEAB202032A09D8DFE802F04A
:104F8000020B0E1100F13F020DE000F13E020AE0BB
:104F900000F1430207E000F1400204E000F14102A9
:104FA00001E000F142021278012A1CBF0120704783
:104FB00061B10A1F4FEAB202032A0BD8DFE802F000
:104FC000020E1216022280F83F2012E0022280F820
:104FD0003E200EE0022280F843200AE0022280F800
:104FE000402006E0022280F8412002E0022280F800
:104FF0004220026801F01F000121136A814023EA68
:1050000001001062136A42F64440C4F201001943E1
:10501000A0F144039A42116203D0B2F1804F07D14C
:1050200012E0016841F400410160B2F1804F0BD001
:1050300042F60040C4F20100824205D040F2004036
:10504000C4F2000082420CD190680721C0F2010135
:10505000014006294FF0000018BFB1F5803F00D194
:105060007047106840F00100106000207047000099
:10507000B0B50446006840F20045C4F20005A842FD
:1050800004D005F5406188420BD0B0BD01F02AFA8A
:10509000FBF782FDFBF704FB206805F540618842C1
:1050A000F3D140F2F810C2F20000016840F2BA02F7
:1050B0000131C2F200021388016040F2BC01C2F269
:1050C0000001581C0B881080581C088040F2B60064
:1050D00040F2BE01C2F20000C2F2000102780B8869
:1050E000012A03F101020A80CFD140F2F611C2F287
:1050F00000010A88013293B20A80B3F5FA6F38BF13
:10510000B0BD00220A800270B0BD000070470000F0
:1051100090F88410012904BF022070472421C0F8B0
:10512000881002681168136823F00103136021F0EE
:1051300000530021416613602022C0F8882080F8C7
:105140008410084670470000704700007047000058
:10515000B0B590F88420012A04BF0220B0BD01231D
:10516000242280F88430C0F888200268D0F864E0F7
:10517000D2F800C01468BEF1000F24F001041460DE
:10518000946824F0606441EA0401916019D0916848
:1051900049F2C87EC1F342619368C0F6000E5B0F0E
:1051A00049F2D0751EF80340C0F60005EB5CE40040
:1051B000B4FBF3F31EF80140695CE500B5FBF1F1C7
:1051C00000E00121A0F868102021A0F86A30C2F8A0
:1051D00000C0C0F88810002180F884100846B0BDD7
:1051E000B0B590F88420012A04BF0220B0BD01238D
:1051F000242280F88430C0F888200268D0F864E067
:10520000D2F800C01468BEF1000F24F0010414604D
:10521000946824F0604441EA0401916019D09168D7
:1052200049F2C87EC1F342619368C0F6000E5B0F7D
:1052300049F2D0751EF80340C0F60005EB5CE400AF
:10524000B4FBF3F31EF80140695CE500B5FBF1F136
:1052500000E00121A0F868102021A0F86A30C2F80F
:1052600000C0C0F88810002180F884100846B0BD46
:1052700070470000704700007047000070B501687B
:105280000446CA6940F62F000E68D1F808E01040C5
:1052900020280BD106F020000EF08053C01822D039
:1052A000616FC9B32046BDE87040084740F60F0063
:1052B000024218D00120C1F200000EEA000C40F2B8
:1052C0002010C0F20040304010EB0C000BD0D00793
:1052D00018BF16F4807040F0638190070EF0010350
:1052E00000F16A8171E1E06E06EA0203DD0614D581
:1052F000012812D1102008628868400600F19B80C6
:10530000B4F85C00B4F85E20B4F85E30002B1CBF2B
:10531000801A5FEA00422BD170BDD00240F1248197
:105320001EF4800000F020814FF4801220460A62B3
:10533000BDE87040FFF79EBF216851E8001F22685A
:1053400021F4907142E80013DBB1216851E8001F9D
:10535000226821F4907142E8001393B1216851E86A
:10536000001F226821F4907142E800134BB12168BC
:1053700051E8001F226821F4907142E80013002BCD
:10538000DAD14FF6FE71CEF6FF7100BF226852E807
:10539000022F23680A4043E80226C6B1226852E879
:1053A000022F23680A4043E8022686B1226852E8A9
:1053B000022F23680A4043E8022646B1226852E8D9
:1053C000022F23680A4043E80226002EDED1202166
:1053D000C4F88C100021E166616700BF216851E8C4
:1053E000001F226821F0100142E80013DBB12168A0
:1053F00051E8001F226821F0100142E8001393B128
:10540000216851E8001F226821F0100142E80013D2
:105410004BB1216851E8001F226821F0100142E8D9
:105420000013002BDAD1022281B220462267BDE8A8
:105430007040FFF789BED4F880201068836C9DB25D
:10544000002D3FF469AFB4F85C008542BFF464AF4F
:10545000A4F85E30126D812A7BD051E8000F2168DC
:1054600020F4807041E80002CAB3206850E8000FC1
:10547000216820F4807041E8000282B3206850E87F
:10548000000F216820F4807041E800023AB32068E0
:1054900050E8000F216820F4807041E80002F2B16A
:1054A000206850E8000FDAE7206850E8020F216812
:1054B00020F0010041E80202DAB1206850E8020F52
:1054C000216820F0010041E8020292B1206850E812
:1054D000020F216820F0010041E802024AB1206871
:1054E00050E8020F216820F0010041E80202002A82
:1054F000DAD12020C4F88C000020E066206850E853
:10550000000F216820F0100041E80002DAB12068A5
:1055100050E8000F216820F0100041E8000292B12D
:10552000206850E8000F216820F0100041E80002D8
:105530004AB1206850E8000F216820F0100041E8CF
:105540000002002ADAD1D4F88000FCF71BFAB4F884
:105550005C0002212167B4F85E10401A81B2204637
:10556000BDE87040FFF7F0BD10060AD506F08000D8
:105570000EF40005401904D0A16F00297FF492AE0B
:10558000CAE6580600F10281100240F1388116F097
:10559000804000F034812046BDE87040FFF768BECF
:1055A00001200862D4F8900040F00100C4F8900097
:1055B00090070EF0010308D53BB102200862D4F831
:1055C000900040F00400C4F89000500708D53BB1AB
:1055D00004200862D4F8900040F00200C4F8900063
:1055E00010070CD506F0200050EA0C0007D0082068
:1055F0000862D4F8900040F00800C4F8900010054C
:105600000BD516F0806008D04FF400600862D4F823
:10561000900040F02000C4F89000D4F890000028DA
:105620003FF47AAE12F020001EBF06F020000EF00C
:10563000805210EB020040F0DA80D4F890008A68C3
:1056400000F0280002F04002801800F0988051E835
:10565000000F00BF216820F4907041E80002F2B111
:10566000206850E8000F216820F4907041E80002A3
:10567000AAB1206850E8000F216820F4907041E83A
:10568000000262B1206850E8000F216820F4907099
:1056900041E800021AB1206850E8000FDAE74FF63F
:1056A000FE70CEF6FF7000BF216851E8021F22682D
:1056B000014042E80213C3B1216851E8021F226889
:1056C000014042E8021383B1216851E8021F2268B9
:1056D000014042E8021343B1216851E8021F2268E9
:1056E000014042E80213002BDED1E06E012824D1F4
:1056F000206850E8000F216820F0100041E8000207
:10570000DAB1206850E8000F216820F0100041E86D
:10571000000292B1206850E8000F216820F01000CC
:1057200041E800024AB1206850E8000F216820F0EB
:10573000100041E80002002ADAD12020C4F88C00D1
:105740000020E066216860678868400612D5D4F8BA
:10575000800078B146F65D31C0F60001C166FCF705
:1057600067F900283FF4D8ADD4F88000C16EBDE8D9
:10577000704008472046BDE87040FFF77DBD2046D9
:10578000FFF77AFD0020C4F8900070BD51E8000FCB
:10579000216820F0400041E80002F2B1206850E8A2
:1057A000000F216820F0400041E80002AAB1206803
:1057B00050E8000F216820F0400041E8000262B18B
:1057C000206850E8000F216820F0400041E8000206
:1057D0001AB1206850E8000FDAE720200021C4F851
:1057E00088002046A167BDE8704000F0BDB9626F37
:1057F000002A3FF422AF2046904721681DE7D001E0
:105800007FF58AADB6F1FF3FC8BF70BD2046BDE849
:105810007040FFF79BBC000010B5E0B10446D0F823
:10582000880028B9002084F88400204600F028F879
:105830002420C4F888002068A16A0268002922F0A8
:10584000010202601CBF204601F05EF8204601F014
:105850003BFF012801D1012010BD2168486820F4D8
:1058600090404860886820F02A008860086840F00E
:10587000010220460A60BDE8104001F0B9B80000FE
:10588000B0B5AAB00446002502A888212995CDE923
:105890002755CDE92555FAF7C9FD206844F20041A6
:1058A000C4F2000188422BD043F60001C4F201018A
:1058B00088425ED10020039001210F9002A802913E
:1058C000FDF772FC002818BFFBF760F940F68C402A
:1058D000C4F2024081693A2441F4804181618169C6
:1058E00001F4804101910199016841F001010160D9
:1058F000006800F00100019001984FF4C06022E0C0
:105900000220029002A803951095FDF74DFC002897
:1059100018BFFBF73BF940F68C40C4F20240016926
:105920003B2441F400310161016901F4003101912E
:105930000199016841F001010160006800F0010077
:10594000019001980C202590022026900020CDE99E
:105950002700072029900020C4F2022025A9FCF787
:105960009DFA204601210022FCF788FE2046FCF724
:1059700075FE2AB0B0BD000080B5D0F88C30202B69
:105980001CBF022080BD00294FF0010318BF002A70
:1059900001D1184680BD0023C366D0F800C0DCF8F2
:1059A00008305B0605D5DCF8083023F04003CCF85E
:1059B000083042F20043C4F200439C4503D0DCF8B7
:1059C00004301B0204D401F05DFF0023184680BDA3
:1059D0005CE800CFD0F800E04CF080634EE8003C7B
:1059E000BCF1000FEFD0036853E800CFD0F800E01F
:1059F0004CF080634EE8003CBCF1000FE3D003683C
:105A000053E800CFD0F800E04CF080634EE8003C53
:105A1000BCF1000FD7D0036853E800CFD0F800E006
:105A20004CF080634EE8003CBCF1000FCBD0036823
:105A300053E800CFCEE7000070B50446006844F29A
:105A40000046C4F20006B0420AD140F20065C2F23C
:105A50000005284600F098FC284600F087F82068EA
:105A600006F57441884218BF70BD40F2C800C2F20A
:105A7000000000F14404204601F0A2F82046BDE8F1
:105A8000704001F073B800002DE9F04182B0044687
:105A9000D0F8880020281EBF022002B0BDE8F081A7
:105AA0000E4600294FF001001CBF1746002A02D104
:105AB00002B0BDE8F08120681D468168090603D563
:105AC000816821F0800181604FF000082120C4F836
:105AD0009080C4F88800FCF7C1FAA4F85470A4F8C8
