:020000040800F2
:100000000007002035020008B7150008D9140008C1
:10001000B51500082B0400082D1A00080000000088
:10002000000000000000000000000000BB150008F8
:100030002D04000800000000B9150008BD150008D7
:100040004F0200084F0200084F0200084F0200084C
:100050004F0200084F0200084F0200084F0200083C
:100060004F0200084F0200084F0200084F0200082C
:100070004F0200084F0200084F0200084F0200081C
:100080004F0200084F0200084F0200080000000065
:100090000000000000000000000000004F02000807
:1000A0004F020008651600084F0200084F020008C2
:1000B0004F0200084F0200084F0200084F020008DC
:1000C0004F0200084F0200084F0200084F020008CC
:1000D0004F020008211A00084F020008000000002B
:1000E0004F0200084F0200084F0200080000000005
:1000F0000000000000000000000000004F020008A7
:10010000000000004F0200084F0200084F020008E4
:1001100000000000000000000000000000000000DF
:100120004F0200084F0200084F0200084F0200086B
:100130004F02000800000000000000000000000066
:100140000000000000000000000000004F02000856
:100150004F0200084F0200084F0200084F0200083B
:100160004F0200084F0200080000000000000000DD
:10017000000000000000000000000000000000007F
:10018000000000004F020008000000000000000016
:100190004F02000800F002F800F03CF80AA090E8D6
:1001A000000C82448344AAF10107DA4501D100F032
:1001B00031F8AFF2090EBAE80F0013F0010F18BFC3
:1001C000FB1A43F0010318471C1900003C190000FA
:1001D000103A24BF78C878C1FAD8520724BF30C873
:1001E00030C144BF04680C60704700000023002445
:1001F00000250026103A28BF78C1FBD8520728BF37
:1002000030C148BF0B6070471FB501F059FC1FBDDE
:1002100010B510BD00F0CFF81146FFF7F5FF01F063
:1002200017FC00F0EDF803B4FFF7F2FF03BC00F099
:10023000F5F800000948804709480047FEE7FEE757
:10024000FEE7FEE7FEE7FEE7FEE7FEE7FEE7FEE786
:1002500004480549054A064B70470000551600083A
:100260009501000800010020000700200003002085
:100270000003002053EA020C00F069802DE9F04BE6
:100280004FF00006002B1FBFB3FA83F503FA05F405
:1002900024FA05F65E4012BF1643B2FA82F502FA5E
:1002A00005F4C5F120051EBF22FA05FC44EA0C0442
:1002B000203556EA044C4FEA144418BF641C4FF032
:1002C00000084FF00009904271EB030C39D300296C
:1002D00019BFB1FA81F701FA07F6B0FA80F700FA10
:1002E00007F6C7F120071EBF20FA07FC46EA0C06F6
:1002F0002037B6FBF4FCA7EB0507103F07F01F0BF8
:10030000CBF120060CFA0BFB2CFA06F644BFB346E1
:100310000026202FA4BF5E464FF0000B5BEA060CC0
:1003200008BF4FF0010B19EB0B09ABFB027C48EB4C
:100330000608C01B06FB02CC0BFB03CC71EB0C01C7
:10034000C1E70B46024641464846BDE8F08B13B56F
:100350004FF000004FF00001AFF30080BDE81C40FB
:1003600070474FF0000200B5134694469646203978
:1003700022BFA0E80C50A0E80C50B1F12001BFF45E
:10038000F7AF090728BFA0E80C5048BF0CC05DF8C4
:1003900004EB890028BF40F8042B08BF704748BF12
:1003A00020F8022B11F0804F18BF00F8012B704786
:1003B000704770477047754600F02CF8AE46050050
:1003C0006946534620F00700854618B020B5FFF770
:1003D0003FFFBDE820404FF000064FF000074FF010
:1003E00000084FF0000B21F00701AC46ACE8C00953
:1003F000ACE8C009ACE8C009ACE8C0098D4670475C
:1004000010B50446AFF300802046BDE81040FFF76A
:100410000ABF000000487047A000002001491820D2
:10042000ABBEFEE7260002007047FEE770472DE9ED
:10043000F0410446876D00F065F9064694F83500F2
:100440000025022806D08020606584F83450012001
:10045000BDE8F0812068016821F016010160206884
:10046000416921F080014161206C08B9A06C20B184
:100470002068016821F0080101602068016821F00E
:10048000010101600CE000F03DF9801B052807D94F
:1004900020206065032084F8350084F83450D7E7C5
:1004A00020680068C007EED194F85C103F208840B7
:1004B000B860012084F8350084F834500020C7E784
:1004C00090F83510022903D0802141650120704742
:1004D000052180F835100068016821F001010160F4
:1004E0000020704770B5044600F00CF90546601C0A
:1004F00002D004480078044400F004F9401BA042F4
:10050000FAD370BD000000202DE9F84FDFF8B8A144
:100510000022012403254FF00F090AF1040BAAF170
:10052000040E00BF0B6804FA02F63340B34273D1E5
:100530000F7907F00307012F01D0022F16D187682A
:100540004FEA420805FA08FC27EA0C07D1F80CC06C
:100550000CFA08FC4CEA070CC0F808C04768B7431F
:100560000E79C6F3001696403E4346600E79F64378
:10057000B6070DD0C768560005FA06FC27EA0C0737
:10058000D1F808C00CFA06FC4CEA070CC0F80CC005
:100590000E7906F00306022E10D1D60800EB86086D
:1005A000D8F8206057074FEAD76C09FA0CF7BE431A
:1005B0000F6907FA0CF73743C8F8207006684FEA4E
:1005C000420C05FA0CF7BE430F7907F0030707FA50
:1005D0000CF7374307604E6816F4403F6DD03B4E32
:1005E000376847F480473760366822F0030706F41F
:1005F00080460096364E07EB060CDCF80868970735
:100600003F0F09FA07F826EA0806DFF8C8804045D8
:1006100003D14FF000081EE04FE0DFF8BC804045FA
:1006200002D14FF0010816E0DFF8B080404502D15A
:100630004FF002080FE0DFF8A880404502D14FF0EC
:10064000030808E0DFF89C80404502D14FF0040821
:1006500001E04FF0070808FA07F848EA0608CCF866
:100660000888DAF800605746D1F804C09E435FEA74
:10067000CC2C00D51E433E60DBF800605F46D1F80D
:1006800004C09E435FEA8C2C00D51E433E60DEF81A
:1006900000607746D1F804C09E435FEA8C3C00D5E9
:1006A0001E433E60084F083F3E68D1F804C09E4399
:1006B0005FEACC3C00D51E433E60521C102AFFF47A
:1006C00031AFBDE8F88F0000083C014044380240DB
:1006D00000300140000002400004024000080240D7
:1006E000000C024000100240426921EA02030A4065
:1006F00043EA0241816170470AB181617047090490
:10070000FBE70000014880687047000000000020FF
:10071000024881680278114481607047000000201F
:100720000B4810B5016841F400710160016841F4A3
:1007300080610160016841F480710160032000F074
:100740006FF80F2000F006F800F024F8002010BD2C
:10075000003C024070B50D4D04464FF47A71287884
:10076000B1FBF0F00A490968B1FBF0F000F00CFBB6
:1007700048B9102C07D200222146501E00F030F854
:1007800000206C6070BD012070BD000000000020E2
:100790000C0000200A4808B5016841F4804101605E
:1007A000006800F4804000900548001F016841F097
:1007B00080510160006800F08050009008BD00008A
:1007C00044380240002809DB00F01F02012191405B
:1007D0004009800000F1E020C0F8001170470000DF
:1007E000F0B40E4B1B680C46C3F30223C3F107059C
:1007F000042D00D90425191D072901D2002300E08A
:10080000DB1E012606FA05F1491E214099409E4053
:10081000761E16403143F0BC01F009B90CED00E042
:10082000064900F0070208684FF6FF03184040EA47
:100830000220034A10430860704700000CED00E0FE
:100840000000FA052DE9F0470E46050065D0DFF8F7
:100850001481D8F80000F7B200F00700B04207D2C8
:1008600088F80070D8F8000000F00700B04254D1BA
:1008700028683D4C810712D5400703D5206840F415
:10088000E05020602878000703D5206840F46040DD
:1008900020602068A96820F0F000084320602878D4
:1008A000C0072DD0304968680839012812D00228C5
:1008B00013D0032811D00968890700292DDA21688F
:1008C00021F0030101432160FFF71CFF814641F243
:1008D000883A0EE009688903EFE709688901ECE7C7
:1008E000FFF710FFA0EB0901514502D90320BDE835
:1008F000F0872068696800F00C00B0EB810FEFD141
:10090000D8F80010404601F00701B14207D907703E
:10091000006800F00700B04201D00120E7E7287826
:10092000400705D52068E96820F4E05008432060BE
:100930002878000706D52068296920F4604040EA3D
:10094000C100206000F038F82168084AC1F30311A3
:10095000515CC8400649086006480068FFF7FAFE87
:100960000020C4E7003C024008380240CA1A0008D0
:100970000C000020040000200448054900680968B4
:10098000044AC1F38221515CC84070470C0000202A
:1009900008380240DA1A0008044805490068096866
:1009A000044AC1F34231515CC84070470C0000203A
:1009B00008380240DA1A0008154810B5006810F02F
:1009C0000C02144813D01449042A0FD0082A0ED15F
:1009D0000F4C241F2268236802F03F025B0207D5F8
:1009E0002068C0F38810A0FB010106E0084610BD96
:1009F0002168C1F38811A1FB00010023FFF73AFC35
:100A00002168C1F30141491C4900B0FBF1F010BD60
:100A1000083802400024F40040787D012DE9F84FA9
:100A200004006ED02078DFF84C93C007A9F10405CC
:100A30004AD009F104000168C1F38101012908D0FD
:100A40000068C0F3810002280AD1D9F800004002F2
:100A500006D52868800337D560680028E1D033E0E8
:100A60006068B0F5803F10D0B0F5A02F286810D096
:100A700020F480302860286820F480202860606896
:100A8000A8B1FFF73FFE06460DE0286840F480302D
:100A9000F4E740F480202860F7E700BFFFF732FE5C
:100AA000801B642873D828688003F7D50CE0FFF713
:100AB00029FE064605E000BFFFF724FE801B6428E0
:100AC000F0D828688003F7D42078DFF8AC8280075C
:100AD0004FF0000A3ED5A748001D016811F00C0F29
:100AE00008D00068C0F3810002280BD1D9F80000BB
:100AF000400207D42868800716D5E068012800D195
:100B000012E033E1E068B8B10120C8F80000FFF757
:100B1000F9FD064605E000BFFFF7F4FD801B022843
:100B2000C0D828688007F7D52868216920F0F80028
:100B300040EAC10028600DE0C8F800A0FFF7E2FD20
:100B4000064604E0FFF7DEFD801B02281FD8286858
:100B50008007F7D42078000722D5864F874861693F
:100B6000703771B101210160FFF7CCFD064604E04A
:100B7000FFF7C8FD801B022809D838688007F7D521
:100B80000EE0C0F800A0FFF7BDFD064605E082E0DC
:100B9000FFF7B8FD801B02287DD838688007F7D49E
:100BA0002078400768D5DFF8CCB100270BF13C0B6B
:100BB000DBF80000C0000BD4DBF8001041F08051DE
:100BC000CBF80010DBF80000012700F08050009007
:100BD0006B4E3068C00510D4306840F480703060CF
:100BE000FFF790FD009005E0FFF78CFD0099401A9B
:100BF000022850D83068C005F6D55E4EA0686C3625
:100C000001280FD00528306810D020F00100306096
:100C1000306820F004003060A068B8B1FFF772FDC2
:100C200000900FE0306840F00100F4E740F004006D
:100C30003060F7E7FFF766FD0099411A41F288300E
:100C4000814266D830688007F4D50EE0FFF75AFD80
:100C5000009007E0FFF756FD0099411A41F28830F5
:100C6000814256D830688007F4D42FB1DBF80010E9
:100C700021F08051CBF80010A069C8B33D49091D8F
:100C80000968C1F3810102294AD00228504607D0E1
:100C9000C8F8600000E03CE0FFF734FD04463BE0AC
:100CA0004746C8F86000FFF72DFD064605E000BF87
:100CB000FFF728FD801B02282BD828688001F7D475
:100CC000D4E907010843A16A2E4A490802EB014111
:100CD000626A41EA8211084394F82C1040EA0161EB
:100CE000C9F8001001203866FFF70CFD044606E045
:100CF0003EE000BFFFF706FD001B022809D8286868
:100D00008001F7D534E000BFFFF7FCFC001B022890
:100D100002D90320BDE8F88F28688001F4D427E0C9
:100D20000128F7D0D9F80000E26900F4800191426F
:100D30001CD1226A00F03F01914217D147F6C071E1
:100D4000626A0140B1EB821F10D1A26A4FF0FF33FB
:100D500000F4403103EB5202B1EB024F06D194F89C
:100D60002C1000F07060B0EB016F01D00120D1E7D2
:100D70000020CFE70438024000004742800E47427F
:100D8000007000400000FFFF10B5401EB0F1807FF2
:100D900001D3012010BD4FF0E02460610F216017E6
:100DA00000F045FE0020A06107202061002010BD5A
:100DB0007047704770B590F83C20012A2CD0012470
:100DC00080F83C40022280F83D2003685A689D6804
:100DD00022F070060A6832435A60104B02689A4249
:100DE0000ED0B2F1804F0BD00D4B9A4208D00D4B74
:100DF0009A4205D00C4B9A4202D00C4B9A4204D135
:100E0000496825F080031943916080F83D40002136
:100E100080F83C10084670BD022070BD0000014003
:100E20000004004000080040000C00400040014069
:100E300010B5040003D094F83D0010B107E0012084
:100E400010BD002084F83C00204600F01FF802206E
:100E500084F83D00211D206800F00AFC012084F880
:100E6000460084F83E0084F83F0084F8400084F88F
:100E7000410084F8420084F8430084F8440084F878
:100E8000450084F83D00002010BD000008B5006852
:100E90000B49884212D10B48016841F00101016001
:100EA0000068002200F00100009011461920FFF7B1
:100EB00097FCBDE808401920FFF784BC08BD00007E
:100EC000000001404438024070B5044690F83C00F0
:100ED0000025012817D0012684F83C60022084F800
:100EE0003D002068826822F0770222F47F4282600F
:100EF0000868502838D00DDC20284FD005DC90B38E
:100F0000102811D14AE0022070BD302846D0402878
:100F10000AD13BE060282FD070280DD0B0F5805F5B
:100F200003D0B0F5005F12D0012584F83D600020A9
:100F300084F83C00284670BDCB68D1E901212068C7
:100F400000F0E8FB2068816841F0770109E0CB6898
:100F5000D1E90121206800F0DDFB2068816841F4BF
:100F600080418160E1E719E0CA684968206800F0C3
:100F7000E3FB5021206806E0CA684968206800F059
:100F8000ECFB6021206800F0CFFBCEE7CA6849681F
:100F9000206800F0D1FB40212068F4E72268014678
:100FA0001046F0E770472DE9F04104460068C66836
:100FB00005694FF00007A90713D5B10711D5F91E30
:100FC000016101202077206880698007204602D0D7
:100FD000FFF7E8FF04E000F07EF8204600F07CF820
:100FE0002777680716D5700714D521686FF00400BD
:100FF0000861022020772068806910F4407F204635
:1010000002D0FFF7CFFF04E000F065F8204600F0C3
:1010100063F82777280715D5300713D521686FF0B7
:1010200008000861042020772068C06980072046F6
:1010300002D0FFF7B7FF04E000F04DF8204600F0C3
:101040004BF82777E80616D5F00614D521686FF01F
:1010500010000861082020772068C06910F4407FE4
:10106000204602D0FFF79EFF04E000F034F820464F
:1010700000F032F82777E80708D0F00706D021689B
:101080006FF001000861204600F027F8280608D517
:10109000300606D521686FF0800008612046FFF712
:1010A00087FE680608D5700606D521686FF04000F7
:1010B0000861204600F012F8A8060AD5B00608D547
:1010C00021686FF0200008612046BDE8F041FFF77D
:1010D00070BEBDE8F0817047704770477047704739
:1010E00070470000F8B5016804460868CA684B6993
:1010F00010F00F0F4FF0000559D003F0010602F475
:101100009077374365D0C10705D0D10503D5616C11
:1011100041F001016164410705D5D90703D0616C35
:1011200041F002016164810705D5D90703D0616CE4
:1011300041F004016164010707D502F02001314349
:1011400003D0616C41F008016164616C00293AD000
:10115000800604D5900602D5204600F03FFB2068AB
:101160004069616CC0F38010090700D460B3204669
:1011700000F00DFB20684069400621D5206814303E
:1011800050E8001F21F0400140E80012002AF5D18C
:10119000E06BA8B16E490165E06BFFF791F900289B
:1011A00011D0E06B016D01B0BDE8F0400847830647
:1011B0000FD593060DD52046BDE8F84000F00EBBD4
:1011C0002046FFF78DFFF8BD2046FFF789FF6564D5
:1011D000F8BD266B2023012E7DD1C6067BD5D60611
:1011E00079D508684868009048694FF002064006C3
:1011F00041D5E16B086840680004000CE8D0A28D7E
:101200008242E5D9E085C869B0F5807F2DD020689D
:101210000C3050E8001F21F4807140E80012002AD1
:10122000F5D12068143050E8001F21F0010140E89A
:101230000012002AF5D12068143050E8001F21F078
:10124000400140E80012002AF5D184F842302563BD
:1012500020680C3050E8001F21F0100140E8001217
:10126000002AF5D1E06BFFF7E2F86663A08DE18D0F
:10127000401A81B22AE0A08DE18D401A81B2E08D42
:101280000028A5D00029A3D022680C3252E8000F14
:1012900020F4907042E80007002FF5D12068143048
:1012A00050E8002F22F0010240E80027002FF5D17E
:1012B00084F84230256320680C3050E8002F22F07B
:1012C000100240E80023002BF5D166632046FFF7AB
:1012D00006FFF8BDFFE705062BD5150629D594F8BE
:1012E00041002128F5D1A068B0F5805F01D12069C7
:1012F000B0B1206A411C2162216800784860E08C0E
:10130000401E0004000CE084E3D12068C16821F095
:101310008001C1602068C16841F04001C160D8E728
:10132000206A0088C0F308004860206A801C2062A0
:10133000E5E74006CDD55006CBD5CA68204622F059
:101340004002CA6084F8413000F0C5F8C1E70000EF
:101350007F17000870B5040004D094F84100002500
:1013600010B106E0012070BD84F84050204600F026
:1013700023F8242084F841002068C16821F400513A
:10138000C160204600F08CFA2068016921F4904188
:1013900001612068416921F02A0141612068C1682A
:1013A00041F40051C1606564202084F8410084F854
:1013B00042006563002070BD10B586B0044614215C
:1013C0006846FEF7CEFF18492068884229D11748A1
:1013D0000021026842F010020260006800F0100074
:1013E000059012481438026842F001020260006859
:1013F00000F0010005904FF4C06000900220CDE99C
:101400000101032003900720049069460848FFF774
:101410007BF8002211462520FFF7E2F92520FFF78F
:10142000D1F906B010BD0000001001404438024060
:101430000000024070472DE9F843044690F841004F
:10144000984616460D46202802D00220BDE8F883B3
:1014500085B17EB100206064212084F84100FFF74F
:1014600051F9A6848146E684A0682027B0F5805F04
:1014700002D003E00120E9E7206910B12E460025E3
:101480000EE000260CE08021204600F08FFAA8B97B
:10149000C6B116F8010B21684860E08C401EE0845C
:1014A000E08C4B464FF00002CDF800800028EAD1D6
:1014B0004FF04001204600F079FA40B184F84170C5
:1014C0000320C3E735F8020BC0F30800E3E784F814
:1014D00041700020BAE77047FEE7000070B586B0A3
:1014E00014216846FEF73DFF16480024016841F0CC
:1014F00004010160016801F004010591016841F0F7
:1015000080010160016801F080010591016841F0EE
:101510000101016000680C4E00F001004FF400551D
:101520000590002229463046FFF7E6F80120009595
:10153000CDE90104694630460394FEF7E5FF06B0A5
:1015400070BD0000303802400008024010B586B07F
:1015500000241748009401940294039404941349BE
:10156000059401605321C0E9011440F2E731C0E95C
:10157000031444618461FFF75BFC08B172B6FEE7B7
:101580004FF48050009069460948FFF79DFC08B170
:1015900072B6FEE7049404A905480594FFF70AFC17
:1015A000002801D072B6FEE706B010BD0000014071
:1015B00010000020FEE7FEE770477047FFF7A8B86D
:1015C00030B593B030216846FEF7CBFE14210CA84D
:1015D000FEF7C7FE1D480025016841F080510160FB
:1015E000006800F0805011901948016821F44041D2
:1015F00041F4004101600068022400F44040119071
:1016000001200090000401908001CDE906401920DE
:101610000890A820CDE9090404200B906846FFF744
:10162000FDF908B172B6FEE70CA90F2081E8310080
:101630004FF48050CDE90F0502210CA8FFF702F905
:10164000002801D072B6FEE713B030BD403802402A
:10165000007000400248016841F470010160704769
:1016600088ED00E00148FFF79EBC0000100000205C
:10167000F0B50268204B214C9F03214D214E98422A
:1016800007D0B84205D0A04203D0A84201D0B04252
:1016900004D122F0700C4A6842EA0C02984210D041
:1016A000B8420ED0A0420CD0A8420AD0B04208D016
:1016B000154CA04205D0154CA04202D0144CA042BB
:1016C00003D122F44074CA6822434C6922F080029C
:1016D000224302608A68C2620A688262984201D12B
:1016E00009690163012141610169C90703D00169E9
:1016F00021F001010161F0BD000001400004004043
:1017000000080040000C004000400140004401403F
:101710000048014010B5846842EA032224F47F4463
:101720000A432243826010BD826822F070020A439D
:1017300042F007018160704710B5036A046A24F023
:1017400001040462846924F0F00444EA021423F0E2
:101750000A020A438461026210BD10B5036A046A7A
:1017600024F010040462846923F0A00324F470447C
:1017700044EA023243EA01118261016210BD10B5F0
:10178000806B0021C185C184FFF7AAFC10BD0168F0
:101790000C3151E8002F22F4907241E80023002B15
:1017A000F5D10168143151E8002F22F0010241E81F
:1017B0000023002BF5D1016B012909D101680C31FF
:1017C00051E8002F22F0100241E80023002BF5D150
:1017D000202180F8421000210163704708B590F87D
:1017E0004210222901D0022008BD82684FF48053A4
:1017F0009A4201D1016921B1816A9A421BD04AB152
:101800000AE00268816A5268C2F308020A80816AAB
:10181000891C08E0026972B10268526802F07F0216
:101820000A70816A491C8162C18D491E0904090C34
:10183000C18503D01BE002685268F1E70168CA68FD
:1018400022F02002CA600168CA6822F48072CA606D
:1018500001684A6922F001024A61202180F84210A1
:1018600000214163026B012A03D0FFF7E3FD002052
:1018700008BD016301680C3151E8002F22F010020D
:1018800041E80023002BF5D101680A68D20602D591
:101890000A6849680091818DFFF721FCE7E70000A5
:1018A00070B5044600680169E26821F440511143B3
:1018B00001612169A068E269084361691143084335
:1018C0002168CA6849F20C639A430243CA602068DF
:1018D0004169A26921F44071114341613149206895
:1018E000884202D03049884202D1FFF755F801E022
:1018F000FFF742F8E2690023192164253226B2F588
:10190000004F626828D0A0FB0101930F9200FEF700
:10191000B1FC0146B0FBF5F06FF01802504301EB4B
:10192000800006EB0010B0FBF5F000F0F002B1FB18
:10193000F5F002EB0012B1FBF5F06FF0180358431D
:1019400001EB800006EB0010B0FBF5F000F00F009B
:1019500021681044886070BDA0FB010192185B41B2
:10196000FEF788FC0146B0FBF5F00201B1FBF5F093
:101970006FF01803584301EB800006EBC000B0FB8A
:10198000F5F000F0F80002EB4002B1FBF5F058432F
:1019900001EB800006EBC000B0FBF5F000F00700A3
:1019A000D6E7000000100140001401402DE9F84383
:1019B000984617460D460446089E24E0701C22D027
:1019C000FEF7A0FEA0EB0800B0421AD8CEB1206806
:1019D000C168490717D5802D15D0402D13D0016857
:1019E000C94309070FD401680025406800902046CC
:1019F000FFF7CDFE0820606484F840500120BDE868
:101A0000F8830320FBE72068006835EA000004D073
:101A10000020B842D2D00020F1E70120F9E7000011
:101A20000148FFF75FBB000058000020FEE70907F0
:101A3000090E002804DB00F1E02080F80014704754
:101A400000F00F0000F1E02080F8141D7047000046
:101A5000FEF766FEFFF7B4FDFFF740FDFFF776FDEA
:101A6000134812490C2201604FF4165141600021C5
:101A70008160C160C0E904128161C161FFF76AFC45
:101A800008B172B6FEE70B4D4FF400544FF0FF362D
:101A900021462846FEF728FE6420FEF723FD334644
:101AA000062205A10248FFF7C6FCF1E7001001403D
:101AB000580000200008024048656C6C6F0A000066
:101AC0004FF04070E1EE100A704700000000000087
:101AD00000000102030406070809000000000102DB
:101AE00003040000041B0008000000201000000098
:101AF000D0010008141B000810000020F0060000B0
:101B0000EC010008010000001000000000000000CF
:041B10000024F400B9
:040000050800019559
:00000001FF
