:020000040800F2
:10000000C80B0020F9020008F55200085948000802
:10001000F152000839050008496D00080000000091
:1000200000000000000000000000000095550008DE
:100030003D05000800000000F9520008ED570008D7
:100040001503000815030008150300080000000050
:100050001503000815030008150300080000000040
:100060001503000815030008000000004105000802
:100070001503000815030008150300081503000800
:1000800015030008150300081503000815030008F0
:1000900015030008150300081503000815030008E0
:1000A0001503000815030008150300085105000892
:1000B0005D05000869050008150300081503000820
:1000C00015030008150300081503000815030008B0
:1000D00000000000150300081503000815030008C0
:1000E0001503000815030008150300081503000890
:1000F00015030008150300081503000800000000A0
:10010000000000001503000815030008150300088F
:10011000150300081503000815030008150300085F
:10012000150300081503000815030008316D0008C9
:100130003D6D0008000000000000000015030008ED
:10014000150300080000000000000000000000008F
:10015000000000000000000015030008000000007F
:10016000000000000000000015030008150300084F
:10017000000000000000000000000000000000007F
:10018000000000000000000000000000000000006F
:10019000000000000000000000000000000000005F
:1001A000000000000000000015030008150300080F
:1001B00015030008150300081503000815030008BF
:1001C00015030008150300080000000000000000EF
:1001D00000000000000000000000000015030008FF
:1001E00015030008000000000000000000000000EF
:1001F00000000000000000000000000000000000FF
:1002000000000000150300081503000800000000AE
:1002100000000000150300080000000000000000BE
:1002200000000000000000000000000015030008AE
:10023000150300080000000000000000000000009E
:10024000000000000000000000000000150300088E
:10025000150300081503000800F002F800F03CF850
:100260000AA090E8000C82448344AAF10107DA4511
:1002700001D100F031F8AFF2090EBAE80F0013F027
:10028000010F18BFFB1A43F0010318478C750000DB
:10029000AC750000103A24BF78C878C1FAD852076C
:1002A00024BF30C830C144BF04680C6070470000F0
:1002B0000023002400250026103A28BF78C1FBD86F
:1002C000520728BF30C148BF0B6070471FB507F009
:1002D0004DFA1FBD10B510BD00F0F4F81146FFF740
:1002E000F5FF06F0A3FD00F012F903B4FFF7F2FFEB
:1002F00003BC00F019F900000A4880470A4800478B
:10030000FEE7FEE7FEE7FEE7FEE7FEE7FEE7FEE7C5
:10031000FEE7FEE7FEE7000004480549054A064BF4
:1003200070470000F157000859020008C805002076
:10033000C80B0020C8070020C807002053EA020CA1
:1003400000F069802DE9F04B4FF00006002B1FBF35
:10035000B3FA83F503FA05F424FA05F65E4012BFFA
:100360001643B2FA82F502FA05F4C5F120051EBF64
:1003700022FA05FC44EA0C04203556EA044C4FEA04
:10038000144418BF641C4FF000084FF0000990425D
:1003900071EB030C39D3002919BFB1FA81F701FAC7
:1003A00007F6B0FA80F700FA07F6C7F120071EBF7C
:1003B00020FA07FC46EA0C062037B6FBF4FCA7EB54
:1003C0000507103F07F01F0BCBF120062CFA06F6AD
:1003D0000CFA0BFB44BFB3460026202FA4BF5E4699
:1003E0004FF0000B5BEA060C08BF4FF0010B19EB56
:1003F0000B0948EB0608ABFB027C06FB02CC0BFBAF
:1004000003CCC01B71EB0C01C1E70B460246414611
:100410004846BDE8F08B13B5084318BF4FF0FF30D6
:100420000146AFF30080BDE81C4070474FF000026A
:100430000429C0F0128010F0030C00F01B80CCF1F6
:10044000040CBCF1020F18BF00F8012BA8BF20F864
:10045000022BA1EB0C0100F00DB85FEAC17C24BFB8
:1004600000F8012B00F8012B48BF00F8012B704762
:100470004FF0000200B5134694469646203922BF3D
:10048000A0E80C50A0E80C50B1F12001BFF4F7AF88
:10049000090728BFA0E80C5048BF0CC05DF804EB6A
:1004A000890028BF40F8042B08BF704748BF20F8D8
:1004B000022B11F0804F18BF00F8012B70477047D6
:1004C00070477047754600F02BF8AE460500694648
:1004D000534620F00700854618B020B5FFF71CFFF3
:1004E000BDE820404FF000064FF000074FF0000835
:1004F0004FF0000BAC46ACE8C009ACE8C009ACE872
:10050000C009ACE8C00921F007018D46704710B55D
:100510000446AFF300802046BDE81040FFF7E5BE7B
:10052000004870471000002001491820ABBEFEE7CC
:100530002600020070470000FEE700007047000040
:10054000012000F03FBD000072B600BFFEE70000D2
:1005500040F25C10C2F2000000F090BB40F2D410F8
:10056000C2F2000000F08ABB40F24C20C2F2000050
:1005700000F084BB00284FF0010218BF002901D110
:1005800010467047B0B5D0E904C2C369D0F818E08E
:100590001A43C36B1A4342EA0C0242EA0E020A6093
:1005A00003789B0616D5D0E909C3D0F82CE04FF0AC
:1005B0007C75846B05EB03534FF47C7505EB0C15D0
:1005C00042EA0E0203F07C73224305F47C751A4361
:1005D0002A430A604268036B40F2FF252A401A430F
:1005E0004A60C368B3F5007F08D0B3F5806F08D1C7
:1005F00003789B0605D542F4806201E042F4007264
:100600004A60436B1A434A60436C43B1856C046C87
:100610001A4305F03F05224342EA05424A60B0F81A
:10062000682040F2000C8A600378C0F2FF7C9B07D0
:1006300022D5C36C0CEB034303EA0C031A438A6014
:10064000036D002B48BF02F180528A60436D002B7E
:1006500048BF02F100528A60836D22F08045002B72
:1006600048BF42F080458D60C26D25F00043002AEE
:1006700048BF45F000438B60026ECA60426E0A615B
:100680000278920720D5026D0023002A48BF52420B
:100690006FF35F324A61456D2C04002D48BFA3EB18
:1006A00005440CF1C05525402A444A61826D002A58
:1006B00048BF524292B28A61C56D2C04002D48BFDA
:1006C000A3EB054422448A61006882074FF4E0628C
:1006D00058BF4FF4A062104300220862BDE8B0404A
:1006E00010467047B0B5044600F09CFD002C04BFD6
:1006F0000120B0BD00210546206884F84C1002217D
:1007000084F85410416941F0060141614169C9070B
:1007100009D000BF00F086FD401B052850D8206896
:100720004169C907F6D14FF6B072CBF6FD720244AB
:100730006FF01F03A16B03EBF213E56B082B41EA8B
:10074000050103D34FEAF212072A01D8226C1143A4
:10075000426922F443021143416100210164626C49
:10076000426441F24F32C4F2020290428164C16499
:1007700001650CDC40F25031C4F20201884212D013
:1007800040F2D031C4F2020188420CD00EE041F2B6
:10079000D031C4F20201884205D041F25031C4F296
:1007A0000201884202D10021416581650021C167B3
:1007B000A06C012220650020A16584F85420B0BD02
:1007C000012003221021A16584F85420B0BD00004F
:1007D0002DE9F04300284FF0010318BF002A02D191
:1007E0001846BDE8F0834369012B04D1042101615F
:1007F0000120BDE8F083056842EA01030F462B4360
:10080000002908BF1746002D18BF2F467B40B3F5BF
:10081000803F08D265B195F8203061B191F8207021
:10082000BB42E3D107E0052101610120BDE8F0836F
:1008300031B191F8203092F82070BB42D6D100E05F
:10084000176A02230373002340F2000C03617B0844
:10085000CFF6010C63F3596C63F39A6C07F0020353
:10086000002D03F1050E47D0002950D0D0F8089094
:100870004FF6FC7311EA03044FF0000755D0B9F1AD
:10088000000F4FF0000351D04FF6FF739D43002738
:100890004FF6FC78002345EA07060746002B18BFF1
:1008A00006EB8E073F685E1C4E4507EA080737D205
:1008B000A74235D045EA070656F82E709E1C4E45D5
:1008C00007EA08072CD2A7422AD045EA070656F8BD
:1008D0002E70DE1C4E4507EA080721D2A7421FD022
:1008E00045EA070656F82E6004334B4506EA08072A
:1008F0001CD2A742CFD119E0A1B14FF6FC731A4028
:1009000042EA0C02016041F82E2002212DE04FF650
:10091000FC71294041EA0C0142F82E10026022E0ED
:10092000334603E0026001211FE00023A74209D102
:100930004B450DD143687BB14FF6FC74234043EA2D
:100940000C0307E00621012301611846BDE8F0838E
:1009500051F82E3042F82E304FF6FC731A4042EA1E
:100960000C0241F82E2081680131816000230121B1
:10097000036101731846BDE8F083000000284FF0C2
:10098000010218BF002901D11046704790F8543079
:1009900090F85420052B18BF022A06D1402181650A
:1009A000002180F84C10012070470A7B022A03D1F5
:1009B000012210460A617047026841F24F33C4F2C7
:1009C00002039A4208DC40F25033C4F202039A4216
:1009D0000ED040F2D03307E041F25033C4F20203AC
:1009E0009A4205D041F2D033C4F202039A420ED1AA
:1009F000036D4A68812B04D12AB100224167104659
:100A00007047002AF9D004200861012070470A6865
:100A100092F820209207EBD503200861012070474F
:100A20002DE9F043002804BF0120BDE8F083D0F891
:100A300000E0BEF1000F07D0416851B1714504BF1D
:100A40000020BDE8F08307E0022101610120BDE83C
:100A5000F0834169012904D1042101610120BDE82D
:100A6000F0830221017300210161DEF8202040F2B1
:100A7000000C5308CFF6010C846863F3596C02F044
:100A8000020263F39A6C02F105035CB14FF6FF7248
:100A9000651E2EEA0202032D04F0030804D200258D
:100AA000002623E0002542E0A4EB080900254FF6CC
:100AB000FC74002615430746002E18BF05EB83077C
:100AC0003D6804362540154355F82350B14505EAE5
:100AD000040545EA020555F8235005EA040545EAF0
:100AE000020555F8235005EA0405E3D1B8F1000FDB
:100AF0001DD042EA05040546002E18BF04EB83050D
:100B00002D684FF6FC74B8F1010F05EA04050ED00C
:100B1000154355F82350B8F1020F05EA040506D035
:100B20002A4352F823204FF6FC7402EA04054FF6DC
:100B3000FF724FF6FC742EEA020204EA0E042A4306
:100B400044EA0C0742F823700122C0F804E0016176
:100B500002730846BDE8F083B0B5044600F062FBBE
:100B6000002C04BF0120B0BD054694F854000228B3
:100B70002DD12168486940F004004861052084F8BF
:100B800054000869800408D400F04CFB401B052881
:100B900024D8216808698004F6D54869012240F00C
:100BA00002004861042084F854004FF4FE40C860FD
:100BB00084F8542094F8500000064FF0000002D54D
:100BC000636F1A738864002184F84C10B0BD202034
:100BD000A0650120002184F84C10B0BDA06D40F04C
:100BE0001000A065032084F8540094F8500000061B
:100BF0004FF0010044BF616F0873002184F84C106E
:100C0000B0BD0000002804BF0120704790F85410C8
:100C100002290AD1042180F85410006842F204022B
:100C20004169114341610020704720218165012005
:100C300070470000024600284FF0010008BF7047CF
:100C4000126802F57B63C3F3C41CCB065CBF0020B3
:100C5000704740F6FF7301F011019A43112900FA21
:100C60000CF004D15168084350600020704751686F
:100C700021EA0000506000207047000010B50446D3
:100C800000680C22034600F57B6162F30B03C1F39D
:100C9000C4111A6822FA01F1C90700F0A3800169A2
:100CA000490544BF41695FEA41514BD401690905D7
:100CB00044BF41695FEA01514CD40169C90444BF92
:100CC00041695FEAC1414DD40169490444BF4169AA
:100CD0005FEA41414ED40169890544BF41695FEA39
:100CE00081514FD40169890444BF41695FEA814160
:100CF00052D40169C90544BF41695FEAC15172D448
:100D0000A06D002808BF10BD2068416941F00201B4
:100D100041614069C0074FF0030008BF012084F81B
:100D2000540094F85000000602D5606F0121017351
:100D3000A16E0020002984F84C0053D02046BDE865
:100D4000104008474FF48061C160A16D41F001017E
:100D5000A165ABE74FF40061C160A16D41F00201F4
:100D6000A165AAE74FF48051C160A16D41F0040173
:100D7000A165A9E74FF48041C160A16D41F0080170
:100D8000A165A8E74FF40071C160616E0029A9D088
:100D9000204688472068A5E74FF40051C16094F8C9
:100DA000541004292AD1416921F40051416141695B
:100DB00041F0020141614169C9074FF0030108BFD9
:100DC000012184F8541094F85010090604D5616F7D
:100DD00001220A7300218164E16E0020002984F859
:100DE0004C00ABD110BD94F85010090611D4816CA1
:100DF000002904BF012184F8541013E0052184F870
:100E00005410216F00293FF474AF204688472068B2
:100E10006FE7C16F31B9816C21B9012184F8541099
:100E2000626F11734FF44071C160216E0020002980
:100E300084F84C001CBF2046884761E7B0B50446E3
:100E400000F0F0F9002C04BF0120B0BD00210546E0
:100E5000206884F84C10022184F85410416941F054
:100E6000060141614169C90709D000BF00F0DAF904
:100E7000401B05284FD820684169C907F6D1216A6F
:100E8000426904F1100C22F4430211434161E36909
:100E90009CE806101A4311434FF6B072CBF6FD7270
:100EA00083186FF01F0202EBF31541EA0C02082DC4
:100EB0004FEAF31C28BFBCF1070F14D804F1240E2D
:100EC0009EE828404FF07C7101EB05514FF47C7592
:100ED00005EB031301F07C7142EA0E0203F47C730C
:100EE000114341EA03020264A1682279E3681143D5
:100EF000226BB3F5007F42EA010213D0B3F5806F95
:100F000012D1ACF12001082928BFBCF1070F98BF0E
:100F100042F4806208E0012003211022A26584F8D7
:100F20005410B0BD42F40072616B436C42F2001584
:100F3000C3F6C0450A432B401A4341F24F33C4F273
:100F4000020342640022984282640CDC40F2503278
:100F5000C4F20202904212D040F2D032C4F2020235
:100F600090420CD00EE041F2D032C4F20202904224
:100F700005D041F25032C4F20202904202D1002266
:100F8000426582650022C267216501210020A265B9
:100F900084F85410B0BD0000B0B5044600F042F92A
:100FA000054640F20000C2F200000078611C18BF44
:100FB000044400BF00F036F9401BA042FAD3B0BD94
:100FC00070470000B0B542F20C05C4F20245296832
:100FD0000446014203D020462C6000F00BF86868FC
:100FE000204208BFB0BD20466C60BDE8B040FFF7AE
:100FF000E7BF000010B540F2780472B6C2F20004F8
:10100000B4F84010814228D104F12C0004F11401FD
:101010000C2203F097FE237D627D94F816E01A44BB
:10102000E37D7244217E1A441144627EA37E114402
:10103000E27E1944237F1144627F1944A37F114447
:10104000D4F810C01944E27FCBB29A4260442061C8
:10105000E17108BFBEF1630F01D062B610BD04F1AB
:10106000140207CA04F1200307C30120608162B69D
:1010700010BD00002DE9F04F82B00C68002C00F08C
:10108000C28047F67F72C0F22F0202EA90224FF030
:1010900001090092002200260027012501900FE09F
:1010A000BCF1030F5FD100BF0C68083734FA05F3B9
:1010B00005F1010506F1020602F1040200F0A38029
:1010C000A5F1010A09FA0AFE14EA0E0BECD0D1F8D8
:1010D00004C04CF01004122C1FD16FF0030303EA7C
:1010E0005A0402F01C0300EB0409D9F820C058464A
:1010F000D1F810B00F2404FA03F80BF00F042CEA17
:10110000080C04FA03F343EA0C0383460198C9F878
:101110002030D1F804C04FF0010903680324B44023
:101120006FEA0408A3430CF00304B4402343BCF16A
:10113000120F036017D809FA0CF313F0061FAFD093
:101140008368CC6803EA0803B440234383604368A0
:101150004FEA1C1423EA0E0304FA0AF42343BCF1F9
:10116000030F4360A0D0C3688C6803EA0803B4404F
:1011700023435FEACC04C36096D542F200082AF00C
:101180000303C4F2024808EB030EDEF860C007F068
:1011900018040F23A3402CEA030C009B03FA04F469
:1011A0004CEA0403CEF86030D8F800C0D1F804E06F
:1011B0004CEA0B035FEACE2458BF2CEA0B03C8F8B5
:1011C0000030D8F804C05FEA8E234CEA0B0458BF05
:1011D0002CEA0B04C8F80440D8F884C05FEA8E33C8
:1011E0004CEA0B0458BF2CEA0B04C8F88440D8F82A
:1011F00080C05FEACE334CEA0B0458BF2CEA0B04E4
:10120000C8F8804050E702B0BDE8F08F00690840A0
:1012100018BF0120704700001823002A08BF2823A8
:10122000C150704740F25C50C2F200000068704745
:1012300040F2000040F25C51C2F20000C2F2000134
:1012400000780A68104408607047000080B50320E9
:1012500000F086F801F0FEFA40F62041C4F20241A7
:10126000096847F2D87201F00F01C0F60002515C24
:10127000C84040F20801C2F2000108600F2000F0EF
:1012800009F800281CBF012080BD00F02BF80020C9
:1012900080BD000070B540F20006C2F20006317851
:1012A000002904BF012070BD044640F20800C2F2CC
:1012B00000004FF47A720068B2FBF1F1B0FBF1F07C
:1012C00002F08EFA0F2C4FF0010508D838B94FF014
:1012D000FF3021460022002500F016F874602846F1
:1012E00070BD000070470000002848BF704700F044
:1012F0001F01012202FA01F14EF200124009CEF262
:10130000000242F82010704710B54EF60C5CCEF289
:10131000000CDCF80030C3F3022E8EF00704042C1E
:1013200028BF0424BEF103034FF0FF3E38BF002363
:101330000EFA04F4A14399400EFA03F39A4300F025
:101340000F03043B1143634409010C3300F1604275
:10135000B0F1FF3FC8BF02F56443197010BD000033
:101360004EF60C51CEF200010A684FF6FF031A4008
:1013700060F30A2242F0806040F0FD700860704720
:1013800010B540F6284CC4F2024CDCF80CE0DCF856
:101390000010DCF80030C3F30523DCF80020DCF893
:1013A000104002F01002C4F3CC0404FB02F200EE81
:1013B000102AB8EE400A8BB301F0030103296FF342
:1013C0005F2E30D0022933D001295CF8281C49F265
:1013D0000002C1F3C101C0F2D03222FA01F101EEE4
:1013E000101A02EE103AB8EE411AB8EE422A9FEDFA
:1013F0004D3A81EE021A02EE10EA20EE030AB8EE30
:10140000422A30EE020AB7EE002A30EE022A5CF8D9
:10141000281C22EE010A89012AD525E00021C0E915
:101420000011816010BD01EE103A9FED3D2A03E0EE
:1014300001EE103A9FED3C2AB8EE411A82EE012AE5
:1014400001EE10EA9FED373AB8EE411A20EE030A9A
:1014500030EE010AB7EE001A30EE011A5CF8281CD3
:1014600022EE010A890103D5DCF80010C90306D475
:10147000002101605CF8281C890117D41AE0DCF80F
:101480000C10B7EE002AC1F3462101EE101AB8EE97
:10149000411A31EE021A80EE011ABCEEC11A11EEA9
:1014A000101A01605CF8281C890103D5DCF80010D3
:1014B000890301D4002111E0DCF80C10B7EE002AFA
:1014C000C1F3064101EE101AB8EE411A31EE021ACC
:1014D00080EE011ABCEEC11A11EE101A41605CF8E0
:1014E000281C890144BFDCF800105FEA413102D4B6
:1014F0000021816010BDDCF80C10B7EE002AC1F3AA
:10150000066101EE101AB8EE411A31EE021A80EEB1
:10151000010ABCEEC00A10EE101A816010BD00BFB7
:101520000024F44A000000390024744A10B540F643
:101530002C4CC4F2024CDCF810E0DCF80010DCF8B3
:101540000030C3F30523DCF80020DCF8144002F07F
:101550001002C4F3CC0404FB02F200EE102AB8EE31
:10156000400A8BB301F0030103296FF35F2E30D0E3
:10157000022933D001295CF82C1C49F20002C1F386
:10158000C101C0F2D03222FA01F101EE101A02EECE
:10159000103AB8EE411AB8EE422A9FED4D3A81EE6C
:1015A000021A02EE10EA20EE030AB8EE422A30EEEA
:1015B000020AB7EE002A30EE022A5CF82C1C22EE5A
:1015C000010A09012AD525E00021C0E90011816046
:1015D00010BD01EE103A9FED3D2A03E001EE103AF6
:1015E0009FED3C2AB8EE411A82EE012A01EE10EA84
:1015F0009FED373AB8EE411A20EE030A30EE010AA9
:10160000B7EE001A30EE011A5CF82C1C22EE010A2B
:10161000090103D5DCF80010C90306D400210160DC
:101620005CF82C1C090117D41AE0DCF81010B7EE96
:10163000002AC1F3462101EE101AB8EE411A31EE2C
:10164000021A80EE011ABCEEC11A11EE101A0160E6
:101650005CF82C1C090103D5DCF80010890301D4C7
:10166000002111E0DCF81010B7EE002AC1F30641AA
:1016700001EE101AB8EE411A31EE021A80EE011A8C
:10168000BCEEC11A11EE101A41605CF82C1C090165
:1016900044BFDCF800105FEA413102D400218160D0
:1016A00010BDDCF81010B7EE002AC1F3066101EEA0
:1016B000101AB8EE411A31EE021A80EE010ABCEEA1
:1016C000C00A10EE101A816010BD00BF0024F44A59
:1016D000000000390024744A80B584B04FF6FF73CF
:1016E0000246C0F21F0300209B1A70EB010347DA89
:1016F0006FF060439B1A70EB0103C0F286806FF0BD
:101700007C439B1A4FF000038B4180F2D78082F01C
:1017100080630B4300F0908182F000630B4300F084
:10172000A08182F08052114340F0A48240F6004133
:10173000C4F20241D1F8E000C0F3C202042A00F270
:10174000C08248F20000C0F2BB00DFE812F0C9021C
:101750008D02BA0293020500D1F8E8000B6810F080
:101760004042086803D113F0020340F02D83B2F128
:10177000804F40F0518310F4007040F047834BE3FA
:1017800041F6FF739B1A70EB010363DA4FF6FF73A8
:101790009B1A4FF000038B4180F2D28082F4803399
:1017A0000B4300F0888182F400330B4300F09F81EB
:1017B00082F48022114340F05D8240F60041C4F281
:1017C0000241D1F8DC00C0F302320020052A00F209
:1017D0005182DFE812F06C0249024F029B02A30221
:1017E0000600D1F8E8000B6810F04042086803D109
:1017F00013F0020340F0E882B2F1804F40F00C8316
:1018000010F4007040F0028306E30F2940F3C78014
:1018100081F01003134300F0828181F400731343BD
:1018200000F09B8181F48051114340F0238240F607
:101830000041C4F20241D1F8E40000F04060B0F190
:10184000806F00F0F881002800F065810A68B0F12F
:10185000006F42E1D2F103034FF000038B41C0F26D
:10186000BD8082F001030B4300F08B8182F0020205
:10187000114340F0FF8140F60040C4F20240D0F82E
:10188000D81011F0380100F012820268082903D143
:1018900012F0006240F0188203680268182903D130
:1018A00013F0020340F00082202903D112F40072E9
:1018B00040F0AC82D0F8F000282999E282F40013BD
:1018C0000B4300F0818182F00072114340F0D2811D
:1018D00040F60041C4F20241D1F8F000D1F8F02006
:1018E00000F44070B0F5807F03D112F0020240F0A6
:1018F0004481D1F8F020B0F5007F06D112F00062EB
:101900001EBF4FF4FA4004B080BD0A68B0F5407FB6
:101910004FF0000040F0AE8112F4003200F0AA81D6
:10192000C86910F4785F00F0CC81C86941F20021E9
:10193000C0F30520C0F27A01B1FBF0F004B080BD25
:1019400082F400530B4300F0538182F48042114330
:1019500040F0908140F60040C4F20240D0F8E4101C
:1019600001F44021B1F5802F00F06581002900F0DD
:101970009E8102680068B1F5002F03D112F00202C7
:1019800040F0228210F400701CBF40F60010C0F23C
:101990003D00B1F5402F18BF002004B080BD82F09B
:1019A00000530B4300F04D8181F00401114340F0DE
:1019B000618140F60041C4F20241D1F8E8000968B3
:1019C00010F4407040F0778111F4003100F0738121
:1019D00041F20020C0F27A0004B080BD82F004031E
:1019E0000B4300F0498182F48052114340F0428160
:1019F00040F60040C4F20240D0F8E01001F0E0618F
:101A0000B1F1807F00F06081002900F084800368DC
:101A10000268B1F1407F03D113F0020340F044812A
:101A2000B1F1806F03D112F4007240F0EF81D0F871
:101A3000F000B1F1A06FDBE140F60040C4F20240DB
:101A4000D0F8E810026811F0300140F0438112F440
:101A5000005200F03F8146F60040C0F2DC2004B0A6
:101A600080BD40F60041C4F20241D1F8E00000F030
:101A70000702042A00F2258148F20000C0F2BB00F0
:101A8000DFE812F02E01F2001F01F8000500D1F886
:101A9000E8000B6810F04042086803D113F002031D
:101AA00040F09281B2F1804F40F0B68110F40070A6
:101AB00040F0AC81B0E140F60041C4F20241D1F8FF
:101AC000E40000F04070B0F1807F00F0B4800028A6
:101AD00000F0ED800A68B0F1007F4FF0000040F0A8
:101AE000C98012F0020200F0C58008686CE140F67F
:101AF0000041C4F20241D1F8DC00C0F30222002010
:101B0000052A00F2B780DFE812F00600AF00B5004A
:101B100001010901550100F079FE04B080BD40F6D5
:101B20000040C4F20240D0F8E41001F03001102966
:101B300000F0D6800268202903D112F0006240F044
:101B4000C380006810F400501CBF46F60040C0F28D
:101B5000DC20302918BF00208CE040F60040C4F2A1
:101B60000240D0F8E810D0F8F02011F0080140F061
:101B7000BD8012F0020200F0B9804FF4004004B0C2
:101B800080BD40F60040C4F20240D0F8D81011F0F9
:101B9000070100F0B7800268012903D112F000624A
:101BA00040F0928003680268032903D113F0020316
:101BB00040F07A80042903D112F4007240F02681AB
:101BC000D0F8F000052913E140F60040C4F20240CD
:101BD000D0F8E81001F0070102292CD0012900F00B
:101BE000A680002940F0A78000F0B0FD04B080BDC1
:101BF00040F60040C4F20240D0F8E41001F4403155
:101C0000B1F5803F17D0002951D002680068B1F5C6
:101C1000003F03D112F0020240F0D68010F40070B1
:101C20001CBF40F60010C0F23D00B1F5403F18BFA8
:101C3000002004B080BD01A8FFF778FC039804B031
:101C400080BD40F60041C4F20241D1F8E000C0F38B
:101C50008212042A35D848F20000C0F2BB00DFE847
:101C600002F03F033009980001A8FFF75FFC0198DC
:101C700004B080BD04B080BD40F60040C4F2024014
:101C8000D0F8D81011F4E07111D00268402902D1C7
:101C900012F0006218D103680268C02940F09E80EB
:101CA00013F0020300F09A80C2F3C1008EE000F04E
:101CB00065FD04B080BDB0F5007F05D0B0F5807F34
:101CC0000ED0002004B080BD01A8FFF72FFC0298C1
:101CD00004B080BD0268102947D112F0007244D0D0
:101CE00001A8FFF74DFB029804B080BDD0F8F000CA
:101CF00010F0006018BF4FF4FA40002908BF0846F2
:101D000004B080BD00F05EFD04B080BDD1F8F000ED
:101D10004FF4004101EA803004B080BDD1F8F000FA
:101D20004FF4FA41000101EAE07004B080BD00F018
:101D300091FD04B080BD0268032903D112F4003282
:101D40007FF446AE02680068042902D112F0020254
:101D50003AD110F400701CBF40F60010C0F23D00F4
:101D6000052918BF002004B080BDD0F8F02020293C
:101D700003D112F002027FF400AFD0F8F00010F0AF
:101D8000006018BF4FF4FA40302918BF002004B09B
:101D900080BDD1F8E8000B6810F04042086802D11D
:101DA00013F0020310D1B2F1804F35D110F400705E
:101DB0002CD131E0D1F8E8000B6810F040420868FF
:101DC0001ED113F002031BD0C0F3C10049F2000181
:101DD000C0F2D03121FA00F004B080BDB1F5807FAF
:101DE00002D112F4007211D1D0F8F000B1F5A07F49
:101DF00000F002024FF0000008BF900304B080BD65
:101E0000B2F1804F08D110F4007005D040F60010F8
:101E1000C0F23D0004B080BD086810F400301CBF63
:101E200041F20020C0F27A00B2F1004F18BF00204A
:101E300004B080BD2DE9F0470446006840F628480C
:101E4000C101C4F2024807D5D8F8C010226B21F0B6
:101E500040411143C8F8C010C00714D0606BC11EC8
:101E6000032909D340B1012813D104F1080003F07C
:101E700045FA064640B9606BD8F8B01021F007016A
:101E80000843C8F8B00000262078800705D43546FE
:101E900021E0012620788007F9D5A06B6FF00201C0
:101EA00001EBF001354603290AD34FEAF00035462D
:101EB00030B1012830D104F1080003F01FFA0546C3
:101EC0002F464DB9D8F8B000A16B20F03800084378
:101ED0000025C8F8B00037462078400721D5E06BD0
:101EE0006FF0020101EBB011032909D34FEAB010E2
:101EF00030B1012836D104F1080003F0FFF905469E
:101F00002E467DB9D8F8B000E16B20F4E0700843AC
:101F10000025C8F8B00004E001250127207840071B
:101F2000DDD43E466078C00621D5206C6FF00201FA
:101F300001EB3061032909D34FEA306030B1012849
:101F40003CD104F1080003F0D9F905462F467DB9CC
:101F5000D8F8B800216C20F0E06008430025C8F8EC
:101F6000B80004E0012501266078C006DDD43746BC
:101F70006078800627D5606C6FF0010101EB30417D
:101F8000022909D34FEA304030B1012810D104F1C1
:101F9000080003F0B3F905462E465DB9D8F8BC0039
:101FA000616C20F4403008430025C8F8BC000AE00A
:101FB000012501266078400609D424E00125012787
:101FC00060788006D7D43E46607840061BD5A06C6A
:101FD0006FF0010101EBB041022909D34FEAB04093
:101FE00030B1012830D104F1080003F087F905462B
:101FF0002F464DB9D8F8BC00A16C20F4402008430E
:102000000025C8F8BC003746A078C00721D0E06C96
:10201000002818BFB0F1007F0BD12E46D5B9D8F8F3
:10202000BC00E16C20F0407008430025C8F8BC00FB
:102030000FE0B0F1807F2DD104F1080003F05EF9CC
:1020400005462E4635B9EAE701250127A078C007E5
:10205000DDD13E466079C00621D5206D002818BF2D
:10206000B0F1006F0BD12F46D5B9D8F8BC00216D67
:1020700020F0406008430025C8F8BC000FE0B0F134
:10208000806F61D104F1080003F038F905462F464E
:1020900035B9EAE7012501266079C006DDD4374667
:1020A000D4E9000140F61C4AC4F2024A09050CD5E5
:1020B000DAF8001021F40041CAF80010D4F88010BA
:1020C000DAF800201143CAF8001080031BD5606DB8
:1020D0006FF0020101EB3021032909D34FEA3020D0
:1020E00030B1012833D104F1080003F007F90546A7
:1020F0002E464DB9D8F8B400616D20F4E060084375
:102100000025C8F8B4003E46A078400724D5A06D4D
:102110006FF0020101EB3031032909D34FEA30306F
:1021200030B1012828D104F1080003F0E7F8054692
:102130002F4695B9D8F8B400A16D20F4E0400843CB
:102140000025C8F8B40007E001250127A8E701250C
:102150000126A0784007DAD43746A078800610D54B
:10216000606E052828D802282DD029469DB3D4E9D1
:10217000000292050AD43CE001250127A0788006E0
:10218000EED43946D4E90002920532D5A26E42F06F
:102190000803082B0AD1A9465DB9D8F8C03000253C
:1021A00023F008031A43C8F8C02022E001254FF0AD
:1021B0000109800120D47AE001250121D4E900023F
:1021C0009205E3D415E004F1080003F097F8054602
:1021D000002D2946CBD1D8F8C000616E20F0070051
:1021E00008430025C8F8C0003946D4E9000292052A
:1021F000CCD4894680015AD54FF60847CFF6FF77F1
:102200005AF8070040F001004AF80700FFF70AF803
:10221000064600BF5AF80700C00707D1FFF702F8CB
:10222000801B0228F6D90325032041E0002D284613
:102230003ED1D8F8C80010F4407017D0A16F884282
:1022400011D0D8F8C800D8F8C81020F4407041F474
:102250008031C8F8C810D8F8C81021F48031C8F807
:10226000C810C8F8C800C00740F02A81A06FDAF88B
:1022700000104FF6CF7300F4407221F47C51C0F28D
:10228000FF0303EA1013B2F5407F08BF1943CAF8F1
:102290000010D8F8C8106FF31F3021F44071C8F84F
:1022A000C810D8F8C81000250843C8F8C800484628
:1022B00021684A011BD5226E6FF0010303EB321334
:1022C000022B0AD34FEA32133BB1012B2ED1D8F89F
:1022D000003043F40033C8F800302F4645B9D8F831
:1022E000C030002523F030031A43C8F8C020074649
:1022F00008011FD5E06EC11E02290BD3012800F092
:10230000B880002840F0BF80D8F8000040F40030CA
:10231000C8F800002E4675B9D8F8B800E16E20F074
:10232000070008430025C8F8B80003E0012501278D
:102330000801DFD43E46E078C0061FD5206F6FF05D
:10234000020101EBF00102290DD34FEAF000012850
:1023500000F09C80002840F0A380D8F8000040F4F2
:102360000030C8F800002F464DB9D8F8B800216FEA
:1023700020F0380008430025C8F8B8003746E07858
:1023800080061FD5606F6FF0020101EBB0110229CA
:102390000DD34FEAB010012800F08580002840F0EE
:1023A0008C80D8F8000040F40030C8F800002E46B9
:1023B0004DB9D8F8B800616F20F4E07008430025EB
:1023C000C8F8B8003E462079400720D5E06D58B1E6
:1023D000B0F5007F0BD0B0F5807F47D1D8F8000072
:1023E00040F40030C8F800002F468DB906E004F133
:1023F000080002F083FF05462F464DB9D8F8C0000B
:10240000E16D20F4407008430025C8F8C00037464D
:102410002079C0065CBF3846BDE8F087E06F302801
:102420000DD020280FD010281EBF01252846BDE85A
:10243000F087D8F8000040F40030C8F800004DB133
:102440002846BDE8F08704F1080002F057FF054672
:10245000002DF5D1D8F8BC00E16F20F03000084322
:102460003D46C8F8BC002846BDE8F0870125012795
:10247000CEE704F1080002F041FF0546002D2E468C
:102480007FF459AF48E70125012654E704F108001D
:1024900002F034FF0546002D2F467FF470AF64E74D
:1024A000012501276BE704F1080002F027FF05462C
:1024B000002D2E467FF487AF7BE70125012682E7BA
:1024C000FEF7B0FE064641F288370325D8F8C8006B
:1024D00080073FF5CBAEFEF7A5FE801BB8424FF05C
:1024E0000300F3D9E4E600002DE9F04381B00028B1
:1024F00000F0CA8042F20008C4F202080446D8F88C
:1025000000000D4600F00F0088420DD2D8F8000000
:1025100020F00F002843C8F80000D8F8000000F0B1
:102520000F00A84240F0B080206840F62047C10666
:10253000C4F202470CD561693A68702303EA12229B
:10254000914205D93A6822F4E04242EA0121396019
:1025500001070CD521693A68702303EA12129142EF
:1025600005D93A6822F4E06242EA01113960410774
:102570000AD5E1683A6802F07002914204D93A68DB
:1025800022F070021143396081070AD5A1683A68C8
:1025900002F00F02914204D93A6822F00F0211436F
:1025A0003960C00767D1206881070AD5A1683A68F9
:1025B00002F00F02914204D23A6822F00F02114356
:1025C0003960D8F8001001F00F01A9420CD9D8F8F1
:1025D000001021F00F012943C8F80010D8F80010AE
:1025E00001F00F01A9424FD141070AD5E1683A68CD
:1025F00002F07002914204D23A6822F07002114354
:10260000396001070CD521693A68702303EA121278
:10261000914205D23A6822F4E06242EA011139603F
:10262000C0060CD560693968702202EA112188421F
:1026300005D2396821F4E04141EA0020386000F019
:1026400009F9396847F2D87201F00F01C0F60002AB
:10265000525C40F20401C2F20001096840F2080332
:1026600020FA02F2C2F2000308461A6001B0BDE887
:10267000F043FEF70FBE6068022809D003285BD143
:1026800057F8201C890107D4012001B0BDE8F08370
:1026900057F8201C8903F7D557F8041C21F00301D3
:1026A000084347F8040CFEF7BDFD616806460329A0
:1026B00041F288392BD0022937D0012910D100BF2F
:1026C00057F8040C00F0180008283FF46CAFFEF730
:1026D000A9FD801B48454FF00300F1D90DE000BF74
:1026E00057F8040C10F0180F3FF45DAFFEF79AFD99
:1026F000801B48454FF00300F2D901B0BDE8F083DC
:10270000FEF790FD801B48454FF00300F5D857F8C1
:10271000040C00F018001828F2D144E7FEF782FDFF
:10272000801B48454FF00300E7D857F8040C00F031
:1027300018001028F2D136E757F8201C012802D1E2
:102740008905A1D5A8E789079ED5A5E780B500F042
:1027500081F840F62041C4F20241096847F2D8727C
:1027600001F00F01C0F60002515C01F01F01C840EA
:1027700040F20801C2F20001086080BD80B500F09F
:1027800069F840F62041C4F202410A6847F2D87362
:1027900002F00F02C0F600039A5C02F01F02D04064
:1027A00040F20802C2F200021060096847F2E872C3
:1027B000C1F30211C0F60002515C01F01F01C840D4
:1027C00080BD000080B500F045F840F62041C4F21D
:1027D00002410A6847F2D87302F00F02C0F6000304
:1027E0009A5C02F01F02D04040F20802C2F20002DE
:1027F0001060096847F2E872C1F30221C0F60002D6
:10280000515C01F01F01C84080BD000080B500F0A0
:1028100021F840F62041C4F202410A6847F2D87319
:1028200002F00F02C0F600039A5C02F01F02D040D3
:1028300040F20802C2F200021060096847F2E87232
:10284000C1F30231C0F60002515C01F01F01C84023
:1028500080BD000080B540F60041C4F20241C86965
:1028600000F01800082802BF40F60010C0F23D003A
:1028700080BDC86910F0180F34D0C86900F0180086
:10288000102802BF41F20020C0F27A0080BDC86962
:1028900000F01800182849F20000C0F2D03063D1CF
:1028A000D1F828E08A6AC2F3052C8A6ABCF1000FCD
:1028B000C2F300128B6BC3F3CC0303FB02F200EEF6
:1028C000102AB8EE400A04BF002080BD0EF00303BA
:1028D000032B14D0012B15D10A68920615D49FED55
:1028E000241A1AE00868800649F20000C0F2D030CD
:1028F00058BF80BD0968C1F3C101C84080BD9FEDCC
:102900001B1A0AE09FED1B1A07E00A68C2F3C10216
:10291000D04001EE100AB8EE411A02EE10CA9FED47
:10292000163AB8EE422A486B81EE021A6FF35F2026
:1029300002EE100A20EE030AB8EE422A486B30EE8F
:10294000020AB7EE002AC0F3462030EE020A013038
:1029500021EE000A01EE100AB8EE411A80EE010ADB
:10296000BCEEC00A10EE100A80BD00BF0024F44A7D
:102970000024744C0024744A000000392DE9F0430F
:1029800081B0002800F0388140F6004740F6F04959
:102990000446C4F20247C4F20249F86959F8C81C57
:1029A000227800F01808D00601F0030628D5B8F107
:1029B000080F1AD0B8F1180F08BF022E15D0E16920
:1029C0003868002900F0938140F480703860FEF789
:1029D00029FC0546386880050BD4FEF723FC401B14
:1029E00002284FF00300F5D948E2E069002800F022
:1029F0000381B869216A20F47C1040EA0140B86183
:102A00002078C00731D0B8F1100F2AD0B8F1180FD4
:102A100008BF032E25D06568B5F5A02F00F0C08152
:102A2000B5F5803F00F0CF81002D40F0C1813868BE
:102A300020F480303860386820F4801038603868BE
:102A400020F480203860FEF7EDFB054638688003EF
:102A50000BD5FEF7E7FB401B64284FF00300F5D9C8
:102A60000CE26068002800F0C7802078800765D5F8
:102A7000B8F1000F21D0B8F1180F08BF012E1CD0FB
:102A8000E1683868002900F06781216920F01800AA
:102A900008433860386840F001003860FEF7C2FB38
:102AA000054600BF3868800741D4FEF7BBFB401BDA
:102AB00002284FF00300F5D9E0E1E068002800F0BB
:102AC0009B80B8F1000F26D13968206901F0180108
:102AD000814220D0396821F0180108433860FFF79F
:102AE000B9FE396A47F2D87201F00F01C0F6000250
:102AF000515C40F2080201F01F0120FA01F140F29E
:102B00000400C2F200000068C2F200021160FEF789
:102B1000C1FB002870D1FEF785FB054638688007A9
:102B200005D4FEF77FFB401B0228F7D97DE038690A
:102B3000616920F4FE0040EA014038612078000716
:102B40005ED42078400774D42078800600F1A380FA
:102B5000A56A002D00F01F82B8F1180F40F0DA804E
:102B600059F8C81C59F8BC0C012D45D0E26A01F097
:102B70000303934240D1C1F30521226B91423BD123
:102B8000626B01466FF35F21013A914234D1C0F389
:102B90004621A26B013A91422ED1C0F30641E26B6D
:102BA000013A914228D1C0F30660216C0139884274
:102BB00022D159F8B80CC0F3CC00E16C884200F087
:102BC000EA8159F8C80C20F0100049F8C80CFEF74B
:102BD00029FB0546FEF726FBA842FBD0E06CC000AF
:102BE00049F8B80C59F8C80C40F0100049F8C80C66
:102BF000002001B0BDE8F083012001B0BDE8F08302
:102C0000A169D9F8000000295CD040F08060C9F8C3
:102C10000000FEF707FB0546D9F80000000190D43C
:102C2000FEF700FB401B0228F6D9032001B0BDE8E7
:102C3000F0834FF62446CFF6FF76B859C00712D17D
:102C4000B85940F00100B851FEF7ECFA054600BF54
:102C5000B859C00707D1FEF7E5FA401B02284FF02C
:102C60000300F5D90AE1A068002800F0BF8005281C
:102C700000F0E180012800F0EA80D9F800108528F2
:102C800040F0108141F00400C9F80000D9F80000BC
:102C900040F08000D9E0616A386800296ED040F4C5
:102CA00080503860FEF7BEFA054600BF38688004E1
:102CB0003FF54EAFFEF7B6FA401B02284FF0030077
:102CC000F4D9DBE020F08060C9F80000FEF7AAFA32
:102CD000054600BFD9F8000000017FF532AFFEF7CE
:102CE000A1FA401B02284FF00300F3D9C6E020F4FC
:102CF00080703860FEF796FA054600BF3868800598
:102D00007FF57EAEFEF78EFA401B02284FF00300DF
:102D1000F4D9B3E0386820F080703860FEF782FAAA
:102D2000022D05460CD100BF3868800140F1C980F2
:102D3000FEF778FA401B02284FF00300F4D99DE01B
:102D40003868800140F11E81FEF76CFA401B0228B2
:102D50004FF00300F4D991E020F001003860FEF755
:102D600061FA0546386880077FF5E8AEFEF75AFA43
:102D7000401B02284FF00300F4D97FE020F480507C
:102D80003860FEF74FFA0546386880047FF5E0AEFC
:102D9000FEF748FA401B02284FF00300F4D96DE01B
:102DA000386840F480203860386820F4801009E0EA
:102DB0003868B5F5A81F64D140F4802038603868C1
:102DC00040F480103860386840F480303860FEF796
:102DD00029FA0546386880033FF547AEFEF722FA28
:102DE000401B64284FF00300F4D947E0D9F80000F5
:102DF00020F00100C9F80000D9F8000020F08000A0
:102E0000C9F80000D9F8000020F00400C9F800005B
:102E1000FEF708FA054641F2883600BFD9F80000EF
:102E200080077FF591AEFEF7FDF9401BB0424FF0F1
:102E30000300F3D922E0D9F8000040F00400C9F8FB
:102E40000000D9F8000020F08000C9F80000D9F88F
:102E5000000040F00100C9F80000FEF7E3F9054664
:102E600041F28836D9F8000080073FF56DAEFEF7D5
:102E7000D9F9401BB0424FF00300F3D901B0BDE8CF
:102E8000F08320F480303860386820F48020386087
:102E9000386820F480103860FEF7C4F9002D05462C
:102EA00098D1D3E521F00100C9F80000D9F800005D
:102EB00020F00400C9F80000D9F8000020F08000DC
:102EC000C9E759F8C80C43F6037104F12C03884391
:102ED0000ECB084340EA0220A16B49F8C80C4FF41E
:102EE0007E4202EB4121E26B581E4FF4FE0389B291
:102EF00003EB02426FF35F20084402F4FE01226CF0
:102F00004FF0FE4303EB0262084402F0FE41084426
:102F100049F8BC0C59F8C80C20F0100049F8C80C4E
:102F2000E06CC00049F8B80C59F8C80C40F010002B
:102F300049F8C80C59F8C80C616C20F00C00084323
:102F400049F8C80C59F8C80CA16C20F020000843BF
:102F500049F8C80C59F8C80C40F4803049F8C80C3E
:102F6000386840F080703860FEF75CF904463868D5
:102F7000800110D4FEF756F9001B02284FF0030021
:102F8000F5D97BE759F8C80C4FF6FC71CFF6F8710C
:102F9000084049F8C80C002001B0BDE8F0830000EB
:102FA00090F8890070470000F0B581B048B304463E
:102FB00021680020E268A0624FF0010019B90F2AD1
:102FC00001D901B0F0BDE36B083200EB5313D20816
:102FD00003FB02F209B9082AF3D843F60000C4F251
:102FE000000081420BD043F20000C4F20100814294
:102FF00005D043F60040C4F20000814204D1102AFB
:1030000002D9012001B0F0BD94F8890030B9002048
:1030100084F88800204600F06FF82168022084F8C8
:103020008900086820F0010008608B68A769626861
:10303000B7F1806F03F4F81C0ED12AB1B2F5800FFE
:103040000AD1A36B73B903E0A36BB3F1805F05D121
:103050000B6843F480530B60530203D4E3684FF0D2
:10306000010E0DE0E368072B08D3D1F800E0266DD0
:103070002EF4807535434FF0000E04E04FF0000E43
:103080000D6825F480750D60E569A66A45EA0C05B2
:10309000E06B2E4330431843A56826696369886056
:1030A000606B3A43676A1043A26B38431043304366
:1030B000226A1843E36C10431843A26C2843A36DA3
:1030C0001043E26D1843236E10431843C860086D27
:1030D000BEF1000F20F00100086505D1C868626DDF
:1030E00020F000401043C86000200121C4F88C008B
:1030F00084F8891001B0F0BDB0B5AAB0044600252F
:1031000002A888212995CDE92755CDE92555FDF758
:10311000AFF9206843F20001C4F20101884201D0F6
:103120002AB0B0BD4FF00060029002A803951D9533
:10313000FEF780FE002818BFFDF706FA40F68C4027
:10314000C4F20240816941F480518161816901F4D6
:10315000805101910199016841F00101016000680D
:1031600025A900F0010001900198E020259002209F
:1031700026900020CDE92700052029900020C4F2E8
:103180000220FDF777FF2AB0B0BD00002DE9F04323
:1031900081B0044690F8880001281BD0D4F8009034
:1031A00001201D4617460E4684F88800FEF73AF8BF
:1031B00094F8891001290AD1002E18BF002F0DD1D3
:1031C000002084F88800012001B0BDE8F0830020D1
:1031D00084F88800022001B0BDE8F0838046042016
:1031E000002184F88900C4F88C10E666A4F8707099
:1031F000A4F872706166A4F86810A4F86A10A06858
:10320000A167B0F5C02F2068E16704D1016821F4FF
:103210000061016004E0C168022262F35241C160B2
:1032200041684FF6FF72914339444160016841F0B3
:10323000010101606168B1F5800F03D1016841F4BB
:1032400000710160E268102A39D343F60001C4F22C
:10325000000188420BD043F60041C4F200018842CD
:1032600005D043F20001C4F20101884268D1B4F8EC
:103270007210002900F09D80691C00F0BE8048F2A9
:103280000806416931420AD0006BE16E41F8040B37
:10329000E166B4F872000138A4F8720006E0FDF7A8
:1032A000C1FFA0EB0800A84280F09480B4F872003F
:1032B00000287ED0206841693142E5D1EFE7B4F8BB
:1032C0007210072A3ED8002973D0691C24D04169A6
:1032D000C90706D1FDF7A6FFA0EB0800A8420CD352
:1032E00078E090F83000E16E0870E06E0130E06642
:1032F000B4F872000138A4F87200B4F87200002823
:1033000057D020684169C907E4D0EAE7FDF78AFF92
:10331000B4F8720090B94CE04169C907F6D090F852
:103320003000E16E0870E06E0130E066B4F87200C3
:103330000138A4F87200B4F87200D0B32068EBE74B
:10334000B4F87210A9B3691C1ED000BF4069C00751
:1033500006D1FDF767FFA0EB0800A8420BD339E0C8
:10336000B9F83000E16E21F8020BE166B4F87200A2
:103370000138A4F87200B4F87200D0B12068406936
:10338000C007E6D0ECE720684069C00702D1FDF72E
:1033900049FF0AE0B9F83000E16E21F8020BE1665E
:1033A000B4F872000138A4F87200B4F87200002872
:1033B000E9D1204602F08AF8002084F88800012034
:1033C00084F88900D4F88C00002818BF012001B0CF
:1033D000BDE8F083204602F079F8002084F88800E8
:1033E000D4F88C0040F48070C4F88C00012084F87C
:1033F0008900032001B0BDE8F08348F20805416967
:1034000029420DD0006BE16E41F8040BE166B4F87F
:1034100072000138A4F87200B4F8720030B9C8E73D
:10342000FDF700FFB4F872000028C2D0206841699F
:103430002942E7D1F4E700002DE9F04381B00446CA
:1034400090F8880001281BD0D4F8009001201D4678
:1034500017460E4684F88800FDF7E4FE94F88910BC
:1034600001290AD1002E18BF002F0DD1002084F8A9
:103470008800012001B0BDE8F083002084F88800B6
:10348000022001B0BDE8F08380460320002184F8CB
:103490008900C4F88C106666A4F86870A4F86A7095
:1034A000E166A4F87010A4F87210A068A167B0F5E6
:1034B000C02F2068E16704D10168024641F4006131
:1034C00005E0024652F80C1F012363F352411160DC
:1034D00041684FF6FF72914339444160016841F001
:1034E000010101606168B1F5800F03D1016841F409
:1034F00000710160E268102A52D343F60001C4F261
:10350000000188420CD043F60041C4F20001884219
:1035100006D043F20001C4F20101884240F0C480A9
:10352000B4F86A10002900F01C81691C24D000BF87
:103530004169890706D4FDF775FEA0EB0800A84293
:103540000AD33AE1616E51F8042B02626166B4F865
:103550006A000138A4F86A00B4F86A00002800F094
:103560000081206841698907E5D5EBE7FDF75AFE40
:10357000B4F86A0090B9F4E041698907F6D5616E44
:1035800051F8042B02626166B4F86A000138A4F8AD
:103590006A00B4F86A00002800F0E3802068EBE7D6
:1035A000B4F86A10072A00F28180002900F0D9805F
:1035B000691C42D04FF6FE718E1E4F1C416989076F
:1035C00006D4FDF72FFEA0EB0800A8422AD3F4E0B2
:1035D000B4F86A10042909D3E16B402906D9616E59
:1035E00051F8042B02623046616616E0B4F86A10A6
:1035F00002290AD3E16B41B1606E30F8021BA9F8D1
:10360000201060664FF6FE7007E0616E097880F862
:103610002010606E013060663846B4F86A100844C5
:10362000A4F86A00B4F86A00002800F09A802068C4
:1036300041698907CCD4C4E720684169890702D46D
:10364000FDF7F0FD2BE0B4F86A1004290BD3E16B11
:10365000412908D3616E51F8042B02626166B4F807
:103660006A00043819E0B4F86A1002290BD3E16B40
:1036700049B1606E30F8021BA9F820106066B4F8FA
:103680006A00023809E0616E097880F82010606EE7
:1036900001306066B4F86A000138A4F86A00B4F832
:1036A0006A000028C8D15CE0B4F86A10002958D03C
:1036B000691C34D04FF6FE714E1C4169890706D44F
:1036C000FDF7B0FDA0EB0800A8421AD375E0B4F8EE
:1036D0006A10022909D3E16B39B1616E51F8042BEC
:1036E00002624FF6FE70616606E0606E30F8021B03
:1036F000A9F8201060663046B4F86A100844A4F8AF
:103700006A00B4F86A0060B3206841698907DED4B2
:10371000D6E7FDF787FDB4F86A0000BB21E04169F8
:103720008907F6D5B4F86A1002290AD3E16B41B1D2
:10373000616E51F8042B02626166B4F86A000238C7
:1037400008E0606E30F8021BA9F820106066B4F83B
:103750006A000138A4F86A00B4F86A0008B1206869
:10376000DDE7681C14D000BF20684069000713D44F
:10377000FDF758FDA0EB0800A842F5D3D4F88C0063
:1037800040F02000C4F88C0006E000BFFDF74AFDC1
:10379000206840690007F9D5204601F097FE002017
:1037A00084F88800012084F88900D4F88C0000286F
:1037B00018BF012001B0BDE8F083204601F086FE6D
:1037C000002084F88800D4F88C0040F48070C4F89D
:1037D0008C00012084F88900032001B0BDE8F0834B
:1037E000411E0020B0EB116F1CBF012070474EF24C
:1037F0001002CEF2000251604EF62351CEF20001CB
:10380000F0230B700721906011607047B0B590F8FD
:103810003C20012A4FF0020231D0012380F83C30D5
:1038200080F83D20026842F6004C5368D2F808E068
:10383000C4F2010C624503D14C6823F470032343A6
:103840004FF68F74CFF6FF540D6823402B43B2F12F
:10385000804F536018BF624505D189682EF0800300
:103860001943916005E040F20043C4F200039A421C
:10387000F3D00121002280F83D1080F83C20104652
:10388000B0BD0000002804BF0120704710B50446F9
:1038900090F83D0028B9002084F83C00204600F054
:1038A00055F8022084F83D00206842F6004C02687A
:1038B000B0F1804FC4F2010C18BF604504D1A36879
:1038C00022F070021A4305E040F20043C4F2000304
:1038D0009842F4D0B0F1804F18BF604504D12369FD
:1038E00022F440721A4305E040F20043C4F20003A0
:1038F0009842F4D0A16922F08002D4F804E0E36891
:10390000114360450160C362C0F828E002D16169DB
:10391000CCF8301001214161002084F8481084F86F
:103920003E1084F83F1084F8401084F8411084F869
:10393000421084F8431084F8441084F8451084F849
:10394000461084F8471084F83D1010BD82B000681E
:1039500040F20041C4F20001884211D0B0F1804F22
:103960001BD140F69C40C4F20240016841F00101C5
:103970000160006800F001000190019802B07047FA
:1039800040F69C40C4F20240016841F0020101602F
:10399000006800F002000090009802B0704700003C
:1039A00080B590F83C20012A4FF0020200F09C8084
:1039B000012380F83C3080F83D20D0F800C08822F8
:1039C000DCF80830CFF6CE721A40CCF808200B682D
:1039D000B3F5005F0FDB3F22C0F21002934217DC09
:1039E000B3F1101F2EDB6CD02021C0F210018B42EE
:1039F00067D030215CE03F2B1DDD5F2B2ADD602B83
:103A000074D0702B00F09480B3F5805F65D0D7E060
:103A10005F21C0F210018B4244DD6021C0F2100131
:103A20008B424ED07021C0F210018B4218BFB3F50B
:103A3000001F46D0C4E01F2B3FDC002B41D0102BD1
:103A40003FD0BDE0B3F5005F00F08580B3F5801F87
:103A500037D0B5E0402B00F09180502B40F0B08083
:103A6000D1F804E0C968DCF82030DCF8202022F02E
:103A70000102CCF82020DCF8182022F0F00242EA03
:103A8000011123F00A0242EA0E02CCF81810CCF819
:103A90002020DCF808104FF68872CFF6CF72114064
:103AA000573118E04021C0F210018B4209D050215B
:103AB000C0F210018B4204D082E0202B01D0302BC9
:103AC0007ED1DCF808104FF68872CFF6CF72114025
:103AD000194341F00701CCF808100022012180F8B9
:103AE0003D10002180F83C10104680BDD1F804E064
:103AF000C968DCF82030DCF8202022F01002CCF875
:103B00002020DCF8182022F4704242EA013123F030
:103B1000A00242EA0E12CCF81810CCF82020DCF8F3
:103B200008104FF68872CFF6CF7211406731D2E796
:103B3000D1E901E3C968DCF8082043EA0E0343EA4F
:103B4000012122F47F421143CCF80810DCF8081060
:103B500041F07701BFE7D1E901E3C968DCF808204B
:103B600043EA0E0343EA012122F47F421143CCF8D9
:103B70000810DCF8081041F48041ACE7D1F804E00B
:103B8000C968DCF82030DCF8202022F00102CCF8F3
:103B90002020DCF8182022F0F00242EA011123F084
:103BA0000A0242EA0E02CCF81810CCF82020DCF809
:103BB00008104FF68872CFF6CF72114047318AE76E
:103BC00001228BE790F88410012904BF022070477E
:103BD0002421C0F8881002681168136823F00103DB
:103BE000136021F000530021416613602022C0F8C9
:103BF000882080F884100846704700007047000055
:103C000070470000B0B590F88420012A04BF02205C
:103C1000B0BD0123242280F88430C0F888200268D7
:103C2000D0F864E0D2F800C01468BEF1000F24F0B0
:103C300001041460946824F0606441EA0401916016
:103C400019D0916847F6080EC1F342619368C0F637
:103C5000000E5B0F47F610051EF80340C0F6000586
:103C6000EB5CE400B4FBF3F31EF80140695CE50093
:103C7000B5FBF1F100E00121A0F868102021A0F8C7
:103C80006A30C2F800C0C0F88810002180F88410A3
:103C90000846B0BDB0B590F88420012A04BF0220C8
:103CA000B0BD0123242280F88430C0F88820026847
:103CB000D0F864E0D2F800C01468BEF1000F24F020
:103CC00001041460946824F0604441EA04019160A6
:103CD00019D0916847F6080EC1F342619368C0F6A7
:103CE000000E5B0F47F610051EF80340C0F60005F6
:103CF000EB5CE400B4FBF3F31EF80140695CE50003
:103D0000B5FBF1F100E00121A0F868102021A0F836
:103D10006A30C2F800C0C0F88810002180F8841012
:103D20000846B0BD704700007047000070470000B3
:103D300070B501680446CA6940F62F000E68D1F8D4
:103D400008E0104020280BD106F020000EF0805330
:103D5000C01822D0616FC9B32046BDE87040084743
:103D600040F60F00024218D00120C1F200000EEA16
:103D7000000C40F22010C0F20040304010EB0C006C
:103D80000BD0D00718BF16F4807040F06381900705
:103D90000EF0010300F16A8171E1E06E06EA0203B0
:103DA000DD0614D5012812D110200862886840066B
:103DB00000F19B80B4F85C00B4F85E20B4F85E308B
:103DC000002B1CBF801A5FEA00422BD170BDD002CD
:103DD00040F124811EF4800000F020814FF4801215
:103DE00020460A62BDE87040FFF79EBF216851E897
:103DF000001F226821F4907142E80013DBB12168B2
:103E000051E8001F226821F4907142E8001393B139
:103E1000216851E8001F226821F4907142E80013E4
:103E20004BB1216851E8001F226821F4907142E8EB
:103E30000013002BDAD14FF6FE71CEF6FF7100BFF2
:103E4000226852E8022F23680A4043E80226C6B1DE
:103E5000226852E8022F23680A4043E8022686B10E
:103E6000226852E8022F23680A4043E8022646B13E
:103E7000226852E8022F23680A4043E80226002EF7
:103E8000DED12021C4F88C100021E166616700BFFB
:103E9000216851E8001F226821F0100142E8001358
:103EA000DBB1216851E8001F226821F0100142E8CF
:103EB000001393B1216851E8001F226821F010011E
:103EC00042E800134BB1216851E8001F226821F03D
:103ED000100142E80013002BDAD1022281B2204601
:103EE0002267BDE87040FFF789BED4F880201068D3
:103EF000836C9DB2002D3FF469AFB4F85C0085423D
:103F0000BFF464AFA4F85E30126D812A7BD051E813
:103F1000000F216820F4807041E80002CAB32068D5
:103F200050E8000F216820F4807041E8000282B35D
:103F3000206850E8000F216820F4807041E80002FA
:103F40003AB3206850E8000F216820F4807041E8FF
:103F50000002F2B1206850E8000FDAE7206850E86C
:103F6000020F216820F0010041E80202DAB1206866
:103F700050E8020F216820F0010041E8020292B1EE
:103F8000206850E8020F216820F0010041E8020299
:103F90004AB1206850E8020F216820F0010041E892
:103FA0000202002ADAD12020C4F88C000020E0664A
:103FB000206850E8000F216820F0100041E800025E
:103FC000DAB1206850E8000F216820F0100041E8C5
:103FD000000292B1206850E8000F216820F0100024
:103FE00041E800024AB1206850E8000F216820F043
:103FF000100041E80002002ADAD1D4F88000FCF772
:10400000ABFDB4F85C0002212167B4F85E10401AE1
:1040100081B22046BDE87040FFF7F0BD10060AD51A
:1040200006F080000EF40005401904D0A16F0029AD
:104030007FF492AECAE6580600F10281100240F108
:10404000388116F0804000F034812046BDE8704091
:10405000FFF768BE01200862D4F8900040F001002C
:10406000C4F8900090070EF0010308D53BB1022080
:104070000862D4F8900040F00400C4F890005007A3
:1040800008D53BB104200862D4F8900040F002004B
:10409000C4F8900010070CD506F0200050EA0C0080
:1040A00007D008200862D4F8900040F00800C4F857
:1040B000900010050BD516F0806008D04FF400601A
:1040C0000862D4F8900040F02000C4F89000D4F8C2
:1040D000900000283FF47AAE12F020001EBF06F0D8
:1040E00020000EF0805210EB020040F0DA80D4F88D
:1040F00090008A6800F0280002F04002801800F06A
:10410000988051E8000F00BF216820F4907041E8CA
:104110000002F2B1206850E8000F216820F490708E
:1041200041E80002AAB1206850E8000F216820F49D
:10413000907041E8000262B1206850E8000F2168E9
:1041400020F4907041E800021AB1206850E8000F96
:10415000DAE74FF6FE70CEF6FF7000BF216851E837
:10416000021F2268014042E80213C3B1216851E8EE
:10417000021F2268014042E8021383B1216851E81E
:10418000021F2268014042E8021343B1216851E84E
:10419000021F2268014042E80213002BDED1E06ECC
:1041A000012824D1206850E8000F216820F0100079
:1041B00041E80002DAB1206850E8000F216820F0E1
:1041C000100041E8000292B1206850E8000F216819
:1041D00020F0100041E800024AB1206850E8000FCA
:1041E000216820F0100041E80002002ADAD12020E6
:1041F000C4F88C000020E06621686067886840068B
:1042000012D5D4F8800078B145F6ED21C0F6000152
:10421000C166FCF7F7FC00283FF4D8ADD4F8800065
:10422000C16EBDE8704008472046BDE87040FFF70A
:104230007DBD2046FFF77AFD0020C4F8900070BDD8
:1042400051E8000F216820F0400041E80002F2B17F
:10425000206850E8000F216820F0400041E800028B
:10426000AAB1206850E8000F216820F0400041E822
:10427000000262B1206850E8000F216820F0400081
:1042800041E800021AB1206850E8000FDAE7202068
:104290000021C4F888002046A167BDE8704000F006
:1042A000D9BA626F002A3FF422AF204690472168B6
:1042B0001DE7D0017FF58AADB6F1FF3FC8BF70BDE5
:1042C0002046BDE87040FFF79BBC000010B5E0B190
:1042D0000446D0F8880028B9002084F884002046DD
:1042E00000F028F82420C4F888002068A16A026839
:1042F000002922F0010202601CBF204601F0CCFA26
:10430000204602F007F9012801D1012010BD2168E3
:10431000486820F490404860886820F02A0088604F
:10432000086840F0010220460A60BDE8104001F034
:1043300027BB0000F0B5C3B00446002568468821BD
:104340004295CDE94055CDE93E55FCF791F82068FE
:1043500044F20041C4F20001884200F0A98044F612
:104360000001C4F20001884200F0DB8043F6000146
:10437000C4F20101884240F06681002501266846AA
:10438000019500960D95FDF755FD002818BFFCF727
:10439000DBF840F68C40C4F20240816941F4804170
:1043A0008161816901F4804123912399016841F081
:1043B0000101016000683EA900F0010023902398EC
:1043C0004FF4C0603E900220CDE93F0507204290A7
:1043D0000020C4F202204195FCF74CFE21202390DE
:1043E0001520CDE924054FF4002040F23811CDE925
:1043F0002655CDE9280523A8C2F200012A95CDE96A
:104400002C663495CDE92E55CDE930553295FCF723
:10441000B1F8002818BFFCF797F840F2201040F2DE
:104420003812C2F20000C2F200020021FCF7D0F9FB
:10443000002818BFFCF788F840F22010C2F20000F4
:10444000FCF7EEFA002818BFFCF77EF840F25C108B
:104450005021C2F20000C4F2020101600021812259
:10446000C0E90E11C0E910118264FCF73BF9002885
:1044700018BFFCF769F840F25C15C2F2000540F283
:104480002011C2F200012846FCF778FA002818BF74
:10449000FCF75AF828461021C4F88050EC65FCF768
:1044A000C9FB002800F0CF80FCF74EF843B0F0BD08
:1044B00002246846019500940E95FDF7BBFC002888
:1044C00018BFFCF741F840F68C40C4F20240016985
:1044D00041F400310161016901F400312391239914
:1044E000016841F00101016000683EA900F001008F
:1044F000239023980C20CDE93E040020CDE9400014
:10450000072042900020C4F20220FCF7B3FD3B20BC
:1045100002210022FCF7F8FE3B20FCF7E5FE43B049
:10452000F0BD042000260090684601960F96FDF726
:1045300081FC002818BFFCF707F840F68C40C4F255
:1045400002400169502741F4802101610169C4F2F0
:10455000020701F4802123912399016841F00401AD
:10456000016000683EA900F00400239023984FF4F6
:1045700040603E900220CDE93F0607204290002097
:10458000C4F2022000F500604196FCF773FD40F292
:104590004C2507F58070C2F200051A214FF48062A5
:1045A00085E843000120C5E90326C5E90566EE61FB
:1045B000C5E90860C5E90A062846C5E90C66FCF7A6
:1045C0003DFC002818BFFBF7BFFF28461021E56718
:1045D000EC65FCF72FFB002818BFFBF7B5FF40F296
:1045E000D41507F180000022C2F200054FF4002329
:1045F000192185E80700C5E90322C5E90532012034
:1046000005F12803EA614FF08041C5E9082007C39E
:1046100028466A63FCF712FC002818BFFBF794FFDA
:1046200028461021C4F88050EC65FCF703FB0028F5
:1046300018BFFBF789FF3C2001210022FCF764FE34
:104640003C20FCF751FE43B0F0BD000080B5D0F82F
:104650008C30202B1CBF022080BD00294FF00103AD
:1046600018BF002A01D1184680BD0023C366D0F8C8
:1046700000C0DCF808305B0605D5DCF8083023F014
:104680004003CCF8083042F20043C4F200439C459A
:1046900003D0DCF804301B0204D402F019F8002324
:1046A000184680BD5CE800CFD0F800E04CF0806395
:1046B0004EE8003CBCF1000FEFD0036853E800CF98
:1046C000D0F800E04CF080634EE8003CBCF1000FF5
:1046D000E3D0036853E800CFD0F800E04CF08063EB
:1046E0004EE8003CBCF1000FD7D0036853E800CF80
:1046F000D0F800E04CF080634EE8003CBCF1000FC5
:10470000CBD0036853E800CFCEE7000010B50068B7
:1047100044F60001C4F20001884218D044F200417E
:10472000C4F20001884218BF10BD40F29454C2F296
:104730000004204602F0FCF840F2344004F1250168
:10474000C2F200000122BDE81040FFF77FBF40F237
:104750006054C2F20004204600F072FE40F2C840ED
:1047600004F12501C2F200000122BDE81040FFF76C
:104770006DBF00002DE9F04182B00446D0F88800FA
:1047800020281EBF022002B0BDE8F0810E4600299D
:104790004FF001001CBF1746002A02D102B0BDE84D
:1047A000F08120681D468168090603D5816821F0E3
:1047B000800181604FF000082120C4F89080C4F887
:1047C0008800FCF72FFDA4F85470A4F85670A16877
:1047D0000746B1F5805F10D12069002814BF30462C
:1047E000B046064609E000BF16F8010B2168886252
:1047F000B4F856000138A4F85600B4F8560088B151
:104800002046802100223B46009502F021F9C8B9DC
:10481000002EE9D138F8020B21686FF35F2088621F
:104820000026E5E72046402100223B46009502F0A5
:104830000FF92021C4F88810002818BF032002B007
:10484000BDE8F0812020C4F88800032002B0BDE854
:10485000F081000070470000FEE7000070B58CB0EA
:1048600001A802F083FD0DF1040E9EE8015040F214
:104870007804C2F2000405AE049B44F82C0F67CE06
:10488000C4E901CEC4E9033004F1140026C00A983B
:10489000C4E9086040F2C420C2F20000A061002018
:1048A000C4F2022000F50061A06000F58060206184
:1048B000012021601021A08284F826000A20A18016
:1048C000A18140F22331C7F6FF00216240F60711B3
:1048D000A0622046A18400F0F7FA204600F036F8E6
:1048E00024F8240C204600F071FB0CB070BD0000D1
:1048F00070B582B00446164641F080020068A18877
:104900008DF8072000221D46FCF786FCA0690DF1FA
:10491000070101224FF4FA63FEF78EFDA069FEF74E
:104920003FFB0128FAD1A06931462A464FF4FA63C9
:10493000FEF782FDA069FEF733FB0128FAD120685B
:10494000A1880122FCF768FC02B070BD2DE9F0419E
:1049500082B001250DF106010DF107030122044685
:104960008DF80650009500F0C1F99DF807004FF052
:10497000000800F0F80081278DF807000DF106010E
:104980000DF1070320460122C4F81C808DF8067043
:10499000009500F081FC0A20FCF7FEFA0DF10601FB
:1049A0000DF10703204601228DF80650009500F016
:1049B0009DF99DF807600A20FCF7EEFA46F08000AA
:1049C0008DF807000DF106010DF1070320460122C5
:1049D0008DF80670009500F05FFC6420FCF7DCFAAF
:1049E000266A8621B0088DF806108DF807000DF1B3
:1049F00006010DF1070320460122009500F04CFC52
:104A00000520FCF7C9FAB00187218DF806108DF852
:104A100007000DF106010DF1070320460122009564
:104A200000F03AFC0520FCF7B7FA88208DF8060064
:104A30000DF106010DF10703204601228DF80780D4
:104A4000009500F029FC0520FCF7A6FA94F82A004E
:104A500089218DF806108DF807000DF106010DF182
:104A6000070320460122009500F016FC0A20FCF7FF
:104A700093FA94F82B002D2898BF2D20F02828BFFA
:104A8000F02078280AD846F267612D38C6F26661B0
:104A900050FB01F0411001EBD07007E04CF6CD4126
:104AA0001E30CCF6CC41A0FB0101C80820308B2180
:104AB0008DF806108DF8070001260DF106010DF1A5
:104AC000070320460122009600F0E6FB0A20FCF7CF
:104AD00063FA8C208DF8060023208DF807000DF175
:104AE00006010DF1070320460122009600F0D4FBD9
:104AF0001E208DF806000DF106010DF1070320467A
:104B00000122009600F0F2F89DF807009E2140F087
:104B100007008DF806108DF807000DF106010DF164
:104B2000070320460122009600F0B6FB0A20FCF79E
:104B300033FA94F82410204600F0DAF99F208DF81B
:104B40000600FF208DF807000DF106010DF10703A7
:104B500020460122009600F09FFB94F8260094F86E
:104B60002510400000EB01109D218DF806108DF8F6
:104B700007000DF106010DF1070320460122009602
:104B800000F08AFB94F8240094F8255006FA00F00F
:104B900002F081FD47F28872C0F6000202EBC50206
:104BA00092ED000B53EC102B02F0EEFB02F044FDF3
:104BB000054626208DF806000DF106010DF10703CC
:104BC00020460122009600F091F89DF80700112D73
:104BD00040F00801B8BF00F0F701A6208DF80600EC
:104BE0008DF807100DF106010DF107032046012293
:104BF000009600F051FB0A20FCF7CEF994F829004A
:104C0000A0218DF806108DF807000DF106010DF1B9
:104C1000070320460122009600F03EFB94F828008E
:104C2000A1218DF806108DF807000DF106010DF198
:104C3000070320460122009600F02EFB40208DF84D
:104C400006000DF106010DF1070320460122009632
:104C500000F04CF89DF80700C02140F03F008DF8AF
:104C600006108DF807000DF106010DF1070320462F
:104C70000122009600F010FB0DF106010DF1070373
:104C8000204601228DF80660009600F02FF89DF86E
:104C90000700812100F0F80001308DF806108DF832
:104CA00007000DF106010DF1070320460122E66120
:104CB000009600F0F1FA0A20E661FCF76DF9422057
:104CC0008DF806000DF106010DF1070320460122C3
:104CD000009600F00BF89DF807104FF4CA701229E7
:104CE00008BFC82002B0BDE8F08100002DE9F04106
:104CF00004461746A2880068069E0D46114600220B
:104D00009846FCF789FAA06929463A464FF4FA63B7
:104D1000FEF792FBA069FEF743F90128FAD1A069DA
:104D2000414632464FF4FA63FEF730FAA069FEF7C7
:104D300037F90128FAD12068A1880122BDE8F041A5
:104D4000FCF76ABA2DE9F04F83B0164688468346D1
:104D50001AB140463146FBF769FB01250DF10A0106
:104D60000DF10B03584601228DF80A500095FFF70C
:104D7000BDFF9DF80B004FF0810900F0F8000130F5
:104D80008DF80B000DF10A010DF10B0358460122BD
:104D9000CBF81C508DF80A90009500F07DFA122097
:104DA0008DF80A000DF10A010DF10B03584601229E
:104DB0000095FFF79BFF9DF80B00400601D40027EC
:104DC0005DE092208DF80A00FF208DF80B000DF1B8
:104DD0000A010DF10B0358460122009500F05CFA20
:104DE00013208DF80A000DF10A010DF10B0358464E
:104DF00001220095FFF77AFF10209DF80B708DF8C7
:104E00000A000DF10A010DF10B035846012200952D
:104E1000FFF76CFF9DF80B008D218DF80A108DF8BF
:104E20000B000DF10A010DF10B035846012200950C
:104E300000F032FAB74288BF37464FF00004EFB1B6
:104E40004FF0010A0DF10A060DF10B054FF00009B4
:104E50005846314601222B468DF80A40CDF800A075
:104E6000FFF744FF9DF80B0008F8090009F101095C
:104E7000B945EDD301254FF0810900E000270DF180
:104E80000A010DF10B03584601228DF80A500095D6
:104E9000FFF72CFF9DF80B00052100F0F80005300E
:104EA000CBF81C108DF80B000DF10A010DF10B036E
:104EB000584601228DF80A90009500F0EDF9384629
:104EC00003B0BDE8F08F000010B504468068A189EA
:104ED0000022FCF7A1F90120FCF75EF8A068A18987
:104EE0000122FCF799F96420BDE81040FCF754B8A2
:104EF000F0B583B00D4604460C29A8BF0C251E2032
:104F0000072DD8BF07258DF80400012601A90DF152
:104F10000503204601220096FFF7E8FE9DF8057084
:104F20000A20FCF739F807F00F0040EA05109E212F
:104F30008DF806108DF807000DF106010DF107033D
:104F400020460122009600F0A7F90A20FCF724F879
:104F500094F8240094F8255006FA00F002F09BFB28
:104F600047F28872C0F6000202EBC50292ED000B18
:104F700053EC102B02F008FA02F05EFB05462620E7
:104F80008DF8080002A90DF10903204601220096C0
:104F9000FFF7ACFE9DF80900112D40F00801B8BFE5
:104FA00000F0F701A6208DF80A008DF80B100DF126
:104FB0000A010DF10B0320460122009600F06CF966
:104FC0000A20FBF7E9FF03B0F0BD0000B0B582B0E6
:104FD000012501A90DF10503012204468DF80450B5
:104FE0000095FFF783FE9DF80500052100F0F8000D
:104FF0000530E16181218DF806108DF807000DF173
:1050000006010DF1070320460122009500F044F946
:1050100002B0B0BD2DE9F04F83B01D4616460F46D5
:10502000D0F81C804FF001090DF10A010DF10B03BE
:10503000012283468DF80A90CDF80090FFF756FEC6
:105040009DF80B004FF0810A00F0F80001308DF858
:105050000B000DF10A010DF10B0358460122CBF8AC
:105060001C908DF80AA0CDF8009000F015F90E20E4
:105070008DF80A000DF10A010DF10B0358460122CB
:10508000CDF80090FFF732FE9DF80B008D218DF8D2
:105090000A108DF80B000DF10A010DF10B035846B3
:1050A0000122CDF8009000F0F7F8A2208DF80A0058
:1050B0000DF10A010DF10B03584601228DF80B602A
:1050C000CDF8009000F0E8F8584600213A46334603
:1050D000FFF70EFC0DF10A010DF10B0358460122FA
:1050E0008DF80A90CDF80090FFF700FE9DF80B00B8
:1050F000032100F0F8000330CBF81C108DF80B00F2
:105100000DF10A010DF10B03584601228DF80AA09A
:10511000CDF8009000F0C0F812240DF10A010DF155
:105120000B03584601228DF80A40CDF80090FFF796
:10513000DDFD9DF80B00000718D40DF10A060DF1F6
:105140000B0700BF013D28043BD00120FBF724FFE3
:105150005846314601223B468DF80A40CDF8009072
:10516000FFF7C4FD9DF80B000007EBD592208DF8EA
:105170000A00FF208DF80B000DF10A010DF10B0361
:1051800058460122CDF8009000F086F80DF10A0192
:105190000DF10B03584601228DF80A90CDF80090CE
:1051A000FFF7A4FD9DF80B00B8F1060F39D8DFE832
:1051B00008F004233828382D320000F0F8000021D0
:1051C0002DE001250DF10A010DF10B0358460122D6
:1051D0008DF80A500095FFF789FD9DF80B00B8F196
:1051E000060F46D8DFE808F004304535453A3F0061
:1051F00000F0F80000213AE000F0F8000130012151
:105200000DE000F0F8000330032108E000F0F800A2
:105210000530052103E000F0F80006300621CBF848
:105220001C1081218DF80A108DF80B0001250DF15D
:105230000A010DF10B0358460122009500F02CF8ED
:10524000284603B0BDE8F08F00F0F80001300121DE
:105250000DE000F0F8000330032108E000F0F80052
:105260000530052103E000F0F80006300621CBF8F8
:105270001C1081218DF80A108DF80B000DF10A0128
:105280000DF10B0358460122009500F005F80025AA
:10529000284603B0BDE8F08F2DE9F04104461746DB
:1052A000A2880068069E0D46114600229846FBF72C
:1052B000B3FFA06929463A464FF4FA63FEF7BCF8FB
:1052C000A069FDF76DFE0128FAD1A069414632467A
:1052D0004FF4FA63FEF7B0F8A069FDF761FE01280C
:1052E000FAD12068A1880122BDE8F041FBF794BF04
:1052F000FEE70000FEE700007047000070B540F6D2
:105300002C46C4F2024656F82C1C044621F080605C
:1053100046F82C0CFBF786FF054656F82C0C0001CE
:105320000BD500BFFBF77EFF401B022884BF032084
:1053300070BD56F82C0C0001F4D4306843F60371AC
:10534000884394E80E00084340EA0220E168306098
:105350004FF47E4202EB41212269581E4FF4FE03B6
:1053600089B203EB02426FF35F20084402F4FE01AE
:1053700062694FF0FE4303EB0262084402F0FE4113
:10538000084430613068A16920F00C0008433060A7
:105390003068E16920F0200008433060606A3168BD
:1053A0000843306030684FF6F87120F0100030602C
:1053B0007069226A884340EAC2007061306840F038
:1053C0001000306056F82C0C40F0806046F82C0C31
:1053D000FBF728FF044600BF56F82C0C000144BF21
:1053E000002070BDFBF71EFF001B032824BF032015
:1053F00070BDF1E74FF0000C034680F82AC0C0F8FA
:105400002CC0C0F820C0C0F823C04FF6FE70A3F82F
:1054100027001020188640F6000083F82910C4F2F7
:1054200002204FF480510022C3E900CCC3E902CC32
:10543000C3E904CCC3F818C0C3F81CC0FBF7ECBE2A
:10544000B0B5044690F8240001280DD098BB94F81C
:10545000250094F8271088422DD12070012084F86F
:10546000240084F82600B0BD94F8250094F8261096
:10547000605494F8301094F826004A1E82420AD1F3
:10548000205C94F82820904216D1E18D0120206202
:10549000481CE085B0BD0130C2B2914284F82600BC
:1054A00088BFB0BD0025204684F826502562FAF753
:1054B000DFFF84F82450B0BD0025204684F8265034
:1054C0002562FAF7D5FF84F82450B0BD016840F298
:1054D0006F32D1F814C08B6943F008038B618B697C
:1054E00043F010038B610B6823F001030B600B6921
:1054F00023EA02020A618A6822F440428A6090F834
:1055000089305FEA8C620BD5042B09D0D0F88C204F
:1055100042F08002C0F88C208A6942F020028A6141
:1055200090F889305FEA4C620BD5032B09D0D0F894
:105530008C2042F00402C0F88C208A6942F04002BC
:105540008A615FEA8C5208D45FEACC5212D40021FF
:10555000A0F86A10A0F872107047D0F88C2042F0C2
:105560000102C0F88C208A6942F400728A615FEA05
:10557000CC52ECD5D0F88C2042F00802C0F88C2038
:105580008A6942F480728A610021A0F86A10A0F84A
:10559000721070477047000010B540F27804C2F2F4
:1055A00000046089012818BF10BD04F12C0004F12B
:1055B00020010C224FF4FA63FFF72CFDA189002093
:1055C0006081481CA08110BD70B50446006A0128A6
:1055D00018BF70BD40F60005C4F20225002628461B
:1055E0004FF4805101222662FBF716FE94F830003A
:1055F000E8B10020225C21180A7494F83020431C82
:10560000934214D24A78831C4A7494F8302093420F
:105610000DD28A78C31C8A7494F83020934206D243
:10562000CA780430CA7494F830108842E2D301205A
:10563000FBF7B2FC94F8302040F2C84004F11001AE
:10564000C2F200004FF0FF33FFF794F80120FBF7A0
:10565000A3FC28464FF480510022FBF7DDFD84F8BF
:10566000246070BDF0B581B00446006A40F2700756
:105670000128C2F2000740F0AA8094F8300020B35D
:10568000002000BF215C2218117494F83010431CD4
:105690008B4214D25178831C517494F830108B4291
:1056A0000DD29178C31C917494F830108B4206D2BD
:1056B000D1780430D17494F830108842E2D3481E77
:1056C000A1786139042906D971E04FF0FF30A17843
:1056D000613904296BD8DFE801F003086A155A0024
:1056E00040F27901C2F2000103E040F27E01C2F211
:1056F00000010A782044E37C067CD21A324402740A
:10570000087842E040F20045C4F2022528464FF4F2
:1057100080710022FBF780FD284680210022FBF7E4
:105720007BFD284640210022FBF776FD28462021FC
:105730000022FBF771FD284610210022FBF76CFDCB
:10574000284608210022FBF767FD05F580663046F4
:1057500008210022FBF760FD05F50060042100220E
:10576000FBF75AFD304620210022FBF755FD40F2A1
:105770007D0094F83020C2F200000178E37C2244DE
:10578000D67BC91A3144D1730078E0740FE040F23F
:105790000040C4F2022000F580604FF480710122C5
:1057A0000125FBF739FDFBF73DFD78603D7094F86E
:1057B000302040F2344004F11001C2F200004FF0FA
:1057C000FF33FEF7D7FF002084F824002062FBF7A8
:1057D00029FD7968401AB0F5FA6F04D338780128AA
:1057E00004BF0020387001B0F0BD0000FBF720BD01
:1057F0004EF6885CCEF2000CDCF80000012240F48A
:105800007000CCF8000040F60040C4F20240026094
:105810000022C261026203684EF6E321CFF6E22164
:105820001940016040F28021C0F201118262C2621F
:1058300041638263C1630264016821F480210160D5
:1058400002654FF0006142F21C00C4F202004CF805
:10585000801C50F8041C4A0F062A05D801F060414C
:10586000B1F1404F18BF70470168C9070BD042F62D
:105870003B21C0F6190140F8101C46F67F61C4F6C2
:105880005D4140F8101C016841F0020101600168AF
:1058900041F001010160704780B5816A0A070CD4AC
:1058A000CA0715D18A071ED44A0727D4CA0630D49E
:1058B0008A0639D44A0657D541E00268D0F838C084
:1058C000536823F4004343EA0C035360CA07E9D04A
:1058D0000268D0F82CC0536823F4003343EA0C0369
:1058E00053608A07E0D50268D0F830C0536823F4CB
:1058F000803343EA0C0353604A07D7D50268D0F8D7
:1059000034C0536823F4802343EA0C035360CA066F
:10591000CED50268D0F83CC0936823F4805343EAA4
:105920000C0393608A06C5D50268D0F840C093681E
:1059300023F4005343EA0C0393604A0614D502682B
:10594000D0F844C05368BCF5801F23F4801343EAA9
:105950000C03536008D1D2F804C0D0F848E02CF40E
:10596000C00343EA0E035360090658BF80BD0168B7
:10597000C06C4A6822F400221043486080BD0000D9
:10598000B0B582B004460020C4F89000FBF74AFC92
:10599000216805460A68120736D56FF07E4C20460E
:1059A0004FF4001100222B46CDF800C001F050F852
:1059B00048B300BF206850E8000F216820F0800045
:1059C00041E80002DAB1206850E8000F216820F0B9
:1059D000800041E8000292B1206850E8000F216881
:1059E00020F0800041E800024AB1206850E8000F32
:1059F000216820F0800041E80002002ADAD120204E
:105A0000C4F888005EE021680868400760D56FF040
:105A10007E4C20464FF4800100222B46CDF800C07A
:105A200001F016F8002853D0206850E8000F2168D4
:105A300020F4907041E80002BAB3206850E8000FEB
:105A4000216820F4907041E8000272B3206850E8A9
:105A5000000F216820F4907041E800022AB320680A
:105A600050E8000F216820F4907041E80002002AFD
:105A7000DAD11AE0206850E8020F216820F0010016
:105A800041E80202DAB1206850E8020F216820F0F4
:105A9000010041E8020292B1206850E8020F21683B
:105AA00020F0010041E802024AB1206850E8020FEC
:105AB000216820F0010041E80202002ADAD120200A
:105AC000C4F88C000320002184F8841002B0B0BD1B
:105AD0002020C4F88800C4F88C000020E06620670D
