:020000040800F2
:1000000010150020F9020008B5A10008018F0008B2
:100010007D9C00081515000869D900080000000043
:10002000000000000000000000000000DDB2000839
:10003000B12B00080000000015A4000801BD000855
:100040001503000815030008150300080000000050
:100050001503000815030008150300080000000040
:100060001503000815030008000000004D2F0008CC
:100070001503000815030008150300081503000800
:1000800015030008150300081503000815030008F0
:1000900015030008150300081503000815030008E0
:1000A000150300081503000815030008F12F0008C8
:1000B000FD2F00080930000815030008150300088B
:1000C00015030008150300081503000815030008B0
:1000D00000000000150300081503000815030008C0
:1000E0001503000815030008150300081503000890
:1000F00015030008ADBD0008B9BD000800000000F0
:1001000000000000C5BD0008D1BD000815030008AF
:10011000150300081503000815030008150300085F
:100120001503000815030008150300085DD9000831
:10013000150300080000000000000000150300087F
:10014000150300080000000000000000000000008F
:10015000000000000000000015030008000000007F
:10016000000000000000000015030008150300084F
:10017000000000000000000000000000000000007F
:10018000000000000000000000000000000000006F
:10019000000000000000000000000000000000005F
:1001A000000000000000000015030008150300080F
:1001B00015030008150300081503000815030008BF
:1001C00015030008150300080000000000000000EF
:1001D00000000000000000000000000015030008FF
:1001E00015030008000000000000000000000000EF
:1001F00000000000000000000000000000000000FF
:1002000000000000150300081503000800000000AE
:1002100000000000150300080000000000000000BE
:1002200000000000000000000000000015030008AE
:10023000150300080000000000000000000000009E
:10024000000000000000000000000000150300088E
:10025000150300081503000800F002F800F03CF850
:100260000AA090E8000C82448344AAF10107DA4511
:1002700001D100F031F8AFF2090EBAE80F0013F027
:10028000010F18BFFB1A43F001031847FC4E010091
:100290001C4F0100103A24BF78C878C1FAD8520721
:1002A00024BF30C830C144BF04680C6070470000F0
:1002B0000023002400250026103A28BF78C1FBD86F
:1002C000520728BF30C148BF0B6070471FB514F0FC
:1002D000FCFC1FBD10B510BD00F03AF91146FFF748
:1002E000F5FF0FF0F3FD00F058F903B4FFF7F2FF4C
:1002F00003BC00F05BF900000A4880470A48004749
:10030000FEE7FEE7FEE7FEE7FEE7FEE7FEE7FEE7C5
:10031000FEE7FEE7FEE7000004480549054A064BF4
:100320007047000005BD000859020008100F0020AA
:1003300010150020101100201011002053EA020CAB
:1003400000F069802DE9F04B4FF00006002B1FBF35
:10035000B3FA83F503FA05F424FA05F65E4012BFFA
:100360001643B2FA82F502FA05F4C5F120051EBF64
:1003700022FA05FC44EA0C04203556EA044C4FEA04
:10038000144418BF641C4FF000084FF0000990425D
:1003900071EB030C39D3002919BFB1FA81F701FAC7
:1003A00007F6B0FA80F700FA07F6C7F120071EBF7C
:1003B00020FA07FC46EA0C062037B6FBF4FCA7EB54
:1003C0000507103F07F01F0BCBF120062CFA06F6AD
:1003D0000CFA0BFB44BFB3460026202FA4BF5E4699
:1003E0004FF0000B5BEA060C08BF4FF0010B19EB56
:1003F0000B0948EB0608ABFB027C06FB02CC0BFBAF
:1004000003CCC01B71EB0C01C1E70B460246414611
:100410004846BDE8F08B13B5084318BF4FF0FF30D6
:100420000146AFF30080BDE81C40704710B5203A8C
:10043000C0F00B80B1E81850A0E81850B1E818508F
:10044000A0E81850203ABFF4F5AF5FEA027C24BF61
:10045000B1E81850A0E8185044BF18C918C0BDE84A
:1004600010405FEA827C24BF51F8043B40F8043B13
:1004700008BF7047D20728BF31F8023B48BF11F8C8
:10048000012B28BF20F8023B48BF00F8012B704722
:100490004FF000020429C0F0128010F0030C00F0AD
:1004A0001B80CCF1040CBCF1020F18BF00F8012B2B
:1004B000A8BF20F8022BA1EB0C0100F00DB85FEAF9
:1004C000C17C24BF00F8012B00F8012B48BF00F8C5
:1004D000012B70474FF0000200B513469446964634
:1004E000203922BFA0E80C50A0E80C50B1F1200147
:1004F000BFF4F7AF090728BFA0E80C5048BF0CC0F5
:100500005DF804EB890028BF40F8042B08BF704752
:1005100048BF20F8022B11F0804F18BF00F8012BC4
:10052000704770477047704710B500F009F80068D1
:1005300010BD10B5044600F003F8046010BD0000C3
:1005400000487047C000002000487047C0000020ED
:100550007546FFF7F9FFAE4605006946534620F0A1
:100560000700854618B020B5FFF7D6FEBDE820404D
:100570004FF000064FF000074FF000084FF0000B5F
:10058000AC46ACE8C009ACE8C009ACE8C009ACE8CE
:10059000C00921F007018D46704710B50446AFF33E
:1005A00000802046BDE81040FFF79FBE014918209B
:1005B000ABBEFEE726000200704700002DE9F041C7
:1005C0000446DDE9060C00264FF07E584FF0030E7E
:1005D000FF25089FC4E90166C4E90368C4E905680A
:1005E000C4E9076EA584C4E90A6622866086C4E968
:1005F0000F1304F1500061464C2284F83860FFF775
:1006000015FF4FF0FF30002F08BF012084F89C0039
:10061000C4E92A68206D84F8B060016841F0800167
:1006200001604FF6FF71C16246F28660C4F6691040
:10063000E165C4F8B160C4F8A060C4F8A400204625
:10064000C4F81480BDE8F041AFF300802DE9F04319
:1006500081B0044694ED030A4068A16820EE000AC8
:100660000F1A10EE100A14F065FA054660690E467E
:1006700014F060FA02460B4613F016FC02460B46D5
:100680002846314613F0CCFC13F05EFE4FB901282A
:1006900007DC0020E061E060C4F8A00001B0BDE824
:1006A000F083012F0BDBD4F8A080B8F1010FC0F26A
:1006B0008780874213DD94F8B010B9B90FE0D4F801
:1006C000A080B7F1FF3F0EDC7942B8F1010FC0F214
:1006D0008580884203DA94F8B010012906D1C0F170
:1006E0000008C4F8A080B8F1000F40D0D4F8A800EA
:1006F00014F020FA02460B4606460F4613F0D4FBD0
:1007000005464046894613F07CFE0023CCF21003D8
:10071000002213F019FF0023CBF6F073002213F030
:10072000C3FB02460B462846494613F079FC0246B5
:100730000B463046394613F0B7FB13F083FB00EE4F
:10074000100ABDEEC00A94ED2B1A10EE100ABDEE91
:10075000C11A11EE101A8842C8BF014600EE101AE5
:10076000B8EEC00A94F8B00084ED2A0A0DE0D4F87F
:10077000A41000204FF00008002FC8BF0120C4F8CB
:10078000A81000EE101A84F8B00042F20041C4F63E
:10079000741101EE101A08F1010181EE001AC4F87B
:1007A000A010BCEEC00A002884ED070A84ED031AED
:1007B00004BFB1EE410A84ED030A01B0BDE8F08345
:1007C000874290DDB8F1000F8DD094F8B000012879
:1007D0008CD1C8F10008C4F8A08087E78842BFF632
:1007E00082AFB8F1000F3FF47EAF94F8B00000285C
:1007F0007FF47CAFEDE700004068704710B5044619
:100800008068884208BF10BD2046A160FFF71EFF28
:1008100004F15000BDE8104006F070BFB0B50446CA
:100820004068A168002581422DD0E3694FF00002A5
:10083000C8BF012284F8B0202BB300238142D8BF67
:1008400001234FF0FF31C8BF0121084494F89C10E8
:100850006060FF29206C618E08BF1A4604F0FCFA24
:10086000E06B218E0122012504F0F6FA206A0EF0D9
:10087000B9F8E06B218E002204F0EEFA0FF02EFFA3
:10088000C117C4E90A012846B0BD000010B52DED1E
:10089000028BB5EE400AF1EE10FA02D1BDEC028BEC
:1008A00010BD90ED051AB0EEC08A0446B4EE481AA9
:1008B000F1EE10FAF2D081EE080A94ED281A18EE43
:1008C000100AB8EEC11A20EE010ABDEEC00A84ED8E
:1008D000280A14F02FF902460B4600204FF0804101
:1008E00013F09EFB41EC100B12F01AFD51EC100BB3
:1008F0004AF2CA1341F26F22C3F6E573CCF28302C7
:1009000013F022FE48F28043C4F22E13002213F0AB
:100910001BFE13F097FA014684ED058A2046C4F8C1
:10092000A410BDEC028BBDE81040FFF78FBE0000A5
:100930000022C0F8A020C261C0E90111C260704766
:1009400070B590ED041AB0EEC00AB4EE401AF1EEA4
:1009500010FA08BF70BD044642F2004084ED040A5C
:10096000C4F6741001EE100AD4F8A00081EE001A4B
:10097000012884ED2B1A20DB94ED030A20EE000AF7
:1009800010EE100A14F0D6F8054660690E4614F011
:10099000D1F802460B4613F087FA02460B4628466A
:1009A000314613F03DFB13F0CFFC01462046C4F85E
:1009B000A010BDE87040FFF749BE70BDB0B52DED89
:1009C000028B90ED031AB4EE401AF1EE10FA02D148
:1009D000BDEC028BB0BD90ED041A0446B1EE412A85
:1009E000B4EE402A81FE400AF1EE10FA32FE008A8F
:1009F000B5EE408AF1EE10FA0CD1002504F150005A
:100A0000E56106F0ABFE206D456284ED038ABDEC26
:100A1000028BB0BD18EE100A14F08CF80B4648F2A9
:100A200080410246C4F22E110020002513F0F8FA8E
:100A3000EA0F62F3DF7113F0B7FC00EE105A216D7C
:100A4000B4EE408AE061C862F1EE10FAE065C8BF1A
:100A5000012584F8B05084ED038ABDEC028BB0BD53
:100A6000806870472DE9F04381B02DED028B40F690
:100A70000007C4F2022704F0F5F9054638460421C0
:100A800004F0E4F940F22016C2F2000696F82A10AB
:100A900040F2506840F2802440F284098842C2F259
:100AA0000008C2F20004C2F2000911D1D4E90C120C
:100AB0000023691AD9F800504FF0010063EB0202DD
:100AC000691A73EB020188F8170028BF002005E0BF
:100AD000002088F81700C4E90C50002086F82B008D
:100AE00004F0C0F905463846022104F0AFF996F843
:100AF0002A10884211D1D4E90E120023691AD9F8BC
:100B000004504FF0010063EB0202691A73EB02011B
:100B100088F8180028BF002005E0002088F8180099
:100B2000C4E90E50002086F82C0004F09BF905461D
:100B300038460121012704F089F996F82A108842E5
:100B400010D1D4E91001D9F80830281A4FF000026A
:100B500062EB0101181A72EB010088F8197028BFC6
:100B6000002705E00020002788F81900C4E910508C
:100B700040F20008C2F2000898F8120096F82B1014
:100B800096F82C300A1A40F2E82418BF01221B1AEA
:100B9000C2F2000418BF01236188874286F82D70D5
:100BA0001FBF1A40B1FA81F35B0952EA030204D174
:100BB0000122874208BF02223273707D012801BFE3
:100BC000E06D50EA010003203073B07E012804BFBD
:100BD0000420307396F82E00012808BF002904D0A5
:100BE00096F8230001280DD022E0307F012801BFB4
:100BF000D4E9160250EA02000C20307396F8230064
:100C0000012815D104F02EF9618889B940F26432C7
:100C1000C2F20002D26E801A4EF68162C0F2360233
:100C2000904205D3D4E91602104301D10D204BE0C8
:100C300002294BD140F6A040C2F20000FFF7DCFDD4
:100C4000002848BF404213F0DCFB98ED1C0B0D461A
:100C5000002153EC102B0446C4F22401002013F0B1
:100C6000DFF922462B4613F09EFF78BB40F6A040EA
:100C7000C2F20000FFF7C0FD002848BF404213F059
:100C8000C0FB98ED1C0B0D46002153EC102B0446C5
:100C9000C4F24401002013F0C3F940F2E032C2F282
:100CA000000292ED000A44F20002C4F29C5201EEEE
:100CB000102AB4EE410AF1EE10FA07DA22462B466A
:100CC00013F078FF10B10E20307302E0307B002863
:100CD0005DD0002408EE104A40F6A040B0EE480A6D
:100CE000C2F20000FFF76AFE40F65850B0EE480A24
:100CF000C2F20000FFF762FE307BB474022805D018
:100D000096F8200070B1317BB9B924E040F6E830A4
:100D1000B0EE480AC2F20000FFF750FE96F820003D
:100D20000028F0D144F62060C8F858000320B071C4
:100D3000012086F82000317B69B196F82F0050B968
:100D4000012086F82F0004F08DF840F2E032317B6C
:100D5000C2F2000250600D291ED80120884043F2E3
:100D60001401084218D0307B0D2810D104F07AF815
:100D700040F2E031C2F200014968401A41F2883184
:100D8000884204D3022086F8230001207073BDEC52
:100D9000028B01B0BDE8F08396F830000028E2D164
:100DA000B07D0128DFD004F05DF840F2E031C2F2FE
:100DB00000014968401AB0F5FA6FD4D3307998F839
:100DC0000D10884208BF04F0FBF8CCE72DE9F04F86
:100DD00081B02DED0A8B84B040F22018C2F20008D9
:100DE00098F86B1029B104B0BDEC0A8B01B0BDE8D6
:100DF000F08F40F26439C2F20009D9F80C1040F2C9
:100E0000545A0446C2F2000A11B1012946D065E1E4
:100E10000120C9F80C0004F025F8CAF84800204663
:100E200013F006FB42F2FB134AF2A872C4F2090364
:100E3000C5F23D4213F088FB40F20007C2F2000702
:100E40000546786B0E4613F075FE02460B462846A3
:100E5000314613F079FB97ED1C0B05460E4648F220
:100E6000000351EC100BC4F276030022002713F0AC
:100E70006BFB02460B462846314613F0D1F8FA0FB9
:100E800062F3DF7113F060FA40F2E822D9F80C1037
:100E9000C2F20002D087012940F0208199ED178A23
:100EA000B0EEC89A19EE100A13F044FE054620462B
:100EB0000E4613F0BDFA04460F4628463146224638
:100EC0003B4613F07EFE18B9092088F80C0005E1B6
:100ED000B6EE000AB4EE409AF1EE10FA0BDA0120F9
:100EE00088F86B000020C9F80C0004B0BDEC0A8B38
:100EF00001B0BDE8F08FB4EE409AF1EE10FAC0F206
:100F0000ED802846314622463B4613F04CFE002831
:100F100040F0E480B5EE408A8AED138AF1EE10FAD3
:100F200011DD40F2E8240220C2F20004E18FC9F88A
:100F30000C0040F6A040C2F20000FFF75FFCE08F1B
:100F4000A346414210E040F2E824C2F2000403202C
:100F5000E18FC9F80C0040F6A0404942C2F20000FF
:100F6000FFF74CFCE18FA34640F65850C2F2000058
:100F7000FFF744FC40F20000C2F2000090ED1C0BB1
:100F8000002156EC105BC4F23E0100202A46334695
:100F9000002413F045F812F055FF44F20001074613
:100FA00008EE100A0390C4F28F0100202A4633464F
:100FB00013F036F812F046FF00EE104A0024BFEEA0
:100FC000009AB4EE408AB7EE00AA0546F1EE10FA98
:100FD000B8BF01249BED120A584638EE400A40F291
:100FE000E03BB5EE400AC2F2000BF1EE10FA88F8D1
:100FF00032403AFE09CA90ED13BA28468BED140A26
:10100000CBF848708BED15CACBF84C5013F092FD1D
:1010100046F24D234AF6FC12C3F65073CDF2F1228C
:1010200013F092FA064602901CEE100A0F46019148
:1010300013F080FD02460B463046394613F084FA21
:1010400012F000FFCBF858000120CBF8440040F626
:10105000FC00C2F2000040F25C410768C2F20001ED
:1010600038EE4B0ACE6E786A8BED1A0A4FF47A711D
:10107000B5EE400A06FB010040F25062F1EE10FAB4
:10108000C2F200024FF00001C2E9180103983AFED3
:10109000091ACBF8600011EE100A88F833408BED86
:1010A0001B1ACBF8645013F045FD02460B46DDE9F0
:1010B000011013F049FA12F0C5FECBF870000120C0
:1010C000CBF85C00786A4FF47A7106FB010040F2BD
:1010D00050620021C2F20002C2E91A01D9F80C00E4
:1010E00003281BD0022840F0A78099ED178A18EE3C
:1010F000100A13F01FFDB9EE040AB4EE408AF1EEB7
:1011000010FA73DB49F6991349F69A12C3F6C973BC
:10111000C9F6991213F047FDC8B167E099ED178A37
:1011200018EE100A13F006FDB1EE040AB4EE408A80
:10113000F1EE10FA64DC49F6991349F69A12CBF6EF
:10114000C973C9F6991213F043FD002858D140F62F
:10115000A044C2F20004002620460021C9F80C6019
:10116000FFF7E6FB40F65855C2F20005284600217D
:10117000FFF7DEFB20460021FFF740FB2846002159
:10118000FFF73CFB08EE106A2046B0EE480AFFF776
:1011900015FCB0EE480A2846FFF710FC40F6941004
:1011A000C2F2000001684FF6FF7240F6E013CA6217
:1011B000C2F200031F68C26040F2E820C2F20000E1
:1011C000FA62DA604E627E62C0E9126640F2E03096
:1011D000C2F200004664C6654662D9F80C000121DF
:1011E000032888F86B100BD0022825D199ED170A37
:1011F0009AED131AB4EE410AF1EE10FA09DC1EE082
:1012000099ED170A9AED131AB4EE410AF1EE10FAAD
:1012100015DA0120C9F80C0040F6A040C2F2000027
:101220000021FFF785FB40F65850C2F20000002174
:10123000FFF77EFBD9F80C0000283FF4D4AD03F093
:1012400011FEDAF84810401A40F6B8318842FFF42F
:10125000CAADD9F80400002804BF092088F80C00A2
:1012600004B0BDEC0A8B01B0BDE8F08FF0B581B0E1
:101270002DED028B40F22016C2F2000696F85A00BD
:1012800018B1BDEC028B01B0F0BD40F26437C2F280
:101290000007B86801281AD0002840F0CE8040F23C
:1012A0000001C2F2000191ED1C0B0120002153EC62
:1012B000102BB860C4F23E01002012F0B1FE13F012
:1012C00043F840F2E821C2F20001A1F8400097ED96
:1012D000170AB3EE092AB0EEC01AB4EE421AF1EEC4
:1012E00010FA5CDA40F2D840C2F2000090ED1D1A0C
:1012F00096F86C2030EE010A40F254540221012A83
:10130000C2F20004B96084ED140A04D10021216501
:10131000416786F86C1040F6A040C2F20000002140
:10132000FFF706FB40F65850C2F200000021FFF71D
:10133000FFFA40F20000C2F2000090ED0B0A90EDBF
:101340000C1A90ED0D2AB8EEC00A0020C4F2B43099
:1013500022EE002A94ED140A03EE100A20EE022A6F
:1013600021EE031AB5EE400A82EE011AF1EE10FAF0
:10137000B0EEC11A84ED151A17DDBDEEC10A40F6B4
:10138000A04010EE101AC2F20000FFF737FA94EDF9
:10139000150ABDEEC00A10EE100A444229E01020E2
:1013A0003073BDEC028B01B0F0BDB5EE400AF1EE3A
:1013B00010FA11DABDEEC10A10EE100A414240F6F1
:1013C000A040C2F20000FFF719FA94ED150ABDEE35
:1013D000C00A10EE104A0CE0B5EE400AF1EE10FA29
:1013E0000ED140F6A040C2F2000000210024FFF719
:1013F00005FA40F65850C2F200002146FFF7FEF908
:1014000040F2E824C2F20004B4F8400000EE100AF2
:1014100040F6A040B8EE400AC2F20000FFF7CEFA54
:10142000B4F8400000EE100A40F65850B8EE400AFA
:10143000C2F20000FFF7C2FAB86802287FF421AFB9
:1014400040F6A044C2F200042046FFF709FB05461F
:101450002046FFF7D1F985427FF413AF40F6585488
:10146000C2F200042046FFF7FBFA05462046FFF7CC
:10147000C3F985427FF405AF40F6A0440320C2F2D1
:101480000004B860204600210027FFF751FA40F61B
:101490005855C2F2000528460021FFF749FA2046B8
:1014A0000021FFF7ABF928460021FFF7A7F908EE66
:1014B000107A2046B0EE480AFFF780FAB0EE480AEC
:1014C0002846FFF77BFA40F69410C2F2000001684C
:1014D0004FF6FF7240F6E013CA62C2F200031D68C5
:1014E000C26040F2E820C2F20000EA62DA604F62B5
:1014F0006F62C0E9127740F2E030C2F20000476448
:10150000C7654762012086F85A00BDEC028B01B026
:10151000F0BD0000FEE700002DE9F04F8BB040F277
:10152000004BC4F2022B03F09DFC064658464FF4D4
:10153000804103F08BFC40F22017C2F2000797F8BD
:101540002A1040F2506840F2802940F28404884218
:10155000C2F20008C2F20009C2F2000410D1D9E9B7
:1015600012120023711AE6684FF0010063EB0202C9
:10157000711A73EB020188F81A0028BF002005E0F9
:10158000002088F81A00C9E91260002040F2000A21
:10159000C2F2000A9AF81410884207D197F8250081
:1015A000002804BF40F20110A7F83D0003F05AFCE8
:1015B000064658464FF4005103F048FC97F82A10AD
:1015C000884221D1D9E914120023711A26694FF0FB
:1015D000010063EB0202711A73EB020188F81B0031
:1015E00028BF00209AF81410884217D003F03AFC64
:1015F00040F25C41C2F20001096A401AC82824BFC7
:10160000002087F8420068E0002088F81B00C9E944
:10161000146000209AF814108842E7D197F842002D
:1016200000285AD140F2E826C2F20006B08C013000
:10163000B084012087F8420003F014FC96F82420BF
:1016400097F8381040F25C43C2F20003D2071862E8
:1016500025D1012941D10BF58060202100220025F0
:1016600003F0FAFB87F83C5040F6E8350120C2F25F
:10167000000587F8390028460021FFF7BFF8F08BF6
:1016800012F0D6FE46F26663C3F6E6734FF066329A
:1016900012F05AFF12F0D6FB00EE100A1AE00129F0
:1016A0001BD10BF5806020210022002503F0D4FB24
:1016B00087F8395040F6E8350120B18BC2F20005B9
:1016C00087F83C002846FFF799F8F08B00EE100AE7
:1016D000B8EE400A2846FFF771F903F0C3FB06464F
:1016E00058464FF4805103F0B1FB97F82A10884216
:1016F00015D1D9E916016369301A4FF0000262EB87
:101700000101181A4FF0010072EB010188F81C006A
:1017100028BF00209AF81410884252D109E0002016
:1017200088F81C00C9E9166000209AF81410884255
:1017300047D168460EF0E4FF9DE88F00DDE90565BE
:1017400089E88F00DDE90801079CC9E90565C9F84A
:101750001C40C9E9080140F66C00C2F20000C9F85B
:1017600018000BF58060C9F800001020A9F80400EB
:10177000ABF58061A9F80C000120C9F80810BAF88F
:101780001610A9F8140089F826000A20C7F6FF00F1
:10179000C9F8201040F60711C9F828004846C9F8D2
:1017A00010B0A9F8241008F05DF8484607F086FD4F
:1017B00040F2E821C2F20001A1F84400484608F0D6
:1017C000D3F80BB0BDE8F08F2DE9F04F81B02DEDCF
:1017D0000A8B84B08A46B1EE602A41F26F21C3F6CB
:1017E0008321B5EE401AB0EE408A00EE101AF1EEF9
:1017F00010FA834600FE010AB1EE481A8BED012A69
:1018000010EE100A8BED001A13F094F942F2FB135C
:101810004AF2A872C4F20903C5F23D4212F094FEE6
:1018200048F20003C4F2660300224FF0000912F0F0
:10183000F7FB12F007FB0746CBF8080018EE100A7A
:101840008BF86CA013F076F90646DBF82C000D46F9
:1018500013F070F904463846884613F06BF941ECF2
:10186000100B10F0FDFC51EC100B2246434612F019
:101870006BFE32462B4613F073F812F0E3FACBF806
:101880001C00DBE90104DBF82C7013F053F98046EF
:1018900038460E4613F04EF9074620460D4613F023
:1018A00049F941EC100B11F00FFC51EC100B3A46CA
:1018B0002B4612F049FE4246334612F0F5FA12F07A
:1018C000C1FACBF82000DBF80000DBF80840DBF8B9
:1018D0002C7013F02FF9804638460E4613F02AF983
:1018E000074620460D4613F025F941EC100B10F089
:1018F000B7FC51EC100B3A462B4612F025FE02467F
:101900000B464046314613F02BF812F09BFACBF809
:101910002400DBE90104DBF82C7013F00BF980469E
:1019200038460E4613F006F9074620460D4613F0DA
:1019300001F941EC100B11F0C7FB51EC100B3A46CA
:101940002B4612F001FE02460B46404631465746F2
:1019500013F006F812F076FA9BED000ABAF1020FC6
:10196000CBF8280023D1B5EE400A42F2FB15C4F2B1
:101970000905F1EE10FA40F0B680DBF80800DBF85C
:101980002C4020F00040CBE9104413F0D3F802467D
:101990004AF2A8700B46C5F23D40294612F0E0FF1E
:1019A00012F050FA00EE104ACBF850004AE301EE74
:1019B000109A0020B4EE410A9BED010AF1EE10FAF4
:1019C00018BF0120B4EE410AF1EE10FA18BF4FF033
:1019D000010950EA090027D1DBF80800DBF82C6088
:1019E00013F0A8F804460D4600204FF000412246AF
:1019F0002B4612F0B5FF42F2FB134AF2A872C3F66F
:101A0000F973C5F23D42002F04BF2946204612F06B
:101A10004BFA12F017FACBF85000CBF8406000EE0A
:101A2000106ACBF844600DE310EE100A20F000407D
:101A300013F080F80446DBF808000D4613F07AF83E
:101A400041EC100B10F00CFC53EC102B20462946F7
:101A500012F0E6FA12F0F6F90446CBF86400DBF86F
:101A600000009BED018A13F065F8804620460E4683
:101A700013F060F80446DBF808000D4613F05AF83E
:101A800041EC100B11F020FB51EC100B22462B46C1
:101A900012F05AFD04460D4600204FF00041224648
:101AA0002B4612F05DFFB5EE408A42463346F1EE1A
:101AB00010FAA4BF2946204612F0F6F912F0C2F936
:101AC00000EE100ACBF81400C7B1012F24D19BED12
:101AD00001CA9BED191AB5EE40CAF1EE10FA16DBF9
:101AE00031EE008A15E09BED028AB5EE408AF1EEF8
:101AF00010FA40F0AA809BED110AA3E29BED01CA07
:101B00009BED191AB5EE40CAF1EE10FAE8DB30EEA3
:101B1000418A8BED038A03E09BED01CA9BED038AAA
:101B20009BED000A9BED08AA9BED07BA3AEE4C1A12
:101B30003BEE402AB5EE40CA81EE021AF1EE10FAF1
:101B40008BED0E8A039720EE012A21EE083A3CEE37
:101B5000422A8BED0C1A33EE029A8BED0D2A8BED97
:101B60000F9A14D1DBF8080012F0E4FF0246002FB0
:101B70000F4600F0CD8042F2FB114AF2A870C3F686
:101B8000F971C5F23D403B4612F0EAFECCE010EEA2
:101B9000100A12F0CFFF04461CEE100A0F4612F096
:101BA000C9FF814618EE100A029112F0C3FF804669
:101BB00019EE100A8A4612F0BDFF05460E46204671
:101BC00039464246534612F0CBFE02460B4612F00F
:101BD000BBFC0F460299044648462A46334612F09B
:101BE000BFFE02460B4612F0AFFC02460B462046F3
:101BF000394612F059F941EC100B11F091FB51EC00
:101C0000100B12F01FF900EE100A9BED191ACBF819
:101C1000680081EE000A10EE101A084612F08AFFE2
:101C200041EC100B10F0B0F951EC100B0B460246D2
:101C300012F03AF912F006F99BED07BA9BED08AAEB
:101C40009BED0E8A9BED0F9A70E010EE100A20F0CB
:101C5000004012F06FFF044618EE100A0D4620F007
:101C6000004012F067FF41EC100B11F02DFA53EC1D
:101C7000102B2046294612F0D3F912F0E3F808EEB3
:101C8000100ACBF86400DBF8040012F053FF9BED60
:101C9000029AB1EE480A8046B5EE409A0E46F1EE41
:101CA00010FA28FE000A9BED008A10EE100A12F0CE
:101CB00041FF044619EE100A0D4612F03BFF41ECBD
:101CC000100B10F0CDFA51EC100B22462B4612F0FF
:101CD0003BFCB5EE408A0246F1EE10FA0B4680F26C
:101CE000A4804046314612F03BFE12F0ABF89BED6B
:101CF000020A9BED191AB5EE400AB1EE412AF1EE47
:101D000010FA00EE100A21FE021A31EE008AA4E059
:101D100042F2FB1310464AF2A872C3F6F973394631
:101D2000C5F23D4212F0C0F812F08CF8CBF850002A
:101D300018EE100A12F0FEFE044619EE100A0F46C5
:101D400012F0F8FE02901BEE100A8A4612F0F2FE24
:101D500081461AEE100A884612F0ECFE05460E4641
:101D6000204639464A46434612F0FAFD02460B46E3
:101D700012F0EAFB044602980F4651462A463346C3
:101D800012F0EEFD02460B4612F0DEFB02460B4659
:101D90002046394612F088F841EC100B11F0C0FAD9
:101DA00051EC100B12F04EF8CBF84000DBE90E06B8
:101DB000DBE9094512F0BEFE074630468A4612F0BE
:101DC000B9FE02902046894612F0B4FE0446284629
:101DD000884612F0AFFE05460E463846514622466A
:101DE000434612F0BDFD02460B4612F0ADFB044621
:101DF00002980F4649462A46334612F0B1FD024684
:101E00000B4612F0A1FB02460B462046394612F063
:101E10004BF841EC100B11F083FA51EC100B12F05F
:101E200011F800EE100A039F0AE1104619464246D7
:101E3000334612F039F812F005F89BED020A9BEDDB
:101E4000191AB5EE400AB1EE412AF1EE10FA00EE91
:101E5000100A21FE021A30EE418A9BED001A9BED1A
:101E6000019A9BED082A9BED073A32EE492A33EEA0
:101E7000413A11EE100A82EE032A8BED060A8BED31
:101E8000048A8BED0F8A21EE023A8BED0C2A39EE93
:101E9000433A38EE434A8BED0D3A84EE02AA8BEDBD
:101EA0000EAA12F047FE044619EE100A0D4612F073
:101EB00041FE02901AEE100A019112F03BFE80469C
:101EC00018EE100A03978A4612F034FE81460E4639
:101ED000204629464246534612F042FD02460B4632
:101EE00012F032FB07460C46DDE901104A46334644
:101EF00012F036FD02460B4612F026FB3A46234608
:101F000011F0D2FF41EC100B11F00AFA51EC100B5A
:101F100011F098FF00EE100A9BED191ACBF868003B
:101F200081EE000A10EE101A084612F003FE41EC92
:101F3000100B10F029F851EC100B0B46024611F073
:101F4000B3FF11F07FFFCBF85000DBE90E06DBE9B1
:101F5000074512F0EFFD07463046884612F0EAFDCD
:101F600081462046029112F0E5FD044628468A4645
:101F700012F0E0FD05460E463846414622465346DD
:101F800012F0EEFC02460B4612F0DEFA0F46029902
:101F9000044648462A46334612F0E2FC02460B4607
:101FA00012F0D2FA02460B462046394611F07CFF69
:101FB00041EC100B11F0B4F951EC100B11F042FF91
:101FC000CBF84000DBE90E06DBE9094512F0B2FD73
:101FD00007463046884612F0ADFDCDE90110204697
:101FE00012F0A8FD044628468A4612F0A3FD814659
:101FF0000E4638464146039F2246534612F0B0FC37
:1020000002460B4612F0A0FA04460D46DDE9011027
:102010004A46334612F0A4FC02460B4612F094FAEC
:1020200002460B462046294611F03EFF41EC100BBC
:1020300011F076F951EC100B11F004FF00EE100ACC
:10204000CBF844009BED101A9BED142A21EE021AE6
:1020500022EE000A8BED121A8BED130A9FB19BED55
:102060000B0A012FB1EE401A19BF8BED171A8BED39
:10207000150A8BED180A8BED161A04B0BDEC0A8B0D
:1020800001B0BDE8F08F9BED0B0AB1EE401A8BED6D
:10209000160A8BED181A04B0BDEC0A8B01B0BDE82E
:1020A000F08F00002DE9F04F81B02DED048B40F250
:1020B0002010C2F200000078012840F0288140F68C
:1020C000FC00C2F2000040F25C410068C2F2000174
:1020D000CA6E416A4FF47A7302FB031740F25061F3
:1020E000C2F20001D1E9166540F20008C2F2000810
:1020F000D8F85040BE1B4FF0000767EB0505361BB4
:1021000075EBE476C0F0038102FB03F2406A40F213
:10211000E0391044C2F20009C1E91607D9E9020109
:102120000028024648BF4242002948BF49428A422D
:10213000C8BFC9F80C0040F2E820D9E90464C2F233
:10214000000000EE106A01EE104AB8EEC00AB8EEC8
:10215000C11A90ED122A90ED133A80EE010A83EE37
:10216000021A301B89ED060A00EE100A89ED071AE3
:10217000B8EEC00A10EE100A12F0DCFC98ED1C0B51
:1021800002465AEC105B98ED1A8B0B4628465146D6
:1021900012F0DAF911F056FE12F0CCFC02460B46B2
:1021A00051EC180B12F0D0F911F04CFE07462846FE
:1021B000514611F047FE002C48BF644200EE100A61
:1021C000002E48BF7642A019400801EE100A08EE22
:1021D000107AB8EEC11A21EE000A10EE100A12F0C1
:1021E000A9FC064627F000400C4612F0A3FC48F27A
:1021F000000AC4F2660A02460B460020514612F05D
:10220000AFFB4AF2A87242F2FB13C5F23D42C4F2A0
:10221000090307460D4612F097F940F2000BC3F68A
:10222000E07B00225B4612F08FF90022534611F04A
:10223000F7FE11F007FE12F07DFC41EC100B10F0E0
:1022400043FF51EC100B3246234612F07DF911F09A
:10225000F9FDD9E9041298ED1C9B0646114400EEE5
:10226000101AB8EEC00A10EE100A12F063FC024613
:102270000B4651EC190B12F067F900225B4612F085
:1022800063F9044688463846294600225B4612F028
:102290005BF94AF2A87242F2FB13C5F23D42C4F266
:1022A000090312F051F90022534611F0B9FE41EC36
:1022B000100B0FF0D5FF51EC100B2246434612F0E5
:1022C00043F911F0BFFD0021C4F2B43100EE101A41
:1022D000B5EE408A002138EE001ACCF2B431F1EEAE
:1022E00010FAB8BFB0EE418AC9F8200001EE101A0A
:1022F000B4EE408A38EE010AF1EE10FA40F2E8211D
:1023000030FE080AC2F200014E6581ED140ABDECF0
:10231000048B01B0BDE8F08F70B52DED088B04463D
:1023200010EE900AB0EE408A12F004FC40F68053A2
:1023300049F23B72C4F20903C7F20A3212F004F9FF
:1023400048F20003C4F26603002211F069FE11F0A6
:1023500079FDB0EEC80AB2EE0E1AB4EE410A84ED71
:10236000000AF1EE10FA55DB94ED070A94ED021A1B
:1023700030EE000A20F0004080EE01AA09EE100ABB
:1023800094ED0F0A94ED0CBA39EE000A10EE100A23
:1023900084ED0BAA12F0CEFB4CF6CC434CF6CD42AA
:1023A000C3F6EC73CCF6CC4212F0CEF805461AEE2A
:1023B000100A0E4612F0BEFB02460B462846314676
:1023C00011F02EFE11F03EFDB0EE490A8BEE0AAA86
:1023D00020640FF0A9FF94ED0F1AB0EE409AB0EE12
:1023E000410A0FF0A1FF39EE400AB5EE408A2AEE0D
:1023F000000AF1EE10FA84ED130A10DD94ED050ADF
:1024000094ED0C1A31EE002A31EE400A84ED0E2ACA
:1024100084ED0D0A94ED100ABDEC088B70BDB5EE8D
:10242000408AF1EE10FAF5DA94ED050A94ED0C1AF3
:1024300031EE402A31EE000A84ED0E2A84ED0D0AB9
:1024400094ED100ABDEC088B70BD000070B52DED49
:102450000A8B044610EE900AB0EE408A12F06AFB36
:1024600040F6805349F23B72C4F20903C7F20A32C4
:1024700012F06AF848F20003C4F26603002211F079
:10248000CFFD11F0DFFCB0EEC8BAB2EE0E0AB4EE2A
:1024900040BA84ED00BAF1EE10FA08DA94ED110AB0
:1024A000B5EE400AF1EE10FA00F3B780B1E094ED1A
:1024B000070A94ED021A30EE000A20F0004080EE88
:1024C000010A09EE100A94ED0CAAF0EE490A204622
:1024D00084ED0B0AB0EE480AFFF71EFF94ED0F1AC9
:1024E0002AEE000A39EE011A80EE01CAB0EE490A5E
:1024F0000FF01AFF94ED0F1AB0EE40AAB0EE410AA9
:102500000FF012FF94ED071A94ED022A31EE011A32
:1025100094ED0F9A81EE021A3AEE400A84ED00BA69
:102520002CEE00AA94ED0CCA89EE012A84ED0B1A58
:1025300012EE100A12F0FEFA4CF6CD454CF6CC43E2
:10254000CCF6CC45C3F6F0732A4611F0FDFF11F02E
:1025500079FCB5EE408A00EE100AF1EE10FAA064A4
:1025600006DD94ED051A3CEE012A3CEE411A0AE024
:10257000B5EE408AF1EE10FA09DA94ED051A3CEE58
:10258000412A3CEE011A84ED0E2A84ED0D1A2CEE40
:10259000000A80EE098AB0EE490A0FF0C5FEBFEED0
:1025A000001A30EE010A28EE000A30EE4A0A3BEE2D
:1025B000000A10EE100A12F0BDFA4CF6CC43C3F636
:1025C000EC732A4611F0C0FF0546206B0E4612F050
:1025D000B1FA02460B462846314611F021FD94ED32
:1025E0000F0A05460E4610F0D3FD10EE100A12F049
:1025F000A1FA02460B462846314611F011FD11F0B2
:1026000021FC00EE100A6064B5EE400AF1EE10FA0B
:1026100003DC002000EE100A6064BDEC0A8B70BD84
:1026200010B52DED028BB0EE408AB0EEC00AB2EECE
:102630000E1AB4EE410A044680ED000AF1EE10FADB
:1026400004DA94ED120ABDEC028B10BD94ED070A7A
:1026500094ED021A30EE000A80EE010A94ED0F1A92
:1026600081EE001A84ED0B0A11EE100A12F062FAE4
:102670004CF6CC434CF6CD42C3F6F073CCF6CC42CC
:1026800011F062FF11F0DEFBB5EE408A00EE100A99
:10269000F1EE10FAA0640EDD94ED051A94ED0C2A0B
:1026A00032EE013A32EE411A84ED0E3A84ED0D1A03
:1026B000BDEC028B10BDB5EE408AF1EE10FA0BDADC
:1026C00094ED051A94ED0C2A32EE413A32EE011ADD
:1026D00084ED0E3A84ED0D1ABDEC028B10BD0000A6
:1026E0002DE9F0418CB002F0BDFB40F2D054C2F2B3
:1026F0000004616F40F22018401A41F2883188428C
:10270000C2F2000806D298F87700032819D20CB05C
:10271000BDE8F08140F28020C2F20000422106F0C4
:102720009DFF122888F8780004D098F877000130CF
:1027300088F8770002F096FB606798F87700032826
:10274000E5D301A80DF0DCFF01AFEFCF40F280240C
:10275000C2F2000484E8EF00DDE90901DDF820C0E1
:10276000C4F81CC0C4E9080140F66C00C2F20000C5
:10277000A0610020C4F2022000F500612160102158
:10278000A180A060A18100F5806040F2000120617D
:102790000120C2F20001C98AA08284F826000A2022
:1027A000C7F6FF00216240F60711A0622046A1840F
:1027B00007F058F8204606F081FD40F2E821C2F209
:1027C0000001A1F84400204607F0CEF8002088F868
:1027D00077000CB0BDE8F081F0B581B040F2643311
:1027E000C2F20003002793ED100AC4F2342701EE71
:1027F000107AB0EEC00AB4EE410AF1EE10FA0EDA29
:102800000546002093ED140AC4F2482001EE100A98
:10281000B0EEC02AB4EE412AF1EE10FA07DD40F224
:102820002010C2F200000521017301B0F0BDBBEE23
:102830000E1A40F2D846B4EE410A40F2E820B1EE5A
:10284000402AF1EE10FAC2F20006D8BF86ED050A62
:10285000C2F20000B0F93A0086ED170A0C4600FB00
:1028600002F1B0F1FF3F01EE101A30FE020AB8EE9D
:10287000C11A30EE010A10EE100A86ED150A12F0A8
:1028800059F940F20007C2F2000797ED1C0B53EC18
:10289000102B11F0C5FB11F057FD316B01EE104A02
:1028A00001FB05F1B06100EE101AB8EEC00AF8EEB7
:1028B000410A0BF09BFC02F0D5FAD7E91212306600
:1028C00001EB810002EB820140004900C6E91101E1
:1028D00040F6FC00C2F2000040F25C410068C2F227
:1028E0000001C96E406A4FF47A7201FB020040F2A7
:1028F000A011C2F200010022C1E9040240F220103E
:10290000C2F20000012180F8501080F8571001B089
:10291000F0BD00002DE9F04F89B040F2E825C2F289
:102920000005A88E0138072800F2FB800FF208018D
:1029300001EB80018F4600BF00F00EB800F045B8F3
:1029400000F04AB800F050B800F055B800F05AB89E
:1029500000F06BB800F0C7B840F22016C2F20006D3
:1029600096F84C00012818D102F07CFA40F25C4144
:1029700040F60004C2F20001C4F202248867204637
:1029800008210022002702F067FA04F58060042184
:10299000002202F061FA86F84C70B07D01280CD15B
:1029A0000020B07540F20000C2F2000041F2883110
:1029B00081650120B07186F86C0000210120A98694
:1029C00009B0BDE8F04F0BF02BBB0020A88609B082
:1029D000BDE8F04F0BF0B4BC00210320A98609B07C
:1029E000BDE8F04F0BF01CBB0020A88609B0BDE885
:1029F000F04F0BF01DBE0020A88609B0BDE8F04FD7
:102A00000BF05ABD0F20FEF7E1F940F22010C2F2A0
:102A1000000090F86B10012940F083800021A98606
:102A200080F86B1009B0BDE8F08F40F22016C2F2BA
:102A3000000696F82E00012873D102F013FA40F236
:102A40005C4440F2D057C2F20004C2F20007A06713
:102A500040F20009F86C45F2A00BC2F20009C0F682
:102A6000010B0021D9F848205BF820300691029133
:102A7000009101219A4201914FF0030205914FF01C
:102A8000020103920491CDE9072113D145F2C40A52
:102A9000C0F6010AD9F84C105AF82020914209D109
:102AA0006988002902BF96F8461096F84B2051EA33
:102AB000020139D0092834D1E88D142829D1307980
:102AC00099F80B10884224D10020A886F86440F6BB
:102AD0000000C4F202204FF48071012202F0BCF920
:102AE00009B0BDE8F08FFEF7C1FB40F22010C2F242
:102AF000000090F85A10012913D1002180F85A10D3
:102B000040F26430C2F20000A986816009B0BDE8DD
:102B1000F08F00246420AC8601F048F80720FC64A4
:102B2000A88609B0BDE8F08F96F84000002804BFE1
:102B300040F20110A6F83D00642001F037F8F96C6E
:102B4000481C0729F864B5DC012186F84B1069465A
:102B500096F84C2051F8200040F60008012AC4F2F3
:102B60000228E88610D102F07DF9A06740460821CE
:102B70000022002402F070F908F580600421002290
:102B800002F06AF986F84C4040464FF4807100220A
:102B900002F062F9F86C5BF820105AF82000C5E9E1
:102BA0001B1007F039FCF86C0121A965696681E703
:102BB000704700002DE9F04F81B02DED108B40F2F1
:102BC000E03AC2F2000ADAF84400012840F0B98184
:102BD00040F6A044C2F200042046FDF70DFE002896
:102BE00048BF404211F00DFC804620468946FDF763
:102BF00037FF002848BF404211F003FC40F2000BB1
:102C0000C2F2000B0546DBF85C000E4611F0F9FB42
:102C10009BED1C0B54EC107B23463A4611F000FA56
:102C200002460B462846314611F09AFE42464B4674
:102C300011F0B9FF002840F05E8140F22018C2F286
:102C4000000898F83400012840F0558140F26430C3
:102C5000C2F20000C068002840F04D8140F2E8292F
:102C6000C2F20009D9F8480011F064FF02460B4691
:102C70003846214611F068FC41EC100B4FF08040C3
:102C8000002140EC181BB0EE481AF0EE681A0FF065
:102C9000F3FB51EC100B11F0D5F809EE100ABBF85C
:102CA0002A0011F0C5FBB0EE481A41EC100BF0EE13
:102CB000681A0FF0E1FB51EC100B11F0C3F800EEB5
:102CC000100A9BED172A39EE400AB6EE001A40F2C0
:102CD0005C4120EE010AB8EEC21AC2F2000180EE99
:102CE000010A9AED1E8A91ED00AABBF82A00B0EE07
:102CF000CA1A02EE100AB0EEC0BAB0EEC80AB4EEBC
:102D0000410A8AED1DBAB8EE429AF1EE10FA0ADADB
:102D10002AEE090A81ED019A80EE081AB0EE490AFE
:102D2000B0EE419A05E028EE090A80EE0A0A81ED2C
:102D3000010A10EE100A81ED029A11F0FBFE9BEDE4
:102D40001C0B54EC105B23462A4611F069F911F074
:102D500079F806460DEE100A1BEE100A11F0EAFE95
:102D60002A46234611F05CF911F06CF80021B7EE09
:102D700000EA0CEE101A0021B4EE4CDAF1EE10FA73
:102D8000B8BF012199ED120A99ED13FA3DEE400A00
:102D9000BFEE00DA88F83210B5EE400ACAF8486093
:102DA0008AED140AF1EE10FACAF84C007EFE0D8A84
:102DB000CAED158A11F0BEFE4AF6FC1246F24D230A
:102DC000CDF2F122C3F6507311F0BEFB064618EEA9
:102DD000900A0F4611F0AEFE02460B4630463946C9
:102DE00011F0B2FB11F02EF8CAF858000120CAF811
:102DF000440040F6FC00C2F20000C146D0F800805A
:102E000040F25C40C2F20000C76ED8F824004FF4D4
:102E10007A7107FB010040F25061C2F2000100220A
:102E20002AEE0B0AC1E9180219EE100A80EE088A90
:102E300011F080FE2A46234611F0F2F811F002F854
:102E4000064609EE100A18EE100A11F073FE2A4623
:102E5000234611F0E5F810F0F5FFB4EE4C9A39EE88
:102E60004F0AF1EE10FA4FF00001B5EE400AB8BF7C
:102E7000012189F83310F1EE10FACAF860603EFEC5
:102E80000D8ACAF864008AED1A0A8AED1B8A11F0CD
:102E900051FE4AF6FC1246F24D23CDF2F122C3F662
:102EA000507311F051FB044618EE100A0D4611F054
:102EB00041FE02460B462046294611F045FB10F024
:102EC000C1FF0122CAF87000CAF85C20D8F82400BB
:102ED0004FF47A7107FB010040F250630021C2F207
:102EE0000003C3E91A0141F28830CBF8580089F891
:102EF000062089F8341040F6A044C2F200042046AF
:102F0000FDF77AFC05462046FDF7AAFD854218D15B
:102F100040F65854C2F200042046FDF76DFC054609
:102F20002046FDF79DFD85420BD10020CAF84400E4
:102F3000CAF85C0040F22010C2F20000012180F8C3
:102F40003510BDEC108B01B0BDE8F08F012000F012
:102F5000A7BF000072B600BFFEE7000070B542F2E6
:102F600020060446C4F2020601F07CFF316811F02D
:102F70000B0F20D0BCB30546601C11D1306810F097
:102F80000B0F18D0306810F00B0F14D0306810F011
:102F90000B0F10D0306810F00B0FEFD10BE000BF1B
:102FA00001F060FF401BA04284BF032070BD306869
:102FB00010F00B0FF4D1306810F41E0009D040F26D
:102FC000A001C2F200014A6802434A603061012058
:102FD00070BD3068C0035CBF002070BD4FF480300E
:102FE0003061002070BD01F03DFF032070BD000086
:102FF00040F20470C2F2000000F0F6BB40F27C70B8
:10300000C2F2000000F0F0BB40F2F470C2F2000027
:1030100000F0EABB00284FF0010218BF002901D1DF
:1030200010467047B0B5D0E904C2C369D0F818E0C3
:103030001A43C36B1A4342EA0C0242EA0E020A60C8
:1030400003789B0616D5D0E909C3D0F82CE04FF0E1
:103050007C75846B05EB03534FF47C7505EB0C1505
:1030600042EA0E0203F07C73224305F47C751A4396
:103070002A430A604268036B40F2FF252A401A4344
:103080004A60C368B3F5007F08D0B3F5806F08D1FC
:1030900003789B0605D542F4806201E042F4007299
:1030A0004A60436B1A434A60436C43B1856C046CBD
:1030B0001A4305F03F05224342EA05424A60B0F850
:1030C000682040F2000C8A600378C0F2FF7C9B0706
:1030D00022D5C36C0CEB034303EA0C031A438A604A
:1030E000036D002B48BF02F180528A60436D002BB4
:1030F00048BF02F100528A60836D22F08045002BA8
:1031000048BF42F080458D60C26D25F00043002A23
:1031100048BF45F000438B60026ECA60426E0A6190
:103120000278920720D5026D0023002A48BF524240
:103130006FF35F324A61456D2C04002D48BFA3EB4D
:1031400005440CF1C05525402A444A61826D002A8D
:1031500048BF524292B28A61C56D2C04002D48BF0F
:10316000A3EB054422448A61006882074FF4E062C1
:1031700058BF4FF4A062104300220862BDE8B0407F
:1031800010467047B0B5044601F06CFE002C04BF39
:103190000120B0BD00210546206884F84C100221B2
:1031A00084F85410416941F0060141614169C90741
:1031B00009D000BF01F056FE401B052850D82068FA
:1031C0004169C907F6D14FF6B072CBF6FD720244E1
:1031D0006FF01F03A16B03EBF213E56B082B41EAC1
:1031E000050103D34FEAF212072A01D8226C1143DA
:1031F000426922F443021143416100210164626C7F
:10320000426441F24F32C4F2020290428164C164CE
:1032100001650CDC40F25031C4F20201884212D048
:1032200040F2D031C4F2020188420CD00EE041F2EB
:10323000D031C4F20201884205D041F25031C4F2CB
:103240000201884202D10021416581650021C167E8
:10325000A06C012220650020A16584F85420B0BD37
:10326000012003221021A16584F85420B0BD000084
:103270002DE9F04300284FF0010318BF002A02D1C6
:103280001846BDE8F0834369012B04D10421016194
:103290000120BDE8F083056842EA01030F462B4395
:1032A000002908BF1746002D18BF2F467B40B3F5F5
:1032B000803F08D265B195F8203061B191F8207057
:1032C000BB42E3D107E0052101610120BDE8F083A5
:1032D00031B191F8203092F82070BB42D6D100E095
:1032E000176A02230373002340F2000C03617B087A
:1032F000CFF6010C63F3596C63F39A6C07F0020389
:10330000002D03F1050E47D0002950D0D0F80890C9
:103310004FF6FC7311EA03044FF0000755D0B9F1E2
:10332000000F4FF0000351D04FF6FF739D4300276D
:103330004FF6FC78002345EA07060746002B18BF26
:1033400006EB8E073F685E1C4E4507EA080737D23A
:10335000A74235D045EA070656F82E709E1C4E450A
:1033600007EA08072CD2A7422AD045EA070656F8F2
:103370002E70DE1C4E4507EA080721D2A7421FD057
:1033800045EA070656F82E6004334B4506EA08075F
:103390001CD2A742CFD119E0A1B14FF6FC731A405D
:1033A00042EA0C02016041F82E2002212DE04FF686
:1033B000FC71294041EA0C0142F82E10026022E023
:1033C000334603E0026001211FE00023A74209D138
:1033D0004B450DD143687BB14FF6FC74234043EA63
:1033E0000C0307E00621012301611846BDE8F083C4
:1033F00051F82E3042F82E304FF6FC731A4042EA54
:103400000C0241F82E2081680131816000230121E6
:10341000036101731846BDE8F083000000284FF0F7
:10342000010218BF002901D11046704790F85430AE
:1034300090F85420052B18BF022A06D1402181653F
:10344000002180F84C10012070470A7B022A03D12A
:10345000012210460A617047026841F24F33C4F2FC
:1034600002039A4208DC40F25033C4F202039A424B
:103470000ED040F2D03307E041F25033C4F20203E1
:103480009A4205D041F2D033C4F202039A420ED1DF
:10349000036D4A68812B04D12AB10022416710468E
:1034A0007047002AF9D004200861012070470A689B
:1034B00092F820209207EBD5032008610120704785
:1034C0002DE9F043002804BF0120BDE8F083D0F8C7
:1034D00000E0BEF1000F07D0416851B1714504BF53
:1034E0000020BDE8F08307E0022101610120BDE872
:1034F000F0834169012904D1042101610120BDE863
:10350000F0830221017300210161DEF8202040F2E6
:10351000000C5308CFF6010C846863F3596C02F079
:10352000020263F39A6C02F105035CB14FF6FF727D
:10353000651E2EEA0202032D04F0030804D20025C2
:10354000002623E0002542E0A4EB080900254FF601
:10355000FC74002615430746002E18BF05EB8307B1
:103560003D6804362540154355F82350B14505EA1A
:10357000040545EA020555F8235005EA040545EA25
:10358000020555F8235005EA0405E3D1B8F1000F10
:103590001DD042EA05040546002E18BF04EB830542
:1035A0002D684FF6FC74B8F1010F05EA04050ED042
:1035B000154355F82350B8F1020F05EA040506D06B
:1035C0002A4352F823204FF6FC7402EA04054FF612
:1035D000FF724FF6FC742EEA020204EA0E042A433C
:1035E00044EA0C0742F823700122C0F804E00161AC
:1035F00002730846BDE8F08380B5002856D0436FBB
:10360000002B53D090F85410D0F800E00129DEF8D8
:1036100014C004D002294BD11CF4803148D090F85A
:10362000541001293AD190F84C1001294FF00201B1
:1036300044D0012280F84C2080F8541019730021E6
:1036400081651961DEF8141041F4BA41CEF8141006
:10365000416E29B1DEF8141041F40071CEF8141057
:10366000006F28B1DEF8140040F40050CEF81400CA
:1036700018680022016ACFF60102490861F3596215
:1036800061F39A624FF6FF7120EA0101CEF8001053
:103690004FF6FC7108401044CEF87C00DEF81400B0
:1036A00040F00100CEF81400002080BD012080BD54
:1036B00040218165002180F84C100121084680BD21
:1036C000B0B5044601F0CEFB002C04BF0120B0BD14
:1036D000054694F8540002282DD12168486940F02D
:1036E00004004861052084F854000869800408D467
:1036F00001F0B8FB401B052824D821680869800424
:10370000F6D54869012240F002004861042084F89F
:1037100054004FF4FE40C86084F8542094F85000E0
:1037200000064FF0000002D5636F1A738864002111
:1037300084F84C10B0BD2020A0650120002184F841
:103740004C10B0BDA06D40F01000A065032084F8BF
:10375000540094F8500000064FF0010044BF616F20
:103760000873002184F84C10B0BD0000002804BF8D
:103770000120704790F8541002290AD1042180F8E2
:103780005410006842F20402416911434161002073
:103790007047202181650120704700000246002803
:1037A0004FF0010008BF7047126802F57B63C3F356
:1037B000C41CCB065CBF0020704740F6FF7301F0CD
:1037C00011019A43112900FA0CF004D15168084301
:1037D000506000207047516821EA000050600020CE
:1037E00070470000806D704710B5044600680C22D9
:1037F000034600F57B6162F30B03C1F3C4111A6841
:1038000022FA01F1C90700F0A3800169490544BF0C
:1038100041695FEA41514BD40169090544BF4169DF
:103820005FEA01514CD40169C90444BF41695FEAB0
:10383000C1414DD40169490444BF41695FEA414136
:103840004ED40169890544BF41695FEA81514FD473
:103850000169890444BF41695FEA814152D4016929
:10386000C90544BF41695FEAC15172D4A06D002807
:1038700008BF10BD2068416941F002014161406903
:10388000C0074FF0030008BF012084F8540094F8EB
:103890005000000602D5606F01210173A16E002067
:1038A000002984F84C0053D02046BDE8104008475A
:1038B0004FF48061C160A16D41F00101A165ABE7EA
:1038C0004FF40061C160A16D41F00201A165AAE75A
:1038D0004FF48051C160A16D41F00401A165A9E7D9
:1038E0004FF48041C160A16D41F00801A165A8E7D6
:1038F0004FF40071C160616E0029A9D0204688474D
:103900002068A5E74FF40051C16094F854100429D1
:103910002AD1416921F400514161416941F002011C
:1039200041614169C9074FF0030108BF012184F8D3
:10393000541094F85010090604D5616F01220A73DF
:1039400000218164E16E0020002984F84C00ABD195
:1039500010BD94F85010090611D4816C002904BFE1
:10396000012184F8541013E0052184F85410216FCC
:1039700000293FF474AF2046884720686FE7C16F85
:1039800031B9816C21B9012184F85410626F11732F
:103990004FF44071C160216E0020002984F84C0072
:1039A0001CBF2046884761E7B0B5044601F05AFACB
:1039B000002C04BF0120B0BD00210546206884F81A
:1039C0004C10022184F85410416941F00601416114
:1039D0004169C90709D000BF01F044FA401B05281E
:1039E0004FD820684169C907F6D1216A426904F1BC
:1039F000100C22F4430211434161E3699CE8061074
:103A00001A4311434FF6B072CBF6FD7283186FF074
:103A10001F0202EBF31541EA0C02082D4FEAF31CDA
:103A200028BFBCF1070F14D804F1240E9EE82840EB
:103A30004FF07C7101EB05514FF47C7505EB0313DE
:103A400001F07C7142EA0E0203F47C73114341EAF7
:103A500003020264A1682279E3681143226BB3F583
:103A6000007F42EA010213D0B3F5806F12D1ACF1AE
:103A70002001082928BFBCF1070F98BF42F48062DB
:103A800008E0012003211022A26584F85410B0BD83
:103A900042F40072616B436C42F20015C3F6C045FC
:103AA0000A432B401A4341F24F33C4F202034264EB
:103AB0000022984282640CDC40F25032C4F20202CE
:103AC000904212D040F2D032C4F2020290420CD0A6
:103AD0000EE041F2D032C4F20202904205D041F22F
:103AE0005032C4F20202904202D100224265826545
:103AF0000022C267216501210020A26584F85410CC
:103B0000B0BD000010B500284DD090F84CC0BCF1FD
:103B1000010F04BF022010BD4FF0010C80F84CC013
:103B200090F854C0BCF1010F38D14FF0020C80F86E
:103B300054C04FF0000CC0F858C0D0F800C0D0F806
:103B400064E0DCF84840BEF1000FC3EA0403CCF89F
:103B500048304FF4FE43CCF80C30CCF84C10CCF885
:103B60005020DCF8141041F4BA41CCF8141005D000
:103B7000DCF8141041F40071CCF81410006F28B177
:103B8000DCF8140040F40050CCF81400DCF8140009
:103B900040F00100CCF81400002010BD40218165E8
:103BA000002180F84C10012010BD0000B0B5044683
:103BB00001F058F9054640F27800C2F200000078A2
:103BC000611C18BF044400BF01F04CF9401BA04227
:103BD000FAD3B0BD2DE9F04F81B040F2A00BC2F294
:103BE000000B9BF80020012A02BF022001B0BDE8B3
:103BF000F08F044601208BF8000000264FF47A7005
:103C00008946CBF80460FFF7A9F920B18BF8006072
:103C100001B0BDE8F08F206848F2080220F00041B2
:103C200042F228079142C4F20207CBF8080007D1FC
:103C3000606800F00301032936D148F2200042E019
:103C40004FF0FF30C9F80000D4E902502844854203
:103C500041D24FF6D77A4EF23F08C7F6FF7AAE014F
:103C6000C7F6FF786068414610F00100386808BF69
:103C70006FF4FE514FF0240200EA0100386038680A
:103C800008BF0AF14D023043104338604FF47A7098
:103C9000FFF764F908BBD4E9020101354036084456
:103CA0008542DFD300201AE0C1074FF6D771C7F66F
:103CB000FF7104D03A680A4042F028023A60800757
:103CC00004D501F151003968084338604FF47A7027
:103CD000FFF744F904E0002002E0C9F80050002694
:103CE00021684FF000423B6862EA010119403960E7
:103CF0008BF8006001B0BDE8F08F000040F2A0003A
:103D0000C2F200004068704742F22800C4F202008C
:103D1000016841F0010101600068012121EA000011
:103D2000704700002DE9F04381B040F2A009C2F2D3
:103D30000009154699F80020012A02BF022001B0AF
:103D4000BDE8F0838046012089F80000002042F29F
:103D500020040E46C4F20204C9F8040001F082F8FF
:103D6000216811F00B0F0BD0074600BF01F07AF865
:103D7000C01BB0F57A7F14D8206810F00B0FF5D176
:103D8000206810F41E0013D0D9F804100143C9F8BC
:103D9000041020610120002189F8001001B0BDE865
:103DA000F0830320002189F8001001B0BDE8F08302
:103DB0002068C00344BF4FF48030206128F00040E9
:103DC0000228C9F8088017D1A06840F00200A0605E
:103DD000EFF3108072B62968316069687160A96874
:103DE000B160E968F16080F3108801F03BF8216868
:103DF00011F00B0F0CD117E0A06840F00200A0609A
:103E00002888308001F02EF8216811F00B0F0BD0BC
:103E1000054600BF01F026F8401BB0F57A7F0FD8A9
:103E2000206810F00B0FF5D1206810F41E0009D0A7
:103E3000D9F804100143C9F804102061012008E0FA
:103E4000032006E02068C00344BF4FF480302061A7
:103E500000204FF02041A26861EA08011140A160F2
:103E6000002189F8001001B0BDE8F08342F204009F
:103E7000C4F20200416AC90704BF0020704740F243
:103E80002311C4F26751016048F6AB11CCF6EF5133
:103E90000160406A00F001007047000070470000B8
:103EA000B0B542F20C05C4F202452968044601424D
:103EB00003D020462C6000F00BF86868204208BF51
:103EC000B0BD20466C60BDE8B040FFF7E7BF000022
:103ED0002DE9F04F81B040F28021C2F20001898AC1
:103EE00040F25C4240F6FC0A40F2A0198142C2F264
:103EF0000002C2F2000AC2F2000963D1DAF800003F
:103F0000D16E406A4FF47A7201FB0200D9E91812AF
:103F1000401A4FF000019141C9E91A0100F0A2FFD7
:103F200040F2D058C2F2000840F2182BC8F87400D2
:103F3000C2F2000B40F280200BF10C01C2F2000033
:103F40000C2205F0CDFBD8F878109BF80D40084402
:103F50009BF80C109BF80E509BF80FC0214429448D
:103F60009BF8103061449BF8116019449BF812E0F3
:103F700031449BF81370C8F8780071449BF8140022
:103F8000394408449BF815109BF816200844104447
:103F90009BF81710C2B2914240F25C4240F22011ED
:103FA000C2F20002C2F2000181F879000AD140F2A7
:103FB000E820C2F200000188C8B2844208BFB5EB15
:103FC000112F14D040F25061C2F200014868013054
:103FD0004860DAF80000D16E406A4FF47A7201FB53
:103FE00002000021C9E91C0101B0BDE8F08F40F2D8
:103FF000201040F20004C2F20000C2F20004057971
:10400000A07A854268D1607A40F6FC0A40F2A01995
:104010008445C2F2000AC2F20009D3D1A04640F2A0
:104020002014C2F2000446EA032094F8443040F21F
:10403000E82547EA0E220E0AC2F2000528856A85A5
:10404000B3B9A2F5487080B2C82811D80120A4F8ED
:10405000430040F60000C4F202204FF480710122B8
:1040600000F0FAFE298898F809C094F844300E0A46
:1040700001208BF80000881940F250628BF8011083
:1040800060444FF0FF31C2F200021844CBF8051033
:10409000ABF80910116805388BF80B00481C10604C
:1040A00040F280208BF80430C2F2000059460C2206
:1040B0000F238BF802608BF803C005F079FC40F207
:1040C0005C4240F6FC0A40F2A019C2F20002C2F2C1
:1040D000000AC2F2000975E7607B40F6FC0A40F274
:1040E000A0198542C2F2000AC2F200097FF46AAF49
:1040F00040F22010C2F2000090F82E00012803D0F8
:10410000207A84457FF45EAF144600F0ABFE606712
:1041100040F20004C2F2000400F0A4FE40F22019B4
:10412000C2F2000999F84C1040F26432C2F2000267
:104130000129106721D19BF80F00A17988421CD07A
:1041400000F090FE40F25C4140F60005C2F2000132
:10415000C4F202258867284608210022002400F0C6
:104160007BFE05F580600421002200F075FE89F8D1
:104170004C4040F20004C2F200049BF80F00A17909
:1041800040F2E82A8842C2F2000A06D000F06AFE35
:1041900040F25C41C2F20001886799F80C00A0B3BC
:1041A000BAF80020FF218BF80010110A8BF80210DA
:1041B00002EB12218BF8012040F250628BF80300D1
:1041C00008444FF0FF31C2F20002CBF80410CBF8E4
:1041D0000710116808388BF80B00481C106040F27B
:1041E0008020C2F2000059460C220F2305F0E0FBAC
:1041F00040F25C4240F6FC0A40F2A019C2F2000212
:10420000C2F2000AC2F20009DCE69BF80F00217836
:10421000884255D199F84110002940F05C81BAF8E4
:104220000210002940F0578199F87A10012940F0D6
:1042300052819BF812309BF81010AAF83630D4E95E
:1042400012739BF811208F4289F87B1089F87C202B
:1042500040F09480934240F09480BAF8002001210D
:104260008BF800108BF80120110A02EB12228BF858
:1042700002108BF803004FF0FF31104440F25062FF
:10428000CBF80610FE213844C2F200028BF80A1067
:104290001844116805388BF80B00481C106040F278
:1042A00080208BF80530C2F2000059460C220F2303
:1042B0008BF8047005F07CFB092089F87100B5E1EA
:1042C000617888422CD1DAF85C10002940F0038133
:1042D00099F87A10012940F0FE8099F8161001290A
:1042E00040F0F480BAF8002001218BF80120130A75
:1042F00002EB12228BF80230DAF868308BF80300F8
:1043000010448BF800108BF804308BF8051018441B
:104310004FF0FF310338CBF806108BF80A1073E129
:10432000A178884240F0858099F83D1099F83F20A7
:1043300099F841301143194340F0CD8040F201110A
:10434000BAF80020A9F83D10012189F841108BF836
:1043500000108BF80120110A02EB12228BF80210D8
:1043600000218BF803008BF8041010444FF0FF314C
:104370000538CBF80510ABF8091045E1934240F041
:10438000BA8099F81630012B09D10023012789F84A
:10439000163089F86C7089F8293089F8033041F2B9
:1043A000883340F25065A3650023C2F2000589F806
:1043B0001E302B61C5F81330BAF800308BF80300BB
:1043C0008BF801301F0A03EB13238BF804101844F9
:1043D00008444FF0FF311044CBF806108BF80A1058
:1043E000296804388BF80B00481C286040F28020B4
:1043F00001268BF80520C2F2000059460C220F233B
:1044000089F8066089F8416089F84B608BF8006094
:104410008BF8027005F0CCFA99F87B0099F87C10C3
:10442000CAE91B0105F0F8FFCAF85860CAF86460D1
:10443000FCE0E17840F25C428842C2F2000240F0C7
:104440008D80BAF80210002900F01782BAF8001027
:1044500040F2D84799F84F200223C2F200078BF8A8
:1044600000300B0A07F144068BF801108BF802307C
:104470008BF80300012A08BF07F14C06366853FA8F
:1044800081F1F51706EB15658BF804602C128BF89B
:10449000054007F14804012A08BF07F150042268CB
:1044A00008443044D71700EB252002EB176710446F
:1044B00000EB27203C1200238BF806208BF80740E6
:1044C000ABF808308BF80A30023043E299F841101B
:1044D000002900F00E8240F25061C2F2000108682B
:1044E0000130086040F2802040F21821C2F2000042
:1044F000C2F2000196E0BAF8002000218BF800100B
:104500008BF80120110A02EB12228BF802108BF8B3
:1045100003004FF0FF31104440F25062CBF8061018
:10452000FE213844C2F200028BF80A1018441168C8
:1045300006388BF80B00481C106040F280208BF886
:104540000530C2F2000059460C220F238BF804708C
:1045500005F02EFA0A2089F8710067E02179884277
:1045600068D19BF812309BF81370663BB3FA83F363
:104570005B09642689F830307B1E07FB06F79BF841
:1045800010109BF811201D2B88BF4FF47A7740F64E
:10459000B8339F4288BF4FF47A779BF81430E78492
:1045A000A3F11E073C2F88BF3C23A3F11E073C2F1D
:1045B00088BF3C23238544F62063A3650323BAF810
:1045C000007089F80630012389F87A308BF80030C2
:1045D0003B0A8BF8023053FA87F38BF80300184438
:1045E000DAF86860084410443044C4E912128BF8C9
:1045F000041003384FF0FF318BF801708BF8052061
:104600008BF80660CBF8071040F25062C2F200024D
:1046100011688BF80B00481C106040F28020C2F239
:10462000000059460C220F2305F0C2F940F25C420B
:10463000C2F200029BF80F006179884240F0AA8123
:1046400099F87A1001290AD1BAF80210002902BF9C
:1046500099F8411099F8542051EA02011FD040F214
:104660005061C2F2000108680C220130086040F27B
:10467000802040F21821C2F20000C2F200010F2394
:1046800005F096F940F25C4240F6FC0A40F2A019AF
:10469000C2F20002C2F2000AC2F2000992E4D4E9B6
:1046A00012219BF810709BF81130BA4289F85570AE
:1046B00089F856303FD199423FD1BAF800700123B2
:1046C0008BF800303B0A8BF8023053FA87F38BF8F3
:1046D000030018448BF8042099F82160104440F23C
:1046E00050628BF8051008444FF0FF31C2F200020F
:1046F0003044CBF80710116803388BF80B00481CC6
:10470000106040F28020C2F2000059460C220F23B4
:104710008BF801708BF8066005F04AF940F25C42B4
:1047200040F6FC0A40F2A019C2F20002C2F2000AEE
:10473000C2F2000946E4994260D140F2D847C2F281
:104740000007C7E90021BAF80070012389F8413059
:104750008BF800308BF801703B0A07EB17278BF8BA
:10476000030038448BF80420104440F250628BF868
:10477000051008444FF0FF31C2F20002CBF80710D9
:10478000116803388BF80B00481C8BF802300023AB
:10479000106040F280208BF80630C2F200005946CB
:1047A0000C220F2305F004F999F8540040F25C4202
:1047B00040F6FC0A40F2A0190028C2F20002C2F240
:1047C000000AC2F200097FF4FDAB40F2E820C2F219
:1047D0000000408800287FF4F5AB40F22011012052
:1047E000C2F2000181F854004FF0FF3009F018FCCC
:1047F00040F25C42C2F20002FFF7E4BBBAF800707C
:1048000000238BF800303B0A8BF8023053FA87F311
:104810008BF8030018448BF8042099F821601044A9
:1048200040F250628BF8051008444FF0FF31C2F29D
:1048300000023044CBF80710116804388BF80B00E5
:10484000481C106040F28020C2F2000059460C2241
:104850000F238BF801708BF8066005F0A9F840F281
:104860005C4240F6FC0A40F2A019C2F20002C2F219
:10487000000AC2F20009FFF7A5BB99F81E10012932
:1048800055D1BAF80020012140F250638BF8001096
:104890008BF80120110AC2F2000302EB122293F8F6
:1048A00010C08BF8030093F811E010449F7C604423
:1048B000DE7C70441D7D38445C7D30448BF80210F2
:1048C000997D284420448BF80A1008441968013067
:1048D0008BF80B00481C8BF804C08BF805E08BF8B4
:1048E00006708BF807608BF808508BF80940186049
:1048F00039E09BF81010DAF86820CAF874108A4280
:1049000040F05E81BAF800308BF803008BF801307C
:104910001F0A03EB13230122184408448BF80020DC
:104920008BF802708BF804108BF80520F0E4BAF8CD
:10493000002000218BF80120130A02EB12228BF8D1
:10494000030010448BF800108BF80230CBF80410F1
:10495000CBF8071040F25062C2F2000211688BF8E7
:104960000B00481C106040F28020C2F20000594643
:104970000C220F2305F01CF840F25C4240F20004C8
:10498000C2F20002C2F200049BF80F006179884273
:104990003FF456AEA179884258D199F87D1040F67F
:1049A000FC0A40F2A0190029C2F2000AC2F2000972
:1049B0007FF408AB40F2E826C2F2000640F2201471
:1049C00032880121C2F2000484F87D108BF80010B7
:1049D0008BF80120110A02EB12228BF8021094F8D6
:1049E00022108BF80300F78A104408443844368BB1
:1049F00000EB172040F25062304494F821308BF8DD
:104A00000410FF2100EB1620C2F200028BF80A10FE
:104A1000116818448BF80B00481C106040F280208D
:104A20008BF80930C2F2000059460C220F23ABF874
:104A30000570ABF8076004F0BBFF40F25C42002059
:104A4000C2F2000284F87D00FFF7BCBAE179884227
:104A500057D199F81610012918D199F82910A9B938
:104A6000202040F6000589F801000120C4F202254B
:104A700089F8290028460821002200F0EDF905F503
:104A800080600421002200F0E7F9E079BAF8002004
:104A900001218BF800108BF80120110A02EB122281
:104AA0008BF8021099F803108BF80300104440F2C1
:104AB00050628BF8041008444FF0FF31C2F200023C
:104AC000CBF80510ABF80910116805388BF80B000E
:104AD000481C106040F28020C2F2000059460C22AF
:104AE0000F2304F065FF40F25C4240F6FC0A40F2FE
:104AF000A019C2F20002C2F2000AC2F20009FFF7D6
:104B000061BA217A40F6FC0A40F2A0198842C2F24A
:104B1000000AC2F200097FF455AA9BF8101040F277
:104B200020170129C2F200070BD197F82320022A8F
:104B300007D0397D013918BF01214900797301215E
:104B40007AE011B19BF8001078E040F2E821C2F25F
:104B50000001498800296AD140F22013C2F2000303
:104B6000D97B1A7C5B7C1143194360D140F2201140
:104B7000C2F20001097D012920D140F22011C2F2C8
:104B80000001497B012919D040F60005C4F2022535
:104B9000284608210122012400F05EF905F5806015
:104BA0000421012200F058F940F20000C2F2000096
:104BB000007A40F22011C2F200014C73012137E06B
:104BC000BAF800108BF803008BF801100B0A01EB08
:104BD00011218BF804200844104440F250624FF039
:104BE000FF31C2F20002CBF806108BF80A101168F0
:104BF00004388BF80B00481C8BF80230002310603F
:104C000040F2802001268BF80530C2F200005946A0
:104C10000C220F2389F841608BF8006004F0C8FE75
:104C200000F020F9C8F86C00CAE91766FEE400211C
:104C300040F22017C2F200078BF8001040F2E82281
:104C4000C2F2000212888BF803001144130A01EB30
:104C500012218BF801208BF802303B7D40F250622C
:104C600008444FF0FF31C2F200021844CBF805109F
:104C7000ABF80910116806388BF80B00481C10605F
:104C800040F280208BF80430C2F2000059460C221A
:104C90000F2304F08DFE40F25C4240F6FC0A40F225
:104CA000A019C2F20002C2F2000AC2F20009FFF724
:104CB00089B900002DE9F04F82B00C68002C00F09B
:104CC000C28047F67F72C0F22F0202EA90224FF0B4
:104CD00001090092002200260027012501900FE023
:104CE000BCF1030F5FD100BF0C68083734FA05F33D
:104CF00005F1010506F1020602F1040200F0A380AD
:104D0000A5F1010A09FA0AFE14EA0E0BECD0D1F85B
:104D100004C04CF01004122C1FD16FF0030303EAFF
:104D20005A0402F01C0300EB0409D9F820C05846CD
:104D3000D1F810B00F2404FA03F80BF00F042CEA9A
:104D4000080C04FA03F343EA0C0383460198C9F8FC
:104D50002030D1F804C04FF0010903680324B440A7
:104D60006FEA0408A3430CF00304B4402343BCF1EE
:104D7000120F036017D809FA0CF313F0061FAFD017
:104D80008368CC6803EA0803B44023438360436824
:104D90004FEA1C1423EA0E0304FA0AF42343BCF17D
:104DA000030F4360A0D0C3688C6803EA0803B440D3
:104DB00023435FEACC04C36096D542F200082AF090
:104DC0000303C4F2024808EB030EDEF860C007F0EC
:104DD00018040F23A3402CEA030C009B03FA04F4ED
:104DE0004CEA0403CEF86030D8F800C0D1F804E0F3
:104DF0004CEA0B035FEACE2458BF2CEA0B03C8F839
:104E00000030D8F804C05FEA8E234CEA0B0458BF88
:104E10002CEA0B04C8F80440D8F884C05FEA8E334B
:104E20004CEA0B0458BF2CEA0B04C8F88440D8F8AD
:104E300080C05FEACE334CEA0B0458BF2CEA0B0467
:104E4000C8F8804050E702B0BDE8F08F0069084024
:104E500018BF0120704700001823002A08BF28232C
:104E6000C150704740F61060C2F200000068704701
:104E700040F2780040F61061C2F20000C2F2000178
:104E800000780A68104408607047000080B503206D
:104E900000F086F801F03AFB40F62041C4F20241EE
:104EA000096845F2381201F00F01C0F60102515CA9
:104EB000C84040F28001C2F2000108600F2000F0FB
:104EC00009F800281CBF012080BD00F02BF800204D
:104ED00080BD000070B540F27806C2F2000631785D
:104EE000002904BF012070BD044640F28000C2F2D8
:104EF00000004FF47A720068B2FBF1F1B0FBF1F000
:104F000002F0CCFA0F2C4FF0010508D838B94FF059
:104F1000FF3021460022002500F016F87460284674
:104F200070BD000070470000002848BF704700F0C7
:104F30001F01012202FA01F14EF200124009CEF2E5
:104F4000000242F82010704710B54EF60C5CCEF20D
:104F5000000CDCF80030C3F3022E8EF00704042CA2
:104F600028BF0424BEF103034FF0FF3E38BF0023E7
:104F70000EFA04F4A14399400EFA03F39A4300F0A9
:104F80000F03043B1143634409010C3300F16042F9
:104F9000B0F1FF3FC8BF02F56443197010BD0000B7
:104FA0004EF60C51CEF200010A684FF6FF031A408C
:104FB00060F30A2242F0806040F0FD7008607047A4
:104FC00008F0D4FC10B540F6284CC4F2024CDCF8D2
:104FD0000CE0DCF80010DCF80030C3F30523DCF84B
:104FE0000020DCF8104002F01002C4F3CC0404FBF3
:104FF00002F200EE102AB8EE400A9BB301F0030162
:1050000003296FF35F2E32D0022939D001295CF8D1
:10501000281C49F20002C1F3C101C0F2D03222FAC9
:1050200001F101EE101A02EE103AB8EE411AB8EE94
:10503000422A4FF0645181EE021A02EE10EA03EEAA
:10504000101AB8EE422A20EE030A30EE020AB7EE3A
:10505000002A30EE022A5CF8281C22EE010A89019F
:1050600034D52FE00021C0E90011816010BD01EEB0
:10507000103A42F20041B8EE411AC4F6F42107E0BA
:1050800001EE103A42F20041B8EE411AC4F6742122
:1050900002EE101A4FF0645182EE012A01EE10EA7E
:1050A00003EE101AB8EE411A20EE030A30EE010AA0
:1050B000B7EE001A30EE011A5CF8281C22EE010A45
:1050C000890103D5DCF80010C90306D40021016072
:1050D0005CF8281C890117D41AE0DCF80C10B7EE34
:1050E000002AC1F3462101EE101AB8EE411A31EE42
:1050F000021A80EE011ABCEEC11A11EE101A0160FC
:105100005CF8281C890103D5DCF80010890301D460
:10511000002111E0DCF80C10B7EE002AC1F30641C3
:1051200001EE101AB8EE411A31EE021A80EE011AA1
:10513000BCEEC11A11EE101A41605CF8281C8901FE
:1051400044BFDCF800105FEA413102D400218160E5
:1051500010BDDCF80C10B7EE002AC1F3066101EEB9
:10516000101AB8EE411A31EE021A80EE010ABCEEB6
:10517000C00A10EE101A816010BD000010B540F694
:105180002C4CC4F2024CDCF810E0DCF80010DCF827
:105190000030C3F30523DCF80020DCF8144002F0F3
:1051A0001002C4F3CC0404FB02F200EE102AB8EEA5
:1051B000400A9BB301F0030103296FF35F2E32D045
:1051C000022939D001295CF82C1C49F20002C1F3F4
:1051D000C101C0F2D03222FA01F101EE101A02EE42
:1051E000103AB8EE411AB8EE422A4FF0645181EEFF
:1051F000021A02EE10EA03EE101AB8EE422A20EE6E
:10520000030A30EE020AB7EE002A30EE022A5CF8FA
:105210002C1C22EE010A090134D52FE00021C0E93F
:105220000011816010BD01EE103A42F20041B8EE6B
:10523000411AC4F6F42107E001EE103A42F20041AF
:10524000B8EE411AC4F6742102EE101A4FF0645100
:1052500082EE012A01EE10EA03EE101AB8EE411AAE
:1052600020EE030A30EE010AB7EE001A30EE011A02
:105270005CF82C1C22EE010A090103D5DCF80010B1
:10528000C90306D4002101605CF82C1C090117D465
:105290001AE0DCF81010B7EE002AC1F3462101EE47
:1052A000101AB8EE411A31EE021A80EE011ABCEE65
:1052B000C11A11EE101A01605CF82C1C090103D50B
:1052C000DCF80010890301D4002111E0DCF8101093
:1052D000B7EE002AC1F3064101EE101AB8EE411AEA
:1052E00031EE021A80EE011ABCEEC11A11EE101A4C
:1052F00041605CF82C1C090144BFDCF800105FEA37
:10530000413102D40021816010BDDCF81010B7EEED
:10531000002AC1F3066101EE101AB8EE411A31EE0F
:10532000021A80EE010ABCEEC00A10EE101A81606B
:1053300010BD000080B584B04FF6FF730246C0F286
:105340001F0300209B1A70EB01034FDA6FF06043DC
:105350009B1A70EB0103C0F297806FF07C439B1A9D
:105360004FF000038B4180F2E88082F080630B43B2
:1053700000F0A18182F000630B4300F0B18182F064
:105380008052114340F0D28240F60041C4F2024103
:10539000D1F8E000C0F3C202042A00F2EE820FF25C
:1053A000100000EB820348F20000C0F2BB009F46F1
:1053B00000F0F2BA00F0B4BA00F0DFBA00F0B6BA0A
:1053C00000F000B8D1F8E8000B6810F0404208681F
:1053D00003D113F0020340F05383B2F1804F40F049
:1053E000778310F4007040F06D8371E341F6FF7332
:1053F0009B1A70EB01036CDA4FF6FF739B1A4FF0A8
:1054000000038B4180F2DB8082F480330B4300F099
:10541000998182F400330B4300F0B08182F4802242
:10542000114340F0838240F60041C4F20241D1F8BA
:10543000DC00C0F302320020052A00F277820FF26E
:10544000080303EB82039F4600F08DBA00F068BAB0
:1054500000F06CBA00F0B6BA00F0BCBA00F000B8C8
:10546000D1F8E8000B6810F04042086803D113F04F
:10547000020340F00583B2F1804F40F0298310F41D
:10548000007040F01F8323E30F2940F3C78081F0B1
:105490001003134300F0948181F40073134300F070
:1054A000AD8181F48051114340F0408240F60041CB
:1054B000C4F20241D1F8E40000F04060B0F1806F26
:1054C00000F00A82002800F077810A68B0F1006FCE
:1054D0004AE1D2F103034FF000038B41C0F2BD80DB
:1054E00082F001030B4300F09D8182F00202114320
:1054F00040F01C8240F60040C4F20240D0F8D810C0
:1055000011F0380100F02F820268082903D112F04F
:10551000006240F0358203680268182903D113F055
:10552000020340F01D82202903D112F4007240F0E2
:10553000C982D0F8F0002829B6E282F400130B43A8
:1055400000F0938182F00072114340F0EF8140F649
:105550000041C4F20241D1F8F000D1F8F02000F48B
:105560004070B0F5807F03D112F0020240F0568106
:10557000D1F8F020B0F5007F06D112F000621EBF16
:105580004FF4FA4004B080BD0A68B0F5407F4FF098
:10559000000040F0CB8112F4003200F0C781C869EE
:1055A00010F4785F00F0E981C86941F20021C0F38E
:1055B0000520C0F27A01B1FBF0F004B080BD82F4A6
:1055C00000530B4300F0658182F48042114340F0A8
:1055D000AD8140F60040C4F20240D0F8E41001F47E
:1055E0004021B1F5802F00F07781002900F0BB81C8
:1055F00002680068B1F5002F03D112F0020240F0FA
:105600003F8210F400701CBF40F60010C0F23D0055
:10561000B1F5402F18BF002004B080BD82F00053C8
:105620000B4300F05F8181F00401114340F07E8163
:1056300040F60041C4F20241D1F8E800096810F4D4
:10564000407040F0948111F4003100F0908141F2FB
:105650000020C0F27A0004B080BD82F004030B4346
:1056600000F0668182F48052114340F05F8140F681
:105670000040C4F20240D0F8E01001F0E061B1F166
:10568000807F00F07D81002900F096800368026829
:10569000B1F1407F03D113F0020340F06181B1F119
:1056A000806F03D112F4007240F00C82D0F8F00049
:1056B000B1F1A06FF8E140F60040C4F20240D0F82A
:1056C000E810026811F0300140F0608112F40052DD
:1056D00000F05C8146F60040C0F2DC2004B080BDE2
:1056E00040F60041C4F20241D1F8E00000F00702A8
:1056F000042A00F242810FF2100000EB820348F20C
:105700000000C0F2BB009F4600F046B900F008B9A7
:1057100000F033B900F00AB900F000B8D1F8E800A1
:105720000B6810F04042086803D113F0020340F008
:10573000A781B2F1804F40F0CB8110F4007040F0AF
:10574000C181C5E140F60041C4F20241D1F8E40054
:1057500000F04070B0F1807F00F0BE80002800F0C3
:1057600002810A68B0F1007F4FF0000040F0DE8057
:1057700012F0020200F0DA80086881E140F6004190
:10578000C4F20241D1F8DC00C0F302220020052A55
:1057900000F2CC800FF2080303EB82039F4600BFA8
:1057A00000F00AB800F0BCB800F0C0B800F00AB9C8
:1057B00000F010B900F05AB900F084FE04B080BDCA
:1057C00040F60040C4F20240D0F8E41001F030018D
:1057D000102900F0E1800268202903D112F0006254
:1057E00040F0CE80006810F400501CBF46F6004028
:1057F000C0F2DC20302918BF002097E040F60040BE
:10580000C4F20240D0F8E810D0F8F02011F00801FE
:1058100040F0C88012F0020200F0C4804FF4004053
:1058200004B080BD40F60040C4F20240D0F8D81069
:1058300011F0070100F0C2800268012903D112F0C3
:10584000006240F09D8003680268032903D113F0D1
:10585000020340F08580042903D112F4007240F065
:105860003181D0F8F00005291EE140F60040C4F275
:105870000240D0F8E81001F0070102292CD00129DC
:1058800000F0B180002940F0B28000F0BBFD04B010
:1058900080BD40F60040C4F20240D0F8E41001F4AC
:1058A0004031B1F5803F17D000295CD00268006814
:1058B000B1F5003F03D112F0020240F0E18010F494
:1058C00000701CBF40F60010C0F23D00B1F5403F33
:1058D00018BF002004B080BD01A8FFF74FFC03985B
:1058E00004B080BD40F60041C4F20241D1F8E000AE
:1058F000C0F38212042A40D80FF2100000EB82039A
:1059000048F20000C0F2BB009F4600BF00F044B860
:1059100000F006B800F031B800F008B800F095B813
:1059200001A8FFF72BFC019804B080BD04B080BD36
:1059300040F60040C4F20240D0F8D81011F4E071F3
:1059400011D00268402902D112F0006218D1036818
:105950000268C02940F09E8013F0020300F09A8094
:10596000C2F3C1008EE000F065FD04B080BDB0F56B
:10597000007F05D0B0F5807F0ED0002004B080BD40
:1059800001A8FFF7FBFB029804B080BD0268102954
:1059900047D112F0007244D001A8FFF713FB029820
:1059A00004B080BDD0F8F00010F0006018BF4FF4D4
:1059B000FA40002908BF084604B080BD00F05EFD33
:1059C00004B080BDD1F8F0004FF4004101EA80300E
:1059D00004B080BDD1F8F0004FF4FA41000101EAB3
:1059E000E07004B080BD00F091FD04B080BD02689D
:1059F000032903D112F400327FF429AE0268006853
:105A0000042902D112F002023AD110F400701CBF36
:105A100040F60010C0F23D00052918BF002004B078
:105A200080BDD0F8F020202903D112F002027FF4CB
:105A3000F5AED0F8F00010F0006018BF4FF4FA4057
:105A4000302918BF002004B080BDD1F8E8000B68F1
:105A500010F04042086802D113F0020310D1B2F1F5
:105A6000804F35D110F400702CD131E0D1F8E8002E
:105A70000B6810F0404208681ED113F002031BD0DF
:105A8000C0F3C10049F20001C0F2D03121FA00F0A8
:105A900004B080BDB1F5807F02D112F4007211D143
:105AA000D0F8F000B1F5A07F00F002024FF0000046
:105AB00008BF900304B080BDB2F1804F08D110F44C
:105AC000007005D040F60010C0F23D0004B080BD6B
:105AD000086810F400301CBF41F20020C0F27A00C8
