:020000040800F2
:1000000068130020F902000855990008BD86000811
:100010004D930008DD17000875C8000800000000B7
:1000200000000000000000000000000095A400088F
:10003000492A000800000000619B00082DAC000860
:100040001503000815030008150300080000000050
:100050001503000815030008150300080000000040
:100060001503000815030008000000004D2A0008D1
:100070001503000815030008150300081503000800
:1000800015030008150300081503000815030008F0
:1000900015030008150300081503000815030008E0
:1000A000150300081503000815030008A12B00081C
:1000B000AD2B0008B92B0008150300081503000834
:1000C00015030008150300081503000815030008B0
:1000D00000000000150300081503000815030008C0
:1000E0001503000815030008150300081503000890
:1000F00015030008D9AC0008E5AC000800000000BA
:10010000000000001503000815030008150300088F
:10011000150300081503000815030008150300085F
:1001200015030008150300081503000869C8000836
:10013000150300080000000000000000150300087F
:10014000150300080000000000000000000000008F
:10015000000000000000000015030008000000007F
:10016000000000000000000015030008150300084F
:10017000000000000000000000000000000000007F
:10018000000000000000000000000000000000006F
:10019000000000000000000000000000000000005F
:1001A000000000000000000015030008150300080F
:1001B00015030008150300081503000815030008BF
:1001C00015030008150300080000000000000000EF
:1001D00000000000000000000000000015030008FF
:1001E00015030008000000000000000000000000EF
:1001F00000000000000000000000000000000000FF
:1002000000000000150300081503000800000000AE
:1002100000000000150300080000000000000000BE
:1002200000000000000000000000000015030008AE
:10023000150300080000000000000000000000009E
:10024000000000000000000000000000150300088E
:10025000150300081503000800F002F800F03CF850
:100260000AA090E8000C82448344AAF10107DA4511
:1002700001D100F031F8AFF2090EBAE80F0013F027
:10028000010F18BFFB1A43F001031847E4380100BF
:1002900004390100103A24BF78C878C1FAD852074F
:1002A00024BF30C830C144BF04680C6070470000F0
:1002B0000023002400250026103A28BF78C1FBD86F
:1002C000520728BF30C148BF0B6070471FB513F0FD
:1002D000F0F91FBD10B510BD00F008F91146FFF789
:1002E000F5FF0EF0B9FA00F026F903B4FFF7F2FFBC
:1002F00003BC00F029F900000A4880470A4800477B
:10030000FEE7FEE7FEE7FEE7FEE7FEE7FEE7FEE7C5
:10031000FEE7FEE7FEE7000004480549054A064BF4
:100320007047000031AC000859020008680D002039
:1003300068130020680F0020680F002053EA020CA9
:1003400000F069802DE9F04B4FF00006002B1FBF35
:10035000B3FA83F503FA05F424FA05F65E4012BFFA
:100360001643B2FA82F502FA05F4C5F120051EBF64
:1003700022FA05FC44EA0C04203556EA044C4FEA04
:10038000144418BF641C4FF000084FF0000990425D
:1003900071EB030C39D3002919BFB1FA81F701FAC7
:1003A00007F6B0FA80F700FA07F6C7F120071EBF7C
:1003B00020FA07FC46EA0C062037B6FBF4FCA7EB54
:1003C0000507103F07F01F0BCBF120062CFA06F6AD
:1003D0000CFA0BFB44BFB3460026202FA4BF5E4699
:1003E0004FF0000B5BEA060C08BF4FF0010B19EB56
:1003F0000B0948EB0608ABFB027C06FB02CC0BFBAF
:1004000003CCC01B71EB0C01C1E70B460246414611
:100410004846BDE8F08B13B5084318BF4FF0FF30D6
:100420000146AFF30080BDE81C4070474FF000026A
:100430000429C0F0128010F0030C00F01B80CCF1F6
:10044000040CBCF1020F18BF00F8012BA8BF20F864
:10045000022BA1EB0C0100F00DB85FEAC17C24BFB8
:1004600000F8012B00F8012B48BF00F8012B704762
:100470004FF0000200B5134694469646203922BF3D
:10048000A0E80C50A0E80C50B1F12001BFF4F7AF88
:10049000090728BFA0E80C5048BF0CC05DF804EB6A
:1004A000890028BF40F8042B08BF704748BF20F8D8
:1004B000022B11F0804F18BF00F8012B70477047D6
:1004C0007047704710B500F009F8006810BD10B50E
:1004D000044600F003F8046010BD000000487047B7
:1004E000B000002000487047B00000207546FFF7BC
:1004F000F9FFAE4605006946534620F007008546E1
:1005000018B020B5FFF708FFBDE820404FF0000607
:100510004FF000074FF000084FF0000BAC46ACE87E
:10052000C009ACE8C009ACE8C009ACE8C00921F0DA
:1005300007018D46704710B50446AFF30080204692
:10054000BDE81040FFF7D1BE01491820ABBEFEE761
:1005500026000200704700002DE9F04F81B02DED1C
:10056000108B40F2C83AC2F2000ADAF824000128DF
:1005700040F0278240F2D02BC2F2000B9BED080A1C
:100580009AED0E2A9AED0A1A30EE020A9AED0D2A19
:1005900031EE403A8BED080A40F6983623EE022AF7
:1005A000C2F20006B5EE402AF1EE10FABCBF8BEDA8
:1005B000081AB0EE410ABDEEC00A10EE100A00287B
:1005C00048BF404200EE100A3046B8EEC00A00F0C4
:1005D000C7FB304600F0F4FA002848BF404212F052
:1005E00004FC80463046894600F054FC002848BF91
:1005F000404212F0FAFB40F20006C2F20006044646
:10060000F06B0D4612F0F1FB96ED180B56EC107BDB
:1006100033463A4612F0F8F902460B462046294680
:1006200012F092FE42464B4612F0B1FF40F2101813
:100630000028C2F2000840F0568198F82D000128E9
:1006400040F0518140F24C30C2F2000000680028B6
:1006500040F04981DBF8200012F060FF02460B46B3
:100660003846314612F064FC41EC100B4FF08040EC
:10067000002140EC181BB0EE481AF0EE681A10F09A
:10068000EFFB51EC100B12F0D1F840F20004C2F273
:10069000000409EE100AA08A12F0BEFBB0EE481A60
:1006A00041EC100BF0EE681A10F0DAFB51EC100B75
:1006B00012F0BCF800EE100A94ED0F2A39EE400A51
:1006C000B6EE001A20EE010AB8EEC21A9AED168AAA
:1006D00080EE010A9AED17AAA08AB0EECA1A02EEBD
:1006E000100AB0EEC0BAB0EEC80AB4EE410A8AED04
:1006F00015BAB8EE429AF1EE10FA0ADA2AEE090AB1
:100700008AED189A80EE081AB0EE490AB0EE419AC6
:1007100005E028EE090A80EE0A0A8AED180A10EEB2
:10072000100A8AED199A12F0F9FE40F20002C2F2A4
:10073000000292ED180B54EC105B23462A4612F08F
:1007400063F912F073F806460DEE100A1BEE100A5C
:1007500012F0E4FE2A46234612F056F912F066F82B
:100760000021B7EE00EA0CEE101A0021B4EE4CDACC
:10077000F1EE10FAB8BF01219BED080A9BED09FAD2
:100780003DEE400ABFEE00DA88F82B10B5EE400AC5
:10079000CAF828608AED0C0AF1EE10FACAF82C00AB
:1007A0007EFE0D8ACAED0D8A12F0B8FE4AF6FC12E2
:1007B00046F24D23CDF2F122C3F6507312F0B8FB8E
:1007C000064618EE900A0F4612F0A8FE02460B46A7
:1007D0003046394612F0ACFB12F028F8CAF838005F
:1007E0000120CAF8240040F62810C2F2000040F2AE
:1007F00044410768C2F20001D1F85C90786A322166
:1008000009FB010040F23061C2F2000100222AEE31
:100810000B0AC1E9060219EE100A80EE088A12F0EE
:100820007DFE2A46234612F0EFF811F0FFFF064640
:1008300009EE100A18EE100A12F070FE2A4623463E
:1008400012F0E2F811F0F2FFB4EE4C9A39EE4F0AD2
:10085000F1EE10FA4FF00001B5EE400AB8BF0121E9
:1008600088F82C10F1EE10FACAF840603EFE0D8AAE
:10087000CAF844008AED120A8AED138A12F04EFE7D
:100880004AF6FC1246F24D23CDF2F122C3F6507324
:1008900012F04EFB044618EE100A0D4612F03EFE12
:1008A00002460B462046294612F042FB11F0BEFFDD
:1008B0000123CAF85000CAF83C30786A322109FB9B
:1008C000010040F230610022C2F20001C1E90802D9
:1008D00040F2000141F28830C2F20001886388F8DA
:1008E000073088F82D2040F69834C2F200042046E4
:1008F00000F066F90546204600F0CCFA854216D194
:1009000098F82E00012812D1002088F82E00DBE98B
:100910000801CAE91A0140F60040C2F2000000F0E6
:100920004FF900EE100AB8EEC00A8AED1C0A40F634
:100930000044C2F20004204600F042F90546204679
:1009400000F0A8FA85421AD198F82F00012816D194
:10095000002088F82F00DBE90801CAE91D0140F6F4
:100960009830C2F2000000F02BF900EE100A40F2BD
:100970004440B8EEC00AC2F2000080ED000A40F622
:100980009834C2F20004204600F01AF905462046C9
:1009900000F080FA854214D140F60044C2F200040F
:1009A000204600F00DF90546204600F073FA854216
:1009B00007D10020CAF82400CAF83C00012088F8BA
:1009C0003000BDEC108B01B0BDE8F08F70B5DDE9F3
:1009D00004CE01700021FF268684C0E90A11038637
:1009E000A0F832E0C0E90F2C46F286624FF07E5448
:1009F0000325C4F6691280F8381080F86410C0E945
:100A00001412C0E916140166C0E90111C0E903140B
:100A1000C0E90544C0E90715BDE87040AFF30080A8
:100A20002DE9F04381B0044694ED030A4068A168C3
:100A300020EE000A0F1A10EE100A12F06FFD0546A4
:100A400060690E4612F06AFD02460B4611F020FF67
:100A500002460B462846314611F0D6FF12F068F9DF
:100A600047B9012806DC0020E061E060206501B0A4
:100A7000BDE8F083012F0BDBD4F85080B8F1010FF3
:100A8000C0F28380874213DD94F86010B9B90FE09B
:100A9000D4F85080B7F1FF3F0EDC7942B8F1010F76
:100AA000C0F28180884203DA94F86010012906D1EF
:100AB000C0F10008C4F85080B8F1000F3FD0A06D1D
:100AC00012F02CFD02460B4606460F4611F0E0FEE2
:100AD00005464046894612F088F90023CCF21003FF
:100AE000002212F025FA0023CBF6F073002211F059
:100AF000CFFE02460B462846494611F085FF0246C6
:100B00000B463046394611F0C3FE11F08FFE00EE61
:100B1000100ABDEEC00A94ED171A10EE100ABDEED1
:100B2000C11A11EE101A8842C8BF014600EE101A11
:100B3000B8EEC00A94F8600084ED160A0BE0616D0F
:100B400000204FF00008002FC8BF0120A16500EE73
:100B5000101A84F8600042F20041C4F6741101EEEC
:100B6000101A08F1010181EE001A2165BCEEC00ADD
:100B7000002884ED070A84ED031A04BFB1EE410A90
:100B800084ED030A01B0BDE8F083874294DDB8F13B
:100B9000000F91D094F86000012890D1C8F10008AE
:100BA000C4F850808BE78842BFF686AFB8F1000FDB
:100BB0003FF482AF94F8600000287FF480AFEDE747
:100BC0004068704782688A4214BF81607047FFF7AF
:100BD00027BF000070B504464068A16881424FF00D
:100BE000000008BF70BDE2694FF00001C8BF0121DD
:100BF00084F86010F2B10EF017FB0546D4E90A0143
:100C0000E269EE17281A66EB0101801A71F1000003
:100C10003CBF002070BD94F860006168012818BFD7
:100C20004FF0FF3008446060204600F0E3F80120F8
:100C3000C4E90A5670BD000010B52DED028BB5EE6B
:100C4000400AF1EE10FA02D1BDEC028B10BD90ED1E
:100C5000051AB0EEC08A0446B4EE481AF1EE10FA56
:100C6000F2D081EE080A94ED141A18EE100AB8EECC
:100C7000C11A20EE010ABDEEC00A84ED140A12F07A
:100C80004DFC02460B4600204FF0804111F0BCFEA7
:100C900041EC100B11F038F851EC100B4AF2CA136A
:100CA00041F26F22C3F6E573CCF2830212F040F9F1
:100CB00048F28043C4F22E13002212F039F911F0E9
:100CC000B5FD014684ED058A20466165BDEC028BC9
:100CD000BDE81040FFF7A4BE00220265C261C0E972
:100CE0000111C2607047000070B590ED041AB0EEBB
:100CF000C00AB4EE401AF1EE10FA08BF70BD044607
:100D000042F2004084ED040AC4F6741001EE100AA9
:100D1000206D81EE001A012884ED171A1FDB94ED77
:100D2000030A20EE000A10EE100A12F0F7FB054647
:100D300060690E4612F0F2FB02460B4611F0A8FD68
:100D400002460B462846314611F05EFE11F0F0FFD8
:100D5000014620462165BDE87040FFF761BE70BDC9
:100D6000B0B52DED028B90ED031AB4EE401AF1EE02
:100D700010FA02D1BDEC028BB0BD90ED041A04460E
:100D8000B1EE412A0025B4EE402A81FE400AF1EE80
:100D900010FA32FE008AB5EE408AF1EE10FA05D163
:100DA000E56184ED038ABDEC028BB0BD18EE100A3C
:100DB00012F0B4FB0B4648F280410246C4F22E11F9
:100DC000002011F021FEEA0F62F3DF7111F0E0FF65
:100DD00000EE105AB4EE408AF1EE10FAC8BF0125B9
:100DE00084F860500546E56184ED038ABDEC028B12
:100DF000B0BD0000B0B590F860500446002D18BF9B
:100E00000125C06B94F86120218E002A18BF0122B1
:100E100003F002FC94F86220206C618E002A18BF57
:100E200001226A4003F0F8FB94F86050002D18BFCF
:100E3000012594F86120E06B218EB2FA82F252090A
:100E400003F0EAFB94F86220206C618E002A18BF40
:100E500001226A4003F0E0FB03200CF0E1FB94F870
:100E60006050002D18BF0125E06B94F86120218EA1
:100E7000002A18BF012203F0CFFB94F86220206CF7
:100E8000618E002A18BF01226A40BDE8B04003F01D
:100E9000C3BB0000806870472DE9F04381B02DEDA1
:100EA000028B40F60004C4F2022403F0BBFB0546AB
:100EB0002046042103F0AAFB40F21016C2F20006FD
:100EC00096F8261040F2B85840F2682740F27409AC
:100ED0008842C2F20008C2F20007C2F2000911D132
:100EE000D7E90C120023691AD9F800504FF001001D
:100EF00063EB0202691A73EB020188F83B0028BF1A
:100F0000002005E0002088F83B00C7E90C500020D5
:100F100086F8270003F086FB05462046022103F0F1
:100F200075FB96F82610884211D1D7E90E120023DE
:100F3000691AD9F804504FF0010063EB0202691AF4
:100F400073EB020188F83C0028BF002005E0002078
:100F500088F83C00C7E90E50002086F8280003F00E
:100F600061FB054620460121012403F04FFB96F862
:100F70002610884210D1D7E91001D9F80830281A74
:100F80004FF0000262EB0101181A72EB010088F8C1
:100F90003D4028BF002405E00020002488F83D00E3
:100FA000C7E9105040F20005C2F20005697A96F8D0
:100FB000270096F82830421A18BF01225B1A18BF82
:100FC0000123B6F872008C4286F829401FBF1A40F0
:100FD000B0FA80F35B0952EA030204D101228C4289
:100FE00008BF02223273B17D012908BF002805D055
:100FF000F07E01280ED1042030730DE040F2D020A5
:10100000C2F20000406B002804BF03203073F07E62
:101010000128F0D0307B70B3002108EE101A40F6A2
:101020009830B0EE480AC2F20000FFF799FE40F691
:101030000040B0EE480AC2F20000FFF791FE40F611
:101040003030B0EE480AC2F20000FFF789FE96F891
:10105000200038B944F62060A8630320F071012015
:1010600086F82000307B04280AD8012101FA00F01C
:1010700010F0160F04D0BDEC028B01B0BDE8F08378
:1010800096F82A000128F6D1BDEC028B01B0BDE82C
:10109000F04303F075BB00002DE9F04F81B02DED5A
:1010A0000A8B82B040F21018C2F2000898F85F0074
:1010B00028B102B0BDEC0A8B01B0BDE8F08F40F260
:1010C0004C39B6EE002AC2F2000999ED150AD9F89A
:1010D0000000B0EEC01A40F23C57B4EE421AC2F221
:1010E0000007F1EE10FAC0F2DB80002840F0D88053
:1010F0004FF6D46487ED100ACFF6FF7403F092FA2E
:1011000099ED150A4FF0000AB5EE400A7864F1EE49
:1011100010FA88F860A040F3CE800120C9F80000E2
:1011200040F69830C2F200004FF496714FF001097A
:10113000FFF748FD40F60040C2F200002146FFF7ED
:1011400041FD40F20000C2F2000090ED180B0021BA
:1011500056EC105BC4F23E0100202A46334611F0E3
:1011600053FC11F063FB44F2000108EE100A07463D
:101170000190C4F28F0100202A46334611F044FC4E
:1011800011F054FB00EE10AA0546BFEE009AB4EE33
:10119000408A40F2D020B7EE00AA0026F1EE10FA05
:1011A000C2F20000B8BF012690ED080A40F2C83430
:1011B00038EE400AC2F20004B5EE400A90ED09BADA
:1011C000F1EE10FA28463AFE09CA88F82B6084ED41
:1011D0000C0AA76284ED0DCAE56212F09FF946F28F
:1011E0004D234AF6FC12C3F65073CDF2F12211F0F2
:1011F0009FFE83461CEE100A8A4612F08FF90246C3
:101200000B465846514611F093FE11F00FFBA063B8
:1012100040F62810C2F20000C4F8249040F2444185
:10122000D0F80090C2F2000138EE4B0ACF6DD9F829
:10123000240084ED120A3221B5EE400A07FB0100BA
:1012400040F23061F1EE10FA4FF00002C2F20001FC
:10125000C1E9060201983AFE091A206411EE100A4B
:1012600088F82C6084ED131A656412F057F9024671
:101270000B465846514611F05BFE11F0D7FA206537
:101280000120E063D9F82400322140F24C3907FBF9
:10129000010040F23C57C2F20009C2F20007D2E05E
:1012A000002804BF012088F85F0098F8600001283A
:1012B00040F0D4800BE10220C9F8000040F69830DD
:1012C000C2F200002146FFF77DFC40F60040C2F26A
:1012D00000004FF49671FFF775FC40F20000C2F277
:1012E000000090ED180B002156EC105BC4F23E019B
:1012F00000202A46334611F087FB11F097FA44F29A
:10130000000108EE100A04460190C4F28F0100208B
:101310002A46334611F078FB11F088FA00EE10AA45
:101320000546BFEE009AB4EE408A40F2D020B7EEF8
:1013300000AA4FF0000BF1EE10FAC2F20000B8BFA5
:101340004FF0010B90ED080A40F2C83938EE400A20
:10135000C2F20009B5EE400A90ED09BAF1EE10FABA
:1013600028463AFE09CA88F82BB089ED0C0AC9F85C
:10137000284089ED0DCAC9F82C5012F0CFF846F27A
:101380004D234AF6FC12C3F65073CDF2F12211F050
:10139000CFFD06461CEE100A0F4612F0BFF80246BB
:1013A0000B463046394611F0C3FD11F03FFAC9F83B
:1013B00038000120C9F8240040F62810C2F20000CD
:1013C00040F244410468C2F2000138EE4B0AD1F801
:1013D0005CA0606A89ED120A3221B5EE400A0AFB70
:1013E000010040F23062F1EE10FAC2F200024FF05A
:1013F0000001C2E9060101983AFE091AC9F8400045
:1014000011EE100A88F82CB089ED131AC9F844506F
:1014100012F084F802460B463046394640F23C57FB
:10142000C2F2000711F084FD11F000FAC9F8500073
:101430000120C9F83C00606A40F24C393221C2F206
:1014400000090AFB010040F230620021C2F20002F2
:10145000C2E9080198F86000012838D0D9F80000E6
:1014600002281BD0012840F0958099ED158A18EECE
:10147000100A12F053F8B9EE040AB4EE408AF1EE05
:1014800010FA61DB49F6991349F69A12C3F6C9734B
:10149000C9F6991212F07BF8C8B155E099ED158A9A
:1014A00018EE100A12F03AF8B1EE040AB4EE408ACF
:1014B000F1EE10FA52DC49F6991349F69A12CBF67E
:1014C000C973C9F6991212F077F8002846D140F690
:1014D0009834C2F20004002620460021C9F80060BA
:1014E000FFF7FAFB40F60045C2F20005284600214E
:1014F000FFF7F2FB20460021FFF764FB284600219E
:10150000FFF760FB08EE106A2046B0EE480AFFF7CE
:1015100027FCB0EE480A2846FFF722FC40F2D02014
:10152000C2F20000C0E9086640F2C830C2F2000012
:101530004662C663C660D9F800000121022888F817
:101540005F100BD0012825D199ED150A97ED101ADF
:10155000B4EE410AF1EE10FA1FDD08E099ED150A2C
:1015600097ED101AB4EE410AF1EE10FA15DA0020E8
:10157000C9F8000040F69830C2F200000021FFF7E1
:10158000ABFB40F60040C2F200000021FFF7A4FBD5
:10159000D9F8000000283FF48CAD03F043F8796CD3
:1015A000401A40F6B831884224BF012088F8600014
:1015B00002B0BDEC0A8B01B0BDE8F08F2DE9F0411F
:1015C0002DED028B40F21016C2F2000696F8500084
:1015D00018B1BDEC028BBDE8F08140F2D027C2F219
:1015E0000007F86E10B10128F3D1A3E040F24C30AF
:1015F00040F23C54C2F20000C2F2000490ED150A21
:1016000094ED001A96F8630030EE010A01284FF0BD
:10161000010084ED120AF86604D10020A064206065
:1016200086F8630040F69830C2F200000021FFF710
:1016300053FB40F60040C2F200000021FFF74CFBD4
:1016400040F20000C2F2000090ED060A90ED071A89
:1016500090ED082AB8EEC00A0020C4F2B43022EEA1
:10166000002A94ED120A03EE100A20EE022A21EE5F
:10167000031AB5EE400A82EE011AF1EE10FAB0EE4E
:10168000C11A84ED131A11DDBDEEC10A40F698307F
:1016900010EE101AC2F20000FFF794FA94ED130A4C
:1016A000BDEEC00A10EE100A444223E0B5EE400A37
:1016B000F1EE10FA11DABDEEC10A10EE100A414245
:1016C00040F69830C2F20000FFF77CFA94ED130A5E
:1016D000BDEEC00A10EE104A0CE0B5EE400AF1EE85
:1016E00010FA0ED140F69830C2F20000002100241A
:1016F000FFF768FA40F60040C2F200002146FFF70B
:1017000061FA0021C4F2C82108EE101A40F69830A0
:10171000B0EE480AC2F20000FFF722FB40F600409C
:10172000B0EE480AC2F20000FFF71AFBF86E01287B
:101730007FF44FAF40F69834C2F200042046FFF722
:10174000A9FB05462046FFF73BFA85427FF441AFEF
:1017500040F60044C2F200042046FFF79BFB05461A
:101760002046FFF72DFA85427FF433AF40F69838D4
:101770000220C2F20008F866404600210024FFF76C
:10178000ABFA40F60045C2F2000528460021FFF7FB
:10179000A3FA40460021FFF715FA28460021FFF77B
:1017A00011FA08EE104A4046B0EE480AFFF7D8FAA0
:1017B000B0EE480A2846FFF7D3FA40F2C830C2F22A
:1017C00000004462C463C4600120C7E9084486F88D
:1017D0005000BDEC028BBDE8F0810000FEE7000088
:1017E000F0B581B040F20044C4F2022402F01AFFC6
:1017F000054620464FF4804102F008FF40F21016E3
:10180000C2F2000696F8261088421DD140F26820E8
:10181000C2F20000D0E9121240F27407C2F20007CF
:10182000FF68691A4FF0000363EB0202791A40F275
:10183000B8514FF00100C2F2000173EB020281F8CF
:101840003E0028BF00200DE040F2B850C2F2000078
:10185000002180F83E1040F26820C2F20000C0E98A
:101860001251002040F20007C2F20007F97A8842C4
:1018700012D196F8240078B9012086F82400F0757A
:1018800042F210700021B863042031736421F071BA
:101890001020A6F87210707002F0C4FE05462046B3
:1018A0004FF4005102F0B2FE96F8261088422CD177
:1018B00040F26820C2F20000D0E914120023691A35
:1018C00040F27405C2F200052D6963EB0202691A49
:1018D00040F2B8514FF00100C2F2000173EB020276
:1018E00081F83F0028BF0020F97A88421ED002F01C
:1018F00099FE40F24441C2F200014969401AC828E9
:1019000024BF002086F83C002CE040F2B850C2F220
:101910000000002180F83F1040F26820C2F2000071
:10192000C0E914510020F97A8842E0D196F83C00D1
:10193000C0B940F2D025C2F2000568890130688143
:10194000012086F83C0002F06DFE698940F24442B5
:10195000C2F20002C907506102D108F0BFFB01E0EA
:1019600001F0C6F802F05EFE054620464FF48051B5
:1019700002F04CFE96F82610884220D140F26820F2
:10198000C2F20000D0E9161240F27406C2F200065C
:101990007669691A4FF0000363EB0202711A40F294
:1019A000B8514FF00100C2F2000173EB020281F85E
:1019B000400028BF0020F97A884221D110E040F28F
:1019C000B850C2F20000002180F8401040F26820B8
:1019D000C2F20000C0E916510020F97A88420FD106
:1019E0004FF4FA6001F0BAFE40F2D020C2F20000DB
:1019F0000721818140F24440C2F200000021816150
:101A000001B0F0BD2DE9F04F81B02DED0A8B84B00F
:101A10008A46B1EE602A41F26F21C3F68321B5EE0A
:101A2000401AB0EE408A00EE101AF1EE10FA83462A
:101A300000FE010AB1EE481A8BED012A10EE100AE1
:101A40008BED001A11F06AFD42F2FB134AF2A87204
:101A5000C4F20903C5F23D4211F06AFA48F20003EC
:101A6000C4F2660300224FF0000910F0CDFF10F021
:101A7000DDFE0746CBF8080018EE100A8BF86CA0C4
:101A800011F04CFD0646DBF82C000D4611F046FD2A
:101A900004463846884611F041FD41EC100B0FF02A
:101AA000D3F851EC100B2246434611F041FA32466E
:101AB0002B4611F049FC10F0B9FECBF81C00DBE915
:101AC0000104DBF82C7011F029FD804638460E46E3
:101AD00011F024FD074620460D4611F01FFD41EC94
:101AE000100B0FF0E5FF51EC100B3A462B4611F0AE
:101AF0001FFA4246334610F0CBFE10F097FECBF8AB
:101B00002000DBF80000DBF80840DBF82C7011F057
:101B100005FD804638460E4611F000FD074620467A
:101B20000D4611F0FBFC41EC100B0FF08DF851EC61
:101B3000100B3A462B4611F0FBF902460B46404685
:101B4000314611F001FC10F071FECBF82400DBE906
:101B50000104DBF82C7011F0E1FC804638460E469B
:101B600011F0DCFC074620460D4611F0D7FC41EC95
:101B7000100B0FF09DFF51EC100B3A462B4611F065
:101B8000D7F902460B4640463146574611F0DCFB7A
:101B900010F04CFE9BED000ABAF1020FCBF82800C2
:101BA00023D1B5EE400A42F2FB15C4F20905F1EE6D
:101BB00010FA40F0B680DBF80800DBF82C4020F08B
:101BC0000040CBE9104411F0A9FC02464AF2A8708B
:101BD0000B46C5F23D40294611F0B6FB10F026FE3B
:101BE00000EE104ACBF850004AE301EE109A0020B4
:101BF000B4EE410A9BED010AF1EE10FA18BF012084
:101C0000B4EE410AF1EE10FA18BF4FF0010950EAA4
:101C1000090027D1DBF80800DBF82C6011F07EFC0E
:101C200004460D4600204FF0004122462B4611F09D
:101C30008BFB42F2FB134AF2A872C3F6F973C5F2AA
:101C40003D42002F04BF2946204610F021FE10F02F
:101C5000EDFDCBF85000CBF8406000EE106ACBF8F9
:101C600044600DE310EE100A20F0004011F056FC25
:101C70000446DBF808000D4611F050FC41EC100B57
:101C80000EF0E2FF53EC102B2046294610F0BCFE6C
:101C900010F0CCFD0446CBF86400DBF800009BEDAF
:101CA000018A11F03BFC804620460E4611F036FCBE
:101CB0000446DBF808000D4611F030FC41EC100B37
:101CC0000FF0F6FE51EC100B22462B4611F030F9C6
:101CD00004460D4600204FF0004122462B4611F0ED
:101CE00033FBB5EE408A42463346F1EE10FAA4BF0C
:101CF0002946204610F0CCFD10F098FD00EE100AA9
:101D0000CBF81400C7B1012F24D19BED01CA9BED84
:101D1000191AB5EE40CAF1EE10FA16DB31EE008A60
:101D200015E09BED028AB5EE408AF1EE10FA40F024
:101D3000AA809BED110AA3E29BED01CA9BED191A43
:101D4000B5EE40CAF1EE10FAE8DB30EE418A8BEDD9
:101D5000038A03E09BED01CA9BED038A9BED000A19
:101D60009BED08AA9BED07BA3AEE4C1A3BEE402ACF
:101D7000B5EE40CA81EE021AF1EE10FA8BED0E8A32
:101D8000039720EE012A21EE083A3CEE422A8BED21
:101D90000C1A33EE029A8BED0D2A8BED0F9A14D1AB
:101DA000DBF8080011F0BAFB0246002F0F4600F0E6
:101DB000CD8042F2FB114AF2A870C3F6F971C5F268
:101DC0003D403B4611F0C0FACCE010EE100A11F095
:101DD000A5FB04461CEE100A0F4611F09FFB81463E
:101DE00018EE100A029111F099FB804619EE100AC4
:101DF0008A4611F093FB05460E4620463946424678
:101E0000534611F0A1FA02460B4611F091F80F4625
:101E10000299044648462A46334611F095FA02468E
:101E20000B4611F085F802460B462046394610F065
:101E30002FFD41EC100B0FF067FF51EC100B10F071
:101E4000F5FC00EE100A9BED191ACBF8680081EE44
:101E5000000A10EE101A084611F060FB41EC100B5E
:101E60000EF086FD51EC100B0B46024610F010FDF3
:101E700010F0DCFC9BED07BA9BED08AA9BED0E8AE7
:101E80009BED0F9A70E010EE100A20F0004011F068
:101E900045FB044618EE100A0D4620F0004011F0F4
:101EA0003DFB41EC100B0FF003FE53EC102B2046D2
:101EB000294610F0A9FD10F0B9FC08EE100ACBF885
:101EC0006400DBF8040011F029FB9BED029AB1EEEF
:101ED000480A8046B5EE409A0E46F1EE10FA28FE0A
:101EE000000A9BED008A10EE100A11F017FB044661
:101EF00019EE100A0D4611F011FB41EC100B0EF01B
:101F0000A3FE51EC100B22462B4611F011F8B5EE52
:101F1000408A0246F1EE10FA0B4680F2A480404659
:101F2000314611F011FA10F081FC9BED020A9BED95
:101F3000191AB5EE400AB1EE412AF1EE10FA00EEA0
:101F4000100A21FE021A31EE008AA4E042F2FB13CD
:101F500010464AF2A872C3F6F9733946C5F23D42FB
:101F600010F096FC10F062FCCBF8500018EE100A4E
:101F700011F0D4FA044619EE100A0F4611F0CEFA09
:101F800002901BEE100A8A4611F0C8FA81461AEE3A
:101F9000100A884611F0C2FA05460E462046394618
:101FA0004A46434611F0D0F902460B4610F0C0FFF6
:101FB000044602980F4651462A46334611F0C4F9AA
:101FC00002460B4610F0B4FF02460B462046394647
:101FD00010F05EFC41EC100B0FF096FE51EC100B74
:101FE00010F024FCCBF84000DBE90E06DBE90945E4
:101FF00011F094FA074630468A4611F08FFA0290A3
:102000002046894611F08AFA04462846884611F08F
:1020100085FA05460E46384651462246434611F09B
:1020200093F902460B4610F083FF044602980F46D0
:1020300049462A46334611F087F902460B4610F00E
:1020400077FF02460B462046394610F021FC41EC52
:10205000100B0FF059FE51EC100B10F0E7FB00EEE7
:10206000100A039F0AE1104619464246334610F013
:102070000FFC10F0DBFB9BED020A9BED191AB5EE8D
:10208000400AB1EE412AF1EE10FA00EE100A21FEEC
:10209000021A30EE418A9BED001A9BED019A9BEDEE
:1020A000082A9BED073A32EE492A33EE413A11EE07
:1020B000100A82EE032A8BED060A8BED048A8BED63
:1020C0000F8A21EE023A8BED0C2A39EE433A38EEB4
:1020D000434A8BED0D3A84EE02AA8BED0EAA11F065
:1020E0001DFA044619EE100A0D4611F017FA029077
:1020F0001AEE100A019111F011FA804618EE100A3A
:1021000003978A4611F00AFA81460E462046294670
:102110004246534611F018F902460B4610F008FFEC
:1021200007460C46DDE901104A46334611F00CF92A
:1021300002460B4610F0FCFE3A46234610F0A8FB80
:1021400041EC100B0FF0E0FD51EC100B10F06EFBAA
:1021500000EE100A9BED191ACBF8680081EE000A18
:1021600010EE101A084611F0D9F941EC100B0EF0E0
:10217000FFFB51EC100B0B46024610F089FB10F0F0
:1021800055FBCBF85000DBE90E06DBE9074511F003
:10219000C5F907463046884611F0C0F98146204609
:1021A000029111F0BBF9044628468A4611F0B6F9AF
:1021B00005460E46384641462246534611F0C4F8BD
:1021C00002460B4610F0B4FE0F46029904464846FC
:1021D0002A46334611F0B8F802460B4610F0A8FE26
:1021E00002460B462046394610F052FB41EC100BDC
:1021F0000FF08AFD51EC100B10F018FBCBF84000EB
:10220000DBE90E06DBE9094511F088F9074630469F
:10221000884611F083F9CDE90110204611F07EF9CE
:10222000044628468A4611F079F981460E4638461A
:102230004146039F2246534611F086F802460B465C
:1022400010F076FE04460D46DDE901104A4633469D
:1022500011F07AF802460B4610F06AFE02460B4671
:102260002046294610F014FB41EC100B0FF04CFDFA
:1022700051EC100B10F0DAFA00EE100ACBF8440023
:102280009BED101A9BED142A21EE021A22EE000A91
:102290008BED121A8BED130A9FB19BED0B0A012FE8
:1022A000B1EE401A19BF8BED171A8BED150A8BEDA5
:1022B000180A8BED161A04B0BDEC0A8B01B0BDE80C
:1022C000F08F9BED0B0AB1EE401A8BED160A8BEDE9
:1022D000181A04B0BDEC0A8B01B0BDE8F08F000005
:1022E0002DE9F04F81B02DED048B40F21010C2F2B9
:1022F00000000078012840F02E8140F62810C2F23C
:10230000000040F244410068C2F20001CA6D416A17
:10231000322302FB031740F23061C2F20001D1E91F
:10232000046540F20008C2F20008D8F83040BE1B35
:102330004FF0000767EB0505361B75EBE476C0F040
:102340000A8102FB03F2406A40F24C391044C2F2A7
:102350000009C1E90407D9E91B010028024648BF6A
:102360004242002948BF49428A42C8BFC9F87000AA
:1023700040F2D020D9E91D64C2F2000000EE106ADC
:1023800040F2C83101EE104AB8EEC00AB8EEC11AE8
:1023900090ED082A90ED093A80EE010A83EE021AC8
:1023A000C2F20001301B81ED000A00EE100A81ED3F
:1023B000011AB8EEC00A10EE100A11F0AFF898ED4D
:1023C000180B02465AEC105B98ED168B0B4628460C
:1023D000514610F0ADFD10F029FA11F09FF80246B9
:1023E0000B4651EC180B10F0A3FD10F01FFA074636
:1023F0002846514610F01AFA002C48BF644200EEFD
:10240000100A002E48BF7642A019400801EE100ABB
:1024100008EE107AB8EEC11A21EE000A10EE100A8A
:1024200011F07CF8064627F000400C4611F076F8D3
:1024300048F2000AC4F2660A02460B4600205146E2
:1024400010F082FF4AF2A87242F2FB13C5F23D423D
:10245000C4F2090307460D4610F06AFD40F2000B76
:10246000C3F6E07B00225B4610F062FD002253467B
:1024700010F0CAFA10F0DAF911F050F841EC100B34
:102480000FF016FB51EC100B3246234610F050FDB6
:1024900010F0CCF9D9E91D1298ED189B06461144AD
:1024A00000EE101AB8EEC00A10EE100A11F036F85D
:1024B00002460B4651EC190B10F03AFD00225B4628
:1024C00010F036FD044688463846294600225B4611
:1024D00010F02EFD4AF2A87242F2FB13C5F23D4203
:1024E000C4F2090310F024FD0022534610F08CFAC8
:1024F00041EC100B0EF0A8FB51EC100B22464346AA
:1025000010F016FD10F092F90021C4F2B43100EE83
:10251000101AB5EE408A002138EE001ACCF2B43120
:10252000F1EE10FAB8BFB0EE418A01EE101AB4EE27
:10253000408A38EE010AF1EE10FA40F2D02130FE66
:10254000080AC2F20001CE6281ED0A0A40F2C831E7
:10255000C2F200018860BDEC048B01B0BDE8F08FD1
:1025600070B52DED088B044610EE900AB0EE408A4F
:1025700010F0D4FF40F6805349F23B72C4F20903D5
:10258000C7F20A3210F0D4FC48F20003C4F266032A
:10259000002210F039FA10F049F9B0EEC80AB2EE94
:1025A0000E1AB4EE410A84ED000AF1EE10FA55DB82
:1025B00094ED070A94ED021A30EE000A20F0004074
:1025C00080EE01AA09EE100A94ED0F0A94ED0CBA00
:1025D00039EE000A10EE100A84ED0BAA10F09EFFEF
:1025E0004CF6CC434CF6CD42C3F6EC73CCF6CC4261
:1025F00010F09EFC05461AEE100A0E4610F08EFFF3
:1026000002460B462846314610F0FEF910F00EF94E
:10261000B0EE490A8BEE0AAA20640EF079FB94ED25
:102620000F1AB0EE409AB0EE410A0EF071FB39EE8F
:10263000400AB5EE408A2AEE000AF1EE10FA84ED67
:10264000130A10DD94ED050A94ED0C1A31EE002A00
:1026500031EE400A84ED0E2A84ED0D0A94ED100A45
:10266000BDEC088B70BDB5EE408AF1EE10FAF5DADC
:1026700094ED050A94ED0C1A31EE402A31EE000A71
:1026800084ED0E2A84ED0D0A94ED100ABDEC088B42
:1026900070BD000070B52DED0A8B044610EE900A57
:1026A000B0EE408A10F03AFF40F6805349F23B7298
:1026B000C4F20903C7F20A3210F03AFC48F20003F0
:1026C000C4F26603002210F09FF910F0AFF8B0EEEC
:1026D000C8BAB2EE0E0AB4EE40BA84ED00BAF1EE1A
:1026E00010FA08DA94ED110AB5EE400AF1EE10FA8C
:1026F00000F3B780B1E094ED070A94ED021A30EED2
:10270000000A20F0004080EE010A09EE100A94ED64
:102710000CAAF0EE490A204684ED0B0AB0EE480AF6
:10272000FFF71EFF94ED0F1A2AEE000A39EE011A88
:1027300080EE01CAB0EE490A0EF0EAFA94ED0F1AE3
:10274000B0EE40AAB0EE410A0EF0E2FA94ED071A9C
:1027500094ED022A31EE011A94ED0F9A81EE021ADD
:102760003AEE400A84ED00BA2CEE00AA94ED0CCAB1
:1027700089EE012A84ED0B1A12EE100A10F0CEFE3B
:102780004CF6CD454CF6CC43CCF6CC45C3F6F073B5
:102790002A4610F0CDFB10F049F8B5EE408A00EE65
:1027A000100AF1EE10FAA06406DD94ED051A3CEE75
:1027B000012A3CEE411A0AE0B5EE408AF1EE10FA29
:1027C00009DA94ED051A3CEE412A3CEE011A84ED3B
:1027D0000E2A84ED0D1A2CEE000A80EE098AB0EE66
:1027E000490A0EF095FABFEE001A30EE010A28EE03
:1027F000000A30EE4A0A3BEE000A10EE100A10F012
:102800008DFE4CF6CC43C3F6EC732A4610F090FBD9
:102810000546206B0E4610F081FE02460B46284608
:10282000314610F0F1F894ED0F0A05460E460FF010
:10283000A3F910EE100A10F071FE02460B4628466E
:10284000314610F0E1F80FF0F1FF00EE100A60647D
:10285000B5EE400AF1EE10FA03DC002000EE100A9B
:102860006064BDEC0A8B70BD10B52DED028BB0EE2F
:10287000408AB0EEC00AB2EE0E1AB4EE410A044627
:1028800080ED000AF1EE10FA04DA94ED120ABDECC4
:10289000028B10BD94ED070A94ED021A30EE000A87
:1028A00080EE010A94ED0F1A81EE001A84ED0B0AF6
:1028B00011EE100A10F032FE4CF6CC434CF6CD422D
:1028C000C3F6F073CCF6CC4210F032FB0FF0AEFF43
:1028D000B5EE408A00EE100AF1EE10FAA0640EDDAB
:1028E00094ED051A94ED0C2A32EE013A32EE411ABB
:1028F00084ED0E3A84ED0D1ABDEC028B10BDB5EEE1
:10290000408AF1EE10FA0BDA94ED051A94ED0C2AD8
:1029100032EE413A32EE011A84ED0E3A84ED0D1A90
:10292000BDEC028B10BD0000F0B581B040F24C331D
:10293000C2F20003002793ED0F0AC4F2342701EE20
:10294000107AB0EEC00AB4EE410AF1EE10FA0EDAD7
:102950000546002093ED120AC4F2482001EE100A49
:10296000B0EEC02AB4EE412AF1EE10FA07DD40F2D3
:102970001010C2F200000521017301B0F0BD40F259
:10298000C04601EE102AC2F2000686ED1B0A0C4674
:10299000B8EEC11A996930EE010AD96110EE100A39
:1029A00086ED190A10F0BAFD40F20007C2F20007E6
:1029B00097ED180B53EC102B10F026F810F0B8F927
:1029C000B16B01EE104A01FB05F1706300EE101AC5
:1029D000B8EEC00AF8EEC10A0AF05EFAD7E90901BA
:1029E000322200EB800040F2306301EB81014000B5
:1029F0004900C6E9140140F62810C2F2000040F276
:102A000044410068C2F20001C96D406AC2F200038D
:102A100001FB02000022716BC3E91A0240F69830F4
:102A2000C2F20000FEF7CEF8716B40F60040C2F231
:102A30000000FEF7C7F840F21010C2F200000121BA
:102A400080F8471001B0F0BD70470000012000F091
:102A5000FFBF000072B600BFFEE7000070B542F293
:102A600020060446C4F2020601F0DCFD316811F0D4
:102A70000B0F20D0BCB30546601C11D1306810F09C
:102A80000B0F18D0306810F00B0F14D0306810F016
:102A90000B0F10D0306810F00B0FEFD10BE000BF20
:102AA00001F0C0FD401BA04284BF032070BD306810
:102AB00010F00B0FF4D1306810F41E0009D040F272
:102AC0009001C2F200014A6802434A60306101206D
:102AD00070BD3068C0035CBF002070BD4FF4803013
:102AE0003061002070BD01F09DFD032070BD00002D
:102AF00010B540F21014C2F2000494F8330001281B
:102B000027D140F60000C4F202202021002201F06B
:102B100083FD94F836000121012884F8341019D07F
:102B200003282AD0062818BF10BD40F63034C2F260
:102B3000000420464FF41651FEF744F84CF2000012
:102B4000C4F25A5000EE100A2046BDE81040FEF7CD
:102B500007B910BD40F63034C2F2000420464FF4ED
:102B6000C861FEF72FF80020C4F2FA4000EE100A08
:102B70002046BDE81040FEF7F3B840F63034C2F20C
:102B8000000420464FF49651FEF71CF80020C4F2D2
:102B9000FA5000EE100A2046BDE81040FEF7E0B8FB
:102BA00040F2E460C2F2000000F0F6BB40F25C705C
:102BB000C2F2000000F0F0BB40F2D470C2F200009C
:102BC00000F0EABB00284FF0010218BF002901D134
:102BD00010467047B0B5D0E904C2C369D0F818E018
:102BE0001A43C36B1A4342EA0C0242EA0E020A601D
:102BF00003789B0616D5D0E909C3D0F82CE04FF036
:102C00007C75846B05EB03534FF47C7505EB0C1559
:102C100042EA0E0203F07C73224305F47C751A43EA
:102C20002A430A604268036B40F2FF252A401A4398
:102C30004A60C368B3F5007F08D0B3F5806F08D150
:102C400003789B0605D542F4806201E042F40072ED
:102C50004A60436B1A434A60436C43B1856C046C11
:102C60001A4305F03F05224342EA05424A60B0F8A4
:102C7000682040F2000C8A600378C0F2FF7C9B075A
:102C800022D5C36C0CEB034303EA0C031A438A609E
:102C9000036D002B48BF02F180528A60436D002B08
:102CA00048BF02F100528A60836D22F08045002BFC
:102CB00048BF42F080458D60C26D25F00043002A78
:102CC00048BF45F000438B60026ECA60426E0A61E5
:102CD0000278920720D5026D0023002A48BF524295
:102CE0006FF35F324A61456D2C04002D48BFA3EBA2
:102CF00005440CF1C05525402A444A61826D002AE2
:102D000048BF524292B28A61C56D2C04002D48BF63
:102D1000A3EB054422448A61006882074FF4E06215
:102D200058BF4FF4A062104300220862BDE8B040D3
:102D300010467047B0B5044601F074FC002C04BF87
:102D40000120B0BD00210546206884F84C10022106
:102D500084F85410416941F0060141614169C90795
:102D600009D000BF01F05EFC401B052850D8206848
:102D70004169C907F6D14FF6B072CBF6FD72024435
:102D80006FF01F03A16B03EBF213E56B082B41EA15
:102D9000050103D34FEAF212072A01D8226C11432E
:102DA000426922F443021143416100210164626CD3
:102DB000426441F24F32C4F2020290428164C16423
:102DC00001650CDC40F25031C4F20201884212D09D
:102DD00040F2D031C4F2020188420CD00EE041F240
:102DE000D031C4F20201884205D041F25031C4F220
:102DF0000201884202D10021416581650021C1673D
:102E0000A06C012220650020A16584F85420B0BD8B
:102E1000012003221021A16584F85420B0BD0000D8
:102E20002DE9F04300284FF0010318BF002A02D11A
:102E30001846BDE8F0834369012B04D104210161E8
:102E40000120BDE8F083056842EA01030F462B43E9
:102E5000002908BF1746002D18BF2F467B40B3F549
:102E6000803F08D265B195F8203061B191F82070AB
:102E7000BB42E3D107E0052101610120BDE8F083F9
:102E800031B191F8203092F82070BB42D6D100E0E9
:102E9000176A02230373002340F2000C03617B08CE
:102EA000CFF6010C63F3596C63F39A6C07F00203DD
:102EB000002D03F1050E47D0002950D0D0F808901E
:102EC0004FF6FC7311EA03044FF0000755D0B9F137
:102ED000000F4FF0000351D04FF6FF739D430027C2
:102EE0004FF6FC78002345EA07060746002B18BF7B
:102EF00006EB8E073F685E1C4E4507EA080737D28F
:102F0000A74235D045EA070656F82E709E1C4E455E
:102F100007EA08072CD2A7422AD045EA070656F846
:102F20002E70DE1C4E4507EA080721D2A7421FD0AB
:102F300045EA070656F82E6004334B4506EA0807B3
:102F40001CD2A742CFD119E0A1B14FF6FC731A40B1
:102F500042EA0C02016041F82E2002212DE04FF6DA
:102F6000FC71294041EA0C0142F82E10026022E077
:102F7000334603E0026001211FE00023A74209D18C
:102F80004B450DD143687BB14FF6FC74234043EAB7
:102F90000C0307E00621012301611846BDE8F08318
:102FA00051F82E3042F82E304FF6FC731A4042EAA8
:102FB0000C0241F82E20816801318160002301213B
:102FC000036101731846BDE8F083000000284FF04C
:102FD000010218BF002901D11046704790F8543003
:102FE00090F85420052B18BF022A06D14021816594
:102FF000002180F84C10012070470A7B022A03D17F
:10300000012210460A617047026841F24F33C4F250
:1030100002039A4208DC40F25033C4F202039A429F
:103020000ED040F2D03307E041F25033C4F2020335
:103030009A4205D041F2D033C4F202039A420ED133
:10304000036D4A68812B04D12AB1002241671046E2
:103050007047002AF9D004200861012070470A68EF
:1030600092F820209207EBD50320086101207047D9
:103070002DE9F043002804BF0120BDE8F083D0F81B
:1030800000E0BEF1000F07D0416851B1714504BFA7
:103090000020BDE8F08307E0022101610120BDE8C6
:1030A000F0834169012904D1042101610120BDE8B7
:1030B000F0830221017300210161DEF8202040F23B
:1030C000000C5308CFF6010C846863F3596C02F0CE
:1030D000020263F39A6C02F105035CB14FF6FF72D2
:1030E000651E2EEA0202032D04F0030804D2002517
:1030F000002623E0002542E0A4EB080900254FF656
:10310000FC74002615430746002E18BF05EB830705
:103110003D6804362540154355F82350B14505EA6E
:10312000040545EA020555F8235005EA040545EA79
:10313000020555F8235005EA0405E3D1B8F1000F64
:103140001DD042EA05040546002E18BF04EB830596
:103150002D684FF6FC74B8F1010F05EA04050ED096
:10316000154355F82350B8F1020F05EA040506D0BF
:103170002A4352F823204FF6FC7402EA04054FF666
:10318000FF724FF6FC742EEA020204EA0E042A4390
:1031900044EA0C0742F823700122C0F804E0016100
:1031A00002730846BDE8F08380B5002856D0436F0F
:1031B000002B53D090F85410D0F800E00129DEF82D
:1031C00014C004D002294BD11CF4803148D090F8AF
:1031D000541001293AD190F84C1001294FF0020106
:1031E00044D0012280F84C2080F85410197300213B
:1031F00081651961DEF8141041F4BA41CEF814105B
:10320000416E29B1DEF8141041F40071CEF81410AB
:10321000006F28B1DEF8140040F40050CEF814001E
:1032200018680022016ACFF60102490861F3596269
:1032300061F39A624FF6FF7120EA0101CEF80010A7
:103240004FF6FC7108401044CEF87C00DEF8140004
:1032500040F00100CEF81400002080BD012080BDA8
:1032600040218165002180F84C100121084680BD75
:10327000B0B5044601F0D6F9002C04BF0120B0BD62
:10328000054694F8540002282DD12168486940F081
:1032900004004861052084F854000869800408D4BB
:1032A00001F0C0F9401B052824D821680869800472
:1032B000F6D54869012240F002004861042084F8F4
:1032C00054004FF4FE40C86084F8542094F8500035
:1032D00000064FF0000002D5636F1A738864002166
:1032E00084F84C10B0BD2020A0650120002184F896
:1032F0004C10B0BDA06D40F01000A065032084F814
:10330000540094F8500000064FF0010044BF616F74
:103310000873002184F84C10B0BD0000002804BFE1
:103320000120704790F8541002290AD1042180F836
:103330005410006842F204024169114341610020C7
:103340007047202181650120704700000246002857
:103350004FF0010008BF7047126802F57B63C3F3AA
:10336000C41CCB065CBF0020704740F6FF7301F021
:1033700011019A43112900FA0CF004D15168084355
:10338000506000207047516821EA00005060002022
:1033900070470000806D704710B5044600680C222D
:1033A000034600F57B6162F30B03C1F3C4111A6895
:1033B00022FA01F1C90700F0A3800169490544BF61
:1033C00041695FEA41514BD40169090544BF416934
:1033D0005FEA01514CD40169C90444BF41695FEA05
:1033E000C1414DD40169490444BF41695FEA41418B
:1033F0004ED40169890544BF41695FEA81514FD4C8
:103400000169890444BF41695FEA814152D401697D
:10341000C90544BF41695FEAC15172D4A06D00285B
:1034200008BF10BD2068416941F002014161406957
:10343000C0074FF0030008BF012084F8540094F83F
:103440005000000602D5606F01210173A16E0020BB
:10345000002984F84C0053D02046BDE810400847AE
:103460004FF48061C160A16D41F00101A165ABE73E
:103470004FF40061C160A16D41F00201A165AAE7AE
:103480004FF48051C160A16D41F00401A165A9E72D
:103490004FF48041C160A16D41F00801A165A8E72A
:1034A0004FF40071C160616E0029A9D020468847A1
:1034B0002068A5E74FF40051C16094F85410042926
:1034C0002AD1416921F400514161416941F0020171
:1034D00041614169C9074FF0030108BF012184F828
:1034E000541094F85010090604D5616F01220A7334
:1034F00000218164E16E0020002984F84C00ABD1EA
:1035000010BD94F85010090611D4816C002904BF35
:10351000012184F8541013E0052184F85410216F20
:1035200000293FF474AF2046884720686FE7C16FD9
:1035300031B9816C21B9012184F85410626F117383
:103540004FF44071C160216E0020002984F84C00C6
:103550001CBF2046884761E7B0B5044601F062F819
:10356000002C04BF0120B0BD00210546206884F86E
:103570004C10022184F85410416941F00601416168
:103580004169C90709D000BF01F04CF8401B05286C
:103590004FD820684169C907F6D1216A426904F110
:1035A000100C22F4430211434161E3699CE80610C8
:1035B0001A4311434FF6B072CBF6FD7283186FF0C9
:1035C0001F0202EBF31541EA0C02082D4FEAF31C2F
:1035D00028BFBCF1070F14D804F1240E9EE8284040
:1035E0004FF07C7101EB05514FF47C7505EB031333
:1035F00001F07C7142EA0E0203F47C73114341EA4C
:1036000003020264A1682279E3681143226BB3F5D7
:10361000007F42EA010213D0B3F5806F12D1ACF102
:103620002001082928BFBCF1070F98BF42F480622F
:1036300008E0012003211022A26584F85410B0BDD7
:1036400042F40072616B436C42F20015C3F6C04550
:103650000A432B401A4341F24F33C4F2020342643F
:103660000022984282640CDC40F25032C4F2020222
:10367000904212D040F2D032C4F2020290420CD0FA
:103680000EE041F2D032C4F20202904205D041F283
:103690005032C4F20202904202D100224265826599
:1036A0000022C267216501210020A26584F8541020
:1036B000B0BD000010B500284DD090F84CC0BCF152
:1036C000010F04BF022010BD4FF0010C80F84CC068
:1036D00090F854C0BCF1010F38D14FF0020C80F8C3
:1036E00054C04FF0000CC0F858C0D0F800C0D0F85B
:1036F00064E0DCF84840BEF1000FC3EA0403CCF8F4
:1037000048304FF4FE43CCF80C30CCF84C10CCF8D9
:103710005020DCF8141041F4BA41CCF8141005D054
:10372000DCF8141041F40071CCF81410006F28B1CB
:10373000DCF8140040F40050CCF81400DCF814005D
:1037400040F00100CCF81400002010BD402181653C
:10375000002180F84C10012010BD0000B0B50446D7
:1037600000F060FF054640F26800C2F200000078F9
:10377000611C18BF044400BF00F054FF401BA0426E
:10378000FAD3B0BD2DE9F04F81B040F2900BC2F2F8
:10379000000B9BF80020012A02BF022001B0BDE807
:1037A000F08F044601208BF8000000264FF47A7059
:1037B0008946CBF80460FFF751F920B18BF800601F
:1037C00001B0BDE8F08F206848F2080220F0004107
:1037D00042F228079142C4F20207CBF8080007D151
:1037E000606800F00301032936D148F2200042E06E
:1037F0004FF0FF30C9F80000D4E902502844854258
:1038000041D24FF6D77A4EF23F08C7F6FF7AAE01A3
:10381000C7F6FF786068414610F00100386808BFBD
:103820006FF4FE514FF0240200EA0100386038685E
:1038300008BF0AF14D023043104338604FF47A70EC
:10384000FFF70CF908BBD4E9020101354036084402
:103850008542DFD300201AE0C1074FF6D771C7F6C3
:10386000FF7104D03A680A4042F028023A608007AB
:1038700004D501F151003968084338604FF47A707B
:10388000FFF7ECF804E0002002E0C9F80050002641
:1038900021684FF000423B6862EA0101194039603B
:1038A0008BF8006001B0BDE8F08F000040F290009E
:1038B000C2F200004068704742F22800C4F20200E1
:1038C000016841F0010101600068012121EA000066
:1038D000704700002DE9F04381B040F29009C2F238
:1038E0000009154699F80020012A02BF022001B004
:1038F000BDE8F0838046012089F80000002042F2F4
:1039000020040E46C4F20204C9F8040000F08AFE46
:10391000216811F00B0F0BD0074600BF00F082FEAC
:10392000C01BB0F57A7F14D8206810F00B0FF5D1CA
:10393000206810F41E0013D0D9F804100143C9F810
:10394000041020610120002189F8001001B0BDE8B9
:10395000F0830320002189F8001001B0BDE8F08356
:103960002068C00344BF4FF48030206128F000403D
:103970000228C9F8088017D1A06840F00200A060B2
:10398000EFF3108072B62968316069687160A968C8
:10399000B160E968F16080F3108800F043FE2168AF
:1039A00011F00B0F0CD117E0A06840F00200A060EE
:1039B0002888308000F036FE216811F00B0F0BD004
:1039C000054600BF00F02EFE401BB0F57A7F0FD8F1
:1039D000206810F00B0FF5D1206810F41E0009D0FC
:1039E000D9F804100143C9F804102061012008E04F
:1039F000032006E02068C00344BF4FF480302061FC
:103A000000204FF02041A26861EA08011140A16046
:103A1000002189F8001001B0BDE8F08342F20400F3
:103A2000C4F20200416AC90704BF0020704740F297
:103A30002311C4F26751016048F6AB11CCF6EF5187
:103A40000160406A00F0010070470000704700000C
:103A5000B0B542F20C05C4F20245296804460142A1
:103A600003D020462C6000F00BF86868204208BFA5
:103A7000B0BD20466C60BDE8B040FFF7E7BF000076
:103A80002DE9F04F83B040F26821C2F20001898A2B
:103A900040F2444840F6281B40F2901540F2B854DA
:103AA0008142C2F20008C2F2000BC2F20005C2F26B
:103AB000000452D1DBF80000D8F85C10406A3222D2
:103AC00001FB0200D5E91012401A4FF000019141AC
:103AD000C5E9120140F2682005F16401C2F200005C
:103AE0000C2205F065F9216A95F8643095F8652097
:103AF000084495F86610206295F8670013440B445B
:103B000095F8687003443B4495F8697095F86A60CD
:103B10003B4495F86B70334495F86C603B4495F8E2
:103B20006D70334495F86E603B44334495F86F7084
:103B3000DEB240F21019B742C2F2000989F86C30C7
:103B40000BD140F2000AC2F2000ABAF80C30DFB220
:103B5000BA4208BFB1EB132F10D0A06AD8F85C109E
:103B60000130A062DBF800003222406A01FB020053
:103B70000021C5E9140103B0BDE8F08F99F8651084
:103B8000012903D09AF808108842E6D100F04AFDD6
:103B900099F84510C8F86C0001291BD195F8670009
:103BA0009AF80610884215D000F03CFD40F6000659
:103BB000C4F20226C8F8700030460821002200270F
:103BC00000F02AFD06F580600421002200F024FDAB
:103BD00089F8457095F867009AF80610884203D076
:103BE00000F020FDC8F8700099F80C00F8B1FF2231
:103BF000294601F8582FBAF80C20C8704A70130AE9
:103C000002EB12228B7010444FF0FF324A60C1F871
:103C10000720626A0838C872501C606240F268204F
:103C2000C2F200000C220F2305F02AFA95E795F85E
:103C300067009AF8001088424DD199F83B1000298E
:103C400040F0F181B9F87210002940F0EC8199F848
:103C50006D10012940F0E781DAE909EC95F8682058
:103C600095F8693095F86A1040F2D027C2F2000743
:103C7000964589F86E20798389F86F3040F0858009
:103C80009C4540F085800122294601F8582FBAF85A
:103C90000C20C8704A70130A02EB12228B70104479
:103CA00070446044626A05384FF0FF33C872501C9C
:103CB000C1F80630FE23606240F268208B72C2F2C7
:103CC00000000C220F2381F804E081F805C005F004
:103CD000D7F90920D3E19AF80110884229D140F29E
:103CE000D026C2F20006716B002940F09C8199F841
:103CF0006D10012940F0978199F81710012940F0C3
:103D00008D810122294601F8582FBAF80C30C8706D
:103D10004B701F0A03EB13238F70376C18440F711D
:103D20004A7138444FF0FF320338C1F806208A72D6
:103D300066E29AF80210884240F0018199F8371043
:103D400099F8392099F83B301143194340F06B81C1
:103D500040F20111A9F837100122294601F8582F25
:103D6000BAF80C3089F83B204B701A0A03EB132386
:103D70008A700022C8700A7118444FF0FF3205386B
:103D8000C1F80520A1F809203AE29C4540F0508195
:103D900099F81710012909D10021012789F8171076
:103DA00089F8637089F8701089F8031041F288313E
:103DB000CAF838100021012789F81E106163C4F881
:103DC00037102946BAF80C6001F8587F89F8077057
:103DD00089F83B7089F84470370A8F7006EB162714
:103DE000C87038440A7110444FF0FF321844C1F8CB
:103DF00006208A72626A0438C872501C606240F2FF
:103E000068204B71C2F200000C220F234E7005F0A7
:103E100037F999F86E0099F86F1040F2D026C2F287
:103E20000006C6E9110105F09DFE01203063F06334
:103E300000207065CAF82C0095F867009AF8051004
:103E4000884200F0F0819AF80610884240D199F833
:103E5000711000297FF481AE0122294601F8582F04
:103E6000BAF80C3089F871204B701A0A40F2D02C45
:103E700003EB13238A7099F82220C2F2000CC87059
:103E8000BCF80460184410443044BCF8067000EBE1
:103E9000162099F821E038440A71FF2200EB172020
:103EA0008A72626A7044C872501C606240F2682074
:103EB000C2F200000C220F23A1F80560A1F80770E0
:103EC00081F809E005F0DCF8002089F8710044E68B
:103ED0009AF80710884240F08C8099F81710012951
:103EE00008D199F8701029B9202189F80110012111
:103EF00089F870100122294601F8582FBAF80C20D1
:103F0000C8704A70130A02EB12228B7099F80330C2
:103F100010444FF0FF321844C1F80520A1F80920E1
:103F2000626A0538C872501C606240F268200B71EA
:103F3000C2F200000C220F2305F0A2F80DE69AF859
:103F40000310884240F0A58095F86810662904BFE8
:103F5000012189F82A10B9F87210002900F0CB80ED
:103F600002222946BAF80CE001F8582F4FEA1E2227
:103F700002928A7040F2C04299F84630C2F20002C2
:103F800002F1500781F801E0C870012B08BF02F16F
:103F90005C073F68012B4FEAE77607EB16620F716B
:103FA00001924FEA222C40F2C042C2F2000281F894
:103FB00005C002F1540C08BF02F1600CDCF80030BF
:103FC0004FF0000CDE1703EB16668B713212CA71CC
:103FD000029AA1F808C052FA8EF281F80AC0104481
:103FE000019A384400EB2220184400EB26200230CE
:103FF00006E19AF8081088427FF4AFAD95F8681092
:10400000002900F0C780012940F0E78099F81410DA
:10401000012940F0E58109F10D01FAE199F83B1021
:10402000002900F09F80606A05F158010130EAE044
:104030000022294601F8582FBAF80C20C8704A709F
:10404000130A02EB12228B70104470446044626ABF
:1040500006384FF0FF33C872501CC1F80630FE23FB
:10406000606240F268208B72C2F200000C220F23C3
:1040700081F804E081F805C005F002F80A2089F80B
:10408000680095F867009AF80510884200F0CB8028
:10409000D9E69AF80410884240F0BE8044F62061C8
:1040A000CAF83810032189F8071001222946BAF806
:1040B0000C7001F8582F4FEA172C4F705CFA87F7F5
:1040C00089F86D200A7C40F2D0264B7CC870C2F281
:1040D00000063844366C104418443044CAF8242092
:1040E0000A7103384FF0FF32CAF8283081F802C055
:1040F0004B718E7182E099F81E10012970D1012256
:10410000294601F8582FBAF80C20C870130A8B7092
:1041100094F834304A7002EB1222029394F837C0BC
:104120001044029A94F8357094F83660CDF804C0C3
:1041300010443844019A94F838E0304481F807C0BC
:1041400094F839C010440B7194F83A3070446044CC
:1041500018444F718E7181F808E081F809C08B72A4
:1041600001304DE095F86820336CF264934240F0E2
:1041700004810123294601F8583FBAF80C70C87031
:104180004F703E0A07EB17278E70384410440A71AF
:104190004B71C7E599F81410012940F03E81B9F838
:1041A0007210002940F0398199F80F1099F8102009
:1041B00099F811301143194340F02F8140F6000067
:1041C000C4F202204FF480710122012600F024FA8B
:1041D0009AF8080089F80D6020E195F858601FE111
:1041E0000022294601F8582FBAF80C30C8704B70DD
:1041F0001F0A03EB13238F7018444A60C1F807208D
:10420000626AC872501C606240F26820C2F200000C
:104210000C220F2304F034FF95F867009AF805107C
:1042200088427FF410AE99F86D1001290AD1B9F8CF
:104230007210002902BF99F83B1099F84C2051EAFE
:1042400002010DD0606A05F158010130606240F250
:104250006820C2F200000C220F2304F011FF7CE45E
:10426000DAE9093295F8687095F86910BB4289F867
:104270004D7089F84E102AD18A422AD10127294649
:1042800001F8587FBAF80C70C8704FEA172C4F70BD
:104290005CFA87F799F82160384418444A71104451
:1042A0004FF0FF323044C1F80720626A0338C87209
:1042B000501C606240F268200B71C2F200000C22B8
:1042C0000F2381F802C08E7104F0DAFE45E48A42C1
:1042D00029D10127294601F8587FBAF80C6089F8DE
:1042E0003B704E70370A06EB1626C87030441844EF
:1042F0004A7110444FF0FF32C1F80720626A033858
:10430000C872501C606240F268208F700B710027E9
:10431000C2F200000C220F238F7104F0B1FE05F0F1
:104320007FFAFFF71ABC0027294601F8587FBAF830
:104330000C70C8704FEA172C4F705CFA87F799F829
:104340002160384418444A7110444FF0FF32304421
:10435000C1F80720626A0438C872501C606240F2DB
:1043600068200B71C2F200000C220F2381F802C0FA
:104370008E7104F085FEFFF7F0BB0127294601F896
:10438000587FBAF80C2089F83B704A70170A02EB84
:104390001222C87010444FF0FF321844C1F80620B2
:1043A0008A72626A0438C872501C606240F26820E7
:1043B0008F700B710027C2F200000C220F234F7187
:1043C00004F05EFE0120C6E90D007765CAF82C7086
:1043D00095F867009AF8051088423FF424AF32E55B
:1043E00099F86610022289F80D20A1B9012140F246
:1043F000D022A9F866100021C2F20002A9F87210BA
:10440000516389F84410C9F80E1089F81F1009F19A
:10441000230100220A70012600E0002685F858607A
:10442000BAF80C2085F85B00B71885F85920130AF4
:1044300007EB122285F85A3099F8143010444FF0E7
:10444000FF321844C5F85D20A5F86120626A06387D
:1044500085F86300501C606240F2682005F1580145
:1044600085F85C30C2F200000C220F2304F008FE35
:10447000FFF773BB2DE9F04F82B00C68002C00F001
:10448000C28047F67F72C0F22F0202EA90224FF0FC
:1044900001090092002200260027012501900FE06B
:1044A000BCF1030F5FD100BF0C68083734FA05F385
:1044B00005F1010506F1020602F1040200F0A380F5
:1044C000A5F1010A09FA0AFE14EA0E0BECD0D1F8A4
:1044D00004C04CF01004122C1FD16FF0030303EA48
:1044E0005A0402F01C0300EB0409D9F820C0584616
:1044F000D1F810B00F2404FA03F80BF00F042CEAE3
:10450000080C04FA03F343EA0C0383460198C9F844
:104510002030D1F804C04FF0010903680324B440EF
:104520006FEA0408A3430CF00304B4402343BCF136
:10453000120F036017D809FA0CF313F0061FAFD05F
:104540008368CC6803EA0803B4402343836043686C
:104550004FEA1C1423EA0E0304FA0AF42343BCF1C5
:10456000030F4360A0D0C3688C6803EA0803B4401B
:1045700023435FEACC04C36096D542F200082AF0D8
:104580000303C4F2024808EB030EDEF860C007F034
:1045900018040F23A3402CEA030C009B03FA04F435
:1045A0004CEA0403CEF86030D8F800C0D1F804E03B
:1045B0004CEA0B035FEACE2458BF2CEA0B03C8F881
:1045C0000030D8F804C05FEA8E234CEA0B0458BFD1
:1045D0002CEA0B04C8F80440D8F884C05FEA8E3394
:1045E0004CEA0B0458BF2CEA0B04C8F88440D8F8F6
:1045F00080C05FEACE334CEA0B0458BF2CEA0B04B0
:10460000C8F8804050E702B0BDE8F08F006908406C
:1046100018BF0120704700001823002A08BF282374
:10462000C150704740F66840C2F200000068704711
:1046300040F2680040F66841C2F20000C2F2000198
:1046400000780A68104408607047000080B50320B5
:1046500000F086F801F03AFB40F62041C4F2024136
:10466000096843F6203201F00F01C0F60102515CE7
:10467000C84040F27001C2F2000108600F2000F053
:1046800009F800281CBF012080BD00F02BF8002095
:1046900080BD000070B540F26806C2F200063178B5
:1046A000002904BF012070BD044640F27000C2F230
:1046B00000004FF47A720068B2FBF1F1B0FBF1F048
:1046C00002F0CCFA0F2C4FF0010508D838B94FF0A2
:1046D000FF3021460022002500F016F874602846BD
:1046E00070BD000070470000002848BF704700F010
:1046F0001F01012202FA01F14EF200124009CEF22E
:10470000000242F82010704710B54EF60C5CCEF255
:10471000000CDCF80030C3F3022E8EF00704042CEA
:1047200028BF0424BEF103034FF0FF3E38BF00232F
:104730000EFA04F4A14399400EFA03F39A4300F0F1
:104740000F03043B1143634409010C3300F1604241
:10475000B0F1FF3FC8BF02F56443197010BD0000FF
:104760004EF60C51CEF200010A684FF6FF031A40D4
:1047700060F30A2242F0806040F0FD7008607047EC
:1047800008F07AF810B540F6284CC4F2024CDCF878
:104790000CE0DCF80010DCF80030C3F30523DCF893
:1047A0000020DCF8104002F01002C4F3CC0404FB3B
:1047B00002F200EE102AB8EE400A9BB301F00301AA
:1047C00003296FF35F2E32D0022939D001295CF81A
:1047D000281C49F20002C1F3C101C0F2D03222FA12
:1047E00001F101EE101A02EE103AB8EE411AB8EEDD
:1047F000422A4FF0645181EE021A02EE10EA03EEF3
:10480000101AB8EE422A20EE030A30EE020AB7EE82
:10481000002A30EE022A5CF8281C22EE010A8901E7
:1048200034D52FE00021C0E90011816010BD01EEF8
:10483000103A42F20041B8EE411AC4F6F42107E002
:1048400001EE103A42F20041B8EE411AC4F674216A
:1048500002EE101A4FF0645182EE012A01EE10EAC6
:1048600003EE101AB8EE411A20EE030A30EE010AE8
:10487000B7EE001A30EE011A5CF8281C22EE010A8D
:10488000890103D5DCF80010C90306D400210160BA
:104890005CF8281C890117D41AE0DCF80C10B7EE7C
:1048A000002AC1F3462101EE101AB8EE411A31EE8A
:1048B000021A80EE011ABCEEC11A11EE101A016044
:1048C0005CF8281C890103D5DCF80010890301D4A9
:1048D000002111E0DCF80C10B7EE002AC1F306410C
:1048E00001EE101AB8EE411A31EE021A80EE011AEA
:1048F000BCEEC11A11EE101A41605CF8281C890147
:1049000044BFDCF800105FEA413102D4002181602D
:1049100010BDDCF80C10B7EE002AC1F3066101EE01
:10492000101AB8EE411A31EE021A80EE010ABCEEFE
:10493000C00A10EE101A816010BD000010B540F6DC
:104940002C4CC4F2024CDCF810E0DCF80010DCF86F
:104950000030C3F30523DCF80020DCF8144002F03B
:104960001002C4F3CC0404FB02F200EE102AB8EEED
:10497000400A9BB301F0030103296FF35F2E32D08D
:10498000022939D001295CF82C1C49F20002C1F33C
:10499000C101C0F2D03222FA01F101EE101A02EE8A
:1049A000103AB8EE411AB8EE422A4FF0645181EE47
:1049B000021A02EE10EA03EE101AB8EE422A20EEB6
:1049C000030A30EE020AB7EE002A30EE022A5CF843
:1049D0002C1C22EE010A090134D52FE00021C0E988
:1049E0000011816010BD01EE103A42F20041B8EEB4
:1049F000411AC4F6F42107E001EE103A42F20041F8
:104A0000B8EE411AC4F6742102EE101A4FF0645148
:104A100082EE012A01EE10EA03EE101AB8EE411AF6
:104A200020EE030A30EE010AB7EE001A30EE011A4A
:104A30005CF82C1C22EE010A090103D5DCF80010F9
:104A4000C90306D4002101605CF82C1C090117D4AD
:104A50001AE0DCF81010B7EE002AC1F3462101EE8F
:104A6000101AB8EE411A31EE021A80EE011ABCEEAD
:104A7000C11A11EE101A01605CF82C1C090103D553
:104A8000DCF80010890301D4002111E0DCF81010DB
:104A9000B7EE002AC1F3064101EE101AB8EE411A32
:104AA00031EE021A80EE011ABCEEC11A11EE101A94
:104AB00041605CF82C1C090144BFDCF800105FEA7F
:104AC000413102D40021816010BDDCF81010B7EE36
:104AD000002AC1F3066101EE101AB8EE411A31EE58
:104AE000021A80EE010ABCEEC00A10EE101A8160B4
:104AF00010BD000080B584B04FF6FF730246C0F2CF
:104B00001F0300209B1A70EB01034FDA6FF0604324
:104B10009B1A70EB0103C0F297806FF07C439B1AE5
:104B20004FF000038B4180F2E88082F080630B43FA
:104B300000F0A18182F000630B4300F0B18182F0AC
:104B40008052114340F0D28240F60041C4F202414B
:104B5000D1F8E000C0F3C202042A00F2EE820FF2A4
:104B6000100000EB820348F20000C0F2BB009F4639
:104B700000F0F2BA00F0B4BA00F0DFBA00F0B6BA52
:104B800000F000B8D1F8E8000B6810F04042086867
:104B900003D113F0020340F05383B2F1804F40F091
:104BA000778310F4007040F06D8371E341F6FF737A
:104BB0009B1A70EB01036CDA4FF6FF739B1A4FF0F0
:104BC00000038B4180F2DB8082F480330B4300F0E2
:104BD000998182F400330B4300F0B08182F480228B
:104BE000114340F0838240F60041C4F20241D1F803
:104BF000DC00C0F302320020052A00F277820FF2B7
:104C0000080303EB82039F4600F08DBA00F068BAF8
:104C100000F06CBA00F0B6BA00F0BCBA00F000B810
:104C2000D1F8E8000B6810F04042086803D113F097
:104C3000020340F00583B2F1804F40F0298310F465
:104C4000007040F01F8323E30F2940F3C78081F0F9
:104C50001003134300F0948181F40073134300F0B8
:104C6000AD8181F48051114340F0408240F6004113
:104C7000C4F20241D1F8E40000F04060B0F1806F6E
:104C800000F00A82002800F077810A68B0F1006F16
:104C90004AE1D2F103034FF000038B41C0F2BD8023
:104CA00082F001030B4300F09D8182F00202114368
:104CB00040F01C8240F60040C4F20240D0F8D81008
:104CC00011F0380100F02F820268082903D112F098
:104CD000006240F0358203680268182903D113F09E
:104CE000020340F01D82202903D112F4007240F02B
:104CF000C982D0F8F0002829B6E282F400130B43F1
:104D000000F0938182F00072114340F0EF8140F691
:104D10000041C4F20241D1F8F000D1F8F02000F4D3
:104D20004070B0F5807F03D112F0020240F056814E
:104D3000D1F8F020B0F5007F06D112F000621EBF5E
:104D40004FF4FA4004B080BD0A68B0F5407F4FF0E0
:104D5000000040F0CB8112F4003200F0C781C86936
:104D600010F4785F00F0E981C86941F20021C0F3D6
:104D70000520C0F27A01B1FBF0F004B080BD82F4EE
:104D800000530B4300F0658182F48042114340F0F0
:104D9000AD8140F60040C4F20240D0F8E41001F4C6
:104DA0004021B1F5802F00F07781002900F0BB8110
:104DB00002680068B1F5002F03D112F0020240F042
:104DC0003F8210F400701CBF40F60010C0F23D009E
:104DD000B1F5402F18BF002004B080BD82F0005311
:104DE0000B4300F05F8181F00401114340F07E81AC
:104DF00040F60041C4F20241D1F8E800096810F41D
:104E0000407040F0948111F4003100F0908141F243
:104E10000020C0F27A0004B080BD82F004030B438E
:104E200000F0668182F48052114340F05F8140F6C9
:104E30000040C4F20240D0F8E01001F0E061B1F1AE
:104E4000807F00F07D81002900F096800368026871
:104E5000B1F1407F03D113F0020340F06181B1F161
:104E6000806F03D112F4007240F00C82D0F8F00091
:104E7000B1F1A06FF8E140F60040C4F20240D0F872
:104E8000E810026811F0300140F0608112F4005225
:104E900000F05C8146F60040C0F2DC2004B080BD2A
:104EA00040F60041C4F20241D1F8E00000F00702F0
:104EB000042A00F242810FF2100000EB820348F254
:104EC0000000C0F2BB009F4600F046B900F008B9F0
:104ED00000F033B900F00AB900F000B8D1F8E800EA
:104EE0000B6810F04042086803D113F0020340F051
:104EF000A781B2F1804F40F0CB8110F4007040F0F8
:104F0000C181C5E140F60041C4F20241D1F8E4009C
:104F100000F04070B0F1807F00F0BE80002800F00B
:104F200002810A68B0F1007F4FF0000040F0DE809F
:104F300012F0020200F0DA80086881E140F60041D8
:104F4000C4F20241D1F8DC00C0F302220020052A9D
:104F500000F2CC800FF2080303EB82039F4600BFF0
:104F600000F00AB800F0BCB800F0C0B800F00AB910
:104F700000F010B900F05AB900F084FE04B080BD12
:104F800040F60040C4F20240D0F8E41001F03001D5
:104F9000102900F0E1800268202903D112F000629C
:104FA00040F0CE80006810F400501CBF46F6004070
:104FB000C0F2DC20302918BF002097E040F6004006
:104FC000C4F20240D0F8E810D0F8F02011F0080147
:104FD00040F0C88012F0020200F0C4804FF400409C
:104FE00004B080BD40F60040C4F20240D0F8D810B2
:104FF00011F0070100F0C2800268012903D112F00C
:10500000006240F09D8003680268032903D113F019
:10501000020340F08580042903D112F4007240F0AD
:105020003181D0F8F00005291EE140F60040C4F2BD
:105030000240D0F8E81001F0070102292CD0012924
:1050400000F0B180002940F0B28000F0BBFD04B058
:1050500080BD40F60040C4F20240D0F8E41001F4F4
:105060004031B1F5803F17D000295CD0026800685C
:10507000B1F5003F03D112F0020240F0E18010F4DC
:1050800000701CBF40F60010C0F23D00B1F5403F7B
:1050900018BF002004B080BD01A8FFF74FFC0398A3
:1050A00004B080BD40F60041C4F20241D1F8E000F6
:1050B000C0F38212042A40D80FF2100000EB8203E2
:1050C00048F20000C0F2BB009F4600BF00F044B8A9
:1050D00000F006B800F031B800F008B800F095B85C
:1050E00001A8FFF72BFC019804B080BD04B080BD7F
:1050F00040F60040C4F20240D0F8D81011F4E0713C
:1051000011D00268402902D112F0006218D1036860
:105110000268C02940F09E8013F0020300F09A80DC
:10512000C2F3C1008EE000F065FD04B080BDB0F5B3
:10513000007F05D0B0F5807F0ED0002004B080BD88
:1051400001A8FFF7FBFB029804B080BD026810299C
:1051500047D112F0007244D001A8FFF713FB029868
:1051600004B080BDD0F8F00010F0006018BF4FF41C
:10517000FA40002908BF084604B080BD00F05EFD7B
:1051800004B080BDD1F8F0004FF4004101EA803056
:1051900004B080BDD1F8F0004FF4FA41000101EAFB
:1051A000E07004B080BD00F091FD04B080BD0268E5
:1051B000032903D112F400327FF429AE026800689B
:1051C000042902D112F002023AD110F400701CBF7F
:1051D00040F60010C0F23D00052918BF002004B0C1
:1051E00080BDD0F8F020202903D112F002027FF414
:1051F000F5AED0F8F00010F0006018BF4FF4FA40A0
:10520000302918BF002004B080BDD1F8E8000B6839
:1052100010F04042086802D113F0020310D1B2F13D
:10522000804F35D110F400702CD131E0D1F8E80076
:105230000B6810F0404208681ED113F002031BD027
:10524000C0F3C10049F20001C0F2D03121FA00F0F0
:1052500004B080BDB1F5807F02D112F4007211D18B
:10526000D0F8F000B1F5A07F00F002024FF000008E
:1052700008BF900304B080BDB2F1804F08D110F494
:10528000007005D040F60010C0F23D0004B080BDB3
:10529000086810F400301CBF41F20020C0F27A0010
:1052A000B2F1004F18BF002004B080BD2DE9F047D7
:1052B0000446006840F62848C101C4F2024807D5F8
:1052C000D8F8C010226B21F040411143C8F8C0103B
:1052D000C00714D0606BC11E032909D340B1012857
:1052E00013D104F1080004F0BBFC064640B9606B22
:1052F000D8F8B01021F007010843C8F8B000002624
:105300002078800705D4354621E0012620788007E3
:10531000F9D5A06B6FF0020101EBF00135460329CE
:105320000AD34FEAF000354630B1012830D104F1FC
:10533000080004F095FC05462F464DB9D8F8B0009A
:10534000A16B20F0380008430025C8F8B0003746AC
:105350002078400721D5E06B6FF0020101EBB0111E
:10536000032909D34FEAB01030B1012836D104F136
:10537000080004F075FC05462E467DB9D8F8B0004B
:10538000E16B20F4E07008430025C8F8B00004E0A9
:105390000125012720784007DDD43E466078C0060D
:1053A00021D5206C6FF0020101EB3061032909D394
:1053B0004FEA306030B101283CD104F1080004F01C
:1053C0004FFC05462F467DB9D8F8B800216C20F077
:1053D000E06008430025C8F8B80004E00125012674
:1053E0006078C006DDD437466078800627D5606CCB
:1053F0006FF0010101EB3041022909D34FEA30403F
:1054000030B1012810D104F1080004F029FC054650
:105410002E465DB9D8F8BC00616C20F440300843DA
:105420000025C8F8BC000AE0012501266078400686
:1054300009D424E00125012760788006D7D43E46B0
:10544000607840061BD5A06C6FF0010101EBB04104
:10545000022909D34FEAB04030B1012830D104F11C
:10546000080004F0FDFB05462F464DB9D8F8BC00F6
:10547000A16C20F4402008430025C8F8BC00374642
:10548000A078C00721D0E06C002818BFB0F1007FE1
:105490000BD12E46D5B9D8F8BC00E16C20F0407095
:1054A00008430025C8F8BC000FE0B0F1807F2DD183
:1054B00004F1080004F0D4FB05462E4635B9EAE7AE
:1054C00001250127A078C007DDD13E466079C006DE
:1054D00021D5206D002818BFB0F1006F0BD12F46E9
:1054E000D5B9D8F8BC00216D20F0406008430025F4
:1054F000C8F8BC000FE0B0F1806F61D104F1080082
:1055000004F0AEFB05462F4635B9EAE70125012632
:105510006079C006DDD43746D4E9000140F61C4A64
:10552000C4F2024A09050CD5DAF8001021F4004152
:10553000CAF80010D4F88010DAF800201143CAF835
:10554000001080031BD5606D6FF0020101EB30216C
:10555000032909D34FEA302030B1012833D104F1B7
:10556000080004F07DFB05462E464DB9D8F8B4007E
:10557000616D20F4E06008430025C8F8B4003E46A1
:10558000A078400724D5A06D6FF0020101EB303107
:10559000032909D34FEA303030B1012828D104F172
:1055A000080004F05DFB05462F4695B9D8F8B40015
:1055B000A16D20F4E04008430025C8F8B40007E0DE
:1055C00001250127A8E701250126A0784007DAD4A4
:1055D0003746A078800610D5606E052828D80228A6
:1055E0002DD029469DB3D4E9000292050AD43CE0AF
:1055F00001250127A0788006EED43946D4E90002BF
:10560000920532D5A26E42F00803082B0AD1A946B2
:105610005DB9D8F8C030002523F008031A43C8F854
:10562000C02022E001254FF00109800120D47AE05A
:1056300001250121D4E900029205E3D415E004F12B
:10564000080004F00DFB0546002D2946CBD1D8F803
:10565000C000616E20F0070008430025C8F8C000B4
:105660003946D4E900029205CCD4894680015AD546
:105670004FF60847CFF6FF775AF8070040F00100D1
:105680004AF80700FEF7CEFF064600BF5AF80700AB
:10569000C00707D1FEF7C6FF801B0228F6D90325F5
:1056A000032041E0002D28463ED1D8F8C80010F470
:1056B000407017D0A16F884211D0D8F8C800D8F830
:1056C000C81020F4407041F48031C8F8C810D8F8F0
:1056D000C81021F48031C8F8C810C8F8C800C00745
:1056E00040F02A81A06FDAF800104FF6CF7300F473
:1056F000407221F47C51C0F2FF0303EA1013B2F5AB
:10570000407F08BF1943CAF80010D8F8C8106FF3DB
:105710001F3021F44071C8F8C810D8F8C81000250F
:105720000843C8F8C800484621684A011BD5226EC4
:105730006FF0010303EB3213022B0AD34FEA32134B
:105740003BB1012B2ED1D8F8003043F40033C8F818
:1057500000302F4645B9D8F8C030002523F030037B
:105760001A43C8F8C020074608011FD5E06EC11EC5
:1057700002290BD3012800F0B880002840F0BF8038
:10578000D8F8000040F40030C8F800002E4675B983
:10579000D8F8B800E16E20F0070008430025C8F8EB
:1057A000B80003E0012501270801DFD43E46E07878
:1057B000C0061FD5206F6FF0020101EBF001022936
:1057C0000DD34FEAF000012800F09C80002840F043
:1057D000A380D8F8000040F40030C8F800002F463D
:1057E0004DB9D8F8B800216F20F0380008430025E3
:1057F000C8F8B8003746E07880061FD5606F6FF0B4
:10580000020101EBB01102290DD34FEAB0100128BB
:1058100000F08580002840F08C80D8F8000040F42B
:105820000030C8F800002E464DB9D8F8B800616FB6
:1058300020F4E07008430025C8F8B8003E462079FF
:10584000400720D5E06D58B1B0F5007F0BD0B0F522
:10585000807F47D1D8F8000040F40030C8F800003D
:105860002F468DB906E004F1080004F0F9F9054669
:105870002F464DB9D8F8C000E16D20F440700843C0
:105880000025C8F8C00037462079C0065CBF3846FE
:10589000BDE8F087E06F30280DD020280FD0102809
:1058A0001EBF01252846BDE8F087D8F8000040F467
:1058B0000030C8F800004DB12846BDE8F08704F17B
:1058C000080004F0CDF90546002DF5D1D8F8BC004C
:1058D000E16F20F0300008433D46C8F8BC00284680
:1058E000BDE8F08701250127CEE704F1080004F0A8
:1058F000B7F90546002D2E467FF459AF48E701253C
:10590000012654E704F1080004F0AAF90546002D29
:105910002F467FF470AF64E7012501276BE704F1A0
:10592000080004F09DF90546002D2E467FF487AF50
:105930007BE70125012682E7FEF774FE064641F269
:1059400088370325D8F8C80080073FF5CBAEFEF7AF
:1059500069FE801BB8424FF00300F3D9E4E6000073
:105960002DE9F04381B0002800F0CA8042F200081F
:10597000C4F202080446D8F800000D4600F00F00FB
:1059800088420DD2D8F8000020F00F002843C8F854
:105990000000D8F8000000F00F00A84240F0B080EE
:1059A000206840F62047C106C4F202470CD5616961
:1059B0003A68702303EA1222914205D93A6822F428
:1059C000E04242EA0121396001070CD521693A68B9
:1059D000702303EA1212914205D93A6822F4E06278
:1059E00042EA0111396041070AD5E1683A6802F0DC
:1059F0007002914204D93A6822F070021143396072
:105A000081070AD5A1683A6802F00F02914204D9D1
:105A10003A6822F00F0211433960C00767D120684D
:105A200081070AD5A1683A6802F00F02914204D2B8
:105A30003A6822F00F0211433960D8F8001001F0E3
:105A40000F01A9420CD9D8F8001021F00F01294309
:105A5000C8F80010D8F8001001F00F01A9424FD18A
:105A600041070AD5E1683A6802F07002914204D217
:105A70003A6822F070021143396001070CD52169A0
:105A80003A68702303EA1212914205D23A6822F46E
:105A9000E06242EA01113960C0060CD560693968DC
:105AA000702202EA1121884205D2396821F4E041CE
:105AB00041EA0020386000F009F9396843F62032E5
:105AC00001F00F01C0F60102525C40F26C01C2F21B
:105AD0000001096840F2700320FA02F2C2F20003EA
